:020000040800F2
:100000000000052091490008CD5F0008E149000883
:10001000E1490008E1490008E1490008000000004A
:1000200000000000000000000000000061BB0008AC
:10003000DB5F00080000000001BE0008B15F00089F
:10004000E1490008E1490008E1490008E1490008E8
:10005000E1490008E1490008615D00086D5D0008A4
:10006000795D0008855D0008915D00081D5000085D
:100070003150000845500008595000086D500008E4
:100080008150000895500008E14900080554000817
:10009000195400082D540008415400089D5D0008C3
:1000A000E1490008E1490008E1490008E149000888
:1000B000E1490008E1490008E1490008A15E0008A3
:1000C000D15E0008B95E0008E95E0008E149000859
:1000D000E1490008E1490008E1490008E149000858
:1000E000AB5D0008E1490008E1490008E14900086A
:1000F000E1490008E1490008E1490008A950000869
:10010000E1490008E1490008E1490008E149000827
:10011000E1490008E1490008E1490008E149000817
:10012000BD500008D1500008E5500008F950000803
:100130000D510008E1490008E14900085554000844
:10014000695400087D54000891540008E1490008F2
:10015000215100083551000849510008E1490008C3
:10016000E1490008E1490008A5540008B954000815
:10017000CD540008E1540008000000000000000019
:10018000E1490008E1490008E1490008E1490008A7
:10019000E1490008E149000800000000E1490008C9
:1001A000E1490008E14900080000000000000000EB
:1001B000056000080000000000000000E1490008A0
:1001C000E1490008E1490008E1490008E149000867
:0801D000E1490008E1490008C3
:1001E00081F0004102E000BF83F0004330B54FEAE8
:1001F00041044FEA430594EA050F08BF90EA020F55
:100200001FBF54EA000C55EA020C7FEA645C7FEAE7
:10021000655C00F0E2804FEA5454D4EB5555B8BF0A
:100220006D420CDD2C4480EA020281EA030382EA7B
:10023000000083EA010180EA020281EA0303362D0D
:1002400088BF30BD11F0004F4FEA01314FF4801CE0
:100250004CEA113102D0404261EB410113F0004FF2
:100260004FEA03334CEA133302D0524263EB4303A9
:1002700094EA050F00F0A780A4F10104D5F1200E47
:100280000DDB02FA0EFC22FA05F2801841F10001A2
:1002900003FA0EF2801843FA05F359410EE0A5F176
:1002A00020050EF1200E012A03FA0EFC28BF4CF0A7
:1002B000020C43FA05F3C01851EBE37101F000455D
:1002C00007D54FF0000EDCF1000C7EEB00006EEB6A
:1002D0000101B1F5801F1BD3B1F5001F0CD34908F4
:1002E0005FEA30004FEA3C0C04F101044FEA44524B
:1002F00012F5800F80F09A80BCF1004F08BF5FEAD2
:10030000500C50F1000041EB045141EA050130BDB1
:100310005FEA4C0C404141EB0101013C28BFB1F5C3
:10032000801FE9D291F0000F04BF01460020B1FA0E
:1003300081F308BF2033A3F10B03B3F120020CDAE1
:100340000C3208DD02F1140CC2F10C0201FA0CF0BF
:1003500021FA02F10CE002F11402D8BFC2F1200C24
:1003600001FA02F120FA0CFCDCBF41EA0C019040DA
:10037000E41AA2BF01EB0451294330BD6FEA040423
:100380001F3C1CDA0C340EDC04F11404C4F120020E
:1003900020FA04F001FA02F340EA030021FA04F320
:1003A00045EA030130BDC4F10C04C4F1200220FA77
:1003B00002F001FA04F340EA0300294630BD21FAB5
:1003C00004F0294630BD94F0000F83F4801306BF7B
:1003D00081F480110134013D4EE77FEA645C18BF6F
:1003E0007FEA655C29D094EA050F08BF90EA020F06
:1003F00005D054EA000C04BF1946104630BD91EAFE
:10040000030F1EBF0021002030BD5FEA545C05D100
:100410004000494128BF41F0004130BD14F580043F
:100420003CBF01F5801130BD01F0004545F0FE41B3
:1004300041F470014FF0000030BD7FEA645C1ABFE8
:10044000194610467FEA655C1CBF0B46024650EA1F
:10045000013406BF52EA033591EA030F41F400214B
:1004600030BD00BF90F0000F04BF0021704730B5D1
:100470004FF4806404F132044FF000054FF00001A6
:1004800050E700BF90F0000F04BF0021704730B567
:100490004FF4806404F1320410F0004548BF40423C
:1004A0004FF000013EE700BF42004FEAE2014FEA91
:1004B00031014FEA02701FBF12F07F4393F07F4F6C
:1004C00081F06051704732F07F4208BF704793F06F
:1004D0007F4F04BF41F40021704730B54FF4607482
:1004E00001F0004521F000411CE700BF50EA010285
:1004F00008BF704730B54FF000050AE050EA01022E
:1005000008BF704730B511F0004502D5404261EB9D
:1005100041014FF4806404F132045FEA915C3FF4DE
:10052000D8AE4FF003025FEADC0C18BF03325FEA7B
:10053000DC0C18BF033202EBDC02C2F1200300FA2C
:1005400003FC20FA02F001FA03FE40EA0E0021FA51
:1005500002F11444BDE600BF70B54FF0FF0C4CF43F
:10056000E06C1CEA11541DBF1CEA135594EA0C0FF1
:1005700095EA0C0F00F0DEF82C4481EA030621EA2C
:100580004C5123EA4C5350EA013518BF52EA033567
:1005900041F4801143F4801338D0A0FB02CE4FF019
:1005A0000005E1FB02E506F00042E0FB03E54FF049
:1005B0000006E1FB03569CF0000F18BF4EF0010E41
:1005C000A4F1FF04B6F5007F64F5407404D25FEA3D
:1005D0004E0E6D4146EB060642EAC62141EA5551F0
:1005E0004FEAC52040EA5E504FEACE2EB4F1FD0C32
:1005F00088BFBCF5E06F1ED8BEF1004F08BF5FEAB0
:10060000500E50F1000041EB045170BD06F0004661
:1006100046EA010140EA020081EA0301B4EB5C040E
:10062000C2BFD4EB0C0541EA045170BD41F4801106
:100630004FF0000E013C00F3AB8014F1360FDEBF2B
:10064000002001F0004170BDC4F10004203C35DA07
:100650000C341BDC04F11404C4F1200500FA05F38A
:1006600020FA04F001FA05F240EA020001F000422B
:1006700021F0004110EBD37021FA04F642EB0601A1
:100680005EEA430E08BF20EAD37070BDC4F10C04CB
:10069000C4F1200500FA04F320FA05F001FA04F28F
:1006A00040EA020001F0004110EBD37041F100017B
:1006B0005EEA430E08BF20EAD37070BDC4F1200586
:1006C00000FA05F24EEA020E20FA04F301FA05F2EE
:1006D00043EA020321FA04F001F0004121FA04F296
:1006E00020EA020000EBD3705EEA430E08BF20EA66
:1006F000D37070BD94F0000F0FD101F000464000A0
:1007000041EB010111F4801F08BF013CF7D041EA21
:10071000060195F0000F18BF704703F00046520025
:1007200043EB030313F4801F08BF013DF7D043EAF6
:100730000603704794EA0C0F0CEA135518BF95EAAC
:100740000C0F0CD050EA410618BF52EA4306D1D133
:1007500081EA030101F000414FF0000070BD50EA52
:10076000410606BF1046194652EA430619D094EADC
:100770000C0F02D150EA013613D195EA0C0F05D1C6
:1007800052EA03361CBF104619460AD181EA03011A
:1007900001F0004141F0FE4141F470014FF00000D2
:1007A00070BD41F0FE4141F4780170BD70B54FF06D
:1007B000FF0C4CF4E06C1CEA11541DBF1CEA1355ED
:1007C00094EA0C0F95EA0C0F00F0A7F8A4EB0504CF
:1007D00081EA030E52EA03354FEA013100F08880C6
:1007E0004FEA03334FF0805545EA131343EA12638F
:1007F0004FEA022245EA111545EA10654FEA002644
:100800000EF000419D4208BF964244F1FD0404F5FC
:10081000407402D25B084FEA3202B61A65EB030558
:100820005B084FEA32024FF480104FF4002CB6EB15
:10083000020E75EB030E22BFB61A754640EA0C0095
:100840005B084FEA3202B6EB020E75EB030E22BFD5
:10085000B61A754640EA5C005B084FEA3202B6EB16
:10086000020E75EB030E22BFB61A754640EA9C00D5
:100870005B084FEA3202B6EB020E75EB030E22BFA5
:10088000B61A754640EADC0055EA060E18D04FEA63
:10089000051545EA16754FEA06164FEAC30343EA03
:1008A00052734FEAC2025FEA1C1CC0D111F4801FD0
:1008B0000BD141EA00014FF000004FF0004CB6E7C9
:1008C00011F4801F04BF01430020B4F1FD0C88BF68
:1008D000BCF5E06F3FF6AFAEB5EB030C04BFB6EB73
:1008E000020C5FEA500C50F1000041EB045170BD66
:1008F0000EF0004E4EEA113114EB5C04C2BFD4EB93
:100900000C0541EA045170BD41F480114FF0000E16
:10091000013C90E645EA060E8DE60CEA135594EA92
:100920000C0F08BF95EA0C0F3FF43BAF94EA0C0F95
:100930000AD150EA01347FF434AF95EA0C0F7FF40A
:1009400025AF104619462CE795EA0C0F06D152EA5E
:1009500003353FF4FDAE1046194622E750EA410642
:1009600018BF52EA43067FF4C5AE50EA41047FF453
:100970000DAF52EA43057FF4EBAE12E74FEA4102B6
:1009800012F5001215D211D56FF47873B3EB6252E1
:1009900012D94FEAC12343F0004343EA505311F008
:1009A000004F23FA02F018BF404270474FF000009A
:1009B000704750EA013005D111F0004008BF6FF0D8
:1009C000004070474FF00000704700BF4A0011D24E
:1009D00012F5001211D20DD56FF47873B3EB625299
:1009E0000ED44FEAC12343F0004343EA505323FAA5
:1009F00002F070474FF00000704750EA013002D11A
:100A00004FF0FF3070474FF0000070474FEA41024F
:100A1000B2F1E04324BFB3F5001CDCF1FE5C0DD95C
:100A200001F0004C4FEAC0024CEA5070B2F1004FA6
:100A300040EB830008BF20F00100704711F0804FA9
:100A400021D113F13872BCBF01F00040704741F46E
:100A500080114FEA5252C2F11802C2F1200C10FA72
:100A60000CF320FA02F018BF40F001004FEAC12356
:100A70004FEAD32303FA0CFC40EA0C0023FA02F3FA
:100A80004FEA4303CCE77FEA625307D150EA0133D0
:100A90001EBF4FF0FE4040F44000704701F00040A0
:100AA00040F0FE4040F40000704700BF53B94AB91F
:100AB000002908BF00281CBF4FF0FF314FF0FF3066
:100AC00000F00CB8ADF1080C6DE904CE0CF066FF37
:100AD000DDF804E0DDE9022304B07047704700BF91
:100AE000034613F8012B002AFBD1181A013870476E
:100AF00001F0FF01102A2BDB10F0070F08D010F8CF
:100B0000013B013A8B422DD010F0070F42B3F6D1D2
:100B1000F0B441EA012141EA014122F007047FF0EB
:100B200000070023F0E80256083C85EA010586EA42
:100B3000010685FA47F5A3FA87F586FA47F6A5FA7E
:100B400087F68EB9EED1F0BC01F0FF0102F007028A
:100B500032B110F8013B013A83EA010313B1F8D135
:100B60000020704701387047002D06BF3546033816
:100B7000073815F0010F07D1013015F4807F02BF4F
:100B8000013015F4C03F0130F0BC0138704700BFA0
:100B90000348044B834202D0034B03B1184770470C
:100BA000981F0020981F0020000000000548064BF9
:100BB0001B1AD90F01EBA301491002D0034B03B15B
:100BC00018477047981F0020981F00200000000061
:100BD00010B5064C237843B9FFF7DAFF044B13B185
:100BE0000448AFF300800123237010BD981F00203C
:100BF00000000000F0E3000808B5054B1BB10549F3
:100C00000548AFF30080BDE80840FFF7CFBF00BF45
:100C1000000000009C1F0020F0E30008024403468F
:100C2000934200D1704703F8011BF9E770B50D4DF1
:100C30000D4C641BA4100026A64209D10B4D0C4C90
:100C40000DF0D6FB641BA4100026A64205D170BD92
:100C500055F8043B98470136EEE755F8043B9847B2
:100C60000136F2E7842D0108842D0108842D010846
:100C7000882D01087047704770B50F4E0C463168DB
:100C8000054611B900F0A6F830602146284600F06C
:100C9000A1F8431C03D14FF0FF34204670BDC41CA3
:100CA00024F00304A042F8D0211A284600F092F85C
:100CB0000130F2D1EFE700BFF02000202DE9F8432A
:100CC000CD1C25F0030508350C2D38BF0C25002D53
:100CD000064601DBA94204D90C2333600020BDE89D
:100CE000F883DFF8D48000F069F8D8F800301C46AB
:100CF00044BB29463046FFF7BFFF431C044658D18A
:100D0000D8F800402746002F43D1002C4BD0236851
:100D10003946304604EB030900F05CF8814542D1C6
:100D200021686D1A29463046FFF7A6FF01303AD0F8
:100D300023682B442360D8F800305A6862BBC8F897
:100D400000700FE02268521B20D40B2A17D96119BA
:100D5000A342256018BF5960636808BFC8F8001037
:100D600062514B60304600F02FF804F10B00231D58
:100D700020F00700C21A1CBF1B1AA350AFE762681D
:100D8000A3420CBFC8F800205A60EBE72346646812
:100D9000AEE73C467F68B6E71A465B68A342FBD1E4
:100DA00000235360DEE70C233360304600F00CF87C
:100DB00094E70560D6E700BFF42000200148FFF764
:100DC00059BF00BFEC2000200148FFF754BF00BF0F
:100DD000EC20002038B5064D0023044608462B6061
:100DE00001F0DEFD431C02D12B6803B1236038BD46
:100DF000F820002038B50546002941D051F8043CC0
:100E00000C1F002BB8BFE418FFF7D8FF1D4A13686A
:100E100033B9636014602846BDE83840FFF7D4BF9B
:100E2000A34208D9206821188B4201BF19685B686A
:100E300009182160EDE71A465B680BB1A342FAD9A5
:100E400011685018A0420BD1206801445018834209
:100E50001160E0D118685B68536008441060DAE7FD
:100E600002D90C232B60D6E7206821188B4204BFDF
:100E700019685B68636004BF091821605460CAE7A1
:100E800038BD00BFF420002080B582B002AF0A2335
:100E900000930723034A0449044803F017FE00BFE8
:100EA000BD4680BD5000002000200140FC200020F5
:100EB00080B582B000AF0346FB71FB791946044848
:100EC00003F042FE034618460837BD4680BD00BF0A
:100ED000FC20002080B588B000AF78600BF044FFA4
:100EE00003467B610023FB7703F020FC01F006FB47
:100EF0000346BB7701F016FB03467B7701F01EFB30
:100F000003463B7703F080FC0346FB7601F022FBAF
:100F10000346BB7601F02AFB03467B7601F0B6FA66
:100F200003463B61642307F11001042240F277700D
:100F300000F0D8FBBA7F7B7F9A420DD13A7FFB7ECF
:100F40009A4209D1BA7E7B7E9A4205D1164B5B7ECE
:100F5000DBB2FA7F9A4218D07B7F3B73FB7E7B73B8
:100F60007B7EBB73104B5B7EDBB2FB73642307F1AC
:100F70000C01042240F2352000F0B4FB0A4B5B7EEA
:100F8000FB7701F015FC01F021FC00F0E7FC00F01C
:100F900097FC00F0BDFC642207F1140311461846CB
:100FA0000BF08CFCA0E700BF241D00200000000017
:100FB00080B58AB000AF786000237B830BF0D4FE4D
:100FC00003467B617B69184600F0C0FB00F030FCF3
:100FD0000620FFF76DFF03467B760620FFF768FFCC
:100FE00003461846FFF73EFA3BA3D3E90023FFF779
:100FF000DDFB02460B46104619464FF00002324B0D
:10100000FFF7AAFA02460B4610461946FFF7DEFC28
:1010100003463B76002387F82730002387F82630E5
:1010200000233B6211E0294A3B6A13441B781A46AD
:101030003B6A02FA03F35AB297F9273013435BB2C3
:1010400087F827303B6A01333B623B6A072BEADDB6
:101050000023FB6111E01E4AFB6913441B781A460A
:10106000FB6902FA03F35AB297F9263013435BB2D5
:1010700087F82630FB690133FB61FB69032BEADD4E
:1010800097F827303B7300F007FF0346DBB27B7312
:10109000104B1B78BB733B7EFB737B7E3B7497F8D6
:1010A00026307B740A2307F10C01062240F215500A
:1010B00000F018FB0A2207F11403114618460BF042
:1010C000FDFB7FE7AFF3008000005940084C002093
:1010D000A0430020886500200000000000E06F4071
:1010E00080B594B000AF78600BF03EFE0346FB6322
:1010F000544B1B78DBB2002B00F09C80524B93F8D2
:101100003D30DBB287F838304F4B93F86130DBB2BB
:1011100087F839304C4B93F88530DBB287F83A309A
:10112000494B93F8A930DBB287F83B30464B93F834
:10113000CD30DBB287F83430434B93F8F130DBB27B
:1011400087F83530404B93F81531DBB287F83630ED
:101150003D4B93F83931DBB287F837303A4B93F88F
:101160005D31DBB287F83030374B93F88131DBB239
:1011700087F83130344B93F8A531DBB287F8323041
:10118000314B93F8C931DBB287F833302E4B93F8EB
:10119000ED31DBB287F82C302B4B93F81132DBB2F8
:1011A00087F82D30284B93F83532DBB287F82E3094
:1011B000254B93F85932DBB287F82F30BB6BFB61BC
:1011C0007B6B3B623B6B7B62FB6ABB621E4B5B7E55
:1011D00087F8473097F84730C033DB003B64002383
:1011E000FB640BE0FA6C3B6C1A44FB6C9B005033C5
:1011F0003B4443F8442CFB6C0133FB64FB6C032B36
:10120000F0DD0023BB6412E0BB6C9B0050333B4419
:1012100053F8443C98B207F11C02BB6C9B00D118F8
:101220006423042200F05EFABB6C0133BB64BB6C28
:10123000032BE9DD642207F13C03114618460BF04D
:101240003DFB55E7AC290020241D002080B487B069
:1012500000AFF8607A603B600B467B817B8940F28F
:101260002552934212D17B687B613B68052B0DD1DF
:101270007B691B789B007B827B8A3F2B06D87B8A0D
:10128000054A13447A69013212681A6000BF1C379C
:10129000BD465DF8047B7047B029002080B592B050
:1012A00000AFF8607A603B600B467B817B89A3F2DC
:1012B00004635A4203F0030302F0030258BF53428F
:1012C000FB627B68BB62BB6A7B62FB6ADAB2A44BDF
:1012D0001B68DBB212FB03F3DBB2013387F8233068
:1012E000FB6A032B02DD9F4804F085FE9E4B1B78B2
:1012F00083F00103DBB2002B34D09C4B00225A76E2
:101300007B89A3F20463032B26D800237B6497F820
:10131000233087F8433016E07B6C5A1C7A641A46F7
:101320007B6A134497F84320187890491346DB00F2
:1013300013449B000B44193302461A7097F843304C
:10134000013387F8433097F8432097F82310844BF4
:101350001B680B449A42DFDB854AFB6A1344012277
:101360001A709BE0834B1B78DBB2002B52D07F4B73
:101370005B7EFB76FB7EDB0003F204637B617A8994
:101380007B69D31A032B00F289807B897A699A42A0
:1013900000F28480012387F842300023FB6397F832
:1013A000233087F83B3025E097F83B206F49134600
:1013B000DB0013449B000B4419331B78DAB2FB6B40
:1013C000591CF96319467B6A0B441B789A420CBF7F
:1013D00001230023DBB21A4697F842301340002B5A
:1013E00014BF0123002387F8423097F83B300133C4
:1013F00087F83B3097F83B2097F82310584B1B6831
:101400000B449A42D0DB5A4AFB6A134497F84220B5
:101410001A7043E0584B1B78DBB2002B3ED0534B85
:101420005B7E87F8223097F82230DB0003F20463FA
:10143000FB617A89FB69D31A032B2FD87B89FA6960
:101440009A422BD800237B6397F8233087F83330F8
:1014500016E07B6B5A1C7A631A467B6A134497F832
:101460003320187841491346DB0013449B000B449A
:10147000193302461A7097F83330013387F8333046
:1014800097F8332097F82310354B1B680B449A428A
:10149000DFDB374AFB6A134401221A70012387F805
:1014A0003230002387F8313011E097F8323097F866
:1014B00031202F498A5C1340002B14BF01230023E5
:1014C00087F8323097F83130013387F8313097F8A8
:1014D0003130032BE9D997F83230002B3CD0224B26
:1014E00001221A70254B01221A70224B1B78DBB2A5
:1014F000002B09D01F4B00221A70214B1B78DBB246
:10150000002B01D000F0CEFF1E4B1B78DBB2002B6E
:1015100002D01C4B00221A70174B1B78DBB2002B39
:1015200005D0154B00221A70174B01221A700023A8
:1015300087F8303009E097F830300D4A0021D15457
:1015400097F83030013387F8303097F83030032B7C
:10155000F1D90E4B01221A7000BF4837BD4680BD3D
:101560005C04002008E4000890430020241D0020B3
:1015700094430020AF29002083650020AE2900207D
:1015800084650020AC29002086650020AD2900205C
:1015900080B584B000AFF8607A603B600B467B8119
:1015A0007B8940F22552934205D179893B687A685C
:1015B000F868FFF74BFE7B8940F20362934209D93A
:1015C0007B89B3F5C46F05D279893B687A68F8687E
:1015D000FFF764FE00BF1037BD4680BD80B5B8B0D0
:1015E00006AF4FF4007305932E4B04934FF48073B2
:1015F00003932C4B02932C4B01931C2300932B4BF6
:1016000001222B492B4803F03DFC0023A7F8C630EC
:101610001BE0B7F8C630072B07D0B7F8C6300F2B42
:1016200003D0B7F8C630242B05D1B7F8C630224A0C
:101630000021D15404E0B7F8C6301F4A2021D1540C
:10164000B7F8C6300133A7F8C630B7F8C6303F2B1D
:10165000DFD91A4A3B1D1146C02218460CF086FB02
:101660003B1D0C221946134803F0BAFC0322002349
:101670000093134B1349144805F0CEF805220023BC
:101680000093124B1249134805F0C6F803220023B9
:101690000093114B1149124805F0BEF800BFC8373E
:1016A000BD4680BD0004024091150008DC0000200A
:1016B00000640040F0290020B029002064E4000804
:1016C000D50E00083CE40008702A0020B10F000885
:1016D00048E40008D0320020E110000858E4000877
:1016E000303B002080B586B002AFB9607A603B60C5
:1016F0000346FB81F9893B6800937B68BA6804481C
:1017000003F032FC034618461037BD4680BD00BFCB
:10171000F029002080B584B000AF0346FB71FB794F
:101720001B2B04D940F22E21064804F064FCFB79FF
:101730005B01054A1344FB60FB68183318461037F9
:10174000BD4680BD24E50008DC00002080B586B0E1
:1017500000AF7860344B7B6100F0D0FE0346FB7431
:1017600007F10C0300221A601A71FB7C3B73002303
:101770007B8100233B8107F1080207F10A03194628
:101780002A4804F0DEFF0821284805F030F8034617
:10179000002B04D07B8943F480439BB27B810721DB
:1017A000224805F024F80346002B06D07B896FEA17
:1017B00043436FEA53439BB27B817968786903F0B6
:1017C000C4FA0346002B04DA3B8943F001039BB2C1
:1017D0003B813B89002B01D004233B733B89A7F855
:1017E0000D307968786903F09EFA0346002B04DA1D
:1017F0007B8943F001039BB27B817B89A7F80F3083
:101800000A2307F10C01052240F20310FFF76AFFDB
:101810000A2307F10C0105224FF48270FFF762FFE3
:1018200000BF1837BD4680BDDC000020E05C002012
:1018300080B586B000AF204B3B613B691833FB603D
:1018400000F0F6FD0346FB720023FB75FB681B7876
:10185000DBB2032B08D10821184804F0C8FF034667
:10186000002B01D1FB7AFB750321144804F0BFFF64
:101870000346BB720421114804F0B9FF03463B81C3
:1018800002210E4804F0B3FF0346FB71FB7D3B7061
:10189000FB7A7B70BB7ABB70FB79FB703B89BB80AA
:1018A0000A233946062240F23310FFF71BFF00BF20
:1018B0001837BD4680BD00BFDC000020E05C002082
:1018C00080B582B000AF114B1B781846FFF7F0FAD5
:1018D00003469BB23B800D4B5B781846FFF7E8FA56
:1018E00003469BB27B80094B9B781846FFF7E0FAD2
:1018F00003469BB2BB8064233946062240F2335034
:10190000FFF7F0FE00BF0837BD4680BDBC170108D9
:1019100080B582B000AF104BDB781846FFF7C8FAED
:1019200003469BB2BB800C4B1B791846FFF7C0FAED
:1019300003469BB2FB80FB88092B02D84FF48053EF
:10194000FB806423391D042240F24350FFF7CAFE96
:1019500000BF0837BD4680BDBC17010880B584B004
:1019600000AF0521144804F042FF0346FB60062146
:10197000114804F03CFF0346BB60FB689BB2BB8090
:10198000BB689BB2FB80FB689BB23B80BB689BB291
:101990007B806423391D042240F23550FFF7A2FEFC
:1019A00064233946042240F25350FFF79BFE00BFE8
:1019B0001037BD4680BD00BFE05C002080B582B01E
:1019C00000AF0346FB80FB88012B0FD10121134898
:1019D00007F016F80346012B04D100F021F802F0BD
:1019E000CBFE03E000F05CF802F0C6FEFB88022BA1
:1019F0000FD10221094807F003F80346012B04D157
:101A000000F08EF802F0B8FE03E000F0C9F802F032
:101A1000B3FE00BF0837BD4680BD00BF00080240CE
:101A200080B483B000AF01237B601A4B1B687A68D7
:101A30009A4218D0184B1B68184A1360164B1B6843
:101A4000013B5A4203F0070302F0070258BF53421A
:101A500008335A4203F0070302F0070258BF53420B
:101A60000D4A13600FE00C4B1B680C4A13600A4BC5
:101A70001B6801335A4203F0070302F0070258BF04
:101A80005342054A136000BF0C37BD465DF8047B26
:101A9000704700BF144C0020184C00201C4C002044
:101AA00080B483B000AF00237B601A4B1B687A6858
:101AB0009A4218D0184B1B68184A1360164B1B68C3
:101AC000013B5A4203F0070302F0070258BF53429A
:101AD00008335A4203F0070302F0070258BF53428B
:101AE0000D4A13600FE00C4B1B6801335A4203F0A0
:101AF000070302F0070258BF5342074A1360064B20
:101B00001B68064A136000BF0C37BD465DF8047BB6
:101B1000704700BF144C0020184C00201C4C0020C3
:101B200080B483B000AF01237B601A4B1B687A68D6
:101B30009A4210D0184B1B68184A1360164B1B684A
:101B400001335A4203F0070302F0070258BF534221
:101B5000114A136017E0104B1B68104A13600E4BBC
:101B60001B68013B5A4203F0070302F0070258BF0B
:101B7000534208335A4203F0070302F0070258BFEA
:101B80005342054A136000BF0C37BD465DF8047B25
:101B9000704700BF104C0020184C00201C4C002047
:101BA00080B483B000AF00237B601A4B1B687A6857
:101BB0009A4210D0184B1B68184A1360164B1B68CA
:101BC00001335A4203F0070302F0070258BF5342A1
:101BD000114A136017E0104B1B68104A13600E4B3C
:101BE0001B68013B5A4203F0070302F0070258BF8B
:101BF000534208335A4203F0070302F0070258BF6A
:101C00005342054A136000BF0C37BD465DF8047BA4
:101C1000704700BF104C0020184C00201C4C0020C6
:101C200080B582B000AF0346FB71FB790F4A0021FB
:101C3000D15432200AF0B4FE00F05EF8FB790C4A71
:101C4000D35C002B0ED004E001200AF0A9FE00F0C6
:101C500053F8FB79064AD35C002BF5D1FB79034A94
:101C60000121D15400BF0837BD4680BDA0430020EC
:101C7000A443002080B582B000AF00F03DF80023FF
:101C80007B600DE00A4A7B6813441B78002B04D06C
:101C90007B68DBB21846FFF7C3FF7B6801337B60CC
:101CA0007B68032BEEDD00BF00BF0837BD4680BD5B
:101CB000A443002080B485B000AF78607B68B3F5A2
:101CC000805F01D90B4B0BE07B681A0B13469B001E
:101CD000134407EE903AF8EE677AC7ED037AFB6893
:101CE00007EE903AB0EE670A1437BD465DF8047B04
:101CF000704700BF000080BF80B582B000AF0921EF
:101D0000464804F074FD03461846FFF7D3FF87EDFD
:101D1000010A0A21414804F06AFD03461846FFF70C
:101D2000C9FF87ED000AD7ED017AB6EE007AF4EE2E
:101D3000C77AF1EE10FA0CD8D7ED007AB6EE007A39
:101D4000F4EEC77AF1EE10FA03D8354B01221A707F
:101D500002E0334B00221A70D7ED017AB1EE027A1D
:101D6000F4EEC77AF1EE10FA15D8D7ED017AB6EE97
:101D7000007AF4EEC77AF1EE10FA0CDBD7ED007AB8
:101D8000B6EE007AF4EEC77AF1EE10FA03D8244BDF
:101D900001225A7002E0224B00225A70D7ED017ADC
:101DA000B6EE007AF4EEC77AF1EE10FA15D8D7ED58
:101DB000007AB6EE007AF4EEC77AF1EE10FA0CDB98
:101DC000D7ED007AB1EE027AF4EEC77AF1EE10FAAE
:101DD00003D8134B01229A7002E0114B00229A7033
:101DE000D7ED017AB1EE027AF4EEC77AF1EE10FA8D
:101DF0000CDBD7ED007AB1EE027AF4EEC77AF1EEA1
:101E000010FA03DB064B0122DA7003E0044B0022D8
:101E1000DA7000BF00BF0837BD4680BDE05C00201F
:101E2000A443002080B586B000AF78600023FB7427
:101E30000AF09AFFF86000237B6122E014497A6976
:101E400013465B001344DB000B44186810497A69A1
:101E500013465B001344DB000B4404331B689BB246
:101E6000194606F0CDFD0346002B0CBF01230023CD
:101E7000D9B2084A7B6913440A461A707B69013358
:101E80007B617B69072BD9DDFFF7F4FED3E700BF49
:101E9000FC160108084C002080B400AF034B1B68FF
:101EA0001846BD465DF8047B704700BF184C002003
:101EB00080B400AF034B1B681846BD465DF8047B39
:101EC000704700BF1C4C002080B582B002AF0821D3
:101ED000064803F071FF042200230093044B0549D8
:101EE000054804F099FC00BFBD4680BDFC16010802
:101EF000251E000888E50008A843002080B584B0AE
:101F000000AF78600021052003F08CFF002106203F
:101F100003F088FF0021072003F084FF0AF024FF6C
:101F20000346FB60FA2207F10C03114618460AF03B
:101F3000C5FC114B1B781946052003F073FF0E4BAF
:101F40001B781946062003F06DFF0B4B1B781946D2
:101F5000072003F067FF084B1B78002B14BF0123F9
:101F60000023DBB283F00103DBB203F00103DAB23A
:101F7000014B1A7000BFD5E76004002080B483B025
:101F800000AF074B7B607B6818333B603B68DB78B6
:101F9000DBB218460C37BD465DF8047B704700BFC6
:101FA0003C02002080B584B000AF7860002106209C
:101FB00003F038FF0021052003F034FF0021072043
:101FC00003F030FFFFF7DAFF0346FB730AF0CCFEA5
:101FD0000346BB60FA2207F10803114618460AF0CF
:101FE0006DFCFFF7CBFF0346FB73FB7B03F00203A3
:101FF0001946062003F016FFFB7B03F00403194685
:10200000052003F00FFFFB7B03F0010319460720B7
:1020100003F008FF00BFD9E780B582B002AF04F03B
:102020003DFC04F073FAFFF74FFFFFF7D7FAFEF716
:102030002BFF02F099FC00F0DDF901F07FF902229C
:1020400000230093084B0949094804F0E5FB0222EC
:1020500000230093074B0849084804F0DDFB0AF011
:1020600037FD074803F0C7FFFD1E000898E500088C
:10207000204C0020A51F0008A4E500088054002083
:10208000B0E5000880B584B000AF78607B680C4A8A
:102090009B1ADB100B4A02FB03F3FB73FB7B0A2B3F
:1020A00003D94921084803F0A6FFFB7B074AD35C0C
:1020B0001846FEF7FDFE034618461037BD4680BDA4
:1020C00064040020CDCCCCCCD0E50008BC170108BE
:1020D00080B584B000AF78607B68104A9B1ADB1033
:1020E0000F4A02FB03F3FB72FB7A0A2B03D94F2141
:1020F0000C4803F080FFFB7A0B4AD35C1846FEF7CE
:10210000D7FEF860FB68272B02D84FF48053FB60A2
:10211000FB6818461037BD4680BD00BF6404002030
:10212000CDCCCCCCD0E50008BC17010880B487B07A
:1021300000AF7860396000237B617B68DB683A68B8
:102140009A4202D3FF237B612AE07B689B683A684E
:102150009A4202D800237B6122E07B68DA687B68C0
:102160009B68D31A3B617B689B683A68D31AFB6013
:102170004FF0FF32FB68B2FBF3F3FE2B08D8FA688E
:102180003B69B2FBF3F213461B029B1A7B6107E02B
:10219000FA6813461B029A1A3B69B2FBF3F37B61A0
:1021A0007B6918461C37BD465DF8047B704780B4D8
:1021B00083B000AF786039603B681B0918460C3764
:1021C000BD465DF8047B704780B584B000AF786091
:1021D00039603B6807EE903AF8EE677A9FED0C7A2B
:1021E00067EE877A9FED0B7A77EEC77A17EE900A43
:1021F000FEF75AF902460B46C7E90223D7E9020166
:10220000FEF7BCFB034618461037BD4680BD00BF35
:102210006F12833C9A99894180B485B000AF786091
:1022200039603B68582202FB03F30E4AA2FB0323EA
:10223000DB0807EE903AF8EE677A9FED0B7A67EECF
:10224000877AC7ED037AD7ED037AFCEEE77A17EECB
:10225000903ABB60BB6818461437BD465DF8047BF6
:10226000704700BFCDCCCCCC6666863F80B485B0CD
:1022700000AF786039603B68DB001A4AA2FB032399
:102280009B09FB60184B1A68184B1B68184951F8DA
:102290002330D31A144A1360134B1A68FB68134493
:1022A000114A1360114B1B681149FA6841F8232049
:1022B0000E4B1B6801330D4A13600C4B1B680A2B35
:1022C00002D10A4B00221A60074B1B68094A82FBA5
:1022D00003129210DB17D31A18461437BD465DF867
:1022E000047B70471F85EB51486500204C6500203A
:1022F000506500206766666680B586B000AF78607E
:102300000AF032FD38610021174804F070FA0346E4
:10231000FB600121144804F06AFA0346BB60FA68C6
:10232000BB689A4204D9FA68BB68D31A7B6103E0A0
:10233000BA68FB68D31A7B6119227B69934204D285
:102340000A4A3B691360002309E0084B1B683A699D
:10235000D31A6422934201D2002300E001231846DD
:102360001837BD4680BD00BFE05C002078650020C6
:1023700080B584B000AF78601620FFF7CBF9F86025
:1023800000F056F80346FB72FB681B883B813F2236
:10239000FB7A934208D928231A463B89934203D9F2
:1023A000084B01221A7006E00C22FB7A934202D2FB
:1023B000044B00221A70034B1B7818461037BD4699
:1023C00080BD00BF7C65002080B584B000AF786020
:1023D0000AF0CAFC0346FB60054804F093F90A22A0
:1023E00007F10C03114618460AF068FA00BFF3E73C
:1023F000E05C002080B582B002AF0B22074908489C
:1024000004F05BF9052200230093064B06490748B8
:1024100004F002FA00BFBD4680BD00BF6404002086
:10242000E05C0020C923000844E60008E85C0020C6
:1024300080B582B000AF0721134804F0D8F90346F5
:10244000002B01D000231AE000210F4804F0CFF93F
:102450000346FB7101210C4804F0C9F90346BB7126
:10246000FB79002B02D0BB79002B01D1002306E0C1
:10247000FA79BB791344DA0F13445B10DBB21846C8
:102480000837BD4680BD00BFE05C002080B400AFCF
:10249000034B1B681846BD465DF8047B704700BFC0
:1024A0008C65002080B400AF104B1B78DBB283F04A
:1024B0000103DBB2002B06D00C4B01221A700C4B2F
:1024C00001221A700EE00A4B1B78DBB283F0010385
:1024D000DBB2002B06D0074B00221A70064B0022FD
:1024E0001A7000BFBD465DF8047B7047AC29002020
:1024F000AF290020826500208465002080B483B06D
:1025000000AF074B7B607B6818333B603B681B78F0
:10251000DBB218460C37BD465DF8047B704700BF40
:10252000DC00002080B400AF034B1B78DBB2184600
:10253000BD465DF8047B70471C06002080B400AFE8
:10254000034B5B78DBB21846BD465DF8047B7047F1
:102550001C06002080B400AF034BDB78DBB21846CA
:10256000BD465DF8047B70471C06002080B400AFB8
:10257000034B1B79DBB21846BD465DF8047B704700
:102580001C06002080B400AF034B1B781846BD46E4
:102590005DF8047B704700BF8765002080B48FB072
:1025A00000AF1B4B7B637B6B18333B63194BFB62A8
:1025B000FB6A1833BB62184B7B627B6A18333B6241
:1025C000164BFB61FB691833BB613B6B5B881BB22D
:1025D0007B61BB6A5B881BB23B613B6A5B881BB259
:1025E000FB60BB695B881BB2BB607A693B691A44BC
:1025F000FB681A44BB681344002B00DA03339B10BA
:102600007B607B6818463C37BD465DF8047B7047AD
:102610001C0100203C0100205C0100207C01002006
:1026200080B483B000AF03460A46FB711346BB710A
:10263000FB79052B4DD801A252F823F0552600084E
:10264000632600087D2600089D260008B72600089E
:10265000C5260008BB79012B0CBF01230023DBB288
:1026600039E0BB79012B02D0BB79022B01D10123C8
:1026700000E0002303F00103DBB22CE0BB79012B67
:1026800005D0BB79022B02D0BB79032B01D10123EA
:1026900000E0002303F00103DBB21CE0BB79022B56
:1026A00002D0BB79032B01D1012300E0002303F00A
:1026B0000103DBB20FE0BB79012B0CBF0123002328
:1026C000DBB208E0BB79012B0CBF01230023DBB296
:1026D00001E000BF002318460C37BD465DF8047BBF
:1026E000704700BF80B582B000AFFFF707FF034619
:1026F000FB71154B1B78DBB2FA799A4203D9124A67
:10270000FB7913701CE0FB79002B06D0FB79042BBE
:1027100003D0FB790133DBB200E00123BB71BA794E
:10272000FB7911461846FFF77BFF034683F0010350
:10273000DBB2002B03D1044ABB79137000E000BF69
:102740000837BD4680BD00BF1C06002080B582B0A2
:1027500000AFFFF7D3FE0346FB71144B1B78DBB2CF
:10276000FA799A4203D2114AFB7913701AE00F4B9F
:102770001B78DBB2032B04D1FFF710FF0346052BB8
:102780000FDCFB79013BBB71BA79FB791146184626
:10279000FFF746FF0346002B04D0044ABB791370B1
:1027A00000E000BF0837BD4680BD00BF1C0600200A
:1027B00080B400AF044B9B78DAB2034B5A7000BF71
:1027C000BD465DF8047B70471C06002080B400AF56
:1027D000044B1B79DAB2034BDA7000BFBD465DF8DB
:1027E000047B70471C06002080B582B000AFFFF765
:1027F000D5FE78607B6807EE903AF8EEE77A17EE40
:10280000900AFDF751FE0AA3D3E90023FDF7A4FEC9
:1028100002460B4610461946FEF7F8F803463B60A1
:102820003B6807EE903AB0EE670A0837BD4680BDB8
:10283000A24B93AD8960773F80B582B000AF19207D
:10284000FEF768FF78607B681B6807EE903AB0EE91
:10285000670A0837BD4680BD80B48BB000AF87EDF6
:10286000030A0346FB72FB7A002B04D14A4B7B62BE
:102870000B233B6209E0FB7A012B04D1474B7B62BF
:1028800006233B6201E000237FE00023FB6177E049
:10289000FB69DB007A6A1344D3ED007A97ED037A83
:1028A000B4EE677AF1EE10FA05D1FB69DB007A6AC3
:1028B00013441B7969E0FB69DB007A6A1344D3EDAA
:1028C000007A97ED037AB4EEE77AF1EE10FA54DD70
:1028D000FB69002B01D1632357E0FB69DB007A6AB7
:1028E00013441B7907EE903AB8EE677AFB69DB0078
:1028F0007A6A1344D3ED007AD7ED036A36EEE76ABD
:10290000FB6903F10053013BDB007A6A1344D3ED0A
:10291000006AFB69DB007A6A1344D3ED007A76EE35
:10292000E77AC6EE276AFB6903F10053013BDB003F
:102930007A6A13441B791946FB69DB007A6A1344EF
:102940001B79CB1A07EE903AF8EEE77A66EEA77A93
:1029500077EE277AC7ED067A63237B61D7ED067A97
:10296000FCEEE77AC7ED017A3B79FB74FA7C7B6970
:102970009342A8BF1346DBB207E0FB690133FB615A
:10298000FA693B6A9A4283D3002318462C37BD4626
:102990005DF8047B704700BF240600207C06002001
:1029A00080B586B000AF7860144A154BD31A7B61AE
:1029B0007B693B61134B1B68002B02D1114B124A00
:1029C0001A60104B1A687B6813443A699A4207D21E
:1029D0000BF0BEF903460C221A604FF0FF3309E0FA
:1029E000084B1B68FB60074B1A687B681344054A59
:1029F0001360FB6818461837BD4680BD00000520EF
:102A000000040000906500204881002080B592B04D
:102A100000AF78600B46FB701346BB70FB781A045E
:102A2000BB781B0213437B640023FB607B6C3B6120
:102A300000237B614FF40053BB610023FB61002343
:102A40003B6200237B624FF48063BB620023FB6226
:102A500000233B6300237B630023BB630023FB63F2
:102A600000233B647B6807F10C021146184603F013
:102A70009DFC00BF4837BD4680BD80B592B000AF19
:102A8000F860B9607A603B6000233B61BB6843F447
:102A900000037B610023BB614FF40053FB61002303
:102AA0003B6200237B620023BB624FF48063FB62C6
:102AB00000233B634FF080737B637B68BB63002321
:102AC000FB6300233B6400237B64FB6807F1100178
:102AD0003A68184603F09AFC00BF4837BD4680BDEF
:102AE00080B592B000AFF860B9607A603B600023B7
:102AF0003B61BB687B610023BB614FF40053FB610A
:102B000000233B6208237B620023BB624FF4806397
:102B1000FB6200233B634FF080737B637B68BB6386
:102B20000023FB6300233B6400237B64FB6807F105
:102B300010013A68184603F0A9FC00BF4837BD46AB
:102B400080BD000080B584B000AF78607B68FA3348
:102B500002220E497868FFF7C3FF7B68B3F8FC30A8
:102B60001A467B68B3F8FA30D31AFB60FB68B3F5FA
:102B7000805F03D3FB68A3F58053FB60FB68C3F55C
:102B80007F630C3318461037BD4680BDF8203000F7
:102B900080B58AB000AFF860B9607A60FB70FB78EE
:102BA00083F00103DBB2002B07D0BB68B3F5805F75
:102BB00003D3B221454803F01EFA7B68FB61002372
:102BC0007B6278E0BA687B6AD31A3B62FB7883F059
:102BD0000103DBB2002B08D0F868FFF7B3FF786180
:102BE0007A693B6A9A42F7D30CE0F868FFF7AAFFCC
:102BF000B861BB69002B5DD03A6ABB699A4201D9C2
:102C0000BB693B62FB68B3F8FC3003F5421319461D
:102C1000FA697B6A13443A6AF868FFF72EFF3B6A49
:102C200003F00303002B08D03B6A9B083B623B6A1E
:102C300001333B623B6A9B003B627A6A3B6A134406
:102C40007B62FB68B3F8FC203B6A9BB213449BB2E7
:102C50007B827B8AB3F5805F04D37B8AA3F58053A4
:102C60009BB27B8207F1120302221949F868FFF731
:102C700004FF7A8AFB68A3F8FC20FB7883F0010349
:102C8000DBB2002B08D07A6A3B6A9A4218D0E22164
:102C9000104803F0B0F900BFFB68FA3302220E4976
:102CA000F868FFF71DFFFB68B3F8FA207B8A9A42A9
:102CB000F1D100E000BF7A6ABB689A4282D300E09B
:102CC00000BF00BF2837BD4680BD00BF54E60008E6
:102CD000FC203000C4E60008F820300080B5AAB01F
:102CE00000AF7860304A07F1140311468822184675
:102CF0000BF03CF87B68C7F8A0300AF035F80346C3
:102D00003B6107F110034FF4C871184609F0D6FD76
:102D100007F10C0304224FF44021D7F8A000FFF77D
:102D2000DFFEFB68214A934204D040F22311204881
:102D300003F061F90023C7F8A43017E0D7F8A430F6
:102D4000DB0007F114021344C7F89C30D7F89C301D
:102D50001968D7F89C3004330222D7F8A000FFF797
:102D60008CFED7F8A4300133C7F8A430D7F8A430CC
:102D7000102BE3D9D7F8A030012283F8F820D7F838
:102D8000A0300221184603F0F9FA0A49D7F8A0004A
:102D900000F014FF0749D7F8A00000F02FFF00BF94
:102DA000A837BD4680BD00BF8CE7000808130100AE
:102DB00024E70008C02C010880B500AF054906488B
:102DC00000F0FCFE01F0EAF80249034800F016FFAB
:102DD00000BF80BDE02C0108946500202DE9F04182
:102DE00084B002AF00237B6001F0FAFA054601F0DF
:102DF00049FB064601F062FB80467B68DCB201F0CD
:102E0000AFFB03460093234642463146284600F076
:102E1000A3FC0449044800F0F1FE00BF0837BD469A
:102E2000BDE8F081002D01089465002080B598B0C0
:102E300000AF7D4BFB65FB6D1833BB657B4B7B6542
:102E40007B6D18333B657A4BFB64FB6C1833BB64BA
:102E5000784B7B647B6C18333B64774BFB63FB6B79
:102E60001833BB63754B7B637B6B18333B63744BCD
:102E7000FB62FB6A1833BB627249734800F09EFE26
:102E8000BB6A1B78DBB21A4613465B0113449B00F6
:102E900013447B627B6A6D4AA2FB03239B09FB619F
:102EA0007B6A44F61F62934294BF01230023DBB286
:102EB0007B73BB6D5B78DBB203F02003002B14BF88
:102EC00001230023DBB23B71BB6D5B78DBB203F007
:102ED0000403002B14BF01230023DBB27B71BB6D05
:102EE0005B78DBB203F04003002B14BF0123002307
:102EF000DBB2FB710023BB71BB6DDB78DBB203F08F
:102F00000203002B14BF01230023DBB23B72BB6D15
:102F1000DB78DBB203F00403002B14BF0123002392
:102F2000DBB27B72BB6DDB78DBB203F00103002BFD
:102F300014BF01230023DBB2BB723B6D1B889BB225
:102F400003F02003424A12781343002B14BF0123DD
:102F50000023DBB2FB72FB7A002B02D03C4B012238
:102F60001A703B6D1B889BB203F01003394A12782C
:102F70001343002B14BF01230023DBB23B733B7BC5
:102F8000002B02D0334B01221A703B6D1B889BB281
:102F900003F04003304A12781343002B14BF01237F
:102FA0000023DBB2BB73BB7B002B02D02A4B012278
:102FB0001A703B6D1B889BB203F48073002B14BF07
:102FC00001230023DBB2FB733B6D1B889BB203F034
:102FD0008003002B14BF01230023DBB23B743B6D45
:102FE0001B889BB27B82BB6C9B889BB2BB823B6C79
:102FF0009B889BB2FB82BB6B9B889BB23B833B6BEA
:103000009B889BB27B831220FEF784FB38623B1DBA
:10301000396A184600F036FD0A490B4800F0EEFD0B
:1030200000BF6037BD4680BD3C020020FC0200208E
:103030009C010020BC010020DC010020FC010020DC
:10304000BC030020D02C010894650020D34D6210F1
:1030500094660020956600209666002080B5AAB090
:1030600000AFA94BC7F8A430A84BC7F8A030A84BB5
:10307000C7F89C30D7F89C301833C7F89830A54B68
:10308000C7F89430D7F894301833C7F89030A24B73
:10309000C7F88C30D7F88C301833C7F888309F4B7E
:1030A000C7F88430D7F884301833C7F880309C498B
:1030B0009C4800F083FD002387F87F30D7F8A030CC
:1030C0001833BB67BB6F03331B8803F40073002BFB
:1030D00002D0002387F87F3009F046FE03461946E8
:1030E000D7F8A40001F01FFE0346002B0ED10123E8
:1030F00087F87F30D7F8A43018337B677B6F1B7855
:10310000DBB2A32B02D1022387F87F30864B3B67CB
:1031100009F02AFE03461946386F01F004FE034603
:10312000002B0CBF0123002387F86F303B6F18334F
:10313000BB66002387F8673097F86F30002B19D0F3
:10314000012387F86730BB6E1B683B663B6E03F05C
:103150000F03FB653B6E03F0F0033B66F023BB659A
:10316000FB6D042B06D13A6EBB6D9A4202D102234D
:1031700087F86730D7F898301B687B65D7F88030C0
:103180001B78DBB207EE903AF8EE677A37EEA77A53
:10319000F2EE0E6AC7EE267AC7ED147A1620FEF715
:1031A000B9FAF864FB6C5B881BB2604A82FB0312BD
:1031B0005211DB17D31A1BB2BB647B6D5C4A82FBD6
:1031C00003129211DB17D31A7B64BB6C7A6C02FB7F
:1031D00003F3574A82FB03129211DB17D31A3B64A5
:1031E000FFF702FBF0EE407AFCEEE77AC7ED017ADA
:1031F0003B7987F83F30FFF71FFB87ED0E0A17205A
:10320000FEF788FA78637B6B9B78DBB2872B8CBFE9
:103210000123002387F833301820FEF77BFAF86289
:10322000FB6A1B78DBB2012B0CBF0123002387F85C
:103230002B30D7F890305B889BB23E4AA2FB032329
:10324000DB089BB27B6200233B623B6A632BCCBFF3
:1032500001230023FB773B6A722BCCBF01230023A1
:10326000BB777B6A362BCCBF012300237B777B6A3D
:10327000382BCCBF012300233B77BB692F2BCCBF5E
:1032800001230023FB75BB69392BCCBF012300232D
:10329000BB75002097ED140AFFF7DEFA03467B7535
:1032A00000233B751A20FEF735FA38613B695B78DD
:1032B000DBB2002B07D0204B1B7803F00203002B5E
:1032C00001D1012300E00023FB73FB7B03F001032A
:1032D000FB733B691B78DBB2002B07D0164B1B78C6
:1032E00003F00403002B01D1012300E00023BB7392
:1032F000BB7B03F00103BB7309490A4800F07EFC65
:1033000000BFA837BD4680BD3C0300203C04002020
:10331000FC0000201C0200207C030020BC030020D5
:10332000F02C0108946500205C0300201F85EB5100
:10333000D34D6210CDCCCCCC88650020B0B596B012
:1033400002AF184B07F130041D460FCD0FC495E8AE
:103350000F0084E80F00144B3C461D460FCD0FC4F0
:103360000FCD0FC495E80F0084E80F003B4607F12E
:1033700030024FF0C06101910C4900910C490D4899
:1033800002F098FE0B4B002283F8F8200122094B33
:103390000093094B09490A4803F03EFA00BF503731
:1033A000BD46B0BD20E8000840E80008B86402400F
:1033B000001000A094650020DD2C000814E800082F
:1033C0009866002080B584B000AF786039606FF0F7
:1033D000DD03BB603B685B68FB6007F1080200230C
:1033E00008217868FFF7D4FB3B6819683B689A6846
:1033F00001237868FFF7CCFB00BF1037BD4680BDC6
:1034000080B487B000AF786039607B681B693A6828
:103410009A4203D27B685B687B6120E07B68DB6853
:103420003A689A4203D97B689B687B6117E07B68A6
:103430001B693A68D31A7A6891687A6852688A1A5E
:1034400003FB02F27B68D9687B681B69CB1AB2FB6D
:10345000F3F33B617B685B683A6913447B617B688B
:103460001B681B68FB600A4BBB60FA68BB681340B3
:10347000FB607B69DB03FA681343FB607B681B68B6
:10348000FA681A6000BF1C37BD465DF8047B7047C0
:10349000FF7F00C080B586B000AFF860B9607A6089
:1034A0003B60BB689B00FA6813447B613B6A3A68E7
:1034B000796878690AF0D0FB00BF1837BD4680BD37
:1034C00080B592B000AFF860B9607A603B600623C7
:1034D0007B6406233B64FFF711F8034687F83F300F
:1034E000FFF720F8034687F83E30FFF727F803463A
:1034F00087F83D30FFF72EF8034687F83C307B68AD
:103500009B00FA681344BB6318237B6397F83F2042
:1035100097F83E309A4239D197F83F307A6C9A4208
:103520002FD997F85430002B1AD007F114036A4AA8
:1035300092E8030018600433197097F83F30674A27
:1035400052F8231007F114037A6B18460AF0DCFBDB
:1035500007F114037A6C604918460AF0D5FB10E0B5
:1035600007F114035E4A07CA03C31A7097F83F3085
:103570005A4A52F8231007F114037A6B18460AF0DE
:10358000C3FBBB6B6FF07B421A6064E097F83F307F
:103590007A6C9A4222D997F83E307A6C9A421DD9B9
:1035A00097F83F304D4A52F8232007F11403114693
:1035B00018460AF0D3FB07F114037A6B4949184601
:1035C0000AF0A2FB97F83E30444A52F8231007F164
:1035D00014037A6B18460AF097FB39E097F83F30EE
:1035E0007A6C9A421AD997F83F303C4A52F8232015
:1035F00007F11403114618460AF0B0FB07F1140353
:103600007A6C384918460AF07FFB344B196807F189
:1036100014037A6B18460AF077FB19E02F4B1A68EF
:1036200007F11403114618460AF098FB07F114033A
:103630007A6B2C4918460AF067FB97F83E30274A08
:1036400052F8231007F114037A6B18460AF05CFB5A
:10365000BB6B254A1A6097F83D30082B05D897F8C0
:103660003D30224A52F8233001E0204B1B683B6377
:1036700097F83C303A6C9A4205D997F83C301C4A8E
:1036800052F8233001E01A4BDB69FB62BB689B00F8
:10369000FA681344BB62BB6A07F114010D22184695
:1036A0000AF064FB3B689B00FA6813447B627B6A08
:1036B0000A22396B18460AF059FB3B6D9B00FA68E9
:1036C00013443B623B6A0722F96A18460AF04EFB34
:1036D00000BF4837BD4680BD70E80008AC1C002024
:1036E00078E8000884E8000878787804C41C002092
:1036F000E81C002080B588B000AFF860B9607A603F
:103700003B60BB689B00FA681344FB61FB690822BD
:103710000E4918460AF0D6FA7B689B00FA681344F3
:10372000BB61BB6908220A4918460AF01FFB3B68C7
:103730009B00FA6813447B617B6915220549184692
:103740000AF014FB00BF2037BD4680BDB029002021
:10375000B8290020C029002080B58AB002AFF860E7
:10376000B9607A60FB70FB6800932B4B04223D210B
:103770002A48FFF78FFE7B680093274B04224921DC
:103780002648FFF787FEBB680093234B04223121B4
:103790002248FFF77FFEFB780093214B0322C021D4
:1037A0001E48FFF777FEFB7819461E48FFF728FEF4
:1037B0001D4BFB6197F82830002B01D01B4B01E01B
:1037C0004FF08063BB61FB69BA691A60184B7B617B
:1037D000FEF7D8FE0346002B01D0144B01E04FF05A
:1037E00080633B617B693A691A60012301934FF45E
:1037F000887300936F23632267210848FFF760FEF8
:103800004FF49573FB22E2210448FFF773FF00BFDA
:103810002037BD4680BD00BF8CE80008E4170020BB
:1038200098E80008102D0108EC1B002000FF0004A0
:10383000401C002080B487B000AF78600B46FB705E
:103840000B4B7B610B4B3B617B689B000A4A13442B
:10385000FB60FB78002B01D07B6900E03B69FA68D4
:10386000136000BF1C37BD465DF8047B704700BF86
:103870000A0AFF04303030042007002080B586B0EB
:1038800000AFF860B9607A603B60FB689B00064A55
:1038900013447B613B687A68B96878690AF0DCF99F
:1038A00000BF1837BD4680BD2007002080B584B01A
:1038B00000AF78607B681B78DBB2384A0321722046
:1038C000FFF7DCFF7B685B78DBB2344A03217620AC
:1038D000FFF7D4FF7B689B78DBB2304A03217A2064
:1038E000FFF7CCFF7B68DB78DBB22C4A03217E201C
:1038F000FFF7C4FF7B681B79DBB2284A03218220D3
:10390000FFF7BCFF7B685B79DBB2244A032186208A
:10391000FFF7B4FF7B689B79DBB2204A03218A2042
:10392000FFF7ACFF7B68DB79DBB21C4A03218E20FA
:10393000FFF7A4FF7B681B78DAB27B685B78DBB2A9
:103940001343DAB27B689B78DBB21343DAB27B684D
:10395000DB78DBB21343DAB27B681B79DBB213434B
:10396000DAB27B685B79DBB21343DAB27B689B79AE
:10397000DBB21343DAB27B68DB79DBB21343DBB231
:10398000002B14BF01230023FB73FB7B1946682027
:10399000FFF750FF00BF1037BD4680BDA0E800080C
:1039A00080B586B000AFF860B9601346FB80FB6855
:1039B0009B002D4A13447B610D233B61FB8840F63D
:1039C000036293422ED040F60362934236DC40F607
:1039D0002B12934214D040F62B1293422EDC40F669
:1039E0002A12934212D040F62A12934226DC40F269
:1039F000194293421CD040F6061293420CD01DE0AF
:103A00001A4A396978690AF027F91EE0184A3969B3
:103A100078690AF021F918E0164A396978690AF0DC
:103A20001BF912E0144A396978690AF015F90CE0BB
:103A3000124A396978690AF00FF906E0FB88104AE2
:103A4000396978690AF008F900BFFB88002B14BFB8
:103A500001230023DBB21946B868FFF7EBFE00BF75
:103A60001837BD4680BD00BF20070020A8E8000829
:103A7000B8E80008C8E80008D8E80008E8E8000846
:103A8000F8E8000880B582B000AF78603960474B35
:103A90001B6818467B689B69454A04210AF0DCF8DC
:103AA0007B685B7819463220FFF7C4FE7B68DB78C1
:103AB00019463920FFF7BEFE7B689B7819462B20FC
:103AC000FFF7B8FE7B681B7819462420FFF7B2FE8B
:103AD0007B68DB7919464A20FFF7ACFE7B681B7ACE
:103AE00019465220FFF7A6FE7B689B7A19465A209A
:103AF000FFF7A0FE7B68DB7A19466120FFF79AFE8C
:103B00007B681B7B19468F20FFF794FE294B1B68AF
:103B100018467B68DB89284A05210AF09DF87B68F6
:103B2000DB89002B14BF01230023DBB2194696204A
:103B3000FFF780FE3868FFF7B9FE7B681B791946EE
:103B4000E520FFF777FE7B685B791946E020FFF7F9
:103B500071FE7B689B791946DA20FFF76BFE7B6864
:103B60005B7A19461B20FFF765FE7B681B8A1A46A5
:103B7000AA21B220FFF714FF7B685B8A1A46B621A0
:103B8000BE20FFF70DFF7B689B8A1A46C221CA2020
:103B9000FFF706FF7B68DB8A1A46CE21D620FFF7A7
:103BA000FFFE00BF0837BD4680BD00BF242D0108C1
:103BB00008E90008282D010810E9000880B584B044
:103BC00000AF786039600023FB600DE03B68DA6885
:103BD000FB689B0013441B68BB60B9687868FFF7FB
:103BE000F1FBFB680133FB603B689B68FA689A4213
:103BF000ECD300BF00BF1037BD4680BD80B582B09A
:103C000000AF786039603B6819683B685A680123E7
:103C10007868FEF7BDFF00BF0837BD4680BD0000D5
:103C200080B586B000AF0346FB7197F907200C49B9
:103C30001346DB0013449B000B4410331B687B616D
:103C40004FF4A9733B613B699B00064A1344FB6038
:103C50007969F8680AF036F800BF1837BD4680BDAC
:103C6000241D0020D00A002090B484B000AF044688
:103C7000084611461A462346FB710346BB710B46A4
:103C80007B7113463B71FB79FB733B79002B09D0A9
:103C9000FA797B799A4202D3BB79FB7302E0FB7B12
:103CA0000133FB733B7E002B09D0FA79BB799A4232
:103CB00002D87B79FB7302E0FB7B013BFB73FB7B50
:103CC00018461037BD4690BC7047000090B58DB0C7
:103CD00002AF0346FB710B46BB7113467B7197F92C
:103CE00007207F491346DB0013449B000B440C3331
:103CF0001B683B623B6A9B007A4A1344FB6197F95D
:103D0000072077491346DB0013449B000B44143310
:103D10001B68BB6197F9072071491346DB00134408
:103D20009B000B4418331B78FB7597F907206C49EF
:103D30001346DB0013449B000B4419331B7887F8B0
:103D4000273097F9072066491346DB0013449B0090
:103D50000B4420331B78BB7597F907206049134645
:103D6000DB0013449B000B4421331B787B75FB7DE8
:103D7000052B00F2A48001A252F823F0F13D0008C7
:103D8000353E0008BF3D0008953D0008953D000800
:103D9000753E0008BC797A7DB97D97F827007B795C
:103DA00000932346FFF760FF034687F8273097F814
:103DB00027304D4A0421F86909F04EFF7FE0BB79B6
:103DC000002B02D17B79002B08D097F82730002BED
:103DD0000CBF01230023DBB287F8273097F8273088
:103DE000424A52F823301946F86909F06BFF66E041
:103DF000BC797A7DB97D97F827007B7900932346BB
:103E0000FFF732FF034687F8273097F8273007F18E
:103E10000800374A052109F01FFF7B7A3B72BB7A05
:103E20007B722E23BB7207F108031946F86909F06B
:103E300049FF44E0BC797A7DB97D97F827007B790A
:103E400000932346FFF710FF034687F8273097F8C3
:103E5000273007F10800264A052109F0FDFE7B7A8C
:103E60003B722E237B7207F108031946F86909F0AB
:103E700029FF24E07B7D013BDAB2BC79B97D97F85C
:103E800027007B7900932346FFF7EEFE034687F871
:103E9000273097F9072012491346DB0013449B0093
:103EA0000B441C331B683B6197F827309B00BA69B1
:103EB00013441B683A691946F86909F057FF97F9E6
:103EC000072007491346DB0013449B000B441933BA
:103ED00097F827201A7000BF2C37BD4690BD00BF51
:103EE000241D0020D00A002018E900080C1D002025
:103EF0001CE9000880B487B000AF03460A46FB7196
:103F00001346BB7197F9072015491346DB0013448C
:103F10009B000B4404331B687B617B699B00114A47
:103F200013443B6197F906200D491346DB00134407
:103F30009B000B4404331B68FB60FB689B00094A31
:103F40001344BB603B69084A1A60BB684FF080624B
:103F50001A6000BF1C37BD465DF8047B704700BF88
:103F6000241D0020D00A00200000AA0480B582B0E1
:103F700000AF00237B6009E07B685BB20022002178
:103F80001846FFF7A3FE7B6801337B607B68102B2C
:103F9000F2DD00BF00BF0837BD4680BD80B586B0EA
:103FA00000AFA14B1B78DBB2002B21D09F4B93F9C4
:103FB0000030002B03D09D4B93F9003000E001232B
:103FC000FB759A4B00221A70FFF7D0FF974B93F9BD
:103FD000003097F9172011461846FFF78BFF934BD7
:103FE00093F900301846FFF71BFE8F4B00221A7022
:103FF0008F4B1B78DBB2002B04D0FFF7B7FF8C4B45
:1040000000221A708B4B1B785BB2002B00F0A38050
:10401000864B1B78FB70854B93F90030002B12D137
:10402000844B1B785BB2002B09DD804B93F9003089
:10403000DBB20133DBB25AB27C4B1A7072E07B4BBD
:1040400010221A706EE07B4B1B785BB2042B08D1F8
:10405000764B93F900300C2B03DD744B00221A7061
:1040600060E0744B1B785BB213F1040F08D16F4B07
:1040700093F90030042B03DC6C4B00221A7051E0E2
:104080006A4B93F90030013B03F00303002B0FD17F
:10409000684B1B785BB2B3F1FF3F09D1634B93F9D7
:1040A0000030DBB20333DBB25AB2604B1A7039E036
:1040B0005E4B93F90030013B5A4203F0030302F0D8
:1040C000030258BF5342032B0ED15A4B1B785BB2ED
:1040D000012B09D1554B93F90030DBB2033BDBB226
:1040E0005AB2524B1A701DE0524B1B785BB2DAB2D7
:1040F0004E4B93F90030DBB21344DBB25AB24B4B58
:104100001A704A4B93F90030013B5A4203F00F03F7
:1041100002F00F0258BF5342DBB20133DBB25AB296
:10412000424B1A70434B00221A70404B93F90030F7
:1041300097F9032011461846FFF7DCFE3B4B93F935
:1041400000301846FFF76CFD3B4B00221A703B4BCA
:1041500000221A7031E1384B1B78DBB2002B04D1FE
:10416000364B1B78DBB2002B44D0344B1B78DBB2D0
:10417000002B05D0304B1B78DBB2002B40F01B81AD
:104180002A4B93F90030002B21D12D4B01221A70BC
:104190002C4B01221A7000BF2A4B1B78DBB2002B7C
:1041A000FAD1224B93F90030234A1278D1B2234A34
:1041B0001278D2B21846FFF789FD234B01221A70FC
:1041C00000BF214B1B78DBB2002BFAD10BE0174B61
:1041D00093F90030184A1278D1B2184A1278D2B244
:1041E0001846FFF773FD144B00221A70134B002280
:1041F0001A70E2E0154B1B78DBB2002B05D1144B93
:104200001B78DBB2002B00F0D880104B1B78DBB2A0
:10421000002B21D00E4B1B78DBB2002B1CD00D4B9A
:1042200000221A70CCE000BF85650020F86E0020E7
:1042300086650020816500207D6500207E65002068
:10424000AC290020AF290020836500207F65002075
:1042500080650020F96E00205B4B93F90030002B45
:1042600000F0AD80594B1B78DBB2002B48D0584B87
:104270001B7883F00103DBB2002B0ED0524B93F975
:104280000030012200211846FFF720FD504B01228B
:104290001A70504B00221A607FE04E4B1B680133AE
:1042A0004C4A1360494B1B78DBB207EE903AB8EEEC
:1042B000677ADFED496AC7EE267AC7ED027AF3EE38
:1042C000046A97ED027AC6EE877AC7ED017A414B10
:1042D0001B6807EE903AF8EE677A97ED017AB4EE34
:1042E000E77AF1EE10FA58D8374B93F900300122F3
:1042F00000211846FFF7EAFC364B00221A604CE01A
:10430000364B1B78DBB2002B47D0314B1B7883F048
:104310000103DBB2002B0ED02B4B93F900300022AF
:1043200001211846FFF7D2FC294B01221A70294BB4
:1043300000221A6031E0274B1B680133254A1360C5
:10434000264B1B78DBB207EE903AB8EE677ADFEDCA
:10435000226AC7EE267AC7ED047AF3EE046A97ED77
:10436000047AC6EE877AC7ED037A1A4B1B6807EE0C
:10437000903AF8EE677A97ED037AB4EEE77AF1EEC9
:1043800010FA0AD8104B93F9003000220121184688
:10439000FFF79CFC0F4B00221A600C4B1B78DBB222
:1043A000002B0AD10D4B1B78DBB2002B05D1084B3B
:1043B00000221A7001E000BF02E000BF00E000BF71
:1043C0001837BD4680BD00BFF86E00207F65002015
:1043D000F96E0020FC6E002000004C41806500203A
:1043E00080B48FB000AF224B3B633B6B1833FB6252
:1043F000204BBB62BB6A18337B621F4B3B623B6A3C
:104400001833FB611D4BBB61BB6918337B61FB6AD1
:104410001B881BB23B617B6A1B881BB2FB60FB697C
:104420001B881BB2BB607B691B881BB27B603B692E
:104430007B637A6BFB689A4201DAFB687B637A6B79
:10444000BB689A4201DABB687B637A6B7B689A42ED
:1044500001DA7B687B637B6B094A82FB0312921053
:10446000DB17D31A18463C37BD465DF8047B70470E
:104470009C010020BC010020DC010020FC01002088
:104480006766666680B485B000AF0A4BFB60FB6868
:104490001833BB60BB685B889BB2074AA2FB03234F
:1044A000DB089BB27B607B6818461437BD465DF81D
:1044B000047B70471C020020CDCCCCCC80B48FB0E4
:1044C00000AF224B3B633B6B1833FB62204BBB625C
:1044D000BB6A18337B621F4B3B623B6A1833FB613C
:1044E0001D4BBB61BB6918337B61FB6A1B881BB228
:1044F0003B617B6A1B881BB2FB60FB691B881BB29C
:10450000BB607B691B881BB27B603B697B637A6BFA
:10451000FB689A4201DAFB687B637A6BBB689A425C
:1045200001DABB687B637A6B7B689A4201DA7B684D
:104530007B637B6B094A82FB03129210DB17D31A51
:1045400018463C37BD465DF8047B70479C0100204F
:10455000BC010020DC010020FC01002067666666CB
:1045600080B485B000AF0B4BFB60FB681833BB60B9
:10457000BB681B78DBB2FB80B7F90630002B01D19A
:10458000012300E0002318461437BD465DF8047B84
:10459000704700BFDC03002080B500AFFDF7AEFF21
:1045A0000346042B02D15C4B04221A705B4B1B7830
:1045B000052B00F2A98001A252F823F0D54500088E
:1045C000E3450008FD45000831460008C3460008E1
:1045D000CB4600085248FEF781FB4F4B01221A7070
:1045E00095E0FDF79FFF0346012B03D14A4B0222C2
:1045F0001A708CE0484B01221A7088E0494B1B78F6
:10460000002B06D0444B03221A70464B00221A702E
:104610007DE0444B5B78002B06D03F4B05221A709F
:10462000404B00225A7072E03B4B02221A706EE03F
:104630003C4B1B78002B06D03A4B00221A70364BAD
:1046400003221A7063E0374B5B78002B06D0354BA2
:1046500000225A70304B03221A7058E0314B9B787D
:10466000002B06D02F4B00229A702B4B03221A707E
:104670004DE02C4BDB78002B06D02A4B0022DA7061
:10468000254B03221A7042E0274B9B78002B09D060
:10469000214B02221A70244B00229A701E4B0322D7
:1046A0001A7034E0204BDB78002B06D01A4B052221
:1046B0001A701D4B0022DA7029E0174B03221A7082
:1046C00025E0154B00221A7021E0164B1B78002BB9
:1046D0000BD0FDF727FF0346012B06D10E4B03221B
:1046E0001A70104B00229A7011E00E4B5B78002B71
:1046F00006D0094B02221A700A4B00225A7006E0BB
:10470000054B05221A7002E0034B00221A70024B7F
:104710001B78184680BD00BF6077002061770020BD
:1047200094650020A44300209843002080B500AF8A
:10473000FDF7E4FE0346012B04D0FDF7DFFE034640
:10474000022B05D10B4B9B78002B01D0FDF7CAFF44
:10475000FDF7D4FE0346012B04D0FDF7CFFE034640
:10476000022B05D1034BDB78002B01D0FDF7EEFFC8
:1047700000BF80BDA443002080B584B000AFFDF72A
:1047800097FBF860FDF788FBB860FDF7D7FE03469E
:104790007B60FDF7B3FE0346012B04D0FDF7AEFEB0
:1047A0000346022B01D1012300E00023FB70FB78BC
:1047B00003F00103FB70FB78002B17D0FDF7BEFE62
:1047C00003461A46BB68934210D0BA68FB689A4207
:1047D00005DBBB68072B10D1FB68002B0DD1FDF763
:1047E000ADFE03460133074A136006E0FDF7A6FE5F
:1047F0000346013B034A136000E000BF00BF1037CF
:10480000BD4680BD6477002080B400AF034B1B68B9
:104810001846BD465DF8047B704700BF64770020F2
:1048200080B584B000AF3F4B1B78052B6FD801A239
:1048300052F823F04D480008E5480008F748000802
:10484000FD48000803490008094900080023FB60EF
:104850000CE0354AFB68134400221A70334AFB68A7
:10486000134400221A70FB680133FB60FB68072BBE
:10487000EFDD0023BB600CE02B4ABB681344002231
:104880001A702A4ABB68134400221A70BB680133AD
:10489000BB60BB68032BEFDD08F066FA03467B6064
:1048A0000021002001F0BEFA3B1D3221184608F01D
:1048B00005F80121002001F0B5FA3B1D3221184610
:1048C00007F0FCFF002244211948FEF79FF8002260
:1048D00000211748FEF79AF8002200211448FEF73D
:1048E00095F814E013491248FFF768F91149104888
:1048F000FFF784F90BE0FEF7B1FB08E0FEF75CFA86
:1049000005E0FEF793FA02E0FEF768FA00BFFFF752
:1049100043FE03461A46034B1A7000BF1037BD46CC
:1049200080BD00BF61770020084C00209843002024
:1049300094650020C02C010880B584B000AF786079
:1049400008F012FA0346FB60064B00221A7007F0CB
:1049500003FAFFF721FEFFF763FF07F027FA00BF16
:10496000F5E700BF6177002080B582B002AF042276
:1049700000230093034B0449044801F04DFF00BF9E
:10498000BD4680BD39490008F4E90008006F0020E9
:10499000DFF834D0002103E00C4B5B584350043166
:1049A0000B480C4B42189A42F6D30B4A02E0002304
:1049B00042F8043B094B9A42F9D307F041F8FCF75F
:1049C00035F9FDF729FB7047000005208C2D010803
:1049D00000000020981F0020981F00204481002024
:1049E000034B1A68D2B2FEE7AFF30080AFF300804A
:1049F00004ED00E080B584B000AF78607B68FB60B8
:104A000008F0B2F90346BB6001231946F86801F0CB
:104A10001DF9054B1A6807F108031146184607F0FF
:104A20004DFF00BFF0E700BF081D002080B58EB02D
:104A300000AF786000237B633AE07B68996C7A6B07
:104A400013469B0013449B000B443B633B6B1B686A
:104A50000F2B02D91B4801F0CEFA7B6B5A1C07F1D1
:104A60002003396B184601F011F87B6807F120022A
:104A70001146184602F012F90346002B02D01248E4
:104A800001F0B9FA3B6B5B68184601F045FD07F190
:104A90000C03396B184601F015F83B6B5B6807F1A6
:104AA0000C021146184603F017FE7B6B01337B6343
:104AB0007B68DB6C7A6B9A42BFD300BF00BF38378C
:104AC000BD4680BD04EA00081CEA000880B586B037
:104AD00002AFF860B9607A603B603B68102B02D986
:104AE000144801F088FA3B687A68B968F86801F000
:104AF00029F8B86801F01BFDFB68184601F048FF73
:104B00000346002B02D00C4801F075FAF868FFF755
:104B10008DFF0A4ABB691360FB6803F15000052250
:104B2000FB680093064B074901F076FE00BF103783
:104B3000BD4680BD3CEA000850EA0008081D002080
:104B4000F549000868EA000880B483B000AF7860D7
:104B500039607B68996C3A6813469B0013449B004C
:104B60000B441B6918460C37BD465DF8047B704743
:104B700080B485B000AF78607B68FB60FB68184646
:104B80001437BD465DF8047B7047000080B584B0E3
:104B900000AF786039607868FFF7EAFFF860FB687B
:104BA0009B6A07F108021146184607F009FB034605
:104BB000012B02D0084801F01EFABB68002B07D079
:104BC000064B4FF080521A60BFF34F8FBFF36F8FC9
:104BD00000BF1037BD4680BD74EA000804ED00E058
:104BE00080B582B000AF786000217868FFF7CEFF13
:104BF0000837BD4680BD80B582B000AF7860002127
:104C00007868FFF7C3FF0837BD4680BD80B582B026
:104C100000AF786001217868FFF7B8FF0837BD461C
:104C200080BD80B582B000AF786001217868FFF761
:104C3000ADFF0837BD4680BD80B582B000AF78605B
:104C400002217868FFF7A2FF0837BD4680BD80B516
:104C500082B000AF786002217868FFF797FF0837CD
:104C6000BD4680BD80B586B000AF78607868FFF73C
:104C70007FFF78617B685B6A3B613B6903F4FC33CF
:104C8000002B18D07B699B6A07F10C02114618466D
:104C900007F096FA0346012B02D00A4801F0ABF95F
:104CA000FB68002B07D0084B4FF080521A60BFF30F
:104CB0004F8FBFF36F8F7B6800225A6200BF183797
:104CC000BD4680BD74EA000804ED00E080B487B002
:104CD00000AFF860B9607A60FA68BB6813447B6122
:104CE0007A68FB689A4206D27A69FB689A4202D8CF
:104CF0004FF0FF3311E0FA687B689A4205D87A6971
:104D0000FB689A4201D2002307E07A697B689A42E5
:104D100002D24FF0FF3300E0002318461C37BD4697
:104D20005DF8047B704780B582B000AF7860396071
:104D30007B6858697B685B683A681946FFF7C6FF6D
:104D4000034618460837BD4680BD80B582B000AF27
:104D5000786039607B6858697B68DB683A68194617
:104D6000FFF7B4FF034618460837BD4680BD80B440
:104D700085B000AF78600B467B800023FB600FE0BE
:104D80007B685A6FFB685B011344BB60BB681B8880
:104D90007A889A4201D1BB6808E0FB680133FB6066
:104DA0007B689B6FFA689A42EAD30023184614374F
:104DB000BD465DF8047B704790B587B000AFF860E2
:104DC0007A603B600B467B817B891946F868FFF768
:104DD000CEFF78617B69002B0BD1FB68DB6F002B6A
:104DE00014D0FB68DC6F79893B687A68F868A04763
:104DF0000CE07B6918333A687968184608F0B6FF0A
:104E000007F0C2FF02467B695A6100E000BF1C3711
:104E1000BD4690BD80B58CB000AF7860396007F1B9
:104E2000080307F110023968786802F076FC03463F
:104E3000002B0CD17868FFF79BFEF8623B6999B2B2
:104E40003B6A07F10802F86AFFF7B6FF00E000BF0F
:104E50003037BD4680BD80B582B000AF786000219C
:104E60007868FFF7D7FF0837BD4680BD80B582B0B0
:104E700000AF786001217868FFF7CCFF0837BD46A6
:104E800080BD000080B590B006AFF860B9603B60AF
:104E90001346FB71FA79B7F8443005933B6C0493E1
:104EA000BB8F0393BB6B02937B6B01933B6B0093B4
:104EB0003B68B968F86800F061FBB86801F042FB34
:104EC000B86B01F029FB386C01F026FBBB8F7B61CE
:104ED0000223BB610023FB6103233B62B96BB8680B
:104EE00000F08DF803467B6207F114031946B86B96
:104EF00003F0F2FBB7F844307B61396CB86800F01E
:104F00007EF803467B6207F114031946386C03F000
:104F1000E3FBFB68184602F0EFF80346002B02D0D3
:104F20000E4801F068F8FB68184602F0D7FA03460D
:104F3000002B02D00A4801F05EF8FB6848F61371B6
:104F4000184602F0FDFC0346002B02D0054801F094
:104F500052F800BF2837BD4680BD00BF9CEA00085C
:104F6000B4EA0008CCEA000880B58EB000AFF86063
:104F70007A603B600B467B817B89BB610023FB61D0
:104F800000233B6200237B623B68BB62002387F8FF
:104F90002C30FB689B6A396C184607F09FF97863E0
:104FA0007B6B012B02D04FF0FF3312E0F86807F162
:104FB000140307F118017A6802F0D4FA034687F85F
:104FC000333097F83330002B02D0044801F013F847
:104FD000002318463837BD4680BD00BFF4EA0008FC
:104FE00080B584B000AFF860B9607A607A68B9685B
:104FF000F86800F0A5FB00BF1037BD4680BD80B546
:1050000082B000AF786039603968786800F072FA71
:10501000034618460837BD4680BD000080B500AF86
:10502000024B1B68184603F0D3F880BD6877002058
:1050300080B500AF024B5B68184603F0C9F880BD2D
:105040006877002080B500AF024B9B68184603F0DC
:10505000BFF880BD6877002080B500AF024BDB68E9
:10506000184603F0B5F880BD6877002080B500AF22
:10507000024B1B69184603F0ABF880BD687700202F
:1050800080B500AF024B5B69184603F0A1F880BD04
:105090006877002080B500AF024B9B69184603F08B
:1050A00097F880BD6877002080B500AF024BDB69C0
:1050B000184603F08DF880BD6877002080B500AFFA
:1050C000024B1B6A184603F083F880BD6877002006
:1050D00080B500AF024B5B6A184603F079F880BDDB
:1050E0006877002080B500AF024B9B6A184603F03A
:1050F0006FF880BD6877002080B500AF024BDB6A97
:10510000184603F065F880BD6877002080B500AFD1
:10511000024B1B6B184603F05BF880BD68770020DC
:1051200080B500AF024B5B6B184603F051F880BDB1
:105130006877002080B500AF024B9B6B184603F0E8
:1051400047F880BD6877002080B500AF024BDB6B6D
:10515000184603F03DF880BD6877002080B588B020
:1051600000AF78607B681B68924A934200F0D2805F
:10517000904A934200F2D5808F4A934200F0C38058
:105180008D4A934200F2CD808C4A934200F0B48065
:105190008A4A934200F2C580894A934200F0A58072
:1051A000874A934200F2BD80864A934200F096807F
:1051B000844A934200F2B580834A934200F087808C
:1051C000814A934200F2AD80804A934278D07F4A70
:1051D000934200F2A6807E4A93426AD07C4A934270
:1051E00000F29F807B4A93425CD07A4A934200F25D
:1051F0009880794A93424ED0774A934200F2918048
:10520000764A934240D0754A934200F28A80744AAB
:10521000934232D0724A934200F28380714A9342A1
:1052200024D0704A93427CD86F4A934217D06E4A7A
:10523000934276D86D4A934203D06D4A934207D089
:105240006FE00023FB610023BB610B23FB756BE068
:105250000023FB610123BB610C23FB7564E0002389
:10526000FB610223BB610D23FB755DE00023FB6145
:105270000323BB610E23FB7556E00023FB6104236F
:10528000BB610F23FB754FE00023FB610523BB616E
:105290001023FB7548E00023FB610623BB6111234B
:1052A000FB7541E00023FB610723BB612F23FB75E6
:1052B0003AE00123FB610023BB613823FB7533E037
:1052C0000123FB610123BB613923FB752CE0012322
:1052D000FB610223BB613A23FB7525E00123FB61DF
:1052E0000323BB613B23FB751EE00123FB61042309
:1052F000BB613C23FB7517E00123FB610523BB6108
:105300004423FB7510E00123FB610623BB614523A9
:10531000FB7509E00123FB610723BB614623FB7595
:1053200002E0344800F067FE3349FB69DA00BB69EC
:1053300013447A6841F8232097F917300022052199
:10534000184602F0DEFD97F91730184602F0F5FD19
:10535000FB69002B03D0FB69012B0FD01DE000235C
:105360003B61264B1B6B254A43F400131363234B0D
:105370001B6B03F400133B613B690EE00023FB60F1
:105380001E4B1B6B1D4A43F4800313631B4B1B6BAB
:1053900003F48003FB60FB6800BF786802F0E8FD5F
:1053A0000346002B02D0164800F025FE00BF203730
:1053B000BD4680BDB8640240A064024088640240DB
:1053C0007064024058640240406402402864024015
:1053D00010640240B8600240A06002408860024051
:1053E000706002405860024040600240106002401D
:1053F0002860024090ED00086877002000380240E5
:10540000A4ED000880B500AF024B1B68184602F0FF
:10541000BDFA80BDA877002080B500AF024B1B68A5
:10542000184602F0B3FA80BDA877002080B500AF1F
:10543000024B1B68184602F0A9FA80BDA87700202D
:1054400080B500AF024B1B68184602F09FFA80BD82
:10545000A877002080B500AF024B5B68184602F0C9
:1054600095FA80BDA877002080B500AF024B5B683D
:10547000184602F08BFA80BDA877002080B500AFF7
:10548000024B5B68184602F081FA80BDA8770020C5
:1054900080B500AF024B5B68184602F077FA80BD1A
:1054A000A877002080B500AF024B9B68184602F039
:1054B0006DFA80BDA877002080B500AF024B9B68D5
:1054C000184602F063FA80BDA877002080B500AFCF
:1054D000024B9B68184602F059FA80BDA87700205D
:1054E00080B500AF024B9B68184602F04FFA80BDB2
:1054F000A877002080B582B000AF786039607B6803
:10550000164A934220D0154A93421FD8144A934218
:1055100003D0144A934215D018E03B68124A9342D4
:1055200009D0114A93420AD8104A934203D0104A34
:10553000934202D003E009230BE0082309E00D4861
:1055400000F059FD092304E00B2302E00A4800F0B3
:1055500052FD18460837BD4680BD00BF006C0040B4
:105560000064004000680040000C0240000002405F
:1055700000040240BCED0008DCED000880B5A6B0D8
:1055800000AFF860B9603B601346FB71FB681846DA
:1055900080231A460021FBF741FBFB68BA681A60BA
:1055A000FB684FF08072DA60FB684FF4A0221A614A
:1055B000FB6801225A76FB680122DA76FB683A68BA
:1055C0005A67FB68D7F8A0209A67FB68D7F8A42031
:1055D000DA67FB79022B0ED0022B10DC002B02D0F5
:1055E000012B04D00BE0FB6818225A6007E0FB682F
:1055F0000C225A6003E0FB6806225A6000BF0320B9
:105600000321FB682C331A4606F0ACFD0246FB680A
:105610009A62FB689B6A002B03D19F21424800F0ED
:10562000EAFCBB68414A934229D0404A934236D8AB
:105630003F4A934203D03F4A934210D02FE00023C9
:10564000C7F89430132387F89330142387F89230E7
:10565000152387F89130162387F8903022E0012334
:10566000C7F894303F2387F89330402387F892306F
:10567000412387F89130422387F8903012E00223CB
:10568000C7F894304A2387F893304B2387F8923039
:105690004C2387F891304D2387F8903002E026485C
:1056A00000F0A9FCFA682549D7F8943041F8232086
:1056B00097F9933000220521184602F022FC97F951
:1056C000923000220521184602F01BFC97F9913018
:1056D00000220521184602F014FC97F990300022B0
:1056E0000521184602F00DFC00220521282002F0B9
:1056F00008FC97F99330184602F01FFC97F9923096
:10570000184602F01AFC97F99130184602F015FC81
:1057100097F99030184602F010FC282002F00DFC9A
:1057200000BF9837BD4680BDF4ED0008006C004016
:105730000064004000680040DCED0008A87700200D
:1057400080B594B000AFF860B9607A607B680D2BCB
:1057500002D9304800F04FFCFB681B687B640023D3
:10576000FB644EE0FB6C1B01BA6813443B64FB6CAA
:10577000BB647B6C284A934202D1BB6C0E33BB6482
:105780003B6C1B7883F00103DBB2FB6305237B8753
:105790003B6C1B891A467B8F02FA03F33B613B6C1F
:1057A0005B891A467B8F02FA03F37B613B6C9B8912
:1057B0001A467B8F02FA03F3BB613B6CDB891A4606
:1057C0007B8F02FA03F3FB613B6C5B683B62BB6C53
:1057D0007B62FB6BBB620023FB6201233B630E23F6
:1057E0007B63FB6807F110021146184601F08AFD41
:1057F0000346002B02D0094800F0FDFBFB6C01338F
:10580000FB64FA6C7B689A42ACD300BF00BF503790
:10581000BD4680BD6CEE00080068004084EE0008C4
:1058200080B594B000AF07F11C0334220021184664
:10583000FBF7F4F907F1080300221A605A609A6036
:10584000DA601A6100237B60294B1B6C284A43F005
:1058500080531364264B1B6C03F080537B607B6882
:1058600000233B60234B1B68224A43F440431360F0
:10587000204B1B6803F440433B603B680123FB6102
:105880004FF480333B6202237B634FF48003BB639E
:105890001923FB63C0233B6402237B640223BB64A4
:1058A0000223FB6407F11C03184605F089FE03463A
:1058B000002B02D0104800F09EFB0F23BB60022398
:1058C000FB6000233B614FF480537B610023BB618D
:1058D00007F108030321184605F0CAFC0346002B14
:1058E00002D0064800F087FB00BF5037BD4680BDA0
:1058F0000038024000700040A4EE0008C0EE00082E
:1059000080B48BB000AF78607B68574A934200F058
:105910009680554A934200F2A180544A93427FD028
:10592000524A934200F29A80514A934269D0504AB7
:10593000934200F293804F4A934253D04D4A934290
:1059400000F28C804C4A93423DD04B4A934200F285
:1059500085804A4A934227D0484A93427ED8484A93
:10596000934203D0474A93420FD077E000237B62F3
:10597000454B1B6B444A43F001031363424B1B6BC3
:1059800003F001037B627B6A68E000233B623E4BCD
:105990001B6B3D4A43F0020313633B4B1B6B03F04D
:1059A00002033B623B6A59E00023FB61364B1B6BF1
:1059B000354A43F004031363334B1B6B03F00403BA
:1059C000FB61FB694AE00023BB612F4B1B6B2E4A36
:1059D00043F0080313632C4B1B6B03F00803BB61FC
:1059E000BB693BE000237B61274B1B6B264A43F0DE
:1059F00010031363244B1B6B03F010037B617B6963
:105A00002CE000233B61204B1B6B1F4A43F020031B
:105A100013631D4B1B6B03F020033B613B691DE0CF
:105A20000023FB60184B1B6B174A43F040031363C2
:105A3000154B1B6B03F04003FB60FB680EE000237B
:105A4000BB60114B1B6B104A43F0800313630E4B7A
:105A50001B6B03F08003BB60BB6800BF00BF2C372B
:105A6000BD465DF8047B7047001C024000180240F0
:105A70000014024000100240000C024000080240E6
:105A800000000240000402400038024090B488B098
:105A900000AFF860B9607A60BB681B683B617B68E7
:105AA0007B61BB68DB68BB610023FB61FB681C4654
:105AB00007F110030FCB84E80F00F8682037BD46CC
:105AC00090BC7047B0B489B000AF786039603B6873
:105AD0001B89FB6003233B6100237B610023BB61C7
