:020000040800F2
:10000000000005204D610008E9750008A1610008A5
:10001000A1610008A1610008A161000800000000C2
:10002000000000000000000000000000A1610008C6
:10003000F775000800000000A1610008CD750008F8
:10004000A1610008A1610008A1610008A161000888
:10005000A1610008A16100081D740008297400084E
:1000600035740008417400084D74000819660008D2
:100070002D6600084166000855660008696600089C
:100080007D66000891660008A1610008016A000809
:10009000156A0008296A00083D6A000859740008BA
:1000A000A1610008A1610008A1610008A161000828
:1000B000A1610008A1610008A1610008A161000818
:1000C000A1610008A1610008A1610008A161000808
:1000D000A1610008E97A0008557B0008C17B00088F
:1000E00067740008A1610008A1610008A16100080F
:1000F000A1610008A1610008A1610008A5660008CF
:10010000A1610008A1610008A1610008A1610008C7
:100110002D7C0008997C0008A1610008A1610008FD
:10012000B9660008CD660008E1660008F5660008BB
:1001300009670008A1610008A1610008516A000870
:10014000656A0008796A00088D6A0008A1610008E4
:100150001D6700083167000845670008057D000835
:10016000A1610008A1610008A16A0008B56A000841
:10017000C96A0008DD6A00080000000000000000F5
:10018000A1610008A1610008717D0008DD7D000803
:10019000A1610008A161000800000000A161000841
:1001A000497E0008B57E0008000000000000000045
:1001B000A16100080000000000000000A16100082B
:1001C000A1610008A1610008A1610008A161000807
:0801D000A1610008A161000813
:1001E00010B5054C237833B9044B13B10448AFF371
:1001F00000800123237010BD800600200000000055
:100200003C27010808B5034B1BB103490348AFF372
:10021000008008BD00000000840600203C27010883
:1002200081F0004102E000BF83F0004330B54FEAA7
:1002300041044FEA430594EA050F08BF90EA020F14
:100240001FBF54EA000C55EA020C7FEA645C7FEAA7
:10025000655C00F0E2804FEA5454D4EB5555B8BFCA
:100260006D420CDD2C4480EA020281EA030382EA3B
:10027000000083EA010180EA020281EA0303362DCD
:1002800088BF30BD11F0004F4FEA01314FF4801CA0
:100290004CEA113102D0404261EB410113F0004FB2
:1002A0004FEA03334CEA133302D0524263EB430369
:1002B00094EA050F00F0A780A4F10104D5F1200E07
:1002C0000DDB02FA0EFC22FA05F2801841F1000162
:1002D00003FA0EF2801843FA05F359410EE0A5F136
:1002E00020050EF1200E012A03FA0EFC28BF4CF067
:1002F000020C43FA05F3C01851EBE37101F000451D
:1003000007D54FF0000EDCF1000C7EEB00006EEB29
:100310000101B1F5801F1BD3B1F5001F0CD34908B3
:100320005FEA30004FEA3C0C04F101044FEA44520A
:1003300012F5800F80F09A80BCF1004F08BF5FEA91
:10034000500C50F1000041EB045141EA050130BD71
:100350005FEA4C0C404141EB0101013C28BFB1F583
:10036000801FE9D291F0000F04BF01460020B1FACE
:1003700081F308BF2033A3F10B03B3F120020CDAA1
:100380000C3208DD02F1140CC2F10C0201FA0CF07F
:1003900021FA02F10CE002F11402D8BFC2F1200CE4
:1003A00001FA02F120FA0CFCDCBF41EA0C0190409A
:1003B000E41AA2BF01EB0451294330BD6FEA0404E3
:1003C0001F3C1CDA0C340EDC04F11404C4F12002CE
:1003D00020FA04F001FA02F340EA030021FA04F3E0
:1003E00045EA030130BDC4F10C04C4F1200220FA37
:1003F00002F001FA04F340EA0300294630BD21FA75
:1004000004F0294630BD94F0000F83F4801306BF3A
:1004100081F480110134013D4EE77FEA645C18BF2E
:100420007FEA655C29D094EA050F08BF90EA020FC5
:1004300005D054EA000C04BF1946104630BD91EABD
:10044000030F1EBF0021002030BD5FEA545C05D1C0
:100450004000494128BF41F0004130BD14F58004FF
:100460003CBF01F5801130BD01F0004545F0FE4173
:1004700041F470014FF0000030BD7FEA645C1ABFA8
:10048000194610467FEA655C1CBF0B46024650EADF
:10049000013406BF52EA033591EA030F41F400210B
:1004A00030BD00BF90F0000F04BF0021704730B591
:1004B0004FF4806404F132044FF000054FF0000166
:1004C00050E700BF90F0000F04BF0021704730B527
:1004D0004FF4806404F1320410F0004548BF4042FC
:1004E0004FF000013EE700BF42004FEAE2014FEA51
:1004F00031014FEA02701FBF12F07F4393F07F4F2C
:1005000081F06051704732F07F4208BF704793F02E
:100510007F4F04BF41F40021704730B54FF4607441
:1005200001F0004521F000411CE700BF50EA010244
:1005300008BF704730B54FF000050AE050EA0102ED
:1005400008BF704730B511F0004502D5404261EB5D
:1005500041014FF4806404F132045FEA915C3FF49E
:10056000D8AE4FF003025FEADC0C18BF03325FEA3B
:10057000DC0C18BF033202EBDC02C2F1200300FAEC
:1005800003FC20FA02F001FA03FE40EA0E0021FA11
:1005900002F11444BDE600BF4FF0FF3C06E000BF8F
:1005A0004FF0010C02E000BF4FF0010C4DF804CDFC
:1005B0004FEA410C7FEA6C5C4FEA430C18BF7FEABC
:1005C0006C5C1BD001B050EA410C0CBF52EA430CEA
:1005D00091EA030F02BF90EA020F0020704710F16A
:1005E000000F91EA030F58BF994208BF90422CBFF9
:1005F000D8176FEAE37040F0010070474FEA410CF2
:100600007FEA6C5C02D150EA013C07D14FEA430C0F
:100610007FEA6C5CD6D152EA033CD3D05DF8040B80
:10062000704700BF8446104662468C4619466346B2
:1006300000E000BF01B5FFF7B7FF002848BF10F189
:10064000000F01BD4DF808EDFFF7F4FF0CBF0120CE
:1006500000205DF808FB00BF4DF808EDFFF7EAFF4A
:1006600034BF012000205DF808FB00BF4DF808ED05
:10067000FFF7E0FF94BF012000205DF808FB00BFFA
:100680004DF808EDFFF7CEFF94BF012000205DF884
:1006900008FB00BF4DF808EDFFF7C4FF34BF012091
:1006A00000205DF808FB00BF4FEA410212F500127E
:1006B00015D211D56FF47873B3EB625212D94FEAA9
:1006C000C12343F0004343EA505311F0004F23FA93
:1006D00002F018BF404270474FF00000704750EAE8
:1006E000013005D111F0004008BF6FF000407047A5
:1006F0004FF00000704700BF4A0011D212F50012FF
:1007000011D20DD56FF47873B3EB62520ED44FEA69
:10071000C12343F0004343EA505323FA02F07047E9
:100720004FF00000704750EA013002D14FF0FF3027
:1007300070474FF0000070474FEA4102B2F1E043CA
:1007400024BFB3F5001CDCF1FE5C0DD901F0004CB8
:100750004FEAC0024CEA5070B2F1004F40EB830008
:1007600008BF20F00100704711F0804F21D113F134
:100770003872BCBF01F00040704741F480114FEA6D
:100780005252C2F11802C2F1200C10FA0CF320FAF6
:1007900002F018BF40F001004FEAC1234FEAD32313
:1007A00003FA0CFC40EA0C0023FA02F34FEA43037D
:1007B000CCE77FEA625307D150EA01331EBF4FF006
:1007C000FE4040F44000704701F0004040F0FE4021
:1007D00040F40000704700BF53B94AB9002908BF70
:1007E00000281CBF4FF0FF314FF0FF3000F0EABA95
:1007F000ADF1080C6DE904CE00F03CF8DDF804E042
:10080000DDE9022304B0704738B500220023044616
:100810000D46FFF721FF28B920462946BDE838409C
:1008200000F00AB8204605F1004100F005F840420A
:1008300061EB410138BD00BFD0B50C4B002206462C
:100840000F4600F025FBFFF757FF0446FFF72AFE8F
:10085000074B002200F01CFB02460B46304639468F
:10086000FFF7E2FCFFF748FF2146D0BD0000F03D56
:100870000000F0412DE9F047089D0C46002B4ED1B9
:1008800094468C458646B2FA82F262D94AB1C2F1E8
:100890002003914020FA03F30CFA02FC194300FAFA
:1008A00002FE4FEA1C471FFA8CF6B1FBF7F44FEA41
:1008B0001E4307FB141143EA014304FB06F199426E
:1008C0000AD91CEB030304F1FF3080F01281994236
:1008D00040F20F81023C6344591A1FFA8EF3B1FBB8
:1008E000F7F007FB101143EA014300FB06F69E42B6
:1008F0000AD91CEB030300F1FF3180F0FC809E421B
:1009000040F2F980634402389B1B40EA0440002116
:100910001DB1D3400022C5E90032BDE8F0878B420B
:1009200005D90DB1C5E9000100210846F5E7B3FA84
:1009300083F1002946D1A34202D39042C0F0F08057
:10094000861A64EB03030120002DE6D0C5E900639D
:10095000E3E7002A40F09080A1EB0C044FEA1C482A
:100960001FFA8CF70121B4FBF8F64FEA1E4308FB8F
:10097000164443EA044307FB06F0984208D91CEBEF
:10098000030306F1FF3402D2984200F2CD802646DE
:100990001C1A1FFA8EF3B4FBF8F008FB104443EA6C
:1009A000044300FB07F79F4208D91CEB030300F147
:1009B000FF3402D29F4200F2B0802046DB1B40EAA7
:1009C0000640A5E7C1F120068B4022FA06F71F4337
:1009D00020FA06FC04FA01F343EA0C03F44000FA9F
:1009E00001F8380C4FEA1349B4FBF0FE1FFA87FCFC
:1009F00000FB1E4449EA04440EFB0CF9A14502FA2F
:100A000001F20AD93C190EF1FF3A80F08480A14529
:100A100040F28180AEF1020E3C44A4EB09041FFABF
:100A200083F9B4FBF0F300FB134449EA044403FBED
:100A30000CFCA44507D93C1903F1FF3067D2A4454B
:100A400065D9023B3C4443EA0E40A0FB0293A4EB71
:100A50000C049C42CE469C4651D34ED055B1B8EBC7
:100A60000E0364EB0C0404FA06F6CB401E43CC40A4
:100A7000C5E90064002150E7C2F1200320FA03F128
:100A80000CFA02FC24FA03F394400C434FEA1C488E
:100A900000FA02FE1FFA8CF7B3FBF8F008FB1031E6
:100AA000230C43EA014300FB07F1994208D91CEBF0
:100AB000030300F1FF362CD299422AD9023863444D
:100AC0005B1AA4B2B3FBF8F108FB113344EA034408
:100AD00001FB07F3A34208D91CEB040401F1FF3624
:100AE00013D2A34211D902396444E41A41EA004105
:100AF00039E70446F0E6084606E7C845AED2B9EB4A
:100B0000020E63EB070C0138A8E73146EDE7034618
:100B100099E73046D4E7D6467FE7634402384DE78D
:100B20000646234608460FE7023E634430E700BF0F
:100B30002DE9F047866980460068D8F81070A0F16A
:100B40001001C0F1300403FA04F422FA01F1C6F1F5
:100B5000200E012503FA0EFEA6F12009A0F1300CAB
:100B6000214322FA06F423FA0CFC05FA07F744EABB
:100B70000E04C6F1200A05FA09FE23FA09F941EA32
:100B80000C01013F25FA0AFA44EA0904B54001F4D0
:100B900000404EEA0A0E691E04EA07044EF1FF3CCB
:100BA000002FA8BFBC4202EA01020CEA030300F0D6
:100BB000948014B952EA030750D0D8F80870E41BA7
:100BC00014F10E0F42EA05024EEA030333DA14F180
:100BD000190F41EA05014CEA0E0C41DB04F119073B
:100BE000C4F107080CFA08F8F94041EA0801A4F139
:100BF00007082CFA08F82CFA07F741EA080102EA7C
:100C0000010803EA0709BC4658EA09072AD114F18A
:100C1000190F23D06FF00D01091BC1F1200403FA55
:100C200004F4CA402243A1F1200423FA04F422432D
:100C3000CB40002440E0890A41EA8C5103EA9C2918
:100C400002EA010858EA09074FEA9C2C0AD10899E0
:100C5000002963D00F2C2CDD40F4F840BDE8F0876C
:100C60009046994601314CF1000C4F0847EACC7789
:100C70004FEA5C0ACA4508BF474549D0BF1843EB55
:100C80000A0315EB050C4EEB0E0E674573EB0E0ECB
:100C90003A4604D37A0842EAC37201345B080899E1
:100CA00099BB102C3CDC14F1180FD7DB14F10E0F9C
:100CB000B0DB0E34A402A4B2A6F10A01CA40C6F108
:100CC0002A0103FA01F12A3E23FA06F60A433243C7
:100CD000A318034398B2BDE8F08708990029BDD056
:100CE00052EA0301B8D0A6F10A01CA40C6F12A01AE
:100CF00003FA01F12A3E0A4323FA06F6324302437D
:100D000042F4FC4290B2BDE8F0870F2CCBDDA3E7A4
:100D1000114021F001070CEA030AAFE7102CC5DDF2
:100D20006FEAD0306FEAC03098E700BF00B583B0FB
:100D30000246009100230348FFF7FAFE03B05DF876
:100D400004FB00BF105D010830B583B0044600927B
:100D50000B4622460248FFF7EBFE03B030BD00BF52
:100D6000305D01080346C3F3842200041F2A00F00B
:100D70000040C3F309030DD082B953B1B3FA83F233
:100D8000A2F11501C2F185028B40D20502EB43327C
:100D90001043704729B94FF08F42F7E77032D20500
:100DA000F4E740EA433040F0FF4070470121BDE7DF
:100DB0000121D7E70021B9E70021D3E70122C3E7EA
:100DC0000022C1E7704700BF10F8012B11F8013B6A
:100DD000012A28BF9A42F7D0D01A7047034613F869
:100DE000012B002AFBD1181A0138704700000000BF
:100DF00001F0FF01102A2BDB10F0070F08D010F8CC
:100E0000013B013A8B422DD010F0070F42B3F6D1CF
:100E1000F0B441EA012141EA014122F007047FF0E8
:100E200000070023F0E80256083C85EA010586EA3F
:100E3000010685FA47F5A3FA87F586FA47F6A5FA7B
:100E400087F68EB9EED1F0BC01F0FF0102F0070287
:100E500032B110F8013B013A83EA010313B1F8D132
:100E60000020704701387047002D06BF3546033813
:100E7000073815F0010F07D1013015F4807F02BF4C
:100E8000013015F4C03F0130F0BC0138704700BF9D
:100E900070B54FF0FF0C4CF4E06C1CEA11541DBF10
:100EA0001CEA135594EA0C0F95EA0C0F00F0DEF8DB
:100EB0002C4481EA030621EA4C5123EA4C5350EAC0
:100EC000013518BF52EA033541F4801143F4801311
:100ED00038D0A0FB02CE4FF00005E1FB02E506F0A2
:100EE0000042E0FB03E54FF00006E1FB03569CF0F7
:100EF000000F18BF4EF0010EA4F1FF04B6F5007FFD
:100F000064F5407404D25FEA4E0E6D4146EB06066E
:100F100042EAC62141EA55514FEAC52040EA5E50F7
:100F20004FEACE2EB4F1FD0C88BFBCF5E06F1ED8A1
:100F3000BEF1004F08BF5FEA500E50F1000041EBD8
:100F4000045170BD06F0004646EA010140EA020085
:100F500081EA0301B4EB5C04C2BFD4EB0C0541EAA7
:100F6000045170BD41F480114FF0000E013C00F3BC
:100F7000AB8014F1360FDEBF002001F0004170BDE0
:100F8000C4F10004203C35DA0C341BDC04F11404F9
:100F9000C4F1200500FA05F320FA04F001FA05F285
:100FA00040EA020001F0004221F0004110EBD37052
:100FB00021FA04F642EB06015EEA430E08BF20EA7E
:100FC000D37070BDC4F10C04C4F1200500FA04F321
:100FD00020FA05F001FA04F240EA020001F00041B3
:100FE00010EBD37041F100015EEA430E08BF20EA26
:100FF000D37070BDC4F1200500FA05F24EEA020E6E
:1010000020FA04F301FA05F243EA020321FA04F09C
:1010100001F0004121FA04F220EA020000EBD37053
:101020005EEA430E08BF20EAD37070BD94F0000F53
:101030000FD101F00046400041EB010111F4801F87
:1010400008BF013CF7D041EA060195F0000F18BF38
:10105000704703F00046520043EB030313F4801F74
:1010600008BF013DF7D043EA0603704794EA0C0F2E
:101070000CEA135518BF95EA0C0F0CD050EA410644
:1010800018BF52EA4306D1D181EA030101F00041C1
:101090004FF0000070BD50EA410606BF10461946E9
:1010A00052EA430619D094EA0C0F02D150EA0136F5
:1010B00013D195EA0C0F05D152EA03361CBF104636
:1010C00019460AD181EA030101F0004141F0FE41D5
:1010D00041F470014FF0000070BD41F0FE4141F459
:1010E000780170BD70B54FF0FF0C4CF4E06C1CEA59
:1010F00011541DBF1CEA135594EA0C0F95EA0C0F0E
:1011000000F0A7F8A4EB050481EA030E52EA0335C8
:101110004FEA013100F088804FEA03334FF08055E9
:1011200045EA131343EA12634FEA022245EA111516
:1011300045EA10654FEA00260EF000419D4208BFC7
:10114000964244F1FD0404F5407402D25B084FEA74
:101150003202B61A65EB03055B084FEA32024FF420
:1011600080104FF4002CB6EB020E75EB030E22BF7D
:10117000B61A754640EA0C005B084FEA3202B6EB3D
:10118000020E75EB030E22BFB61A754640EA5C00EC
:101190005B084FEA3202B6EB020E75EB030E22BF7C
:1011A000B61A754640EA9C005B084FEA3202B6EB7D
:1011B000020E75EB030E22BFB61A754640EADC003C
:1011C00055EA060E18D04FEA051545EA16754FEA9E
:1011D00006164FEAC30343EA52734FEAC2025FEABC
:1011E0001C1CC0D111F4801F0BD141EA00014FF04B
:1011F00000004FF0004CB6E711F4801F04BF01431C
:101200000020B4F1FD0C88BFBCF5E06F3FF6AFAE37
:10121000B5EB030C04BFB6EB020C5FEA500C50F1C7
:10122000000041EB045170BD0EF0004E4EEA11314A
:1012300014EB5C04C2BFD4EB0C0541EA045170BD51
:1012400041F480114FF0000E013C90E645EA060E95
:101250008DE60CEA135594EA0C0F08BF95EA0C0FC3
:101260003FF43BAF94EA0C0F0AD150EA01347FF40B
:1012700034AF95EA0C0F7FF425AF104619462CE7E2
:1012800095EA0C0F06D152EA03353FF4FDAE104645
:10129000194622E750EA410618BF52EA43067FF496
:1012A000C5AE50EA41047FF40DAF52EA43057FF426
:1012B000EBAE12E7002310B50446C0E90033C0E9E5
:1012C0000433836081814366C281836119460822A9
:1012D0005C3000F0F4F80D4B63620D4BA3620D4BD4
:1012E000E3620D4B23630D4B24629C4206D003F155
:1012F0006802944202D0D0339C4205D104F15800D8
:10130000BDE8104000F04EB910BD00BF3914000810
:101310005B14000893140008B71400089C06002012
:10132000024A0349034800F069B800BF00000020EA
:10133000A51800081000002041680C4B994210B518
:10134000044601D000F0AEFAA168094B994202D0E0
:10135000204600F0A7FAE168064B994204D02046E7
:10136000BDE8104000F09EBA10BD00BF9C060020F2
:10137000040700206C07002010B50B4B0B4C0C4AE7
:101380001A60204600220421FFF794FF04F1680050
:1013900001220921FFF78EFF04F1D0000222BDE8EF
:1013A00010401221FFF786BFD40700209C060020C2
:1013B00021130008014800F0F6B800BFDD07002047
:1013C000014800F0F1B800BFDD07002010B5044669
:1013D000FFF7F0FF236A1BB1BDE81040FFF7F0BF35
:1013E000044B2362044B1B68002BF5D1FFF7C4FFAD
:1013F000F2E700BF39130008D40700202DE9F843B5
:101400000746884614460026D4E90195B9F101093A
:1014100005D52468002CF7D13046BDE8F883AB89A8
:10142000012B07D9B5F90E30013303D029463846D0
:10143000C04706436835E9E710B50C46B1F90E1010
:1014400000F068F80028ABBF636DA3891B1823F474
:101450008053ACBF6365A38110BD2DE9F0411F46E9
:101460008B89DB0505460C46164605D5B1F90E10ED
:101470000223002200F03CF8A389B4F90E1023F4F3
:101480008053A38132463B462846BDE8F04100F038
:1014900053B810B50C46B1F90E1000F029F8431CF2
:1014A000A38915BF606523F4805343F48053A3815F
:1014B00018BFA38110BDB1F90E1000F009B80244A5
:1014C0000346934200D1704703F8011BF9E700007F
:1014D00038B5064D0023044608462B6003F006F895
:1014E000431C02D12B6803B1236038BDD80700200C
:1014F00038B5074D04460846114600222A601A46B0
:1015000003F01BF8431C02D12B6803B1236038BDE4
:10151000D807002038B5074D04460846114600227A
:101520002A601A4602F0A9FF431C02D12B6803B1BE
:10153000236038BDD807002038B5074D044608465B
:10154000114600222A601A4602F0B4FF431C02D161
:101550002B6803B1236038BDD807002070B50D4D4E
:101560000D4C641BA4100026A64209D10B4D0C4C57
:1015700011F0E4F8641BA4100026A64205D170BD4A
:1015800055F8043B98470136EEE755F8043B984779
:101590000136F2E7BC7B0108BC7B0108BC7B01087B
:1015A000C07B0108704770477047000038B505469A
:1015B000002941D051F8043C0C1F002BB8BFE4189F
:1015C00000F0E0F81D4A136833B9636014602846E0
:1015D000BDE8384000F0DCB8A34208D920682118E3
:1015E0008B4201BF19685B6809182160EDE71A4654
:1015F0005B680BB1A342FAD911685018A0420BD115
:1016000020680144501883421160E0D118685B687B
:10161000536008441060DAE702D90C232B60D6E748
:10162000206821188B4204BF19685B68636004BF9F
:10163000091821605460CAE738BD00BFE4070020E4
:1016400070B50F4E0C463168054611B900F052F9DD
:1016500030602146284600F04DF9431C03D14FF07D
:10166000FF34204670BDC41C24F00304A042F8D00F
:10167000211A284600F03EF90130F2D1EFE700BF11
:10168000E00700202DE9F843CD1C25F003050835BF
:101690000C2D38BF0C25002D064601DBA94204D9CC
:1016A0000C2333600020BDE8F883DFF8D48000F01D
:1016B00069F8D8F800301C4644BB29463046FFF78D
:1016C000BFFF431C044658D1D8F800402746002FDE
:1016D00043D1002C4BD023683946304604EB030934
:1016E00000F008F9814542D121686D1A294630463B
:1016F000FFF7A6FF01303AD023682B442360D8F8C7
:1017000000305A6862BBC8F800700FE02268521BB4
:1017100020D40B2A17D96119A342256018BF59603C
:10172000636808BFC8F8001062514B60304600F093
:101730002FF804F10B00231D20F00700C21A1CBF74
:101740001B1AA350AFE76268A3420CBFC8F8002081
:101750005A60EBE723466468AEE73C467F68B6E72D
:101760001A465B68A342FBD100235360DEE70C23DB
:101770003360304600F00CF894E70560D6E700BF10
:10178000E40700200148FFF70EBF00BFDC07002080
:101790000148FFF709BF00BFDC070020B1F90C20AA
:1017A0002DE9F041160705460C4654D44B68002B32
:1017B00002DC0B6C002B48DDE66A002E45D00023CE
:1017C00012F480522F68216A2B6030D0626DA38999
:1017D000590705D56368D21A636B0BB1236CD21A13
:1017E0000023E66A216A2846B047431CA38906D134
:1017F00029681D292BD82A4A0A41D60727D4002256
:101800006260D9042269226004D5421C01D12B6890
:1018100003B96065616B2F60B9B104F1440399426B
:1018200002D02846FFF7C2FE002363630DE00123C8
:101830002846B0470246501CC9D12B68002BC6D0A1
:101840001D2B01D0162B1ED12F60002022E043F06B
:1018500040031BB21BE00F69002FF6D093070E6800
:1018600008BF4B690F6018BF0023A6EB07088B6009
:10187000B8F1000FE9DD216AA66A43463A462846D8
:10188000B047002808DCB4F90C3043F04003A381D2
:101890004FF0FF30BDE8F0810744A8EB0008E7E710
:1018A000FEFFBFDF38B50B6905460C4613B90025AE
:1018B000284638BD18B1036A0BB9FFF787FDB4F9A4
:1018C0000C30002BF3D0626ED00704D4990502D4FB
:1018D000A06DFFF768FE28462146FFF75FFF636EA5
:1018E000DA070546E4D4A3899B05E1D4A06DFFF790
:1018F0005BFEDDE738B5064D0023044608462B6045
:1019000002F028FE431C02D12B6803B1236038BDCE
:10191000D807002090B58BB000AFF8607A603B60CC
:101920000B467B81FB68314A9B1ADB11BB61BB69AB
:10193000022B04D94FF486712D4805F06AFE79898F
:101940003B687A68B86900F04BFA78617B69002BD4
:1019500004D04FF48871274805F05BFE00237B62BA
:1019600000233B62BB69002B04D1234B7B620B231A
:101970003B620EE0BB69012B04D1204B7B6210233C
:101980003B6206E0BB69022B03D11D4B7B6209233E
:101990003B627B6A002B25D00023FB611EE0FB69C4
:1019A0005B017A6A13441B887A899A4213D1FB69D6
:1019B0005B017A6A134418333A68796818460FF065
:1019C000A3F9FB695B017A6AD4180DF0FFF80346AE
:1019D000636100BF06E0FB690133FB61FA693B6AA2
:1019E0009A42DCD300BF2C37BD4690BDE8070020EB
:1019F00058270108BC2701085C000020DC020020F9
:101A0000BC010020B0B58EB006AF102305932C4B5F
:101A100004934FF4807303932A4B02932A4B019350
:101A200000230093002301222849294804F0FAFCEE
:101A30004FF400530593224B04934FF480530393C8
:101A40001F4B0293204B019300230093002301229C
:101A50002049214804F0E6FC4FF400730593184B2D
:101A600004934FF480730393154B0293164B019329
:101A700000230093002301221849194804F0D2FCE6
:101A8000184B3C461D460FCD0FC495E80F0084E867
:101A90000F003B46022219460D4804F071FD3B46FB
:101AA000022219460C4804F06BFD3B4602221946FF
:101AB0000B4804F065FD00BF2037BD46B0BD00BF38
:101AC000000402400000024015190008006C0040AC
:101AD000E80700200068004068080020006400401B
:101AE000E80800200C28010880B586B002AFBA6073
:101AF0007B600346FB730B46BB81FB7B022B04D947
:101B00004FF4BF71094805F084FDFB7BDB01084AF7
:101B10009818B989BB6900937B68BA6804F0F4FC33
:101B2000034618461037BD4680BD00BF2C2801086B
:101B3000E807002080B5A0B000AF3B1D7C2200214B
:101B40001846FFF7BCFC0E4B1B68BB660D4B1B68B1
:101B5000FB660D4B1B683B670C4A07F1740307CA11
:101B600083E807000A4B18463B1D7C2219460FF0FC
:101B7000CBF800F017F800BF8037BD4680BD00BF2E
:101B8000107AFF1F147AFF1F187AFF1F8C28010894
:101B90007C09002080B400AF00BFBD465DF8047B27
:101BA0007047000080B500AF0D4B1B684FF0FF3150
:101BB00018460CF0DDF80B4B0B4A703307CA83E86C
:101BC0000700FFF7E7FF094804F01AFD044B186807
:101BD0000023002200210BF093FE00BF80BD00BF58
:101BE000F80900207C0900209828010868090020D5
:101BF00080B582B002AF0E231F221549154804F0AC
:101C0000DCFC03230093144B0022002101200BF085
:101C1000DBFD0346114A1360104B186800230022B5
:101C200000210BF06DFE0D4B1B68002B03D16A21C8
:101C30000B4805F0EEFC0C220A490B480FF00EF899
:101C40000346002B01D0FFF775FF00BFBD4680BDE6
:101C50007C09002068090020FC090020F809002008
:101C6000A828010898280108EC09002080B500AFD9
:101C70000121024805F0FEFB00BF80BD505D010858
:101C800080B586B002AF78600021002005F028FC06
:101C90007823FB730CF08AFF0346BB60002005F03D
:101CA0005DFC07F10F026423009301234FF4807160
:101CB0000220FFF719FFFA2207F108031146184620
:101CC0000CF048FD00BFE9E780B582B002AF06F036
:101CD00081FD05F0A5FC03F011F9FFF7C7FFFFF741
:101CE00091FE02F039F902F08BFBFFF781FF02222F
:101CF00000230093044B0549054805F0A5FD0CF0B1
:101D000003FE044805F085FC811C0008FC2801083E
:101D1000440A00200829010880B584B000AF78602B
:101D20000023FB6014E0FA6813469B0013445B0039
:101D30000B4A13440A22796818460EF0B9FF03468D
:101D4000002B02D1FB68DBB206E0FB680133FB60CD
:101D5000FB680B2BE7DD0B2318461037BD4680BD13
:101D6000EC76010880B586B000AFF86087ED000B17
:101D7000FB68D3E90E01D7E90023FFF789F8024693
:101D80000B4610461946FB68D3E91023FEF74EFABE
:101D900002460B46C7E90423D7E9042343EC172B7B
:101DA000B0EE470AF0EE670A1837BD4680BD000066
:101DB00080B483B000AF78600B46FB7007497A6847
:101DC00013469B0013441B010B444833FA781A70E6
:101DD00000BF0C37BD465DF8047B7047B02A002079
:101DE00090B5C5B000AF07F58874A4F58274206083
:101DF000084607F58871A1F586710A6007F58872B3
:101E0000A2F58872136007F58873A3F58373024601
:101E10001A8007F13803C7F8CC300023C7F80C311B
:101E20000023C7F8083148E0D749D7F808211346FE
:101E30009B0013441B010B441A6807F58873A3F534
:101E400083731B889A422FD1CF49D7F808211346B4
:101E50009B0013441B010B4404331B6807F5887275
:101E6000A2F5827212689A421ED1C749D7F808219A
:101E700013469B0013441B010B4448331B78002B73
:101E800012D0D7F80C21531CC7F80C31D7F8081121
:101E90000B469B000B441B01BB491944930003F5FF
:101EA00088733B4443F8F81CD7F80C31062B0BD849
:101EB000D7F808310133C7F80831B44B1B68D7F89D
:101EC00008219A42B0D300E000BFD7F80C31002BB4
:101ED00002D1002302F03BB80023C7F8043102F01E
:101EE00024B8D7F804319B0003F588733B4453F8BA
:101EF000F83CC7F8C830D7F8C8309A68D7F8C83067
:101F00001B69134407F58872A2F5887212689A4219
:101F100003D24FF0FF3302F01AB8D7F8C8309B68ED
:101F200007F58872A2F5867212681344C7F8C430A8
:101F3000002387F803310023A7F800310023C7F8F6
:101F4000FC304FF000024FF00003C7E93C230023B0
:101F500087F8EF300023A7F8EC300023C7F8E8300B
:101F60004FF000024FF00003C7E9382340F20003AE
:101F7000A7F8DE304FF00003C7F8D8304FF000026A
:101F80004FF00003C7E93423D7F8C83093F8323054
:101F90000A2B5ED801A252F823F000BFC91F000827
:101FA000D51F0008E11F0008ED1F0008FB1F0008F7
:101FB00007200008132000081F2000082D2000081B
:101FC0003920000845200008D7F8C4301B7887F86E
:101FD000033142E0D7F8C4301B88A7F800313CE059
:101FE000D7F8C4301B68C7F8FC3036E0D7F8C430E7
:101FF000D3E90023C7E93C232FE0D7F8C4301B788E
:1020000087F8EF3029E0D7F8C4301B88A7F8EC3008
:1020100023E0D7F8C4301B68C7F8E8301DE0D7F8D4
:10202000C430D3E90023C7E9382316E0D7F8C43019
:102030001B88A7F8DE3010E0D7F8C4301B68C7F85B
:10204000D8300AE0D7F8C430D3E90023C7E93423F5
:1020500003E04FF0FF3301F07ABFD7F8C83093F8B0
:1020600033300A2B01F2468701A252F823F000BF59
:102070009D200008692300082D260008DB280008A1
:10208000CD2B0008912E00085531000803340008BC
:10209000F53600089F390008613C0008D7F8C830C1
:1020A00093F832300A2B00F2598101A252F823F042
:1020B000DD200008172100085121000891210008A7
:1020C000C9210008032200083D22000875220008EB
:1020D000AD220008F92200083123000897F90331E6
:1020E0001846FEF7EFF902460B4643EC102BD7F8E3
:1020F000C800FFF737FE53EC102B10461946FEF7C9
:10210000D3FA034659B2D7F8CC30D7F804210832B5
:1021100003F8321026E1B7F900311846FEF7D2F97C
:1021200002460B4643EC102BD7F8C800FFF71AFE07
:1021300053EC102B10461946FEF7B6FA034659B277
:10214000D7F8CC30D7F80421083203F8321009E16F
:10215000D7F8FC00FEF7B6F902460B4643EC102B0D
:10216000D7F8C800FFF7FEFD53EC102B10461946B8
:10217000FEF79AFA034659B2D7F8CC30D7F80421C3
:10218000083203F83210EDE0B02A0020AC2A00201B
:10219000D7E93C01FEF7D2F902460B4643EC102B7F
:1021A000D7F8C800FFF7DEFD53EC102B1046194698
:1021B000FEF77AFA034659B2D7F8CC30D7F80421A3
:1021C000083203F83210CDE097F8EF301846FEF7EA
:1021D00069F902460B4643EC102BD7F8C800FFF70D
:1021E000C1FD53EC102B10461946FEF75DFA03466D
:1021F00059B2D7F8CC30D7F80421083203F832109E
:10220000B0E0B7F8EC301846FEF74CF902460B4642
:1022100043EC102BD7F8C800FFF7A4FD53EC102BAC
:1022200010461946FEF740FA034659B2D7F8CC30AB
:10223000D7F80421083203F8321093E0D7F8E80009
:10224000FEF730F902460B4643EC102BD7F8C800D6
:10225000FFF788FD53EC102B10461946FEF724FAC1
:10226000034659B2D7F8CC30D7F80421083203F826
:10227000321077E0D7E93801FEF758F902460B46ED
:1022800043EC102BD7F8C800FFF76CFD53EC102B74
:1022900010461946FEF708FA034659B2D7F8CC3073
:1022A000D7F80421083203F832105BE0B7F8DE30CB
:1022B00007EE903AF2EE677A17EE900AFEF714F9FD
:1022C00002460B4643EC172BB0EE470AF0EE670AC6
:1022D000D7F8C800FFF746FD53EC102B10461946FF
:1022E000FEF7E2F9034659B2D7F8CC30D7F804210B
:1022F000083203F8321035E0D7F8D800FEF7F4F8CA
:1023000002460B4643EC102BD7F8C800FFF72AFD16
:1023100053EC102B10461946FEF7C6F9034659B286
:10232000D7F8CC30D7F80421083203F8321019E07E
:1023300097ED340BD7F8C800FFF714FD53EC102BC2
:1023400010461946FEF7B0F9034659B2D7F8CC301B
:10235000D7F80421083203F8321003E04FF0FF33BE
:1023600001F0F5BD01F0C9BDD7F8C83093F832309F
:102370000A2B00F2558101A252F823F0A92300088C
:10238000E32300081D240008552400088D240008BC
:10239000C724000801250008392500087125000818
:1023A000BD250008F525000897F903311846FEF70A
:1023B00089F802460B4643EC102BD7F8C800FFF70C
:1023C000D1FC53EC102B10461946FEF76DF903466D
:1023D00019B2D7F8CC30D7F80421083223F83210DC
:1023E00022E1B7F900311846FEF76CF802460B46B9
:1023F00043EC102BD7F8C800FFF7B4FC53EC102BBC
:1024000010461946FEF750F9034619B2D7F8CC30FA
:10241000D7F80421083223F8321005E1D7F8FC0080
:10242000FEF750F802460B4643EC102BD7F8C800D5
:10243000FFF798FC53EC102B10461946FEF734F9C1
:10244000034619B2D7F8CC30D7F80421083223F864
:102450003210E9E0D7E93C01FEF770F802460B467E
:1024600043EC102BD7F8C800FFF77CFC53EC102B83
:1024700010461946FEF718F9034619B2D7F8CC30C2
:10248000D7F80421083223F83210CDE097F8EF3066
:102490001846FEF707F802460B4643EC102BD7F818
:1024A000C800FFF75FFC53EC102B10461946FEF7EF
:1024B000FBF8034619B2D7F8CC30D7F8042108321C
:1024C00023F83210B0E0B7F8EC301846FDF7EAFF19
:1024D00002460B4643EC102BD7F8C800FFF742FC2E
:1024E00053EC102B10461946FEF7DEF8034619B2DE
:1024F000D7F8CC30D7F80421083223F8321093E013
:10250000D7F8E800FDF7CEFF02460B4643EC102B50
:10251000D7F8C800FFF726FC53EC102B10461946DD
:10252000FEF7C2F8034619B2D7F8CC30D7F8042129
:10253000083223F8321077E0D7E93801FDF7F6FFCB
:1025400002460B4643EC102BD7F8C800FFF70AFCF5
:1025500053EC102B10461946FEF7A6F8034619B2A5
:10256000D7F8CC30D7F80421083223F832105BE0DA
:10257000B7F8DE3007EE903AF2EE677A17EE900A7F
:10258000FDF7B2FF02460B4643EC172BB0EE470AAD
:10259000F0EE670AD7F8C800FFF7E4FB53EC102B06
:1025A00010461946FEF780F8034619B2D7F8CC302A
:1025B000D7F80421083223F8321035E0D7F8D800D4
:1025C000FDF792FF02460B4643EC102BD7F8C800EC
:1025D000FFF7C8FB53EC102B10461946FEF764F8C2
:1025E000034619B2D7F8CC30D7F80421083223F8C3
:1025F000321019E097ED340BD7F8C800FFF7B2FBA3
:1026000053EC102B10461946FEF74EF8034619B24C
:10261000D7F8CC30D7F80421083223F8321003E081
:102620004FF0FF3301F093BC01F067BCD7F8C8301E
:1026300093F832300A2B00F24A8101A252F823F0BB
:102640006D260008A5260008DD26000813270008CF
:102650004927000881270008B9270008EF2700084C
:10266000252800086F280008A528000897F90331DD
:102670001846FDF727FF02460B4643EC102BD7F810
:10268000C800FFF76FFB53EC102B10461946FEF7FE
:102690000BF80146D7F8CC30D7F80421083243F8BC
:1026A000321018E1B7F900311846FDF70BFF02466A
:1026B0000B4643EC102BD7F8C800FFF753FB53EC45
:1026C000102B10461946FDF7EFFF0146D7F8CC3026
:1026D000D7F80421083243F83210FCE0D7F8FC00A8
:1026E000FDF7F0FE02460B4643EC102BD7F8C8006E
:1026F000FFF738FB53EC102B10461946FDF7D4FFBB
:102700000146D7F8CC30D7F80421083243F832100C
:10271000E1E0D7E93C01FDF711FF02460B4643EC2F
:10272000102BD7F8C800FFF71DFB53EC102B1046F9
:102730001946FDF7B9FF0146D7F8CC30D7F8042188
:10274000083243F83210C6E097F8EF301846FDF72C
:10275000A9FE02460B4643EC102BD7F8C800FFF742
:1027600001FB53EC102B10461946FDF79DFF014667
:10277000D7F8CC30D7F80421083243F83210AAE059
:10278000B7F8EC301846FDF78DFE02460B4643ECD9
:10279000102BD7F8C800FFF7E5FA53EC102B1046C2
:1027A0001946FDF781FF0146D7F8CC30D7F8042150
:1027B000083243F832108EE0D7F8E800FDF772FED9
:1027C00002460B4643EC102BD7F8C800FFF7CAFAB5
:1027D00053EC102B10461946FDF766FF0146D7F85B
:1027E000CC30D7F80421083243F8321073E0D7E92F
:1027F0003801FDF79BFE02460B4643EC102BD7F841
:10280000C800FFF7AFFA53EC102B10461946FDF73E
:102810004BFF0146D7F8CC30D7F80421083243F8F3
:10282000321058E0B7F8DE3007EE903AF2EE677AF1
:1028300017EE900AFDF758FE02460B4643EC172BA5
:10284000B0EE470AF0EE670AD7F8C800FFF78AFA39
:1028500053EC102B10461946FDF726FF0146D7F81A
:10286000CC30D7F80421083243F8321033E0D7F8DF
:10287000D800FDF739FE02460B4643EC102BD7F883
:10288000C800FFF76FFA53EC102B10461946FDF7FE
:102890000BFF0146D7F8CC30D7F80421083243F8B3
:1028A000321018E097ED340BD7F8C800FFF75AFA4A
:1028B00053EC102B10461946FDF7F6FE0146D7F8EB
:1028C000CC30D7F80421083243F8321003E04FF03F
:1028D000FF3301F03CBB01F010BBD7F8C83093F8D0
:1028E00032300A2B00F26C8101A252F823F000BFB3
:1028F0001D2900085B29000899290008D52900082E
:10290000112A00084F2A00088D2A0008C92A000849
:10291000052B0008552B0008912B000897F903316F
:102920001846FDF7CFFD02460B4643EC102BD7F8B7
:10293000C800FFF717FA53EC102B10461946FDF7A5
:1029400063FF02460B46D7F8CC00D7F804110831D4
:10295000C9000144C1E9002336E1B7F90031184646
:10296000FDF7B0FD02460B4643EC102BD7F8C8002C
:10297000FFF7F8F953EC102B10461946FDF744FF0A
:1029800002460B46D7F8CC00D7F804110831C9002D
:102990000144C1E9002317E1D7F8FC00FDF792FDDF
:1029A00002460B4643EC102BD7F8C800FFF7DAF9C4
:1029B00053EC102B10461946FDF726FF02460B4636
:1029C000D7F8CC00D7F804110831C9000144C1E997
:1029D0000023F9E0D7E93C01FDF7B0FD02460B46C4
:1029E00043EC102BD7F8C800FFF7BCF953EC102BC1
:1029F00010461946FDF708FF02460B46D7F8CC00F3
:102A0000D7F804110831C9000144C1E90023DBE013
:102A100097F8EF301846FDF745FD02460B4643ECAC
:102A2000102BD7F8C800FFF79DF953EC102B104678
:102A30001946FDF7E9FE02460B46D7F8CC00D7F859
:102A400004110831C9000144C1E90023BCE0B7F812
:102A5000EC301846FDF726FD02460B4643EC102BE2
:102A6000D7F8C800FFF77EF953EC102B1046194633
:102A7000FDF7CAFE02460B46D7F8CC00D7F8041182
:102A80000831C9000144C1E900239DE0D7F8E800FE
:102A9000FDF708FD02460B4643EC102BD7F8C800A3
:102AA000FFF760F953EC102B10461946FDF7ACFE0A
:102AB00002460B46D7F8CC00D7F804110831C900FC
:102AC0000144C1E900237FE0D7E93801FDF72EFD7D
:102AD00002460B4643EC102BD7F8C800FFF742F92B
:102AE00053EC102B10461946FDF78EFE02460B469E
:102AF000D7F8CC00D7F804110831C9000144C1E966
:102B0000002361E0B7F8DE3007EE903AF2EE677A24
:102B100017EE900AFDF7E8FC02460B4643EC172B34
:102B2000B0EE470AF0EE670AD7F8C800FFF71AF9C7
:102B300053EC102B10461946FDF766FE02460B4675
:102B4000D7F8CC00D7F804110831C9000144C1E915
:102B5000002339E0D7F8D800FDF7C6FC02460B4643
:102B600043EC102BD7F8C800FFF7FCF853EC102B00
:102B700010461946FDF748FE02460B46D7F8CC0032
:102B8000D7F804110831C9000144C1E900231BE052
:102B900097ED340BD7F8C800FFF7E4F853EC102B8F
:102BA00010461946FDF730FE02460B46D7F8CC001A
:102BB000D7F804110831C9000144C1E9002303E03A
:102BC0004FF0FF3301F0C3B901F097B9D7F8C8301F
:102BD00093F832300A2B00F2558101A252F823F00B
:102BE0000D2C0008472C0008812C0008B92C000887
:102BF000F12C00082B2D0008652D00089D2D0008E4
:102C0000D52D0008212E0008592E000897F9033110
:102C10001846FDF757FC02460B4643EC102BD7F83D
:102C2000C800FFF79FF853EC102B10461946FDF72C
:102C300063FD0346D9B2D7F8CC30D7F80421083267
:102C400003F8321022E1B7F900311846FDF73AFCDB
:102C500002460B4643EC102BD7F8C800FFF782F86A
:102C600053EC102B10461946FDF746FD0346D9B22A
:102C7000D7F8CC30D7F80421083203F8321005E138
:102C8000D7F8FC00FDF71EFC02460B4643EC102B68
:102C9000D7F8C800FFF766F853EC102B104619461A
:102CA000FDF72AFD0346D9B2D7F8CC30D7F8042176
:102CB000083203F83210E9E0D7E93C01FDF73EFCA9
:102CC00002460B4643EC102BD7F8C800FFF74AF832
:102CD00053EC102B10461946FDF70EFD0346D9B2F2
:102CE000D7F8CC30D7F80421083203F83210CDE001
:102CF00097F8EF301846FDF7D5FB02460B4643EC3C
:102D0000102BD7F8C800FFF72DF853EC102B104606
:102D10001946FDF7F1FC0346D9B2D7F8CC30D7F805
:102D20000421083203F83210B0E0B7F8EC3018464E
:102D3000FDF7B8FB02460B4643EC102BD7F8C80052
:102D4000FFF710F853EC102B10461946FDF7D4FC92
:102D50000346D9B2D7F8CC30D7F80421083203F8AB
:102D6000321093E0D7F8E800FDF79CFB02460B46D3
:102D700043EC102BD7F8C800FEF7F4FF53EC102BF0
:102D800010461946FDF7B8FC0346D9B2D7F8CC3047
:102D9000D7F80421083203F8321077E0D7E9380178
:102DA000FDF7C4FB02460B4643EC102BD7F8C800D6
:102DB000FEF7D8FF53EC102B10461946FDF79CFC8C
:102DC0000346D9B2D7F8CC30D7F80421083203F83B
:102DD00032105BE0B7F8DE3007EE903AF2EE677A39
:102DE00017EE900AFDF780FB02460B4643EC172BCB
:102DF000B0EE470AF0EE670AD7F8C800FEF7B2FF58
:102E000053EC102B10461946FDF776FC0346D9B259
:102E1000D7F8CC30D7F80421083203F8321035E067
:102E2000D7F8D800FDF760FB02460B4643EC102BA9
:102E3000D7F8C800FEF796FF53EC102B1046194642
:102E4000FDF75AFC0346D9B2D7F8CC30D7F80421A5
:102E5000083203F8321019E097ED340BD7F8C800A8
:102E6000FEF780FF53EC102B10461946FDF744FC8B
:102E70000346D9B2D7F8CC30D7F80421083203F88A
:102E8000321003E04FF0FF3301F061B801F035B8C4
:102E9000D7F8C83093F832300A2B00F2558101A2DE
:102EA00052F823F0D12E00080B2F0008452F000800
:102EB0007D2F0008B52F0008EF2F000829300008EB
:102EC0006130000899300008E53000081D31000825
:102ED00097F903311846FDF7F5FA02460B4643EC25
:102EE000102BD7F8C800FEF73DFF53EC102B10460F
:102EF0001946FDF701FC034699B2D7F8CC30D7F854
:102F00000421083223F8321022E1B7F900311846C3
:102F1000FDF7D8FA02460B4643EC102BD7F8C80051
:102F2000FEF720FF53EC102B10461946FDF7E4FB8B
:102F3000034699B2D7F8CC30D7F80421083223F8E9
:102F4000321005E1D7F8FC00FDF7BCFA02460B464B
:102F500043EC102BD7F8C800FEF704FF53EC102BFE
:102F600010461946FDF7C8FB034699B2D7F8CC3096
:102F7000D7F80421083223F83210E9E0D7E93C0100
:102F8000FDF7DCFA02460B4643EC102BD7F8C800DD
:102F9000FEF7E8FE53EC102B10461946FDF7ACFB8C
:102FA000034699B2D7F8CC30D7F80421083223F879
:102FB0003210CDE097F8EF301846FDF773FA02466D
:102FC0000B4643EC102BD7F8C800FEF7CBFE53ECB2
:102FD000102B10461946FDF78FFB034699B2D7F820
:102FE000CC30D7F80421083223F83210B0E0B7F81B
:102FF000EC301846FDF756FA02460B4643EC102B10
:10300000D7F8C800FEF7AEFE53EC102B1046194659
:10301000FDF772FB034699B2D7F8CC30D7F80421FC
:10302000083223F8321093E0D7F8E800FDF73AFAB7
:1030300002460B4643EC102BD7F8C800FEF792FE71
:1030400053EC102B10461946FDF756FB034699B278
:10305000D7F8CC30D7F80421083223F8321077E0C3
:10306000D7E93801FDF762FA02460B4643EC102B14
:10307000D7F8C800FEF776FE53EC102B1046194621
:10308000FDF73AFB034699B2D7F8CC30D7F80421C4
:10309000083223F832105BE0B7F8DE3007EE903AE2
:1030A000F2EE677A17EE900AFDF71EFA02460B461B
:1030B00043EC172BB0EE470AF0EE670AD7F8C800CA
:1030C000FEF750FE53EC102B10461946FDF714FB8B
:1030D000034699B2D7F8CC30D7F80421083223F848
:1030E000321035E0D7F8D800FDF7FEF902460B465E
:1030F00043EC102BD7F8C800FEF734FE53EC102B2E
:1031000010461946FDF7F8FA034699B2D7F8CC30C5
:10311000D7F80421083223F8321019E097ED340B68
:10312000D7F8C800FEF71EFE53EC102B10461946C8
:10313000FDF7E2FA034699B2D7F8CC30D7F804216C
:10314000083223F8321003E04FF0FF3300F0FFBEE7
:1031500000F0D3BED7F8C83093F832300A2B00F213
:103160004A8101A252F823F095310008CD310008C0
:10317000053200083B32000871320008A93200080D
:10318000E1320008173300084D3300089733000878
:10319000CD33000897F903311846FDF793F902463D
:1031A0000B4643EC102BD7F8C800FEF7DBFD53ECC1
:1031B000102B10461946FDF79FFA0146D7F8CC3080
:1031C000D7F80421083243F8321018E1B7F900317A
:1031D0001846FDF777F902460B4643EC102BD7F85B
:1031E000C800FEF7BFFD53EC102B10461946FDF743
:1031F00083FA0146D7F8CC30D7F80421083243F8D7
:103200003210FCE0D7F8FC00FDF75CF902460B46F3
:1032100043EC102BD7F8C800FEF7A4FD53EC102B9D
:1032200010461946FDF768FA0146D7F8CC30D7F8B2
:103230000421083243F83210E1E0D7E93C01FDF700
:103240007DF902460B4643EC102BD7F8C800FEF779
:1032500089FD53EC102B10461946FDF74DFA014637
:10326000D7F8CC30D7F80421083243F83210C6E042
:1032700097F8EF301846FDF715F902460B4643EC78
:10328000102BD7F8C800FEF76DFD53EC102B10463D
:103290001946FDF731FA0146D7F8CC30D7F80421AA
:1032A000083243F83210AAE0B7F8EC301846FDF7C0
:1032B000F9F802460B4643EC102BD7F8C800FEF78E
:1032C00051FD53EC102B10461946FDF715FA014637
:1032D000D7F8CC30D7F80421083243F832108EE00A
:1032E000D7F8E800FDF7DEF802460B4643EC102B5A
:1032F000D7F8C800FEF736FD53EC102B10461946E0
:10330000FDF7FAF90146D7F8CC30D7F80421083296
:1033100043F8321073E0D7E93801FDF707F90246A8
:103320000B4643EC102BD7F8C800FEF71BFD53ECFF
:10333000102B10461946FDF7DFF90146D7F8CC30BF
:10334000D7F80421083243F8321058E0B7F8DE30DD
:1033500007EE903AF2EE677A17EE900AFDF7C4F89E
:1033600002460B4643EC172BB0EE470AF0EE670A15
:10337000D7F8C800FEF7F6FC53EC102B10461946A0
:10338000FDF7BAF90146D7F8CC30D7F80421083256
:1033900043F8321033E0D7F8D800FDF7A5F802461D
:1033A0000B4643EC102BD7F8C800FEF7DBFC53ECC0
:1033B000102B10461946FDF79FF90146D7F8CC307F
:1033C000D7F80421083243F8321018E097ED340B97
:1033D000D7F8C800FEF7C6FC53EC102B1046194670
:1033E000FDF78AF90146D7F8CC30D7F80421083226
:1033F00043F8321003E04FF0FF3300F0A8BD00F0B7
:103400007CBDD7F8C83093F832300A2B00F26C81BB
:1034100001A252F823F000BF4534000883340008AD
:10342000C1340008FD34000839350008773500083C
:10343000B5350008F13500082D3600087D36000846
:10344000B936000897F903311846FDF73BF80246F4
:103450000B4643EC102BD7F8C800FEF783FC53EC67
:10346000102B10461946FDF7E7F902460B46D7F830
:10347000CC00D7F804110831C9000144C1E9002388
:1034800036E1B7F900311846FDF71CF802460B4645
:1034900043EC102BD7F8C800FEF764FC53EC102B5C
:1034A00010461946FDF7C8F902460B46D7F8CC007E
:1034B000D7F804110831C9000144C1E9002317E11C
:1034C000D7F8FC00FCF7FEFF02460B4643EC102B3E
:1034D000D7F8C800FEF746FC53EC102B10461946EF
:1034E000FDF7AAF902460B46D7F8CC00D7F804112D
:1034F0000831C9000144C1E90023F9E0D7E93C01E2
:10350000FDF71CF802460B4643EC102BD7F8C80019
:10351000FEF728FC53EC102B10461946FDF78CF9EA
:1035200002460B46D7F8CC00D7F804110831C90081
:103530000144C1E90023DBE097F8EF301846FCF7BF
:10354000B1FF02460B4643EC102BD7F8C800FEF73C
:1035500009FC53EC102B10461946FDF76DF9024695
:103560000B46D7F8CC00D7F804110831C900014444
:10357000C1E90023BCE0B7F8EC301846FCF792FF35
:1035800002460B4643EC102BD7F8C800FEF7EAFBC7
:1035900053EC102B10461946FDF74EF902460B4628
:1035A000D7F8CC00D7F804110831C9000144C1E9AB
:1035B00000239DE0D7F8E800FCF774FF02460B46B5
:1035C00043EC102BD7F8C800FEF7CCFB53EC102BC4
:1035D00010461946FDF730F902460B46D7F8CC00E5
:1035E000D7F804110831C9000144C1E900237FE084
:1035F000D7E93801FCF79AFF02460B4643EC102B43
:10360000D7F8C800FEF7AEFB53EC102B1046194656
:10361000FDF712F902460B46D7F8CC00D7F8041193
:103620000831C9000144C1E9002361E0B7F8DE3088
:1036300007EE903AF2EE677A17EE900AFCF754FF25
:1036400002460B4643EC172BB0EE470AF0EE670A32
:10365000D7F8C800FEF786FB53EC102B104619462E
:10366000FDF7EAF802460B46D7F8CC00D7F804116C
:103670000831C9000144C1E9002339E0D7F8D80076
:10368000FCF732FF02460B4643EC102BD7F8C8007C
:10369000FEF768FB53EC102B10461946FDF7CCF8EB
:1036A00002460B46D7F8CC00D7F804110831C90000
:1036B0000144C1E900231BE097ED340BD7F8C800A3
:1036C000FEF750FB53EC102B10461946FDF7B4F8EB
:1036D00002460B46D7F8CC00D7F804110831C900D0
:1036E0000144C1E9002303E04FF0FF3300F02FBC99
:1036F00000F003BCD7F8C83093F832300A2B00F240
:103700004A8101A252F823F0353700086D370008CE
:10371000A5370008DB3700081138000849380008D1
:1037200081380008B7380008ED380008373900083C
:103730006D39000897F903311846FCF7C3FE0246BD
:103740000B4643EC102BD7F8C800FEF70BFB53ECED
:10375000102B10461946FDF731FB0146D7F8CC3047
:10376000D7F80421083223F8321017E1B7F90031F5
:103770001846FCF7A7FE02460B4643EC102BD7F881
:10378000C800FEF7EFFA53EC102B10461946FDF770
:1037900015FB0146D7F8CC30D7F80421083223F8BE
:1037A0003210FBE0D7F8FC00FCF78CFE02460B461B
:1037B00043EC102BD7F8C800FEF7D4FA53EC102BCB
:1037C00010461946FDF7FAFA0146D7F8CC30D7F87B
:1037D0000421083223F83210E0E0D7E93C01FCF77D
:1037E000ADFE02460B4643EC102BD7F8C800FEF79F
:1037F000B9FA53EC102B10461946FDF7DFFA0146D3
:10380000D7F8CC30D7F80421083223F83210C5E0BD
:1038100097F8EF301846FCF745FE02460B4643EC9E
:10382000102BD7F8C800FEF79DFA53EC102B10466A
:103830001946FDF7C3FA0146D7F8CC30D7F8042172
:10384000083223F83210A9E0B7F8EC301846FCF73C
:1038500029FE02460B4643EC102BD7F8C800FEF7B2
:1038600081FA53EC102B10461946FDF7A7FA0146D2
:10387000D7F8CC30D7F80421083223F832108DE085
:10388000D7F8E800FCF70EFE02460B4643EC102B7F
:10389000D7F8C800FEF766FA53EC102B104619460D
:1038A000FDF78CFA0146D7F8CC30D7F8042108325E
:1038B00023F8321072E0D7E93801FCF737FE0246F0
:1038C0000B4643EC102BD7F8C800FEF74BFA53EC2D
:1038D000102B10461946FDF771FA0146D7F8CC3087
:1038E000D7F80421083223F8321057E0B7F8DE3059
:1038F00007EE903AF2EE677A17EE900AFCF7F4FDC5
:1039000002460B4643EC172BB0EE470AF0EE670A6F
:10391000D7F8C800FEF726FA53EC102B10461946CC
:10392000FDF74CFA0146D7F8CC30D7F8042108321D
:1039300023F8321032E0D7F8D800FCF7D5FD024664
:103940000B4643EC102BD7F8C800FEF70BFA53ECEC
:10395000102B10461946FDF731FA0146D7F8CC3046
:10396000D7F80421083223F8321017E097ED340B12
:10397000D7F8C800FEF7F6F953EC102B104619469D
:10398000FDF71CFA0146D7F8CC30D7F804210832ED
:1039900023F8321002E04FF0FF33D8E2ADE2D7F85F
:1039A000C83093F832300A2B00F2568101A252F847
:1039B00023F000BFE13900081B3A0008553A00081F
:1039C0008D3A0008C53A0008FF3A0008393B000864
:1039D000713B0008A93B0008F53B00082D3C00089E
:1039E00097F903311846FCF76DFD02460B4643EC90
:1039F000102BD7F8C800FEF7B5F953EC102B104682
:103A00001946FCF799FE0146D7F8CC20D7F80431C7
:103A10000833DB001344196021E1B7F9003118467F
:103A2000FCF750FD02460B4643EC102BD7F8C800BC
:103A3000FEF798F953EC102B10461946FCF77CFE64
:103A40000146D7F8CC20D7F804310833DB00134403
:103A5000196004E1D7F8FC00FCF734FD02460B4680
:103A600043EC102BD7F8C800FEF77CF953EC102B71
:103A700010461946FCF760FE0146D7F8CC20D7F86F
:103A800004310833DB0013441960E8E0D7E93C0156
:103A9000FCF754FD02460B4643EC102BD7F8C80048
:103AA000FEF760F953EC102B10461946FCF744FE64
:103AB0000146D7F8CC20D7F804310833DB00134493
:103AC0001960CCE097F8EF301846FCF7EBFC0246A3
:103AD0000B4643EC102BD7F8C800FEF743F953EC24
:103AE000102B10461946FCF727FE0146D7F8CC20CC
:103AF000D7F804310833DB0013441960AFE0B7F89E
:103B0000EC301846FCF7CEFC02460B4643EC102B7B
:103B1000D7F8C800FEF726F953EC102B10461946CB
:103B2000FCF70AFE0146D7F8CC20D7F80431083359
:103B3000DB001344196092E0D7F8E800FCF7B2FC10
:103B400002460B4643EC102BD7F8C800FEF70AF9E3
:103B500053EC102B10461946FCF7EEFD0146D7F842
:103B6000CC20D7F804310833DB001344196076E029
:103B7000D7E93801FCF7DAFC02460B4643EC102B80
:103B8000D7F8C800FEF7EEF853EC102B1046194694
:103B9000FCF7D2FD0146D7F8CC20D7F80431083322
:103BA000DB00134419605AE0B7F8DE3007EE903AB4
:103BB000F2EE677A17EE900AFCF796FC02460B4687
:103BC00043EC172BB0EE470AF0EE670AD7F8C800AF
:103BD000FEF7C8F853EC102B10461946FCF7ACFD65
:103BE0000146D7F8CC20D7F804310833DB00134462
:103BF000196034E0D7F8D800FCF776FC02460B4693
:103C000043EC102BD7F8C800FEF7ACF853EC102BA0
:103C100010461946FCF790FD0146D7F8CC20D7F89E
:103C200004310833DB001344196018E097ED340BBE
:103C3000D7F8C800FEF796F853EC102B104619463B
:103C4000FCF77AFD0146D7F8CC20D7F804310833C9
:103C5000DB001344196002E04FF0FF3377E14CE1E1
:103C6000D7F8C83093F832300A2B00F23F8101A216
:103C700052F823F0A13C0008D73C00080D3D000895
:103C8000413D0008753D0008AB3D0008E13D0008DE
:103C9000153E0008493E0008913E0008C53E000858
:103CA00097F903311846FCF70DFC02460B4643EC2E
:103CB000102BD7F8C800FEF755F8B0EE407AF0EEBA
:103CC000607AD7F8CC20D7F804310833DB001344EE
:103CD00083ED007B0DE1B7F900311846FCF7F2FBEC
:103CE00002460B4643EC102BD7F8C800FEF73AF813
:103CF000B0EE407AF0EE607AD7F8CC20D7F80431F5
:103D00000833DB00134483ED007BF2E0D7F8FC00BE
:103D1000FCF7D8FB02460B4643EC102BD7F8C80043
:103D2000FEF720F8B0EE407AF0EE607AD7F8CC20BB
:103D3000D7F804310833DB00134483ED007BD8E06F
:103D4000D7E93C01FCF7FAFB02460B4643EC102B8B
:103D5000D7F8C800FEF706F8B0EE407AF0EE607AC9
:103D6000D7F8CC20D7F804310833DB00134483EDB7
:103D7000007BBEE097F8EF301846FCF793FB024655
:103D80000B4643EC102BD7F8C800FDF7EBFFB0EE65
:103D9000407AF0EE607AD7F8CC20D7F804310833B7
:103DA000DB00134483ED007BA3E0B7F8EC3018464A
:103DB000FCF778FB02460B4643EC102BD7F8C80003
:103DC000FDF7D0FFB0EE407AF0EE607AD7F8CC2065
:103DD000D7F804310833DB00134483ED007B88E01F
:103DE000D7F8E800FCF75EFB02460B4643EC102BCD
:103DF000D7F8C800FDF7B6FFB0EE407AF0EE607A73
:103E0000D7F8CC20D7F804310833DB00134483ED16
:103E1000007B6EE0D7E93801FCF788FB02460B46D1
:103E200043EC102BD7F8C800FDF79CFFB0EE407AAA
:103E3000F0EE607AD7F8CC20D7F804310833DB00F5
:103E4000134483ED007B54E0B7F8DE3007EE903A80
:103E5000F2EE677A17EE900AFCF746FB02460B4635
:103E600043EC172BB0EE470AF0EE670AD7F8C8000C
:103E7000FDF778FFB0EE407AF0EE607AD7F8CC200C
:103E8000D7F804310833DB00134483ED007B30E0C6
:103E9000D7F8D800FCF728FB02460B4643EC102B62
:103EA000D7F8C800FDF75EFFB0EE407AF0EE607A1A
:103EB000D7F8CC20D7F804310833DB00134483ED66
:103EC000007B16E097ED340BD7F8C800FDF74AFFEA
:103ED000B0EE407AF0EE607AD7F8CC20D7F8043113
:103EE0000833DB00134483ED007B02E04FF0FF3327
:103EF0002DE002E04FF0FF3329E0D7F8C830D86852
:103F0000D7F8C8305A6BD7F8CC30D7F8041143F83B
:103F10003100D7F8CC10D7F80431DB000B445A60DD
:103F2000D7F804310133C7F80431D7F80421D7F8A2
:103F30000C319A42FDF4D5AFD7F80C21D7F8CC302C
:103F4000C3F88020D7F8CC0000F004FA002318460C
:103F500007F58A77BD4690BD90B5A3B000AF9748EE
:103F600001F07EFDF8679649F86F02F09AF8B8679D
:103F70000023C7F88430BB6F002B02D0BB6F9B6857
:103F800000E00023C7F880300CE100233B600023F1
:103F90007B600023BB600023FB6000233B61894BF7
:103FA00007F114040FCB07C4238002341B0C2370C9
:103FB00007F1230300221A605A609A60C3F80B20AD
:103FC0000B2387F832300B2387F83330D7F884304F
:103FD0005A1CC7F884207B634FF000027A4BC7E974
:103FE0000E234FF000024FF00003C7E91023012316
:103FF00087F84830D7F8800002F090F80346002B8D
:1040000000F0CB807149D7F8800002F03BF8786768
:104010006F49D7F8800002F035F838676D49D7F856
:10402000800002F02FF8F8666B49D7F8800002F0A4
:1040300029F8B8666949D7F8800002F023F8786655
:104040006749D7F8800002F01DF838666549D7F84F
:10405000800002F017F8F8656349D7F8800002F095
:1040600011F8B8656149D7F8800002F00BF878655F
:10407000786F02F025F80346002B02D07B6F5B6956
:104080007B60386F02F01CF80346002B02D03B6FB8
:104090005B693B60386E02F013F80346002B02D0D8
:1040A0003B6E5B69BB60F86D02F00AF80346002BBB
:1040B00004D0FB6DD3E90623C7E90E23B86D01F0E8
:1040C000FFFF0346002B04D0BB6DD3E90623C7E9ED
:1040D0001023786D01F0F4FF0346002B08D07B6DB0
:1040E0005B69002B14BF01230023DBB287F8483043
:1040F000F86E01F0FCFF0346002B0BD0FB6E1B6932
:10410000002B07D0FB6E19693B4614331E2218465C
:104110000CF0E0FDB86E01F0EAFF0346002B12D070
:10412000BB6E1B69002B0ED0BB6E1B691846FDF7DA
:10413000F3FD034687F8323097F832301A462C4B9D
:1041400053F822303B61786E01F0D1FF0346002B1B
:1041500012D07B6E1B69002B0ED07B6E1B6918463C
:10416000FDF7DAFD034687F8333097F833301A4607
:104170001F4B53F82230FB601E4B1A68531C1D491D
:104180000B601D4913469B0013441B010B4418464A
:104190003B46502219460CF0B7FDD7F880301B681B
:1041A000C7F88030D7F88030002B7FF4EEAEF86F80
:1041B00000F076FF00BF8C37BD4690BD685D0108FA
:1041C00028290108742901080000F03F302901085E
:1041D0003429010838290108402901084829010823
:1041E000542901085C290108642901086C29010887
:1041F00064770108AC2A0020B02A002080B500AF07
:10420000054B1B684FF4E1720021044808F078FF69
:104210000346184680BD00BF9C4F0020D84D0020AB
:1042200080B500AF4FF47A7200210548FDF747F9D9
:104230004FF4E17200210348FDF741F900BF80BD52
:10424000F0490020D84D0020F0B58BB002AF00231C
:10425000FB6153E03949FA6913469B0013445B0044
:104260000B441B78002B46D0FA6913469B0013447D
:104270005B00324A1344981C3049FA6913469B008C
:1042800013445B000B441B781E462C49FA69134605
:104290009B0013445B000B4401331B7806FB03F3C4
:1042A000274A194608F04BF978617B69002B04D145
:1042B0004FF48371234803F0ACF9FB6900221C46DC
:1042C0001546C7E90245204B19681D4B01937B69D0
:1042D0000093D7E90223084608F0EAF90346FB7188
:1042E000FB7983F00103DBB2002B04D040F20D1107
:1042F000164803F08EF9FB690133FB61FB69632B00
:10430000A8D9FFF77BFFB8610F4B1B68184607F071
:10431000A3FD0B4808F0E9F803460B4A13600A4B6B
:104320001B68002B04D140F21711094803F071F902
:10433000BB6918462437BD46F0BD00BFF0490020D8
:10434000A04F0020642A01089C4F0020BC2A0108CD
:104350000C2B010880B586B000AF786000237B612C
:1043600041E07A687B69DB0013445A6813469B007E
:1043700013445B00214A13443B613B691B78194697
:104380007B687A6953F832300822B2FBF3F3994222
:1043900030D23B691B7819467B687A6953F8323012
:1043A00001FB03F33A6913440233FB607B69083372
:1043B000DB007A68D1187B687A6953F832301A4684
:1043C000F8680CF0A1FC7B687A6953F83230DAB2F5
:1043D0003B695A703B691B780133DAB23B691A704A
:1043E0007B6901337B617B68D3F880307A699A42BC
:1043F000B7DB00E000BF1837BD4680BDF0490020A4
:1044000080B500AF084808F070F80346074A13600B
:10441000064B1B68002B04D140F23311044803F013
:10442000F8F800BF80BD00BFA04F00209C4F0020C7
:104430000C2B010880B400AF01231846BD465DF87F
:10444000047B704780B582B000AF786039600CF0B3
:1044500055FC034616221A604FF0FF331846083702
:10446000BD4680BD80B582B000AF78604FF0FF31AF
:104470007868FFF7E7FF00BFFDE780B586B000AFC3
:10448000F860B9607A6000237B610AE0AFF30080D6
:104490000146BB685A1CBA60CAB21A707B69013304
:1044A0007B617A697B689A42F0DB7B681846183733
:1044B000BD4680BD80B586B000AFF860B9607A6057
:1044C00000237B6109E0BB685A1CBA601B78184660
:1044D000AFF300807B6901337B617A697B689A4224
:1044E000F1DB7B6818461837BD4680BD80B483B0C9
:1044F00000AF78604FF0FF3318460C37BD465DF8CB
:10450000047B704780B483B000AF786039603B684B
:104510004FF400525A60002318460C37BD465DF830
:10452000047B704780B483B000AF786001231846E5
:104530000C37BD465DF8047B704780B485B000AF92
:10454000F860B9607A60002318461437BD465DF8FC
:10455000047B704780B586B000AF7860144A154B75
:10456000D31A7B617B693B61134B1B68002B02D123
:10457000114B124A1A60104B1A687B6813443A694F
:104580009A4207D20CF0BAFB03460C221A604FF095
:10459000FF3309E0084B1B68FB60074B1A687B6818
:1045A0001344054A1360FB6818461837BD4680BDA2
:1045B0000000052000040000A84F0020A0DA002021
:1045C00080B400AF084BDB68074A43F08073D360C8
:1045D000064B1B68054A43F00103136000BFBD464C
:1045E0005DF8047B704700BFF0ED00E0001000E0D4
:1045F00080B59AB000AF78600AF0D8FA03463B66FF
:10460000FFF7DEFF08F048FFFFF71EFE78667B6EBF
:10461000002B0ADC08F06AFF4FF47A7207F160039E
:10462000114618460AF096F8ECE707F10803184619
:1046300004F082F87B6E1A46144915480CF064FBAE
:10464000FFF7EEFD134B002283F86420114B00228C
:1046500083F86520082200210F48FCF730FF08F09E
:1046600045FF7B6E07F10801094A0C4803F0B2FFD1
:1046700007F10803184604F093F84FF47A7207F133
:104680006003114618460AF065F8BBE7D84D0020D4
:104690002C930020F0490020564A0020AC4F002007
:1046A00090B5ADF51F7D02AF07F51C73A3F51B7325
:1046B00018600AF07BFA0346C7F8543207F51C73FA
:1046C000A3F5197318464FF412731A460021FCF72C
:1046D000F6FE0023C7F86C322EE107F51C73A3F534
:1046E0001972D7F86C324FF4927101FB03F3134443
:1046F00003F590731B68C3F1C803C7F85C3207F178
:104700000C02D7F86C324FF4927101FB03F313449F
:10471000184604F011F807F10C02D7F86C324FF488
:10472000927101FB03F3D01807F10C02D7F86C3239
:104730004FF4927101FB03F358331A4407F51C73CD
:10474000A3F51971D7F86C324FF4927404FB03F39C
:104750000B4403F590731B681A4401230093D7F8A8
:104760005C3201467B4803F083FF07F10C02D7F867
:104770006C324FF4927101FB03F31344184604F0BA
:104780000FF8C7F8580207F51C73A3F51972D7F88C
:104790006C324FF4927101FB03F3134403F59073F1
:1047A0001A68D7F858321A4407F51C73A3F5197123
:1047B000D7F86C324FF4927000FB03F30B4403F50F
:1047C00090731A600023C7F868320123C7F860327B
:1047D0001FE007F10C02D7F86C324FF4927101FB25
:1047E00003F3583313445C4AD7F86012184607F0B5
:1047F00039FEC7F86802D7F86832002B04D0D7F822
:104800006032C7F8643216E0D7F860320133C7F877
:10481000603207F51C73A3F51972D7F86C324FF4A8
:10482000927101FB03F3134403F590731B68D7F8EF
:1048300060229A42CDD9D7F86832002B1FD107F5F4
:104840001C73A3F51972D7F86C324FF4927101FB07
:1048500003F3134403F590731B68C82B0FD107F5BE
:104860001C73A3F51972D7F86C324FF4927101FBE7
:1048700003F3134403F5907300221A6057E0D7F84E
:104880006832002B52D007F10C02D7F86C324FF48B
:10489000927101FB03F35833D01807F10C02D7F8DB
:1048A0006C324FF4927101FB03F358331A44D7F87A
:1048B0006432D11807F51C73A3F51972D7F86C325E
:1048C0004FF4927404FB03F3134403F590731A68D6
:1048D000D7F86432D31A1A460CF0D0F907F51C73D6
:1048E000A3F51972D7F86C324FF4927101FB03F300
:1048F000134403F590731A68D7F86432D21A07F597
:104900001C73A3F51971D7F86C324FF4927000FB49
:1049100003F30B4403F590731A60D7F8680200F0B4
:104920001DF8D7F8680207F097FA00E000BFD7F843
:104930006C320133C7F86C32D7F86C32012B7FF63A
:10494000CCAE4FF47A7207F515731146184609F08C
:1049500001FFBEE6AC4F0020F094002090B5EDB012
:1049600002AF07F5D473A3F5D273186007F5D473BB
:10497000A3F5D273B449186808F0E8FBC7F88C01B6
:1049800007F5D473A3F5D273B049186808F0DEFBBD
:10499000C7F8880107F5D473A3F5D273AC4918683A
:1049A00008F0D4FBC7F8840107F5D473A3F5D273DC
:1049B000A849186808F0CAFBC7F88001D7F88C31FD
:1049C000002B00F01881A449D7F88C0108F0BEFB39
:1049D000C7F87C01A149D7F88C0108F0B7FBC7F8EC
:1049E00078019F49D7F88C0108F0B0FBC7F8740133
:1049F0009C49D7F88C0108F0A9FBC7F870019A49C7
:104A0000D7F88C0108F0A2FBC7F86C01D7F87C310D
:104A1000002B00F0F080D7F87C311B78052B05D0F7
:104A2000D7F87C311B78042B40F0E580D7F874313F
:104A3000002B00F0E080D7F874311B78052B05D0EF
:104A4000D7F874311B78042B40F0D580D7F8743137
:104A50009B68022B00F2CF80D7F87831002B00F052
:104A6000CA80D7F878311B78062B05D0D7F8783173
:104A70001B780B2B40F0BF80D7F87C319B689BB232
:104A800040F22552934275D10423C7F864310023C4
:104A9000C7F8A43165E007F5D473A3F59873002235
:104AA0001A601A71D7F8A421D7F86431B2FBF3F376
:104AB000DAB207F5D473A3F598731A700023C7F818
:104AC000A03122E0D7F8A421D7F8A0311344D7F8B9
:104AD00078211269934213D2D7F878319A68D7F8BF
:104AE000A411D7F8A0310B441344197807F5D473F7
:104AF000A3F59872D7F8A031134401330A461A700F
:104B0000D7F8A0310133C7F8A031D7F8A021D7F8E2
:104B100064319A42D6D3D7F874319B68D8B2D7F8AB
:104B20007C319B6899B207F178024FF0FF33009314
:104B30000523FCF7D9FF0AF039F8024607F5D473CC
:104B4000A3F59E731A60052207F16C0311461846FF
:104B500009F000FED7F8A421D7F864311344C7F850
:104B6000A431D7F878311B691A46D7F8A43193429B
:104B700091D340E0D7F87C319B689BB240F2E2626F
:104B8000934219D1D7F878311B69012B33D1D7F86B
:104B900078319B68C7F86831D7F874319B68D8B210
:104BA000D7F87C319B6899B2C82300930123D7F8CA
:104BB0006821FCF799FF1EE0D7F874319B68002B41
:104BC00004D0D7F874319B68012B14D1D7F8743115
:104BD0009B68D8B2D7F87C319B6899B2D7F8783106
:104BE0009A68D7F878311B691C464FF0FF33009361
:104BF0002346FCF779FF1D4807F077FCC7F86001F2
:104C00000023C7F89C31D7F86031002B00F0648195
:104C1000D7F88831002B74D0D7F888311B78062B51
:104C200004D0D7F888311B78072B6AD1D7F88831A0
:104C30001B69012B65D9D7F888311B69C7F85C312E
:104C40000023C7F8983153E0642B0108682B010852
:104C5000702B0108782B0108842B0108882B010890
:104C6000902B0108942B01089C2B0108F094002044
:104C7000D7F888319A68D7F898311344C7F8583173
:104C8000D7F858311B78632B2CD8D7F858315B787C
:104C9000052B27D8D7F89C315A1CC7F89C21D7F888
:104CA00058211078D7F85821517807F5D472A2F519
:104CB000947202F8130007F5D472A2F594725B00A7
:104CC00013440A465A70D7F858311B781A46854B58
:104CD0001344C7F85431D7F858315A78D7F85431BB
:104CE0001A7000E000BFD7F898310233C7F8983146
:104CF000D7F89821D7F85C319A42B9D3FCF752FF24
:104D00002DE0D7F88431002B29D00023C7F8943147
:104D10001FE0D7F89C315A1CC7F89C21D7F8942182
:104D2000D0B27049D7F894210A44117807F5D472AB
:104D3000A2F5947202F8130007F5D472A2F59472EA
:104D40005B0013440A465A70D7F894310133C7F810
:104D50009431654B1B68D7F894219A42D9D3D7F880
:104D60008031002B56D0D7F880311B78062B04D029
:104D7000D7F880311B78072B4CD10023C7F890312E
:104D80003EE0D7F880311B78062B1AD1D7F8803156
:104D90009A68D7F8903113441B78002B2BD0D7F8A2
:104DA00080319A68D7F8903113441B78002B14BFD8
:104DB00001230023DBB21946D7F89001FCF7F8FF76
:104DC00019E0D7F880319A68D7F8903113441B78EE
:104DD000002B10D0D7F880319A68D7F8903113445F
:104DE0001B78002B14BF01230023DBB21946D7F830
:104DF0009001FCF7DDFFD7F890310133C7F890310F
:104E0000D7F880311B69642B28BF6423D7F8902121
:104E10009A42B6D3D7F89C31002B38D0D7F89C31C2
:104E20005B00194607F18003304A184607F087FBFC
:104E3000C7F84C01D7F84C31002B07D02B4BD7F8D3
:104E40004C212B49D7F8600107F05FFCD7F860319F
:104E50004FF4E1720021274808F052F9C7F84801E1
:104E6000D7F84831002B32DD07F10C03184603F068
:104E700063FCD7F8483107F10C011E4A1E4803F0C5
:104E8000A9FB07F10C03184603F08AFC1FE0D7F8D2
:104E900060314FF4E1720021164808F031F9C7F88B
:104EA0005001D7F85031002B11DD07F10C031846E3
:104EB00003F042FCD7F8503107F10C010D4A0E48BF
:104EC00003F088FB07F10C03184603F069FCD7F8E0
:104ED000600106F0C1FF00E000BF07F5D677BD46D0
:104EE00090BD00BF7C090020AC2A0020F094002077
:104EF000682B0108F8940020AC4F0020B0B590B0AA
:104F000008AF1A4B3C1D1D460FCD0FC495E8070096
:104F100084E807003A1D4FF000630693144B059395
:104F20004FF000630493134B03934FF40073029309
:104F3000114B01934FF4806300930F4B0F491048BE
:104F400003F030F9002300930E4B02220E490F4864
:104F500002F07AFC002300930D4B02220D490E480B
:104F600002F072FC00BF2037BD46B0BDB82B01086F
:104F7000B864024088640240000002400010014012
:104F8000AC4F0020F1450008A82B0108C472002096
:104F9000A1460008B02B01085C52002080B485B007
:104FA00000AF786039607B68002B02D03B68002B33
:104FB00001D1012356E07A683B689A420DD1002363
:104FC00050E07B681B78002B01D100234AE07B680E
:104FD00001337B603B6801333B607B681B78FB736C
:104FE000FB7B0133224A13441B7803F00303012B9C
:104FF00003D1FB7B03F1200200E0FA7B3B681B78C6
:10500000BB73BB7B01331A490B441B7803F00303CA
:10501000012B02D1BB7B203300E0BB7B9A42D0D076
:105020007B681B787B737B7B0133114A13441B78AD
:1050300003F00303012B03D17B7B03F1200200E08B
:105040007A7B3B681B783B733B7B013308490B44FD
:105050001B7803F00303012B02D13B7B203300E0DC
:105060003B7BD31A18461437BD465DF8047B704766
:105070009878010880B584B000AF78607B681B68C1
:1050800028209847F860FB68002B04D028220021D4
:10509000F868FCF714FAFB6818461037BD4680BD67
:1050A00080B584B000AF78600023FB603DE07B6892
:1050B0001B68FB607B68DB6803F48073002B08D1FE
:1050C0007B689B68002B04D07B689B681846FFF7C1
:1050D000E7FF7B68DB6803F48073002B0CD17B68EF
:1050E0001B69002B08D0154B5B687A681269104663
:1050F00098477B6800221A617B68DB6803F40073C1
:10510000002B0CD17B681B6A002B08D00B4B5B6813
:105110007A68126A104698477B6800221A62074B29
:105120005B6878689847FB687B607B68002BBED122
:1051300000BF00BF1037BD4680BD00BFDC040020AB
:1051400080B400AF2E231846BD465DF8047B70473F
:1051500080B598B000AF786039604FF000024FF032
:105160000003C7E914230023BB64FFF7E9FF0346EC
:1051700087F84F300023FB653B68002B03D03B686A
:105180001B68002B01D10023A0E00023FB653DE05C
:105190003B681A683B689968FB6D0B4413441B78A5
:1051A000452B17DC2B2B40DB2B3B01229A404C4B31
:1051B0001340002B14BF01230023DBB2002B0BD1C3
:1051C00002F00803002B14BF01230023DBB2002BE5
:1051D00011D12AE0652B28D13B681A683B68996891
:1051E000FB6D0B441344197807F10802FB6D13445F
:1051F0000A461A7007E007F10802FB6D134497F89E
:105200004F201A7000BFFB6D0133FB65FB6D3E2B19
:105210000DD83B68002B0AD03B689A68FB6D1A4496
:105220003B685B689A42B3D301E000BF00E000BF77
:1052300007F10802FB6D134400221A7007F14802BF
:1052400007F10803114618460BF0EAFC87ED140B32
:10525000BA6C07F108039A4201D1002336E079685D
:10526000D7E91423C1E906231BA3D3E90023D7E917
:105270001401FBF705FA0346002B04D07B686FF09E
:1052800000425A6115E04FF00002164BD7E91401B5
:10529000FBF7ECF90346002B04D07B684FF000428B
:1052A0005A6106E0D7E91401FBF7FEF902467B6874
:1052B0005A617B680822DA603B689B68B96C07F129
:1052C00008028A1A1A443B689A600123184660371C
:1052D000BD4680BDAFF300800000C0FFFFFFDF418F
:1052E000E57F00040000E0C180B485B000AF7860C5
:1052F0000023FB600023BB600023BB604CE07A68A6
:10530000BB6813441B782F2B0FD97A68BB681344F2
:105310001B78392B09D87A68BB6813441B781A4666
:10532000FB681344303BFB602DE07A68BB68134494
:105330001B78402B0FD97A68BB6813441B78462B27
:1053400009D87A68BB6813441B781A46FB68134473
:10535000373BFB6017E07A68BB6813441B78602B0F
:105360000FD97A68BB6813441B78662B09D87A6812
:10537000BB6813441B781A46FB681344573BFB6019
:1053800001E000230CE0BB68022B02D8FB681B0184
:10539000FB60BB680133BB60BB68032BAFD9FB6804
:1053A00018461437BD465DF8047B704780B58AB057
:1053B00000AFF860B9607A6000237B620023FB6174
:1053C000FB68BB61002387F82330002387F8223075
:1053D000002387F82130002387F82030BA68BB69A2
:1053E000D31A052B40F3B780BB6902331846FFF789
:1053F0007BFFF861FB69B3F55C4F04D3FB69B3F540
:10540000604FC0F0AA80FB69B3F5584F37D3FB69F2
:10541000B3F55C4F33D2BB6906337B6100233B613C
:105420000C2387F82130BA687B69D31A052B40F327
:1054300096807B691B785C2B40F093807B690133FD
:105440001B78752B40F08D807B6902331846FFF77F
:105450004BFF38613B69B3F55C4FC0F084803B691A
:10546000B3F5604F7FD2FB699A02434B13403A6910
:10547000C2F30902134303F580337B6204E0062381
:1054800087F82130FB697B627B6A7F2B03D801237D
:1054900087F823301FE07B6AB3F5006F06D2022342
:1054A00087F82330C02387F8203014E07B6AB3F5F7
:1054B000803F06D2032387F82330E02387F820308B
:1054C00009E07B6AB3F5881F4FD2042387F82330A5
:1054D000F02387F8203097F82330013B87F82230FB
:1054E00015E07B6ADBB203F03F03DAB27B68196830
:1054F00097F822300B4462F07F02D2B21A707B6AB6
:105500009B097B6297F82230013B87F8223097F89D
:105510002230002BE5D197F82330012B09D97B6A83
:10552000D9B27B681B6897F820200A43D2B21A7060
:1055300007E07B6ADAB27B681B6802F07F02D2B2B6
:105540001A707B681A6897F823301A447B681A60CF
:1055500097F821300BE000BF08E000BF06E000BF75
:1055600004E000BF02E000BF00E000BF00231846D7
:105570002837BD4680BD00BF00FC0F0080B58AB053
:1055800000AF786039603B681A683B689B680133FC
:1055900013447B623B681A683B689B680133134481
:1055A0003B620023FB600023FB613B681A683B6899
:1055B0009B6813441B78222B40F0038100233B613E
:1055C0000023BB6117E03B6A1B785C2B10D13B6A60
:1055D0005A1C3B681B68D31A1A463B685B689A42A0
:1055E00080F0F180BB690133BB613B6A01333B62F0
:1055F0003B6A01333B623B681B683A6AD31A1A461E
:105600003B685B689A4203D23B6A1B78222BDAD153
:105610003B681B683A6AD31A1A463B685B689A4231
:1056200080F0D3803B6A1B78222B40F0CE803B6811
:105630001A683B689B6813443A6AD31A1A46BB69D6
:10564000D31A3B613B681B693A690132104698479F
:10565000F861FB69002B00F0BA80FB69FB6094E005
:105660007B6A1B785C2B08D07A6A531C7B62FB68D0
:10567000591CF96012781A7087E00223FB753A6AA8
:105680007B6AD31A002B40F3A4807B6A01331B781A
:10569000752B00F3A0805C2B04DA222B5CD02F2B1F
:1056A0005AD098E05C3B192B00F2958001A252F889
:1056B00023F000BF59570008D7570008D7570008F4
:1056C000D7570008D7570008D75700081D570008BC
:1056D000D7570008D7570008D757000829570008A0
:1056E000D7570008D7570008D7570008D7570008E2
:1056F000D7570008D7570008D75700083557000874
:10570000D7570008D7570008D75700084157000857
:10571000D75700084D57000869570008FB685A1C06
:10572000FA6008221A702CE0FB685A1CFA600C22FE
:105730001A7026E0FB685A1CFA600A221A7020E0F0
:10574000FB685A1CFA600D221A701AE0FB685A1C9A
:10575000FA6009221A7014E07B6A5A1CFB68591C13
:10576000F96012781A700CE007F10C031A46396AD6
:10577000786AFFF71BFE0346FB75FB7D002B2CD0E0
:1057800000BFFB7D7A6A13447B627A6A3B6A9A4265
:10579000FFF466AFFB6800221A707B681022DA60A3
:1057A0007B68FA691A613B681B683A6AD31A1A4621
:1057B0003B689A603B689B685A1C3B689A6001236F
:1057C00020E000BF0AE000BF08E000BF06E000BF25
:1057D00004E000BF02E000BF00E000BFFB69002B57
:1057E00005D03B685B69F86998470023FB617B6AD9
:1057F000002B06D03B681B687A6AD31A1A463B68AE
:105800009A60002318462837BD4680BD80B483B017
:1058100000AF78607B68002B03D07B681B68002B8F
:1058200001D100232CE07B68002B05D07B689A68AF
:105830007B685B689A4206D37B6821E07B689B6843
:105840005A1C7B689A607B68002B0DD07B689A6835
:105850007B685B689A4207D27B681A687B689B68A2
:1058600013441B78202BE9D97B689A687B685B68B6
:105870009A4204D17B689B685A1E7B689A607B6859
:1058800018460C37BD465DF8047B704780B582B082
:1058900000AF78607B68002B07D07B681B68002B0B
:1058A00003D07B689B68002B01D000231CE07B6841
:1058B000002B18D07B689B681A1D7B685B689A4236
:1058C00011D27B681A687B689B68134403220849DD
:1058D00018460BF0EDF90346002B04D17B689B685A
:1058E000DA1C7B689A607B6818460837BD4680BD25
:1058F0000C2C010880B586B000AFF860B9607A6002
:10590000FB68002B01D100230CE0F868FBF766FA76
:10591000034601337B617B68BA687969F86800F0F7
:1059200005F8034618461837BD4680BD80B58EB0D1
:1059300000AFF860B9607A603B6007F1180300229D
:105940001A605A609A60DA601A615A619A6100239B
:105950007B63414B00221A603F4B00225A60FB6878
:10596000002B42D0BB68002B3FD0FB68BB61BB68FB
:10597000FB6100233B62394A07F1280307CA83E829
:1059800007003648FFF776FB78637B6B002B2ED041
:1059900007F118031846FFF779FF03461846FFF78B
:1059A00035FF03461946786B00F068F80346002B74
:1059B0001FD03B68002B0ED007F118031846FFF7E5
:1059C00025FF3A6AFB699A4215D2BA693B6A1344C9
:1059D0001B78002B0FD17B68002B04D0BA693B6A7F
:1059E0001A447B681A607B6B31E000BF04E000BFA3
:1059F00002E000BF00E000BF7B6B002B02D0786BA1
:105A0000FFF74EFBFB68002B20D0FB683B610023B7
:105A10007B613A6AFB699A4202D23B6A7B6105E08C
:105A2000FB69002B02D0FB69013B7B617B68002B8B
:105A300004D03A697B691A447B681A60064B1A469F
:105A400007F1100393E8030082E8030000231846DF
:105A50003837BD4680BD00BFBC960020DC04002066
:105A600080B582B000AF7860002200217868FFF72F
:105A700041FF034618460837BD4680BD80B582B059
:105A800000AF786039603B68002B03D03B681B682F
:105A9000002B01D10023D2E03B68002B1DD03B68D6
:105AA0009B681A1D3B685B689A4216D83B681A6867
:105AB0003B689B6813440422634918460BF0F8F8CE
:105AC0000346002B09D17B680422DA603B689B689F
:105AD0001A1D3B689A600123B1E03B68002B1DD082
