:020000040800F2
:1000000000000524419D0008ADBB0008919D00083B
:10001000919D0008919D0008919D0008000000003E
:10002000000000000000000000000000F16701086F
:10003000BBBB000800000000916A010891BB0008EA
:10004000919D0008919D0008919D0008919D0008D8
:10005000919D0008919D000879B6000885B60008BA
:1000600091B600089DB60008A9B60008F9A30008DB
:100070000DA4000821A4000835A4000849A4000824
:100080005DA4000871A40008919D000839A500082E
:1000900069A5000851A5000881A50008B5B60008AB
:1000A000919D0008919D0008919D0008919D000878
:1000B000919D0008919D0008919D000829B80008B5
:1000C00059B8000841B8000871B80008919D0008AF
:1000D000919D0008919D0008919D0008919D000848
:1000E000C3B60008919D000800000000919D000823
:1000F000919D0008919D0008919D000885A400082D
:10010000919D0008919D0008919D0008919D000817
:10011000919D0008919D000839660108919D000895
:1001200099A40008ADA40008C1A40008D5A4000843
:10013000E9A40008919D0008919D0008919D000888
:1001400000000000000000000000000000000000AF
:10015000FDA4000811A5000825A50008919D000830
:10016000919D0008919D0008919D0008919D0008B7
:10017000919D0008919D0008919D000800000000DD
:10018000919D0008919D0008919D0008919D000897
:10019000919D0008919D0008919D0008919D000887
:1001A000919D0008919D0008919D000800000000AD
:1001B000919D0008919D0008919D0008919D000867
:1001C000919D0008919D00080000000000000000C3
:1001D0000000000000000000919D000800000000E9
:1001E000000000000000000000000000000000000F
:1001F0000000000000000000919D0008919D000893
:10020000919D0008919D000800000000919D00084C
:10021000919D0008919D0008919D0008919D000806
:10022000919D000800000000919D00080000000062
:10023000919D0008919D000800000000919D00081C
:10024000919D0008919D0008919D0008919D0008D6
:10025000919D0008919D0008919D0008919D0008C6
:10026000919D0008919D0008919D0008919D0008B6
:10027000919D0008919D0008919D000800000000DC
:10028000919D0008919D0008919D0008919D000896
:1002900000000000919D0008919D000800000000F2
:1002A00000000000919D0008919D0008919D0008AC
:1002B000919D0008919D0008919D000899A5000856
:0C02C000B1A50008919D0008919D000868
:1002D00010B5054C237833B9044B13B10448AFF380
:1002E00000800123237010BD1008002400000000CE
:1002F000CCA7010808B5034B1BB103490348AFF372
:10030000008008BD0000000014080024CCA70108EC
:1003100001F0FF01102A2BDB10F0070F08D010F8B6
:10032000013B013A8B422DD010F0070F42B3F6D1BA
:10033000F0B441EA012141EA014122F007047FF0D3
:1003400000070023F0E80256083C85EA010586EA2A
:10035000010685FA47F5A3FA87F586FA47F6A5FA66
:1003600087F68EB9EED1F0BC01F0FF0102F0070272
:1003700032B110F8013B013A83EA010313B1F8D11D
:100380000020704701387047002D06BF35460338FE
:10039000073815F0010F07D1013015F4807F02BF37
:1003A000013015F4C03F0130F0BC0138704700BF88
:1003B00081F0004102E000BF83F0004330B54FEA16
:1003C00041044FEA430594EA050F08BF90EA020F83
:1003D0001FBF54EA000C55EA020C7FEA645C7FEA16
:1003E000655C00F0E2804FEA5454D4EB5555B8BF39
:1003F0006D420CDD2C4480EA020281EA030382EAAA
:10040000000083EA010180EA020281EA0303362D3B
:1004100088BF30BD11F0004F4FEA01314FF4801C0E
:100420004CEA113102D0404261EB410113F0004F20
:100430004FEA03334CEA133302D0524263EB4303D7
:1004400094EA050F00F0A780A4F10104D5F1200E75
:100450000DDB02FA0EFC22FA05F2801841F10001D0
:1004600003FA0EF2801843FA05F359410EE0A5F1A4
:1004700020050EF1200E012A03FA0EFC28BF4CF0D5
:10048000020C43FA05F3C01851EBE37101F000458B
:1004900007D54FF0000EDCF1000C7EEB00006EEB98
:1004A0000101B1F5801F1BD3B1F5001F0CD3490822
:1004B0005FEA30004FEA3C0C04F101044FEA445279
:1004C00012F5800F80F09A80BCF1004F08BF5FEA00
:1004D000500C50F1000041EB045141EA050130BDE0
:1004E0005FEA4C0C404141EB0101013C28BFB1F5F2
:1004F000801FE9D291F0000F04BF01460020B1FA3D
:1005000081F308BF2033A3F10B03B3F120020CDA0F
:100510000C3208DD02F1140CC2F10C0201FA0CF0ED
:1005200021FA02F10CE002F11402D8BFC2F1200C52
:1005300001FA02F120FA0CFCDCBF41EA0C01904008
:10054000E41AA2BF01EB0451294330BD6FEA040451
:100550001F3C1CDA0C340EDC04F11404C4F120023C
:1005600020FA04F001FA02F340EA030021FA04F34E
:1005700045EA030130BDC4F10C04C4F1200220FAA5
:1005800002F001FA04F340EA0300294630BD21FAE3
:1005900004F0294630BD94F0000F83F4801306BFA9
:1005A00081F480110134013D4EE77FEA645C18BF9D
:1005B0007FEA655C29D094EA050F08BF90EA020F34
:1005C00005D054EA000C04BF1946104630BD91EA2C
:1005D000030F1EBF0021002030BD5FEA545C05D12F
:1005E0004000494128BF41F0004130BD14F580046E
:1005F0003CBF01F5801130BD01F0004545F0FE41E2
:1006000041F470014FF0000030BD7FEA645C1ABF16
:10061000194610467FEA655C1CBF0B46024650EA4D
:10062000013406BF52EA033591EA030F41F4002179
:1006300030BD00BF90F0000F04BF0021704730B5FF
:100640004FF4806404F132044FF000054FF00001D4
:1006500050E700BF90F0000F04BF0021704730B595
:100660004FF4806404F1320410F0004548BF40426A
:100670004FF000013EE700BF42004FEAE2014FEABF
:1006800031014FEA02701FBF12F07F4393F07F4F9A
:1006900081F06051704732F07F4208BF704793F09D
:1006A0007F4F04BF41F40021704730B54FF46074B0
:1006B00001F0004521F000411CE700BF50EA0102B3
:1006C00008BF704730B54FF000050AE050EA01025C
:1006D00008BF704730B511F0004502D5404261EBCC
:1006E00041014FF4806404F132045FEA915C3FF40D
:1006F000D8AE4FF003025FEADC0C18BF03325FEAAA
:10070000DC0C18BF033202EBDC02C2F1200300FA5A
:1007100003FC20FA02F001FA03FE40EA0E0021FA7F
:1007200002F11444BDE600BF002310B50446C0E941
:100730000033C0E90433836081814366C2818361F1
:10074000194608225C3000F0F4F80D4B63620D4B43
:10075000A3620D4BE3620D4B23630D4B24629C425D
:1007600006D003F16802944202D0D0339C4205D1F6
:1007700004F15800BDE8104000F04EB910BD00BFB4
:10078000AD080008CF080008070900082B09000879
:100790002C080024024A0349034800F069B800BF4E
:1007A00000000024190D00081000002441680C4BC3
:1007B000994210B5044601D000F0AEFAA168094B89
:1007C000994202D0204600F0A7FAE168064B994210
:1007D00004D02046BDE8104000F09EBA10BD00BF16
:1007E0002C08002494080024FC08002410B50B4BAE
:1007F0000B4C0C4A1A60204600220421FFF794FF9C
:1008000004F1680001220921FFF78EFF04F1D000F6
:100810000222BDE810401221FFF786BF64090024C0
:100820002C08002495070008014800F0F6B800BF26
:100830006D090024014800F0F1B800BF6D090024E3
:1008400010B50446FFF7F0FF236A1BB1BDE8104066
:10085000FFF7F0BF044B2362044B1B68002BF5D15C
:10086000FFF7C4FFF2E700BFAD07000864090024EA
:100870002DE9F8430746884614460026D4E9019539
:10088000B9F1010905D52468002CF7D13046BDE83F
:10089000F883AB89012B07D9B5F90E30013303D0AA
:1008A00029463846C04706436835E9E710B50C4687
:1008B000B1F90E1000F068F80028ABBF636DA38992
:1008C0001B1823F48053ACBF6365A38110BD2DE9D1
:1008D000F0411F468B89DB0505460C46164605D5BB
:1008E000B1F90E100223002200F03CF8A389B4F9FC
:1008F0000E1023F48053A38132463B462846BDE8C0
:10090000F04100F053B810B50C46B1F90E1000F0EC
:1009100029F8431CA38915BF606523F4805343F471
:100920008053A38118BFA38110BDB1F90E1000F050
:1009300009B802440346934200D1704703F8011BF3
:10094000F9E7000038B5064D0023044608462B6041
:1009500009F08CF9431C02D12B6803B1236038BD28
:100960006809002438B5074D0446084611460022A0
:100970002A601A4609F0A1F9431C02D12B6803B181
:10098000236038BD6809002438B5074D0446084681
:10099000114600222A601A4609F02FF9431C02D1A1
:1009A0002B6803B1236038BD6809002438B5074DB2
:1009B00004460846114600222A601A4609F03AF910
:1009C000431C02D12B6803B1236038BD68090024A1
:1009D00070B50D4D0D4C641BA4100026A64209D124
:1009E0000B4D0C4C19F0F2FE641BA4100026A6421D
:1009F00005D170BD55F8043B98470136EEE755F830
:100A0000043B98470136F2E7A83C0608A83C0608D4
:100A1000A83C0608AC3C06087047704770470000C9
:100A200038B50546002941D051F8043C0C1F002B75
:100A3000B8BFE41800F0E0F81D4A136833B96360EA
:100A400014602846BDE8384000F0DCB8A34208D95D
:100A5000206821188B4201BF19685B680918216062
:100A6000EDE71A465B680BB1A342FAD9116850183A
:100A7000A0420BD120680144501883421160E0D19C
:100A800018685B68536008441060DAE702D90C23E9
:100A90002B60D6E7206821188B4204BF19685B6879
:100AA000636004BF091821605460CAE738BD00BF05
:100AB0007409002470B50F4E0C463168054611B913
:100AC00000F052F930602146284600F04DF9431CF1
:100AD00003D14FF0FF34204670BDC41C24F0030442
:100AE000A042F8D0211A284600F03EF90130F2D198
:100AF000EFE700BF700900242DE9F843CD1C25F075
:100B0000030508350C2D38BF0C25002D064601DBEA
:100B1000A94204D90C2333600020BDE8F883DFF834
:100B2000D48000F069F8D8F800301C4644BB294650
:100B30003046FFF7BFFF431C044658D1D8F80040A9
:100B40002746002F43D1002C4BD02368394630462E
:100B500004EB030900F008F9814542D121686D1AC0
:100B600029463046FFF7A6FF01303AD023682B44D0
:100B70002360D8F800305A6862BBC8F800700FE0F4
:100B80002268521B20D40B2A17D96119A342256071
:100B900018BF5960636808BFC8F8001062514B6005
:100BA000304600F02FF804F10B00231D20F0070061
:100BB000C21A1CBF1B1AA350AFE76268A3420CBF46
:100BC000C8F800205A60EBE723466468AEE73C466D
:100BD0007F68B6E71A465B68A342FBD100235360E7
:100BE000DEE70C233360304600F00CF894E7056034
:100BF000D6E700BF740900240148FFF70EBF00BF0D
:100C00006C0900240148FFF709BF00BF6C090024EC
:100C1000B1F90C202DE9F041160705460C4654D4D5
:100C20004B68002B02DC0B6C002B48DDE66A002EC3
:100C300045D0002312F480522F68216A2B6030D0F7
:100C4000626DA389590705D56368D21A636B0BB12E
:100C5000236CD21A0023E66A216A2846B047431C57
:100C6000A38906D129681D292BD82A4A0A41D6070B
:100C700027D400226260D9042269226004D5421C74
:100C800001D12B6803B96065616B2F60B9B104F1C4
:100C90004403994202D02846FFF7C2FE0023636353
:100CA0000DE001232846B0470246501CC9D12B68ED
:100CB000002BC6D01D2B01D0162B1ED12F6000207B
:100CC00022E043F040031BB21BE00F69002FF6D077
:100CD00093070E6808BF4B690F6018BF0023A6EB8F
:100CE00007088B60B8F1000FE9DD216AA66A434668
:100CF0003A462846B047002808DCB4F90C3043F0E7
:100D00004003A3814FF0FF30BDE8F0810744A8EB1A
:100D10000008E7E7FEFFBFDF38B50B6905460C4664
:100D200013B90025284638BD18B1036A0BB9FFF77F
:100D300087FDB4F90C30002BF3D0626ED00704D4D9
:100D4000990502D4A06DFFF768FE28462146FFF7FB
:100D50005FFF636EDA070546E4D4A3899B05E1D4FF
:100D6000A06DFFF75BFEDDE738B5064D00230446B6
:100D700008462B6008F0AEFF431C02D12B6803B17C
:100D8000236038BD6809002480B582B002AF0A2311
:100D900000930223034A0449044809F017F800BFEE
:100DA000BD4680BD5C00002400200240780900247C
:100DB00080B483B000AF0346FB71FA79064913464D
:100DC0009B0013449B000B4410331B6818460C37E0
:100DD000BD465DF8047B70475C00002480B52DEDB6
:100DE000028B96B002AF786016F03EFF0346FB64BC
:100DF00007F14403184604F02BFD07F13C031846A5
:100E000004F066FD07F13403184604F0B5FD07F160
:100E10002C03184604F0F0FD07F12403184604F0F3
:100E200033FE07F11C03184604F08AFE07F1140391
:100E3000184604F01DFF08F0EFFD03461BB2BB810E
:100E400008F0DEFD03469BB2FB8100F08BFFB0EEA5
:100E5000408A00F0C7FFF0EE407A68EE277AFDEE98
:100E6000E77A17EE903A3B61642307F11C02009386
:100E7000082340F29221012000F040FD642307F195
:100E800014020093062340F2A221012000F036FD57
:100E9000642300930823274A4FF4FD61002000F0EB
:100EA0002DFD642300930823234A40F2E9710020BA
:100EB00000F024FD642300930823204A40F2EA71E5
:100EC000002000F01BFD6423009308231C4A40F21D
:100ED000EB71002000F012FD642300930823194AEF
:100EE00040F2EC71002000F009FD64230093082318
:100EF000154A40F2ED71002000F000FD642307F177
:100F00000C020093082340F20531002000F0F6FCAB
:100F10006423009304230D4A40F2E361002000F0B3
:100F2000EDFC642207F14C031146184616F076FCDE
:100F300000BF5DE7406F0024486F0024506F00241D
:100F4000586F0024606F0024686F0024A06F002495
:100F500080B58AB002AF7860002000F0F7FCF8613D
:100F600016F082FE03463B6107F1080300221A6077
:100F70001A71FB691B78DBB23B723A6907F108030F
:100F80001146184600F0D2FD7B7A002B02D1BB7AC5
:100F9000002B01D004233B720A2300930823354A17
:100FA00040F2E671002000F0A9FC0A230093082318
:100FB000314A40F2FF71002000F0A0FC0A230093A8
:100FC00008232E4A4FF4FE61002000F097FC0A230C
:100FD000009306232A4A40F2EE71002000F08EFCB6
:100FE00008F068FC0346BB6108F06EFC03467B61B9
:100FF00024480DF04FFF03461B0C9AB27B691A8000
:1010000020480DF047FF03469AB27B695A801E487C
:101010000DF040FF03461B0C9AB27B699A801A4878
:101020000DF038FF03469AB27B69DA800A230093F9
:101030000823BA6940F22D51002000F05FFC0A231A
:10104000009308237A6940F22E51012000F056FCEB
:101050000A2307F10802009305234FF48171002051
:1010600000F04CFC0A2207F110031146184616F056
:10107000D5FB79E7786F0024806F0024906F0024FF
:10108000886F0024541C0024641A002490B599B081
:1010900002AF7860022007F0C1FF3865002007F03A
:1010A000BDFFF864032007F0B9FFB864012007F022
:1010B000B5FF786416F0D8FD0346BB6005230093A6
:1010C00008233A6D40F28911022000F017FC052335
:1010D00000930823FA6C4FF4C271022000F00EFC5A
:1010E000052300930823BA6C40F28511022000F01A
:1010F00005FC0523009308237A6C4FF4C471022089
:1011000000F0FCFB07F13C03184604F0A1FB07F1DB
:101110003403184604F0DCFB07F12C03184604F0F6
:101120002BFC07F12403184604F066FC07F11C03AE
:10113000184604F0A9FC07F10C03184604F098FDCA
:10114000052307F13C020093082340F232210120DD
:1011500000F0D4FB052307F134020093082340F28A
:101160006221012000F0CAFB052307F12C02009345
:10117000082340F25221012000F0C0FB052307F1B3
:1011800024020093082340F27221012000F0B6FBF4
:1011900000237B6522E07B6D5B01364A9C1816F0CC
:1011A00073FD03461946204608F091FE0346002BC6
:1011B00010DB304A7B6D5B01134419887B6D5B014A
:1011C00018332C4A1A44052300930823002000F00A
:1011D00095FB00E000BF7B6D01337B657B6D072BCA
:1011E000D9D90523009308233A6D40F289110020D4
:1011F00000F084FB052300930823FA6C4FF4C271BE
:10120000002000F07BFB052300930823BA6C40F21A
:101210008511002000F072FB0523009308237A6CEF
:101220004FF4C471002000F069FB052300930823EC
:10123000114A40F2E571002000F060FB16F024FD39
:10124000034619460D4808F042FE0346002B09D11B
:10125000084BB3F80011052300930823084A002027
:1012600000F04CFB052207F108031146184616F062
:10127000D5FA23E7E4010024346F0024E4020024BB
:10128000FC02002490B58BB002AF786016F0ECFC45
:101290000346FB600023FB6140E02D4AFB695B01D4
:1012A00013441B88FB82FB8AB3F5807F30D0FB6937
:1012B0000E2B2DD0FB695B01254A9C1816F0E4FC2F
:1012C00003461946204608F002FE0346002B21DBA8
:1012D000FB69012B12D0FB69062B02D9FB690A2B93
:1012E0000CD9FB690B2B02D9FB690D2B06D9FB69C5
:1012F0000B2B01D1072302E0062300E008233B610A
:10130000FB8AB3F5807F06D140F20143FB8202E005
:1013100000BF00E000BFFB690133FB61FB690E2BDE
:10132000BBD904F0C1FCB861642300930423BA69FB
:1013300040F22C51002000F0E1FA00F04FFB642253
:1013400007F10C031146184616F068FAA2E700BF31
:101350000403002480B588B002AF786016F084FCE6
:1013600003463B614FF47A7300930723154A40F21A
:10137000A261002000F0C2FA134B1B68FB604FF41F
:101380007A7307F10C020093042340F2C26100203B
:1013900000F0B4FA00F0A8FF78614FF47A7300937C
:1013A00002237A6940F2D261002000F0A7FA4FF4DC
:1013B0007A7207F110031146184616F02FFA00BF93
:1013C000D0E700BFE8840024F084002480B483B018
:1013D00000AF03463960FB80FB88B3F5C06F04D3D0
:1013E000FB8840F21B62934202D94FF0FF3341E089
:1013F000FB88B3F5C06F0BD3FB8840F203629342C6
:1014000006D8FB88A3F5C0623B681A60002331E070
:10141000FB88B3F5C16F0BD3FB8840F20B6293429C
:1014200006D8FB88A3F5C1623B681A60012321E05E
:10143000FB88B3F5C26F0BD3FB8840F21362934273
:1014400006D8FB88A3F5C2623B681A60022311E04C
:10145000FB88B3F5C36F0BD3FB8840F21B6293424A
:1014600006D8FB88A3F5C3623B681A60032301E03A
:101470004FF0FF3318460C37BD465DF8047B7047CC
:1014800080B590B000AFF8607A603B600B467B811E
:101490007B89B3F5C06FC0F0AA807B89B3F5C46FB8
:1014A00080F0A58016F0E0FB7863002000F04EFA93
:1014B00038633B6B1B7887F82F307B89A3F5C063BB
:1014C0005A4203F0030302F0030258BF53423B6148
:1014D00007F110027B8911461846FFF777FF034694
:1014E00087F82E30464B1B687A6BD31A42F20F7284
:1014F00093427ED97B68BB62BB6A7B623B699B007F
:1015000001333B623F4A97F82E3013703B6AC3F1B8
:101510001103FB610423BB61FA69BB69934228BFD5
:1015200013467B613B6A374A13447A69796A1846E5
:1015300017F004FB3B69344A0121D154012387F899
:101540003F30002387F83E3011E097F83F3097F89E
:101550003E202D498A5C1340002B14BF0123002339
:1015600087F83F3097F83E30013387F83E3097F8E0
:101570003E30032BE9D997F83F3083F00103DBB20B
:10158000002B38D1002387F83D3009E097F83D3033
:101590001D4A0021D15497F83D30013387F83D3082
:1015A00097F83D30032BF1D9184B1B78DBB297F835
:1015B0002E209A4220D1164B01221A700023BB63C1
:1015C00011E0104ABB6B13441B78D8B21149BA6BB7
:1015D0001346DB0013449B000B44193302461A7078
:1015E000BB6B0133BB63BB6B102BEADD04E000BFB8
:1015F00002E000BF00E000BF4037BD4680BD00BF35
:101600002C6F0024501A0024306F0024611A00242B
:10161000621A00247805002490B58DB000AFF86000
:101620007A603B600B467B81414B5B683B62FB68A9
:10163000404A9B1ADB10404A02FB03F3FB61FB6943
:10164000022B04D940F226313C480AF0C4FA7B89C7
:10165000B3F5C46F09D27B89B3F5C06F05D379891F
:101660003B687A68F868FFF70BFF7B8940F2E2621B
:10167000934206D17B68BB61BB691B78184608F0B2
:101680003BF90023FB620023BB62FB69002B04D102
:101690002B4BFB620B23BB620EE0FB69012B04D1D9
:1016A000284BFB620F23BB6206E0FB69022B03D1D0
:1016B000254BFB620923BB62FB6A002B24D000236D
:1016C0007B621DE07B6A5B01FA6A13441B887A899E
:1016D0009A4212D17B6A5B01FA6A134418333A6862
:1016E0007968184617F02AFA7B6A5B01FA6AD418FF
:1016F00016F0CAFA0346636106E07B6A01337B6237
:101700007A6ABB6A9A42DDD3094B5A683B6AD31A9C
:101710007B617B690D4A02FB03F410F0B5FE0346C2
:10172000B4FBF3F33B6100BF3437BD4690BD00BF4F
:10173000001000E0641A0024DF7BEFBD40A8010820
:101740008400002404030024E401002440420F002C
:10175000B0B5A2B006AF4FF4005305934B4B0493C2
:101760004FF480530393494B0293494B0193002359
:101770000093002301224749474808F021FC4FF419
:1017800000530593454B04934FF480530393434B0D
:1017900002933F4B01930023009300230122404911
:1017A000404808F00DFC4FF4805305933E4B0493E2
:1017B0004FF4006303933C4B0293354B019300239A
:1017C0000093002301223949394808F0F9FB394BCD
:1017D00007F150041D460FCD0FC495E80F0084E8B3
:1017E0000F0007F15003022219462B4808F04AFD6A
:1017F000314B07F120041D460FCD0FC40FCD0FC490
:1018000095E80F0084E80F0007F120030322194632
:10181000274808F037FD294B3C461D460FCD0FC425
:1018200095E80F0084E80F003B46022219461D4848
:1018300008F028FD022200230093214B2149224871
:101840000AF042FD022200230093204B2049214848
:101850000AF03AFD0322002300931F4B1F49204842
:101860000AF032FD0522002300931E4B1E491F483B
:101870000AF02AFD0622002300931D4B1D491E4835
:101880000AF022FD00BF7037BD46B0BD000402580B
:101890001916000800A40040641A0024000C025825
:1018A00000D400405C1B00240000025800A000404F
:1018B000541C0024E8A8010808A9010838A9010857
:1018C00055130008A4A80108CC5E00248512000866
:1018D000B0A801086C4E0024DD0D0008BCA801086A
:1018E0004C1D0024510F0008C8A80108AC2D00248D
:1018F0008D100008D8A801080C3E002480B586B0E1
:1019000002AFBA607B600346FB730B46BB81FB7B77
:10191000022B04D940F2FD310A480AF05CF9FA7B47
:1019200013465B019B1ADB00074A9818B989BB690B
:1019300000937B68BA6808F0F1FB0346184610373D
:10194000BD4680BD58A90108641A002480B483B044
:1019500000AF0346FB71FB795B011833034A134464
:1019600018460C37BD465DF8047B704784000024A0
:1019700080B483B000AF0346FB71FB795B01183381
:10198000034A134418460C37BD465DF8047B704784
:10199000E401002480B483B000AF0346FB71FB79FF
:1019A0005B011833034A134418460C37BD465DF8F3
:1019B000047B70470403002480B483B000AF034667
:1019C000FB71FB795B01044A134418460C37BD4692
:1019D0005DF8047B704700BF8400002480B592B09E
:1019E00002AF504B93F83D30DBB287F830304D4BAF
:1019F00093F86130DBB287F831304A4B93F8853089
:101A0000DBB287F83230474B93F8A930DBB287F866
:101A10003330444B93F8CD30DBB287F82C30414B58
:101A200093F8F130DBB287F82D303E4B93F8153147
:101A3000DBB287F82E303B4B93F83931DBB287F8B5
:101A40002F30384B93F85D31DBB287F82830354BB7
:101A500093F88131DBB287F82930324B93F8A53106
:101A6000DBB287F82A302F4B93F8C931DBB287F805
:101A70002B302C4B93F8ED31DBB287F82430294B17
:101A800093F81132DBB287F82530264B93F83532C4
:101A9000DBB287F82630234B93F85932DBB287F854
:101AA00027303B6B7B61FB6ABB61BB6AFB617B6A76
:101AB0003B621D4B1B78DBB2DB0003F204637B63EC
:101AC0000023FB630BE0FA6B7B6B1A44FB6B9B0000
:101AD00040333B4443F83C2CFB6B0133FB63FB6B13
:101AE000032BF0DD0023BB6314E0BB6B9B00403392
:101AF0003B4453F83C3C99B207F11402BB6B9B008A
:101B00001A446423009304230020FFF7F7FEBB6B05
:101B10000133BB63BB6B032BE7DD00BF00BF403766
:101B2000BD4680BD78050024611A002480B584B0CC
:101B300000AF786039600023FB810023BB8107F18F
:101B40000E033968184600F01DF807F10C033968D8
:101B5000184600F0A5F807F10E0207F10C0319462C
:101B600007480AF046FB7B680133FA891A807B68D4
:101B70000333BA891A8000BF1037BD4680BD00BF4D
:101B80005CA6002480B586B000AF786039607B68C1
:101B9000002B7BD00020FFF7D9FEB8603D4B1B78AF
:101BA000012B14D1BB681B78DBB2022B0FD10023B1
:101BB0007B6109E0384A7B695B01134414333A685E
:101BC0001A607B6901337B617B69082BF2D90023A2
:101BD0003B6128E03B695B01304A13443968184691
:101BE00008F075F90346002B1ADA3B69002B0BD17C
:101BF0007B681A8829493B695B010B4410331B88B9
:101C000013439AB27B681A807B681A8823493B6920
:101C10005B010B4410331B8813439AB27B681A8014
:101C20003B6901333B613B690A2BD3D9BB681B7805
:101C3000DBB2022B04D0BB681B78DBB2032B1FD1B5
:101C40000023FB6019E0FB685B01134A1344396809
:101C5000184608F03CF90346002B0BDA7B681A881B
:101C60000D49FB685B010B4410331B8813439AB288
:101C70007B681A80FB680133FB60FB68082BE2D9A4
:101C8000BB681B78DAB2034B1A7000E000BF18374C
:101C9000BD4680BDE4040024E40100248400002447
:101CA00080B584B000AF786039607B68002B4ED07F
:101CB0000023FB6019E0FB685B01274A1344396885
:101CC000184608F0F2F80346002B0BDA7B681A88F6
:101CD0002149FB685B010B4408331B8813439AB20C
:101CE0007B681A80FB680133FB60FB680A2BE2D932
:101CF0000023BB6019E0BB685B01184A13443968D4
:101D0000184608F0D2F80346002B0BDA7B681A88D5
:101D10001249BB685B010B4408331B8813439AB21A
:101D20007B681A80BB680133BB60BB68082BE2D9B3
:101D300039680B4808F0B9F80346002B08DA7B68CD
:101D40001B8843F400739AB27B681A8000E000BFDE
:101D50001037BD4680BD00BF84000024E40100248C
:101D6000C404002480B586B000AF0320FFF7EEFD69
:101D700038613B691B6807EE903AF8EEE77A9FED11
:101D8000167A67EE877AC7ED037A0820FFF7DEFD43
:101D9000B860BB685B889BB207EE903AF8EE677A52
:101DA0009FED0E7A67EE877AC7ED017AFB687B615B
:101DB00015F05AFF03461946094808F088F803460B
:101DC000002B01D17B687B617B6907EE903AB0EE16
:101DD000670A1837BD4680BD6F12833A0AD7233C85
:101DE000E402002480B582B000AF0A20FFF7AEFD08
:101DF00078607B681B881BB207EE903AF8EEE77AB2
:101E00009FED047A67EE877AB0EE670A0837BD4621
:101E100080BD00BFCDCCCC3D80B582B000AF0620E8
:101E2000FFF794FD78607B685B889BB207EE903A81
:101E3000F8EEE77A9FED047A67EE877AB0EE670AEC
:101E40000837BD4680BD00BF6F12833A80B582B0AF
:101E500000AF0620FFF77AFD78607B681B889BB295
:101E600007EE903AF8EEE77A9FED047A67EE877A0C
:101E7000B0EE670A0837BD4680BD00BF6F12833AD7
:101E800080B485B000AF0346FB80B7F9063007EE9B
:101E9000903AF8EEE77AC7ED037AD7ED037A9FED33
:101EA000127A67EE877AB7EEE77A9FED0B6B27EE33
:101EB000066B9FED0B5B86EE057BF7EEC77BC7EDF0
:101EC000027ABB6807EE903AB0EE670A1437BD4657
:101ED0005DF8047B704700BF182D4454FB21094076
:101EE00000000000008066406F12833A80B586B023
:101EF00000AF0346FB710020FFF74CFD78617B6962
:101F00001B683B613B6903F04003FB6015F0ACFECE
:101F100003461946064807F0DAFF0346002B14BFB4
:101F200001230023FB72012318461837BD4680BDEC
:101F30000403002480B400AF044B07EE903AB0EEE7
:101F4000670ABD465DF8047B704700BF14AE2942A6
:101F500080B590B000AF03463A60FB710B46BB7191
:101F6000BB7907EE903AB8EEE77A654BD3ED007A8D
:101F7000B4EEE77AF1EE10FA04D5002007F032F85B
:101F80000023B1E0012387F83F305023FB7607F1AF
:101F90001B0304220621184608F084F903461A465A
:101FA00097F83F301340002B14BF0123002387F81C
:101FB0003F30FB7E07EE903AB8EE677ADFED516A6C
:101FC000C7EE267AC7ED0E7AD7ED0E7AB7EE007A15
:101FD000F4EEC77AF1EE10FA02DD4FF07E53BB63E8
:101FE00097F83F3083F00103DBB2002B04D00020D0
:101FF00006F0F8FF002377E0FB7E002B04D10020E1
:1020000006F0F0FF00236FE0BB791946022005F0CF
:1020100099FC07EE900AB8EEE77B9FED356B27EE53
:10202000067BF7EEC77BC7ED0D7ABB79194600201A
:1020300005F088FC07EE900AB8EEE77B9FED2C6B6D
:1020400027EE067BF7EEC77BC7ED0C7ABB79194606
:10205000032005F077FC07EE900AB8EEE77B9FEDD2
:10206000246B27EE067BF7EEC77BC7ED0B7ABB79B7
:102070001946012005F066FC07EE900AB8EEE77BF2
:102080009FED1B6B27EE067BF7EEC77BC7ED0A7A49
:1020900005F0EEFC07EE900AF8EEE77AC7ED097A54
:1020A000FFF748FF87ED080AFB7901229FED120B2D
:1020B0001946022004F056FE07EE900AF8EEE77A81
:1020C000C7ED077A7B6BBB603B6BFB60FB6A3B61D8
:1020D000BB6A7B6107F108031946002007F0CCF9C1
:1020E000002006F07FFF012318464037BD4680BD23
:1020F000FCA9F1D24D62503F0000000000C07240C8
:10210000283806080000C84280B500AF0F4B4FF0DA
:1021100000021A60002203210C4808F0C3F80B4BA0
:10212000D3ED007A9FED0A7A67EE877A074BC3ED0D
:10213000007A064BD3ED007AFDEEE77A17EE903A7F
:102140001AB2044BDA8000BF80BD00BF3C6F002490
:102150000000C842346F002480B584B000AF4FF057
:102160000003FB604FF00003BB604FF000037B6097
:1021700007F10C0300220921184608F093F80346E2
:10218000002B07D0D7ED037AB7EEE77AB0EE470B16
:1021900001F076FD07F1080300220A21184608F035
:1021A00081F80346002B07D0D7ED027AB7EEE77A25
:1021B000B0EE470B01F084FD3B1D00220B211846B9
:1021C00008F070F80346002B07D0D7ED017AB7EE80
:1021D000E77AB0EE470B01F093FD00BF1037BD4624
:1021E00080BD000080B500AFFFF78EFF15F03CFD0D
:1021F0000346074A1360074B00221A70064B002261
:102200001A70064B4FF000021A6000BF80BD00BF7D
:10221000706F0024746F0024756F0024A06F002479
:1022200080B483B000AF0346FB71FB79013B072B01
:102230004AD801A252F823F0592200086722000868
:102240007522000883220008912200089F220008BE
:10225000AD220008BB220008224B00221A70214B3D
:1022600000225A7037E01F4B00221A701D4B0022CB
:102270005A7030E01B4B00221A701A4B00225A7021
:1022800029E0184B01221A70164B01225A7022E0E5
:10229000144B00221A70134B01225A701BE0114B91
:1022A00001221A700F4B00225A7014E00D4B0122CC
:1022B0001A700C4B01225A700DE00A4B00221A7062
:1022C000084B00225A7006E0064B00221A70054B9C
:1022D00000225A7000BF00BF0C37BD465DF8047B7A
:1022E000704700BF9C6F002480B400AF024B1846BB
:1022F000BD465DF8047B70479C6F002480B483B0BA
:1023000000AF87ED010ADFED057AF1EE677AB0EEF6
:10231000670A0C37BD465DF8047B7047CDCC5C4145
:1023200080B584B000AF034687ED020A79603A6059
:10233000FB73D7ED027AF5EEC07AF1EE10FA3BDDD1
:10234000FB7B032B2AD801A252F823F06D2300084F
:102350008D2300085D2300087D2300087B68BA6890
:102360001A603B684FF000021A601DE07B68BA6893
:102370005A603B684FF000025A6015E07B68BA680B
:102380009A603B684FF000029A600DE07B68BA6883
:10239000DA603B684FF00002DA6005E0254B264A20
:1023A000C721264816F018FB44F62062FB7B114635
:1023B000184606F0BBFD38E0FB7B032B2AD801A2B0
:1023C00052F823F0E523000805240008D52300086F
:1023D000F52300087B684FF000021A603B68BA687A
:1023E0001A601DE07B684FF000025A603B68BA68D3
:1023F0005A6015E07B684FF000029A603B68BA684B
:102400009A600DE07B684FF00002DA603B68BA68C2
:10241000DA6005E0074B084ADF21084816F0DCFACD
:10242000FB7B0021184606F081FD00BF1037BD463A
:1024300080BD00BFB4A9010850DA0108BCA9010899
:1024400080B598B000AF87ED010A03460A467B804D
:1024500013467B707B78002B27D0D7ED017ABFEE37
:10246000007AF4EEC77AF1EE10FAACBF0123002334
:10247000DBB283F00103DBB2002B10D1D7ED017A80
:10248000B7EE007AF4EEC77AF1EE10FA94BF0123AA
:102490000023DBB283F00103DBB2002B2BD0954B82
:1024A000954AF021954816F097FAD7ED017AF5EEA6
:1024B000C07AF1EE10FAACBF01230023DBB283F047
:1024C0000103DBB2002B10D1D7ED017AB7EE007A11
:1024D000F4EEC77AF1EE10FA94BF01230023DBB2C9
:1024E00083F00103DBB2002B05D0854B824AF22139
:1024F000824816F071FAFFF72FFE022006F08CF9E1
:1025000087ED170A002006F087F987ED160A0320E9
:1025100006F082F987ED150A012006F07DF987EDB6
:10252000140A0122FF21022004F076FFB0EE407A67
:10253000F0EE607A87ED037AC7ED047A3B69FB64BD
:102540000122FF21002004F067FFB0EE407AF0EE98
:10255000607A87ED057AC7ED067ABB69BB64012214
:10256000FF21032004F058FFB0EE407AF0EE607ACD
:1025700087ED077AC7ED087A3B6A7B640122FF2169
:10258000012004F049FFB0EE407AF0EE607A87ED6A
:10259000097AC7ED0A7ABB6A3B649FED5A7AD7ED98
:1025A000137A27EE277ADFED586AC7EE267AC7ED51
:1025B0000F7A9FED547AD7ED127A27EE277ADFED66
:1025C000526AC7EE267AC7ED0E7A9FED4E7AD7EDA6
:1025D000117A27EE277ADFED4C6AC7EE267AC7ED2F
:1025E0000D7A9FED487AD7ED107A27EE277ADFED46
:1025F000466AC7EE267AC7ED0C7ADFED447AF0EE34
:10260000670A97ED130A17F010F887ED0F0ADFED50
:102610003F7AF0EE670A97ED120A17F006F887ED99
:102620000E0ADFED3A7AF0EE670A97ED110A16F01E
:10263000FCFF87ED0D0ADFED357AF0EE670A97EDC6
:10264000100A16F0F2FF87ED0C0A07F047F9F0EEDA
:10265000407AB7EEE77A2E4B83ED267BD7ED177ADB
:10266000B7EEE77A2A4B83ED1E7BD7ED167AB7EEED
:10267000E77A274B83ED207BD7ED157AB7EEE77A23
:10268000234B83ED227BD7ED147AB7EEE77A204B0C
:1026900083ED247B7B78002B3CD097ED170AFFF766
:1026A0002DFEF0EE407AB7EEE77A194B83ED7C7B96
:1026B00097ED160AFFF722FEF0EE407AB7EEE77AC2
:1026C000134B83ED827B97ED150AFFF717FEF0EEB3
:1026D000407AB7EEE77A0E4B83ED887B97ED140ACC
:1026E000FFF70CFEF0EE407AB7EEE77A084B83ED89
:1026F0008E7B2BE0F4A901083CDA0108BCA9010893
:1027000030AA0108F6285C3E48E15E41CDCC5C4130
:10271000A86F0024C2494FF000024FF00003C1E946
:102720007C23BF494FF000024FF00003C1E9822330
:10273000BB494FF000024FF00003C1E98823B849BC
:102740004FF000024FF00003C1E98E23D7ED0F7A5E
:10275000B7EEE77AB24B83ED7E7BD7ED0E7AB7EE1C
:10276000E77AAF4B83ED847BD7ED0D7AB7EEE77A4E
:10277000AB4B83ED8A7BD7ED0C7AB7EEE77AA84BAB
:1027800083ED907B9FEDA77AF1EE007A67EE277AD2
:102790009FEDA57A27EE877ADFEDA46AC7EE267A49
:1027A000B7EEE76A9FED9C5B86EE057BF7EEC77B95
:1027B000C7ED0B7A97ED017AD7ED0B7A67EE277AA2
:1027C000B7EEE77A964B83ED007BB7F902301846F7
:1027D00000F05AFCF0EE407AB7EEE77A904B83EDCA
:1027E000027BB7F902301846FFF74AFBF0EE407A59
:1027F000B7EEE77A8A4B83ED047B894801F0EEF966
:10280000874B93ED6C7BF7EEC77B9FED897A67EE84
:10281000877AFDEEE77A17EE903A1AB2854B1A8066
:102820007F4B93ED707BF7EEC77B9FED817A67EE70
:10283000877AFDEEE77A17EE903A1AB27D4B5A800E
:10284000774B93ED747BF7EEC77B9FED797A67EE5C
:10285000877AFDEEE77A17EE903A1AB2754B9A80B6
:102860006F4B93ED787BF7EEC77B9FED717A67EE48
:10287000877AFDEEE77A17EE903A1AB26D4BDA805E
:10288000674B93ED007BF7EEC77B6B4BC3ED017A93
:10289000634B93ED027BF7EEC77B674BC3ED007A8A
:1028A000D7ED017A9FED627A67EE877AFDEEE77ADF
:1028B00017EE903A1AB2614B1A80604A7B78937097
:1028C00001F03CFAB0EE407BF7EEC77B9FED587A03
:1028D00067EE877AFDEEE77A17EE903A1BB29AB26E
:1028E000574B1A8001F03AFAB0EE407BF7EEC77B07
:1028F0009FED4F7A67EE877AFDEEE77A17EE903A12
:102900001BB29AB24E4B5A8001F038FAB0EE407BBF
:10291000F7EEC77B9FED467A67EE877AFDEEE77AA2
:1029200017EE903A1BB29AB2454B9A807B78002BF7
:1029300034D03B4B93ED6C7BF7EEC77B414A424969
:10294000B0EE670A0220FFF7EBFC354B93ED707B8E
:10295000F7EEC77B3B4A3C49B0EE670A0020FFF721
:10296000DFFC2F4B93ED747BF7EEC77B354A36497E
:10297000B0EE670A0320FFF7D3FC294B93ED787B79
:10298000F7EEC77B2F4A3049B0EE670A0120FFF708
:10299000C7FC2C492C4806F06FFD38E0204B93ED26
:1029A0006C7BF7EEC77B284BC3ED007A1C4B93ED95
:1029B000707BF7EEC77B244BC3ED017A184B93ED88
:1029C000747BF7EEC77B204BC3ED027A144B93ED7B
:1029D000787BF7EEC77B1C4BC3ED037A194B4FF0A6
:1029E00000021A60174B4FF000025A60154B4FF06F
:1029F00000029A60134B4FF00002DA6044F6206345
:102A0000184606F0EFFA0F490F4806F035FD00BFF3
:102A10006037BD4680BD00BF000000000020774049
:102A2000A86F0024CDCC5C4148E15E41F6285C3EB5
:102A300000007A44906F0024786F0024806F002497
:102A4000886F00248872002478720024000000003F
:102A5000B0B592B002AF0446084611461A46234666
:102A6000FB710346BB710B467B7113463B7100F053
:102A70003FF997F85C30002B09D0DFED990A9FED04
:102A8000980A06F08DF9002006F0ACFA1DE100204E
:102A9000FEF76EFFB8630220FEF76AFF786304203A
:102AA000FEF766FF38630620FEF762FFF862BB6B35
:102AB0005B881BB21A467B6B5B881BB213443A6B74
:102AC000528812B21344FA6A528812B21344002B8D
:102AD00000DA03339B10BB62824BD3ED007AB7EE72
:102AE000E76ABB6A07EE903AF8EEE77AB7EEE77A64
:102AF0009FED775B27EE057B36EE077BF7EEC77B16
:102B0000784BC3ED007AFB79013B072B00F2D380B1
:102B100001A252F823F000BF392B0008492B00080E
:102B2000532B0008612B0008752B0008992B000817
:102B3000E52B0008A32C0008B7F95020BB791146FB
:102B4000184600F02DF9C0E0BB79184600F052F9A4
:102B5000BBE03B79BA791146184600F073F9B4E04E
:102B60000123FB72FB7AB7F950203979B87900F06C
:102B70003BFBAAE0BB7907EE903AF8EE677ADFED0F
:102B80005A6A87EEA67AB7F9503000211846B0EE9F
:102B9000470AFFF755FC98E00123FB750123BB753D
:102BA00000237B754FF000033B614FF00003FB6097
:102BB000B8793979B7F95040D7ED037AB7EEE77AAB
:102BC000FD7DBB7D7A7DD7ED046AB7EEE66A0192A2
:102BD0000093B0EE461B2B46B0EE470B224600F0AA
:102BE00097F972E00520FEF7B1FE03461B7987F8DE
:102BF00027306423BB7207F10A0304220721184619
:102C000007F050FBBB7A07EE903AB8EEE77B9FEDFA
:102C1000326B27EE067BF7EEC77BC7ED087A4FF0E5
:102C20000003FB63314B1B7897F827209A421CD98D
:102C300097F827302D4A12789B1A07EE903AF8EE53
:102C4000E76A2A4B1B78C3F1FF0307EE903AB8EE10
:102C5000E77AC6EE877AC7ED0F7A97ED0F7AD7ED50
:102C6000087A67EE277AC7ED0F7ABB7907EE903ABC
:102C7000B8EE677ADFED1C6AC7EE267AC7ED077AF1
:102C800097ED077AD7ED0F7A77EE677AC7ED067A78
:102C9000B7F950300121184697ED060AFFF7D0FB2F
:102CA00013E0DFED0F0A9FED0E0A06F079F8002021
:102CB00006F098F909E0DFED0A0A9FED090A06F02F
:102CC0006FF8002006F08EF900BF4037BD46B0BD5A
:102CD000608BDA08F466403E7B14AE47E17A843FAD
:102CE00000000000F084002400007F4339DA01086E
:102CF00080B584B000AF0A20FEF75EFEF86014F0E5
:102D0000B3FF03461946F86807F0E1F80346B3F14C
:102D1000FF3F39D01E4BD3ED007AF5EE407AF1EE4D
:102D200010FA08D114F0A0FF03461A4A1360184B9A
:102D3000194A1A6029E0FFF755F8F0EE407A9FED46
:102D4000177A67EE877AC7ED027A14F08DFF786004
:102D50000F4B93ED007A0F4B1B687A68D31A07EE7E
:102D6000903AF8EE677ADFED0D6A67EEA66AD7ED66
:102D7000027A66EEA77A77EE277A054BC3ED007AE2
:102D8000044A7B68136000E000BF1037BD4680BD79
:102D9000A06F0024A46F00246F12833A6F12833A4D
:102DA00080B584B000AF03460A46FB711346BB8072
:102DB000FB7907EE903AF8EE677AB1EE047A27EEE7
:102DC000877ADFED0A6AC7EE267AC7ED037ADFED70
:102DD000080A97ED030A05F0E3FF40F2DC531846BA
:102DE00006F000F900BF1037BD4680BD00007F43EC
:102DF0000000000080B584B000AF0346FB71FB7992
:102E000007EE903AF8EE677AB3EE057A27EE877A06
:102E1000DFED0A6AC7EE267AC7ED037ADFED080A0E
:102E200097ED030A05F0BCFF44F62063184606F050
:102E3000D9F800BF1037BD4680BD00BF00007F43FA
:102E40000000000080B588B000AF03460A46FB7161
:102E50001346BB71FB7907EE903AB8EEE77A294B3F
:102E6000D3ED007AB4EEE77AF1EE10FA2BDB002313
:102E7000FB770520FEF7A0FD786114F0F5FE034610
:102E80001946786907F023F80346B3F1FF3F10D0E5
:102E90007B6918333B613B699B78FB73FB7B03F0D9
:102EA0000103DBB2002B02D10123FB7701E00023F9
:102EB000FB77FB7F002B20D0F979BB7900221846E5
:102EC000FFF746F819E0BB7907EE903AF8EE677A1B
:102ED000B3EE057A27EE877ADFED0B6AC7EE267A26
:102EE000C7ED067ADFED090A97ED060A05F058FFEF
:102EF00044F62063184606F075F800BF2037BD463B
:102F000080BD00BF2838060800007F430000000095
:102F100090B589B000AF04460846114687ED020A15
:102F20001A46C7ED000A2346FB730346BB730B46E4
:102F3000BB811346FB710023FB7705F087FCF0EEA5
:102F4000407AB5EE007A67EE877AB0EE670A05F050
:102F500039FC87ED060A434BD3ED007A97ED067AEC
:102F6000B4EEE77AF1EE10FA2BD50520FEF7EEFC71
:102F700003461B78DBB203F00103002B14BF0123CF
:102F80000023FB77FB7F002B02D0374B01221A7006
:102F9000354B1B78002B14D0FB7F83F00103DBB291
:102FA000002B0ED0314B1B7883F00103DBB2002BDA
:102FB00007D014F059FE03462D4A13602B4B012213
:102FC0001A7014F051FE0246294B1B68D31A07EE03
:102FD000903AF8EE677A9FED277A67EE877AC7ED29
:102FE000057A254BD3ED007A97ED057AB4EEE77AB2
:102FF000F1EE10FA09DBDFED210A9FED200A05F062
:10300000CFFE002005F0EEFF28E0BB7B07EE903AF4
:10301000B8EEE77A1A4BD3ED007AB4EEE77AF1EE28
:1030200010FA1BD5FB7B002B18D0FB7F83F001032C
:10303000DBB2002B12D00D4B1B78002B0ED0FB7B8C
:1030400007EE903AF8EE677ADFED0E6A87EEA67A21
:1030500000210020B0EE470AFFF7F2F92437BD4601
:1030600090BD00BF6CDA0108746F0024756F0024F6
:10307000706F00246F12833A70DA010800000000BC
:103080002838060800007F4380B58AB000AF0346A9
:10309000FB800620FEF77EFC78620520FEF77AFCB6
:1030A00038627B6A1B881BB207EE903AF8EEE77A2B
:1030B0009FED447A67EE877ADFED430AB0EE670A48
:1030C00016F096FA87ED070A3B6A9B881BB207EE5B
:1030D000903AF8EEE77A9FED3D7A67EE877AC7ED92
:1030E000067AB7F906301846FEF7CAFE87ED050ADC
:1030F0009FED377ADFED367A77EE277AC7ED047ADF
:1031000097ED057AD7ED077A67EE276AD7ED077A4C
:1031100027EEA77A2F4BD3ED007A27EE277AD7ED4B
:10312000047A37EE277AC6EE877AC7ED037AD7EDB1
:10313000037A9FED297A67EE877AFDEEE77A17EE3C
:10314000903A1AB2254B5A80D7ED067A9FED227A33
:1031500067EE877AFDEEE77A17EE903A1AB21F4BC8
:103160001A801F4B1B781846FEF7C0FE034683F0FB
:103170000103DBB2002B06D0184B4FF6FF72DA804A
:103180004FF0000317E0174BD3ED007AFDEEE77A1E
:1031900017EE903A1AB2114BDA8097ED067AD7ED16
:1031A000037A37EE677A0F4BD3ED007A67EE277A12
:1031B000C7ED027ABB6807EE903AB0EE670A28378F
:1031C000BD4680BD0AD7233C000000006F12833A41
:1031D0006666463F74DA010800007A44346F0024C2
:1031E00078DA01083C6F002490B595B000AF044632
:1031F000084611461A462346FB710346BB710B462F
:10320000BB801346FB70BB7907EE903AB8EEE77AC5
:10321000A94BD3ED007AB4EEE77AF1EE10FA09DBB0
:10322000DFEDA60A9FEDA50A05F0BAFD002005F026
:10323000D9FE36E1FB7907EE903AF8EE677AB3EE05
:10324000057A27EE877ADFED9E6AC7EE267AC7ED0C
:10325000137AB7F904301846FFF716FFF0EE407AFC
:10326000B6EE007A67EE877AC7ED127AD7ED130AC9
:1032700097ED120A16F0D9F987ED120AD7ED137AF5
:10328000F1EE677AF0EE670A97ED120A16F0B0F9E0
:1032900087ED120A97ED137AD7ED127A77EE677AF7
:1032A000C7ED037A97ED137AD7ED127A77EE277A86
:1032B000C7ED047A97ED137AD7ED127A77EE677A35
:1032C000C7ED057A97ED137AD7ED127A77EE277A64
:1032D000C7ED067A07F10C030021184606F0CCF87A
:1032E000FB7883F00103DBB2002B5ED0032005F0F6
:1032F00093FAF0EE407AB0EE670A05F063FA87EDD4
:103300000C0A012005F088FAF0EE407AB0EE670A68
:1033100005F058FA87ED0B0ADFED6A7AF8EEE77AE6
:10332000C7ED0A7A97ED0C7AD7ED0B7A37EE277A4C
:10333000F0EE006AC7EE267AC7ED097AD7ED097A72
:103340009FED617A77EE877AC7ED087A9FED5F7A15
:10335000DFED5F7A27EE277AD7ED087A67EE277AD6
:10336000B7EEE75ADFED5B7AB7EEE77A9FED4E6B8B
:1033700027EE066B85EE067BF7EEC77BC7ED077A77
:1033800097ED0A0A022005F001FE97ED0A0A0020D7
:1033900005F0FCFD97ED0A0A032005F0F7FD97ED17
:1033A0000A0A012005F0F2FD7BE0032005F034FA63
:1033B000F0EE407AB7EEE76A9FED3B5B86EE057B69
:1033C0009FED3B6B27EE067BF7EEC77BC7ED117ACF
:1033D000012005F021FAF0EE407AB7EEE76A9FEDA2
:1033E000325B86EE057B9FED326B27EE067BF7EEB8
:1033F000C77BC7ED107ADFED337AF8EEE77AC7EDD9
:103400000F7AD7ED117A9FED347A27EE877AD7EDD0
:10341000107ADFED316A67EEA67ADFED306A77EE7B
:10342000A67AF0EE670AB0EE470A16F0FEF8F0EE64
:10343000407A9FED257A77EE877AC7ED0E7AD7ED41
:10344000117A9FED257A67EE877A9FED247A37EE21
:10345000877AD7ED107ADFED206A67EEA67AF0EE74
:10346000670AB0EE470A16F0E0F8F0EE407A9FEDFA
:10347000167A77EE877AC7ED0D7A97ED0E0A02205D
:1034800005F084FD97ED0D0A002005F07FFD97ED16
:103490000F0A032005F07AFD97ED0F0A012005F0D1
:1034A00075FD5437BD4690BD182D4454FB2119407D
:1034B0000000000000004E40283806080000000010
:1034C00000007F43204E0000CDCCCC3D48E15E4162
:1034D00000007042F6285C3E295C8F3F00803B452F
:1034E00080B485B000AF7860DFED177AB7EEE75AA9
:1034F000DFED167AB7EEE77A9FED116B27EE066BDC
:1035000085EE067B87ED027B7968D7E90223C1E966
:1035100006237968D7E90223C1E908237968D7E946
:103520000223C1E90A237968D7E90223C1E90C2300
:1035300000BF1437BD465DF8047B7047AFF30080D1
:10354000000000000020774048E15E41F6285C3E24
:1035500080B52DED028B86B000AF7860DFED366A66
:103560009FED367AC6EE877AB7EEE77A87ED047B71
:103570007B68D3E90423C7E9022397ED020B15F01A
:1035800073FFB0EE407B9FED286B27EE068B97ED27
:10359000020B15F01DFFB0EE407B9FED256B27EE73
:1035A000067B38EE076B97ED047B26EE077B7B6886
:1035B00083ED0E7B97ED020B15F056FFB0EE407BCE
:1035C0009FED196B27EE068B97ED020B15F000FFB0
:1035D000B0EE407B9FED166B27EE067B38EE476B17
:1035E00097ED047B26EE077B7B6883ED107B9FEDD8
:1035F000106B97ED047B26EE077B7B6883ED127BD7
:103600009FED0B7BB1EE476B97ED047B26EE077BBE
:103610007B6883ED147B00BF1837BD46BDEC028B81
:1036200080BD00BFAFF30080000000C0CCCCE83FFD
:10363000000000C0CCCCE43F48E15E41F6285C3E8F
:1036400080B483B000AF78600E4BD3E90023796873
:10365000C1E916230B4BD3E900237968C1E918238C
:10366000084BD3E900237968C1E91A23054BD3E954
:1036700000237968C1E91C2300BF0C37BD465DF803
:10368000047B7047F804002480B584B000AFF86074
:1036900087ED000BFB681B7C022B05D0114B124AF7
:1036A0003921124815F098F9FB6893ED007B97EDEE
:1036B000006BB4EEC76BF1EE10FA0BDBFB6893ED19
:1036C000027B97ED006BB4EEC76BF1EE10FA01D8F8
:1036D000012300E0002303F00103DBB2184610379A
:1036E000BD4680BD6CAA01087CDA010888AA0108E1
:1036F00080B586B000AF78600123FB7500233B6185
:103700001EE07B683A69663253F822107A683B699A
:103710002F33DB00134493ED007BB0EE470B0846DC
:10372000FFF7B2FF0346FB73FB7B83F00103DBB2C1
:10373000002B02D00023FB7508E03B6901333B619D
:103740007B68D3F8A0303A699A42DADBFB7D1846F1
:103750001837BD4680BD80B58AB000AF78607B6801
:10376000D3F8A030FB617B6803F5F873BB617B681D
:1037700003F1D0007B6803F5BC731A46F96901F0C8
:10378000C0FF87ED040B7B6893ED7A7B97ED046BAC
:10379000B4EEC76BF1EE10FA00D45CE07968D7E9BB
:1037A0000423C1E97A2300237B6200233B624FE0BC
:1037B0003A6A13465B001344DB001A46BB691344A4
:1037C0001B7CFB737A683B6A1B01134403F5D473BB
:1037D000FA7B1A70FB7B002B11D13A6A13465B000F
:1037E0001344DB001A46BB691344D3E9002378680D
:1037F000396A1B3109010144C1E9002325E0FB7B43
:10380000012B11D13A6A13465B001344DB001A46C0
:10381000BB691344D3E902237868396A1B31090173
:103820000144C1E9002310E07A687B6A2F33DB0092
:103830001344D3E900237868396A1B310901014434
:10384000C1E900237B6A01337B623B6A01333B623F
:103850003B6A032BACDD00BF2837BD4680BD80B47A
:1038600089B000AF78600023FB617B68D3E9262331
:10387000C7E904237B6803F5F873BB600023FB6092
:1038800067E0FA6813465B001344DB001A46BB6826
:1038900013441B7C022B06D0022B57DC002B21D0BB
:1038A000012B39D052E0FA6813465B001344DB0069
:1038B0001A46BB6899187B68FA69663243F8221089
:1038C0007A68FB680F33DB001344D3E90023786880
:1038D000F9691531C9000144C1E90023FB690133CD
:1038E000FB6133E0FA6813465B001344DB001A46C1
:1038F000BB68134493ED006B7A68FB680F33DB0001
:10390000134493ED007B26EE077B97ED046B36EEB8
:10391000477B87ED047B19E0FA6813465B0013448C
:10392000DB001A46BB68134493ED026B7A68FB68B0
:103930000F33DB00134493ED007B26EE077B97EDFE
:10394000046B36EE477B87ED047B00BFFB680133D9
:10395000FB60FB68032B94DD7968D7E90423C1E998
:103960003223FB6918462437BD465DF8047B704757
:1039700080B52DED028B8AB000AF78607B68D033C4
:103980003B627B68D3F8A030FB617B6803F5147061
:103990007B6803F1A801FB692F4A00F026FC7B68D5
:1039A000A833FA692C49184601F0FEFD87ED040B97
:1039B00097ED047BB5EE407BF1EE10FA46D07B68C4
:1039C00093ED327BB1EE478B3B6A8033FA6919463F
:1039D000214801F0E9FDB0EE407B38EE475B97ED02
:1039E000046B85EE067B87ED027B00237B621EE085
:1039F0003A6A7B6A1033DB00134493ED007BB1EE2F
:103A0000476B7A687B6A1533DB00134493ED005BE8
:103A100097ED027B25EE077B36EE477B0F4A7B6AEC
:103A2000DB00134483ED007B7B6A01337B627A6A9F
:103A3000FB699A42DCDB7B6803F514707B6803F555
:103A4000BC72FB69054900F0D0FB00E000BF2837DD
:103A5000BD46BDEC028B80BD98720024B872002474
:103A600080B58AB002AF78607B6803F5F8733B617C
:103A70007868FFF7F4FE0346FB60FA687B68C3F8DA
:103A8000A0207B68D033FA681146184600F046FA49
:103A90007B6803F118017B6893ED007B4D4B93ED40
:103AA000006B7B6803F1D0020423B0EE461BB0EE3E
:103AB000470B386900F04DFA7B6803F138017B68E9
:103AC00093ED027B444B93ED006B7B6803F1D002D6
:103AD0000423B0EE461BB0EE470B386900F039FA0C
:103AE0007B6803F158017B6803F1D002FB68042076
:103AF0000090386900F0ECFA7B6803F1D000F968B7
:103B00007B6803F5BC727B6803F5147301F0F8FC65
:103B10007868FFF7EDFD0346FB724FF000024FF0AF
:103B20000003C7E9062300237B6118E07A687B69FC
:103B30002F33DB00134493ED006B7A687B691533F8
:103B4000DB00134493ED007B26EE077B97ED066BBD
:103B500036EE077B87ED067B7B6901337B617B69F2
:103B6000FA689A42E2D8FB7A002B0DD07B6893ED7D
:103B7000327B97ED066BB4EEC76BF1EE10FA03D80B
:103B80007868FFF7E8FD21E0FB68002B1DD0FB689B
:103B9000012B0BD17B6893ED325B7B6893ED2A6B35
:103BA00085EE067B7B6883ED5E7B02E07868FFF73D
:103BB000DFFE7868FFF79CFD0346FB72FB7A002B63
:103BC00004D07868FFF7C7FD00E000BF2037BD468E
:103BD00080BD00BFE8040024F004002480B584B058
:103BE00000AF78607868FFF77BFC7868FFF7B0FC7F
:103BF0007868FFF725FD79684FF060421F4BC1E9F7
:103C00007A230023FB7330E00023BB7327E00023FB
:103C10007B731EE000233B7315E07B68FA7B83F81F
:103C200000227B68BA7B83F818227B687A7B83F852
:103C300030227B683A7B83F848227868FFF710FFD0
:103C40003B7B01333B733B7B022BE6D97B7B013310
:103C50007B737B7B022BDDD9BB7B0133BB73BB7BCF
:103C6000022BD4D9FB7B0133FB73FB7B022BCBD91B
:103C700000BF00BF1037BD4680BD00BFFFFFEF474C
:103C800080B582B000AF87ED000B9FED091B97ED6B
:103C9000000B15F05BFC87ED000B0749D7E900230B
:103CA000C1E9002300BF0837BD4680BDAFF30080E7
:103CB00000000040E17A743FE804002400000000A6
:103CC00080B582B000AF87ED000B9FED091B97ED2B
:103CD000000B15F03BFC87ED000B0749D7E90023EB
:103CE000C1E9002300BF0837BD4680BDAFF30080A7
:103CF00000000040E17A743FF0040024000000005E
:103D000080B582B000AF87ED000B9FED091B97EDEA
:103D1000000B15F01BFC87ED000B0749D7E90023CA
:103D2000C1E9002300BF0837BD4680BDAFF3008066
:103D300000000040E17A743FF804002480B400AF32
:103D4000054BD3E9002343EC172BB0EE470BBD46E0
:103D50005DF8047B704700BFE804002480B400AF26
:103D6000054BD3E9002343EC172BB0EE470BBD46C0
:103D70005DF8047B704700BFF004002480B400AFFE
:103D8000054BD3E9002343EC172BB0EE470BBD46A0
:103D90005DF8047B704700BFF804002480B485B050
:103DA00000AF786039600023FB600CE0FB68DB004B
:103DB0007A68D1184FF000024FF00003C1E90023E8
:103DC000FB680133FB603B6803FB03F3FA689A422C
:103DD000ECDB00BF00BF1437BD465DF8047B7047C5
:103DE00080B485B000AF786039600023FB600CE0E0
:103DF000FB68DB007A68D1184FF000024FF0000337
:103E0000C1E90023FB680133FB60FA683B689A4212
:103E1000EEDB00BF00BF1437BD465DF8047B704782
:103E200080B489B000AF786187ED020B39617A60A8
:103E30000023FB6136E00023BB612CE07B68FA695C
:103E400003FB02F2BB691344DB003A69134493EDB0
:103E5000006BFB69DB007A69134493ED005BBB697F
:103E6000DB007A69134493ED007B25EE075B97ED49
:103E7000027B25EE077B7B68FA6903FB02F2BB69D4
:103E80001344DB003A69134436EE077B83ED007B75
:103E9000BB690133BB61BA697B689A42CEDBFB69BF
:103EA0000133FB61FA697B689A42C4DB00BF00BF43
:103EB0002437BD465DF8047B704780B489B000AFFD
:103EC000786187ED020B39617A600023FB611AE0AB
:103ED000FB69DB003A69134493ED006BFB69DB007F
:103EE0007A69134493ED005B97ED027B25EE077B27
:103EF000FB69DB003A69134436EE077B83ED007BF8
:103F0000FB690133FB61FA697B689A42E0DB00BF21
:103F100000BF2437BD465DF8047B704780B582B092
:103F200000AF786039607B6839681846FFF736FF64
:103F30007B68803339681846FFF752FF79684FF085
:103F400000024FF00003C1E9282300BF0837BD4637
:103F500080BD2DE9F04391B000AFF861B96187ED04
:103F6000040B87ED021B7A603B606B461E463B6884
:103F7000013BFB623B680022984691464FF00002ED
:103F80004FF000034FEA891343EA98634FEA88121F
:103F90003B6800221C4615464FF000024FF000031C
:103FA000AB0143EA9463A2013B68DB000733DB0803
:103FB000DB00ADEB030D6B460733DB08DB00BB62B8
:103FC00097ED047BB1EE477B87ED0E7B00237B638F
:103FD00000233B6345E03A6B13465B001344DB0070
:103FE0001A46FB6913447B627B6A1B7C022B0ED151
:103FF0003B6BDB00BA691344796B4A1C7A63D3E9E3
:104000000023B86AC9000144C1E9002326E07B6AA5
:104010001B7C002B11D17B6A93ED006B3B6BDB00AB
:10402000BA69134493ED007B26EE077B97ED0E6B88
:1040300036EE077B87ED0E7B10E07B6A93ED026B1B
:104040003B6BDB00BA69134493ED007B26EE077BE4
:1040500097ED0E6B36EE077B87ED0E7B3B6B0133E6
:104060003B633A6B3B689A42B5DB7B687A6B1946D7
:1040700097ED020BB86AFFF7D3FE97ED0E6B97ED45
:10408000027B26EE077B7B6880337A6B1946B0EEA5
:10409000470BB86AFFF711FF7B6893ED286B97ED2C
:1040A0000E7BB6EE005B27EE055B97ED0E7B25EEF3
:1040B000075B97ED027B25EE077B36EE077B7B687F
:1040C00083ED287BB54600BF4437BD46BDE8F0838D
:1040D00080B48BB000AFF860B9607A603B600023B9
:1040E0007B624FF000024FF00003C7E90623002374
:1040F0007B6162E07A6913465B001344DB001A4679
:10410000FB6813443B613B691B7C022B21D17B6A1A
:104110003A6803FB02F27B6A13447A68DB001344BB
:1041200093ED006B7B69DB00BA68134493ED007B71
:104130007B6A3A6803FB02F27B6A134436EE077B24
:104140007A68DB00134483ED007B7B6A01337B627A
:1041500030E03B691B7C002B16D13B6993ED006B73
:104160003B6993ED007B26EE076B7B69DB00BA6849
:10417000134493ED007B26EE077B97ED066B36EE3E
:10418000077B87ED067B15E03B6993ED026B3B698E
:1041900093ED027B26EE076B7B69DB00BA68134464
:1041A00093ED007B26EE077B97ED066B36EE077BE3
:1041B00087ED067B7B6901337B617A693B6B9A42B1
:1041C00098DB7B6893ED286B97ED067BB6EE005B82
:1041D00027EE057B36EE077B7B6883ED287B00BFEF
:1041E0002C37BD465DF8047B704780B487B000AFC4
:1041F000F860B9607A603B6000237B6137E07B69DF
:10420000DB007A68D1184FF000024FF00003C1E9DB
:10421000002300233B6123E07B69DB007A681344C1
:1042200093ED006B7B693A6803FB02F23B69134430
:10423000DB00FA68134493ED005B3B69DB00BA686E
:10424000134493ED007B25EE077B7B69DB007A68E6
:10425000134436EE077B83ED007B3B6901333B6102
:104260003A693B689A42D7DB7B6901337B617A69A3
:104270003B689A42C3DB00BF00BF1C37BD465DF8F8
:10428000047B704780B582B000AF786039607B688E
:1042900093ED007BB5EE407BF1EE10FA05D10A4BB1
:1042A0000A4A66210A4814F097FB7B6893ED006B7D
:1042B000B7EE005B85EE067B3B6883ED007B00BFBD
:1042C0000837BD4680BD00BFC4AA010894DA0108C2
:1042D000D8AA010880B584B000AF786039607B68E7
:1042E00093ED006B7B68183393ED007B26EE076B34
:1042F0007B68083393ED005B7B68103393ED007BA4
:1043000025EE077B36EE477B87ED027B97ED027B40
:10431000B5EE407BF1EE10FA05D11E4B1E4A6C2122
:104320001E4814F059FB7B68183393ED005B97ED42
:10433000026B85EE067B3B6883ED007B7B68083370
:1043400093ED007BB1EE475B3B68083397ED026B62
:1043500085EE067B83ED007B7B68103393ED007B5D
:10436000B1EE475B3B68103397ED026B85EE067B41
:1043700083ED007B7B6893ED005B3B68183397ED22
:10438000026B85EE067B83ED007B00BF1037BD46D8
:1043900080BD00BF10AB0108A0DA0108D8AA01084F
:1043A00080B584B000AF786039607B6893ED006BB6
:1043B0007B68203393ED005B7B68403393ED007B9B
:1043C00025EE075B7B68283393ED004B7B68383321
:1043D00093ED007B24EE077B35EE477B26EE076BE3
:1043E0007B68083393ED005B7B68183393ED004BDB
:1043F0007B68403393ED007B24EE074B7B682833CA
:1044000093ED003B7B68303393ED007B23EE077B1D
:1044100034EE477B25EE077B36EE476B7B68103327
:1044200093ED005B7B68183393ED004B7B6838336A
:1044300093ED007B24EE074B7B68203393ED003B2C
:104440007B68303393ED007B23EE077B34EE477BB4
:1044500025EE077B36EE077B87ED027B97ED027B2F
:10446000B5EE407BF1EE10FA05D18D4B8D4A7721E8
:104470008D4814F0B1FA7B68203393ED006B7B68B4
:10448000403393ED007B26EE076B7B68283393ED7A
:10449000005B7B68383393ED007B25EE077B36EEBF
:1044A000475B97ED026B85EE067B3B6883ED007BF7
:1044B0007B68083393ED006B7B68403393ED007BA2
:1044C00026EE076B7B68103393ED005B7B68383317
:1044D00093ED007B25EE077B36EE477BB1EE475B25
:1044E0003B68083397ED026B85EE067B83ED007B1E
:1044F0007B68083393ED006B7B68283393ED007B7A
:1045000026EE076B7B68103393ED005B7B682033EE
:1045100093ED007B25EE077B36EE475B3B6810335F
:1045200097ED026B85EE067B83ED007B7B6818338D
:1045300093ED006B7B68403393ED007B26EE076BB9
:104540007B68283393ED005B7B68303393ED007B11
:1045500025EE077B36EE477BB1EE475B3B681833B1
:1045600097ED026B85EE067B83ED007B7B6893ED18
:10457000006B7B68403393ED007B26EE076B7B6816
:10458000103393ED005B7B68303393ED007B25EEB9
:10459000077B36EE475B3B68203397ED026B85EE79
:1045A000067B83ED007B7B6893ED006B7B68283393
:1045B00093ED007B26EE076B7B68103393ED005B79
:1045C0007B68183393ED007B25EE077B36EE477B47
:1045D000B1EE475B3B68283397ED026B85EE067BB7
:1045E00083ED007B7B68183393ED006B7B68383379
:1045F00093ED007B26EE076B7B68203393ED005B29
:104600007B68303393ED007B25EE077B36EE475B0E
:104610003B68303397ED026B85EE067B83ED007BC4
:104620007B6893ED006B7B68383393ED007B26EE5F
:10463000076B7B68083393ED005B7B68303393ED49
:10464000007B25EE077B36EE477BB1EE475B3B6890
:10465000383397ED026B85EE067B83ED007B7B683C
:1046600093ED006B7B68203393ED007B26EE076BA8
:104670007B68083393ED005B7B68183393ED007B18
:1046800025EE077B36EE475B3B68403397ED026BC8
:1046900085EE067B83ED007B00BF1037BD4680BDF5
:1046A00010AB0108ACDA0108D8AA010880B5A6B0A1
:1046B00000AF786039607B68283393ED006B7B68CE
:1046C000503393ED007B26EE076B7B68783393EDD8
:1046D000007B26EE076B7B68283393ED005B7B68DD
:1046E000583393ED007B25EE075B7B68703393EDC9
:1046F000007B25EE077B36EE476B7B68483393EDF6
:10470000005B7B68303393ED007B25EE075B7B68B5
:10471000783393ED007B25EE077B36EE476B7B68A5
:10472000483393ED005B7B68383393ED007B25EED7
:10473000075B7B68703393ED007B25EE077B36EEDD
:10474000076B7B68683393ED005B7B68303393EDD8
:10475000007B25EE075B7B68583393ED007B25EEED
:10476000077B36EE076B7B68683393ED005B7B68F5
:10477000383393ED007B25EE075B7B68503393ED78
:10478000007B25EE077B36EE477B87ED027B7B685F
:10479000203393ED007BB1EE476B7B68503393ED94
:1047A000007B26EE076B7B68783393ED007B26EE6B
:1047B000076B7B68203393ED005B7B68583393ED88
:1047C000007B25EE075B7B68703393ED007B25EE65
:1047D000077B36EE076B7B68403393ED005B7B68AD
:1047E000303393ED007B25EE075B7B68783393EDE8
:1047F000007B25EE077B36EE076B7B68403393ED3D
:10480000005B7B68383393ED007B25EE075B7B68AC
:10481000703393ED007B25EE077B36EE476B7B68AC
:10482000603393ED005B7B68303393ED007B25EEC6
:10483000075B7B68583393ED007B25EE077B36EEF4
:10484000476B7B68603393ED005B7B68383393ED97
:10485000007B25EE075B7B68503393ED007B25EEF4
:10486000077B36EE077B87ED047B7B68203393ED77
:10487000006B7B68483393ED007B26EE076B7B680B
:10488000783393ED007B26EE076B7B68203393ED46
:10489000005B7B68583393ED007B25EE075B7B68FC
:1048A000683393ED007B25EE077B36EE476B7B6824
:1048B000403393ED005B7B68283393ED007B25EE5E
:1048C000075B7B68783393ED007B25EE077B36EE44
:1048D000476B7B68403393ED005B7B68383393ED27
:1048E000007B25EE075B7B68683393ED007B25EE4C
:1048F000077B36EE076B7B68603393ED005B7B686C
:10490000283393ED007B25EE075B7B68583393EDEE
:10491000007B25EE077B36EE076B7B68603393EDFB
:10492000005B7B68383393ED007B25EE075B7B688B
:10493000483393ED007B25EE077B36EE477B87ED12
:10494000067B7B68203393ED007BB1EE476B7B6881
:10495000483393ED007B26EE076B7B68703393ED55
:10496000007B26EE076B7B68203393ED005B7B6852
:10497000503393ED007B25EE075B7B68683393ED46
:10498000007B25EE077B36EE076B7B68403393EDAB
:10499000005B7B68283393ED007B25EE075B7B682B
:1049A000703393ED007B25EE077B36EE076B7B685B
:1049B000403393ED005B7B68303393ED007B25EE55
:1049C000075B7B68683393ED007B25EE077B36EE53
:1049D000476B7B68603393ED005B7B68283393ED16
:1049E000007B25EE075B7B68503393ED007B25EE63
:1049F000077B36EE476B7B68603393ED005B7B682B
:104A0000303393ED007B25EE075B7B68483393EDF5
:104A1000007B25EE077B36EE077B87ED087B7B6806
:104A2000083393ED007BB1EE476B7B68503393ED19
:104A3000007B26EE076B7B68783393ED007B26EED8
:104A4000076B7B68083393ED005B7B68583393ED0D
:104A5000007B25EE075B7B68703393ED007B25EED2
:104A6000077B36EE076B7B68483393ED005B7B6812
:104A7000103393ED007B25EE075B7B68783393ED75
:104A8000007B25EE077B36EE076B7B68483393EDA2
:104A9000005B7B68183393ED007B25EE075B7B683A
:104AA000703393ED007B25EE077B36EE476B7B681A
:104AB000683393ED005B7B68103393ED007B25EE4C
:104AC000075B7B68583393ED007B25EE077B36EE62
:104AD000476B7B68683393ED005B7B68183393ED1D
:104AE000007B25EE075B7B68503393ED007B25EE62
:104AF000077B36EE077B87ED0A7B7B6893ED006BC7
:104B00007B68503393ED007B26EE076B7B68783330
:104B100093ED007B26EE076B7B6893ED005B7B6873
:104B2000583393ED007B25EE075B7B68703393ED84
:104B3000007B25EE077B36EE476B7B68403393EDB9
:104B4000005B7B68103393ED007B25EE075B7B6891
:104B5000783393ED007B25EE077B36EE476B7B6861
:104B6000403393ED005B7B68183393ED007B25EEBB
:104B7000075B7B68703393ED007B25EE077B36EE99
:104B8000076B7B68603393ED005B7B68103393EDBC
:104B9000007B25EE075B7B68583393ED007B25EEA9
:104BA000077B36EE076B7B68603393ED005B7B68B9
:104BB000183393ED007B25EE075B7B68503393ED54
:104BC000007B25EE077B36EE477B87ED0C7B7B6811
:104BD00093ED007BB1EE476B7B68483393ED007B30
:104BE00026EE076B7B68783393ED007B26EE076B30
:104BF0007B6893ED005B7B68583393ED007B25EE7B
:104C0000075B7B68683393ED007B25EE077B36EE10
:104C1000076B7B68403393ED005B7B68083393ED53
:104C2000007B25EE075B7B68783393ED007B25EEF8
:104C3000077B36EE076B7B68403393ED005B7B6848
:104C4000183393ED007B25EE075B7B68683393EDAB
:104C5000007B25EE077B36EE476B7B68603393ED78
:104C6000005B7B68083393ED007B25EE075B7B6878
:104C7000583393ED007B25EE077B36EE476B7B6860
:104C8000603393ED005B7B68183393ED007B25EE7A
:104C9000075B7B68483393ED007B25EE077B36EEA0
:104CA000077B87ED0E7B7B6893ED006B7B68483359
:104CB00093ED007B26EE076B7B68703393ED007BF2
:104CC00026EE076B7B6893ED005B7B68503393EDBA
:104CD000007B25EE075B7B68683393ED007B25EE58
:104CE000077B36EE476B7B68403393ED005B7B6858
:104CF000083393ED007B25EE075B7B68703393ED03
:104D0000007B25EE077B36EE476B7B68403393EDE7
:104D1000005B7B68103393ED007B25EE075B7B68BF
:104D2000683393ED007B25EE077B36EE076B7B68DF
:104D3000603393ED005B7B68083393ED007B25EED9
:104D4000075B7B68503393ED007B25EE077B36EEE7
:104D5000076B7B68603393ED005B7B68103393EDEA
:104D6000007B25EE075B7B68483393ED007B25EEE7
:104D7000077B36EE477B87ED107B7B68083393ED2E
:104D8000006B7B68303393ED007B26EE076B7B680E
:104D9000783393ED007B26EE076B7B68083393ED49
:104DA000005B7B68383393ED007B25EE075B7B6807
:104DB000703393ED007B25EE077B36EE476B7B6807
:104DC000283393ED005B7B68103393ED007B25EE79
:104DD000075B7B68783393ED007B25EE077B36EE2F
:104DE000476B7B68283393ED005B7B68183393ED4A
:104DF000007B25EE075B7B68703393ED007B25EE2F
:104E0000077B36EE076B7B68683393ED005B7B684E
:104E1000103393ED007B25EE075B7B68383393ED11
:104E2000007B25EE077B36EE076B7B68683393EDDE
:104E3000005B7B68183393ED007B25EE075B7B6896
:104E4000303393ED007B25EE077B36EE477B87ED15
:104E5000127B7B6893ED007BB1EE476B7B68303350
:104E600093ED007B26EE076B7B68783393ED007B38
:104E700026EE076B7B6893ED005B7B68383393ED20
:104E8000007B25EE075B7B68703393ED007B25EE9E
:104E9000077B36EE076B7B68203393ED005B7B6806
:104EA000103393ED007B25EE075B7B68783393ED41
:104EB000007B25EE077B36EE076B7B68203393ED96
:104EC000005B7B68183393ED007B25EE075B7B6806
:104ED000703393ED007B25EE077B36EE476B7B68E6
:104EE000603393ED005B7B68103393ED007B25EE20
:104EF000075B7B68383393ED007B25EE077B36EE4E
:104F0000476B7B68603393ED005B7B68183393EDF0
:104F1000007B25EE075B7B68303393ED007B25EE4D
:104F2000077B36EE077B87ED147B7B6893ED006B88
:104F30007B68283393ED007B26EE076B7B68783324
:104F400093ED007B26EE076B7B6893ED005B7B683F
:104F5000383393ED007B25EE075B7B68683393ED78
:104F6000007B25EE077B36EE476B7B68203393EDA5
:104F7000005B7B68083393ED007B25EE075B7B6865
:104F8000783393ED007B25EE077B36EE476B7B682D
:104F9000203393ED005B7B68183393ED007B25EEA7
:104FA000075B7B68683393ED007B25EE077B36EE6D
:104FB000076B7B68603393ED005B7B68083393ED90
:104FC000007B25EE075B7B68383393ED007B25EE95
:104FD000077B36EE076B7B68603393ED005B7B6885
:104FE000183393ED007B25EE075B7B68283393ED48
:104FF000007B25EE077B36EE477B87ED167B7B68D3
:1050000093ED007BB1EE476B7B68283393ED007B1B
:1050100026EE076B7B68703393ED007B26EE076B03
:105020007B6893ED005B7B68303393ED007B25EE6E
:10503000075B7B68683393ED007B25EE077B36EEDC
:10504000076B7B68203393ED005B7B68083393ED3F
:10505000007B25EE075B7B68703393ED007B25EECC
:10506000077B36EE076B7B68203393ED005B7B6834
:10507000103393ED007B25EE075B7B68683393ED7F
:10508000007B25EE077B36EE476B7B68603393ED44
:10509000005B7B68083393ED007B25EE075B7B6844
:1050A000303393ED007B25EE077B36EE476B7B6854
:1050B000603393ED005B7B68103393ED007B25EE4E
:1050C000075B7B68283393ED007B25EE077B36EE8C
:1050D000077B87ED187B7B68083393ED007BB1EE8F
:1050E000476B7B68303393ED007B26EE076B7B6864
:1050F000583393ED007B26EE076B7B68083393ED06
:10510000005B7B68383393ED007B25EE075B7B68A3
:10511000503393ED007B25EE077B36EE076B7B6803
:10512000283393ED005B7B68103393ED007B25EE15
:10513000075B7B68583393ED007B25EE077B36EEEB
:10514000076B7B68283393ED005B7B68183393ED26
:10515000007B25EE075B7B68503393ED007B25EEEB
:10516000077B36EE476B7B68483393ED005B7B68CB
:10517000103393ED007B25EE075B7B68383393EDAE
:10518000007B25EE077B36EE476B7B68483393ED5B
:10519000005B7B68183393ED007B25EE075B7B6833
:1051A000303393ED007B25EE077B36EE077B87EDF2
:1051B0001A7B7B6893ED006B7B68303393ED007B4B
:1051C00026EE076B7B68583393ED007B26EE076B6A
:1051D0007B6893ED005B7B68383393ED007B25EEB5
:1051E000075B7B68503393ED007B25EE077B36EE43
:1051F000476B7B68203393ED005B7B68103393ED46
:10520000007B25EE075B7B68583393ED007B25EE32
:10521000077B36EE476B7B68203393ED005B7B6842
:10522000183393ED007B25EE075B7B68503393EDDD
:10523000007B25EE077B36EE076B7B68403393EDF2
:10524000005B7B68103393ED007B25EE075B7B688A
:10525000383393ED007B25EE077B36EE076B7B68DA
:10526000403393ED005B7B68183393ED007B25EEB4
:10527000075B7B68303393ED007B25EE077B36EED2
:10528000477B87ED1C7B7B6893ED007BB1EE476B22
:105290007B68283393ED007B26EE076B7B685833E1
:1052A00093ED007B26EE076B7B6893ED005B7B68DC
:1052B000383393ED007B25EE075B7B68483393ED35
:1052C000007B25EE077B36EE076B7B68203393ED82
:1052D000005B7B68083393ED007B25EE075B7B6802
:1052E000583393ED007B25EE077B36EE076B7B682A
:1052F000203393ED005B7B68183393ED007B25EE44
:10530000075B7B68483393ED007B25EE077B36EE29
:10531000476B7B68403393ED005B7B68083393ED0C
:10532000007B25EE075B7B68383393ED007B25EE31
:10533000077B36EE476B7B68403393ED005B7B6801
:10534000183393ED007B25EE075B7B68283393EDE4
:10535000007B25EE077B36EE077B87ED1E7B7B68A7
:1053600093ED006B7B68283393ED007B26EE076B93
:105370007B68503393ED007B26EE076B7B6893EDE3
:10538000005B7B68303393ED007B25EE075B7B6829
:10539000483393ED007B25EE077B36EE476B7B6849
:1053A000203393ED005B7B68083393ED007B25EEA3
:1053B000075B7B68503393ED007B25EE077B36EE71
:1053C000476B7B68203393ED005B7B68103393ED74
:1053D000007B25EE075B7B68483393ED007B25EE71
:1053E000077B36EE076B7B68403393ED005B7B6891
:1053F000083393ED007B25EE075B7B68303393ED3C
:10540000007B25EE077B36EE076B7B68403393ED20
:10541000005B7B68103393ED007B25EE075B7B68B8
:10542000283393ED007B25EE077B36EE477B87ED37
:10543000207B7B6893ED006B97ED027B26EE076B7C
:105440007B68083393ED005B97ED047B25EE077BCB
:1054500036EE076B7B68103393ED005B97ED067BB0
:1054600025EE077B36EE076B7B68183393ED005B08
:1054700097ED087B25EE077B36EE077B87ED227BD9
:1054800097ED227BB5EE407BF1EE10FA05D1194B7A
:10549000194AF921194813F09FFAB7EE005B97ED0E
:1054A000226B85EE067B87ED227B0023C7F89430C4
:1054B00017E0D7F89430DB0098333B44903B93EDF2
:1054C000006BD7F89430DB003A68134497ED227BE9
:1054D00026EE077B83ED007BD7F894300133C7F8C5
:1054E0009430D7F894300F2BE3DD00BF00BF98371E
:1054F000BD4680BD10AB0108B8DA0108D8AA010882
:1055000080B586B000AFF860B9607A603B60BB6878
:10551000013B032B22D801A252F823F02D5500089D
:10552000395500084555000851550008FB68396891
:105530001846FEF7A7FE12E0FB6839681846FEF72A
:10554000C9FE0CE0FB6839681846FEF729FF06E043
:10555000FB6839681846FFF7A9F800E000BFFB6850
:1055600003F18001BB687A683868FEF73EFE0023CD
:105570007B6110E07B69DB007A68134493ED007B6C
:105580007B69DB007A681344B1EE477B83ED007BD7
:105590007B6901337B617A69BB689A42EADB00BFB1
:1055A00000BF1837BD4680BD80B489B000AFF86039
:1055B000B9607A604FF000024FF00003C7E906239C
:1055C00000237B6116E07B69DB00FA68134493EDEE
:1055D000006B7B69DB00BA68134493ED007B26EE19
:1055E000077B97ED066B36EE077B87ED067B7B69C5
:1055F00001337B617A697B689A42E4DBD7E9062351
:1056000043EC172BB0EE470B2437BD465DF8047B07
:10561000704780B48BB000AFF860B9607A604FF02B
:1056200000024FF00003C7E908234FF000024FF0DB
:105630000003C7E9062300237B614FE07B69BA685A
:1056400003FB02F27B691344DB00FA68134493ED19
:10565000006B7B69DB007A68134493ED007B26EED8
:10566000076B7B69DB007A68134493ED007B26EEC1
:10567000077B97ED086B36EE077B87ED087B7B6930
:1056800001333B6123E07B69BA6803FB02F23B69AB
:105690001344DB00FA68134493ED006B7B69DB0075
:1056A0007A68134493ED007B26EE076B3B69DB00C1
:1056B0007A68134493ED007B26EE077B97ED066B2B
:1056C00036EE077B87ED067B3B6901333B613A6928
:1056D000BB689A42D7DB7B6901337B617A69BB681F
:1056E0009A42ABDB97ED067B37EE076B97ED087BB5
:1056F00036EE077BB0EE470B2C37BD465DF8047BDA
:10570000704780B52DED028B84B000AFF860B960B2
:105710007A60FB687A68B9681846FFF77AFFB0EEDE
:10572000407BB6EE006B27EE068BFB688033BA68D1
:1057300079681846FFF738FFB0EE407B38EE076B0C
:10574000FB6893ED287B36EE077BB0EE470B1037F6
:10575000BD46BDEC028B80BD80B483B000AF034674
:10576000FB80B7F9063040F26D2203FB02F21346CC
:105770009B0013445B00194642F2502240F26D2315
:10578000134491FBF3F318460C37BD465DF8047BD8
:105790007047000080B483B000AF0346FB80B7F9C8
:1057A000063007EE903AF8EEE77AB2EE047A67EE4A
:1057B000877A9FED087A27EE877A074BD3ED007A38
:1057C00067EE277AB0EE670A0C37BD465DF8047BBA
:1057D000704700BF48E15E41C4DA010880B483B07D
:1057E00000AF0346FB80B7F9063007EE903AB8EEFB
:1057F000E77A084BD3ED007A67EE277A9FED067AB9
:1058000067EE877AB0EE670A0C37BD465DF8047B19
:10581000704700BFC8DA010848E15E4180B584B036
:1058200000AF0346FB71FB79184603F0F7FBF86005
:10583000FB68B3F90430002B03DDFB68B3F90430D7
:1058400002E0FB68B3F9063018461037BD4680BD4C
:1058500080B586B000AF78600020FCF789F87861E9
:105860000220FCF785F838610420FCF781F8F86025
:105870000620FCF77DF8B8607B695B881BB2184690
:10588000FFF76AFF03461AB27B681A803B695B88A0
:105890001BB21846FFF760FF03461AB27B685A80B6
:1058A000FB685B881BB21846FFF756FF03461AB227
:1058B0007B689A80BB685B881BB21846FFF74CFF79
:1058C00003461AB27B68DA8000BF1837BD4680BD38
:1058D00080B586B000AF78600020FCF749F87861A9
:1058E0000220FCF745F838610420FCF741F8F86025
:1058F0000620FCF73DF8B8607B699B881BB2184610
:10590000FFF748FFF0EE407AFDEEE77A17EE903AA7
:105910001AB27B681A803B699B881BB21846FFF756
:1059200039FFF0EE407AFDEEE77A17EE903A1AB2C0
:105930007B685A80FB689B881BB21846FFF72AFFDA
:10594000F0EE407AFDEEE77A17EE903A1AB27B68F5
:105950009A80BB689B881BB21846FFF71BFFF0EECE
:10596000407AFDEEE77A17EE903A1AB27B68DA8059
:1059700000BF1837BD4680BD80B586B000AF7860E7
:10598000022003F04BFB7861002003F047FB3861F5
:10599000032003F043FBF860012003F03FFBB860F5
:1059A0007B69B3F902301846FFF7D6FE03461AB2F8
:1059B0007B681A803B69B3F902301846FFF7CCFECA
:1059C00003461AB27B685A80FB68B3F90230184666
:1059D000FFF7C2FE03461AB27B689A80BB68B3F930
:1059E00002301846FFF7B8FE03461AB27B68DA8029
:1059F00000BF1837BD4680BD80B582B000AF78606B
:105A00000220FFF70BFF03461846FFF7E7FEF0EE14
:105A1000407AFDEEE77A17EE903A1AB27B681A8068
:105A20000020FFF7FBFE03461846FFF7D7FEF0EE17
:105A3000407AFDEEE77A17EE903A1AB27B685A8008
:105A40000320FFF7EBFE03461846FFF7C7FEF0EE14
:105A5000407AFDEEE77A17EE903A1AB27B689A80A8
:105A60000120FFF7DBFE03461846FFF7B7FEF0EE16
:105A7000407AFDEEE77A17EE903A1AB27B68DA8048
:105A800000BF0837BD4680BD80B584B000AF7860E8
:105A90000120FBF77FFFF860FB681B6807EE903A78
:105AA000B8EEE77ADFED0B6AC7EE267A7B68C3EDC6
:105AB000007AFB685B6807EE903AB8EEE77ADFEDB4
:105AC000056AC7EE267A7B68C3ED017A00BF1037FE
:105AD000BD4680BD8096184B80B483B000AF0346AE
