:020000040800F2
:1000000000000520B13B0008DD4F0008013C00085E
:10001000013C0008013C0008013C00080000000011
:1000200000000000000000000000000071B00008A7
:10003000EB4F00080000000011B30008C14F00089A
:10004000013C0008013C0008013C0008013C00089C
:10005000013C0008013C00089D4C0008A94C000828
:10006000B54C0008C14C0008CD4C0008FD4100080B
:100070001142000825420008394200084D4200089C
:100080006142000875420008013C00083D43000839
:10009000514300086543000879430008D94C000823
:1000A000013C0008013C0008013C0008013C00083C
:1000B000013C0008013C0008013C0008B14E00086A
:1000C000E14E0008C94E0008F94E0008013C000846
:1000D000013C00089D5600080957000875570008A4
:1000E000E74C0008013C0008013C0008013C000806
:1000F000013C0008013C0008013C0008894200085E
:10010000013C0008013C0008013C0008013C0008DB
:10011000E15700084D580008013C0008013C000868
:100120009D420008B1420008C5420008D9420008BB
:10013000ED420008013C0008013C00088D43000826
:10014000A1430008B5430008C9430008013C00086A
:10015000014300081543000829430008B958000866
:10016000013C0008013C0008DD430008F1430008A1
:1001700005440008194400080000000000000000C9
:10018000013C0008013C000825590008915900086D
:10019000013C0008013C000800000000013C000890
:1001A000FD590008695A0008000000000000000026
:1001B000013C00080000000000000000013C0008B5
:1001C000013C0008013C0008013C0008013C00081B
:0801D000013C0008013C00089D
:1001E00010B5054C237833B9044B13B10448AFF371
:1001F00000800123237010BD3802002000000000A1
:1002000014DC000808B5034B1BB103490348AFF3E6
:10021000008008BD000000003C02002014DC000843
:1002200081F0004102E000BF83F0004330B54FEAA7
:1002300041044FEA430594EA050F08BF90EA020F14
:100240001FBF54EA000C55EA020C7FEA645C7FEAA7
:10025000655C00F0E2804FEA5454D4EB5555B8BFCA
:100260006D420CDD2C4480EA020281EA030382EA3B
:10027000000083EA010180EA020281EA0303362DCD
:1002800088BF30BD11F0004F4FEA01314FF4801CA0
:100290004CEA113102D0404261EB410113F0004FB2
:1002A0004FEA03334CEA133302D0524263EB430369
:1002B00094EA050F00F0A780A4F10104D5F1200E07
:1002C0000DDB02FA0EFC22FA05F2801841F1000162
:1002D00003FA0EF2801843FA05F359410EE0A5F136
:1002E00020050EF1200E012A03FA0EFC28BF4CF067
:1002F000020C43FA05F3C01851EBE37101F000451D
:1003000007D54FF0000EDCF1000C7EEB00006EEB29
:100310000101B1F5801F1BD3B1F5001F0CD34908B3
:100320005FEA30004FEA3C0C04F101044FEA44520A
:1003300012F5800F80F09A80BCF1004F08BF5FEA91
:10034000500C50F1000041EB045141EA050130BD71
:100350005FEA4C0C404141EB0101013C28BFB1F583
:10036000801FE9D291F0000F04BF01460020B1FACE
:1003700081F308BF2033A3F10B03B3F120020CDAA1
:100380000C3208DD02F1140CC2F10C0201FA0CF07F
:1003900021FA02F10CE002F11402D8BFC2F1200CE4
:1003A00001FA02F120FA0CFCDCBF41EA0C0190409A
:1003B000E41AA2BF01EB0451294330BD6FEA0404E3
:1003C0001F3C1CDA0C340EDC04F11404C4F12002CE
:1003D00020FA04F001FA02F340EA030021FA04F3E0
:1003E00045EA030130BDC4F10C04C4F1200220FA37
:1003F00002F001FA04F340EA0300294630BD21FA75
:1004000004F0294630BD94F0000F83F4801306BF3A
:1004100081F480110134013D4EE77FEA645C18BF2E
:100420007FEA655C29D094EA050F08BF90EA020FC5
:1004300005D054EA000C04BF1946104630BD91EABD
:10044000030F1EBF0021002030BD5FEA545C05D1C0
:100450004000494128BF41F0004130BD14F58004FF
:100460003CBF01F5801130BD01F0004545F0FE4173
:1004700041F470014FF0000030BD7FEA645C1ABFA8
:10048000194610467FEA655C1CBF0B46024650EADF
:10049000013406BF52EA033591EA030F41F400210B
:1004A00030BD00BF90F0000F04BF0021704730B591
:1004B0004FF4806404F132044FF000054FF0000166
:1004C00050E700BF90F0000F04BF0021704730B527
:1004D0004FF4806404F1320410F0004548BF4042FC
:1004E0004FF000013EE700BF42004FEAE2014FEA51
:1004F00031014FEA02701FBF12F07F4393F07F4F2C
:1005000081F06051704732F07F4208BF704793F02E
:100510007F4F04BF41F40021704730B54FF4607441
:1005200001F0004521F000411CE700BF50EA010244
:1005300008BF704730B54FF000050AE050EA0102ED
:1005400008BF704730B511F0004502D5404261EB5D
:1005500041014FF4806404F132045FEA915C3FF49E
:10056000D8AE4FF003025FEADC0C18BF03325FEA3B
:10057000DC0C18BF033202EBDC02C2F1200300FAEC
:1005800003FC20FA02F001FA03FE40EA0E0021FA11
:1005900002F11444BDE600BF70B54FF0FF0C4CF4FF
:1005A000E06C1CEA11541DBF1CEA135594EA0C0FB1
:1005B00095EA0C0F00F0DEF82C4481EA030621EAEC
:1005C0004C5123EA4C5350EA013518BF52EA033527
:1005D00041F4801143F4801338D0A0FB02CE4FF0D9
:1005E0000005E1FB02E506F00042E0FB03E54FF009
:1005F0000006E1FB03569CF0000F18BF4EF0010E01
:10060000A4F1FF04B6F5007F64F5407404D25FEAFC
:100610004E0E6D4146EB060642EAC62141EA5551AF
:100620004FEAC52040EA5E504FEACE2EB4F1FD0CF1
:1006300088BFBCF5E06F1ED8BEF1004F08BF5FEA6F
:10064000500E50F1000041EB045170BD06F0004621
:1006500046EA010140EA020081EA0301B4EB5C04CE
:10066000C2BFD4EB0C0541EA045170BD41F48011C6
:100670004FF0000E013C00F3AB8014F1360FDEBFEB
:10068000002001F0004170BDC4F10004203C35DAC7
:100690000C341BDC04F11404C4F1200500FA05F34A
:1006A00020FA04F001FA05F240EA020001F00042EB
:1006B00021F0004110EBD37021FA04F642EB060161
:1006C0005EEA430E08BF20EAD37070BDC4F10C048B
:1006D000C4F1200500FA04F320FA05F001FA04F24F
:1006E00040EA020001F0004110EBD37041F100013B
:1006F0005EEA430E08BF20EAD37070BDC4F1200546
:1007000000FA05F24EEA020E20FA04F301FA05F2AD
:1007100043EA020321FA04F001F0004121FA04F255
:1007200020EA020000EBD3705EEA430E08BF20EA25
:10073000D37070BD94F0000F0FD101F0004640005F
:1007400041EB010111F4801F08BF013CF7D041EAE1
:10075000060195F0000F18BF704703F000465200E5
:1007600043EB030313F4801F08BF013DF7D043EAB6
:100770000603704794EA0C0F0CEA135518BF95EA6C
:100780000C0F0CD050EA410618BF52EA4306D1D1F3
:1007900081EA030101F000414FF0000070BD50EA12
:1007A000410606BF1046194652EA430619D094EA9C
:1007B0000C0F02D150EA013613D195EA0C0F05D186
:1007C00052EA03361CBF104619460AD181EA0301DA
:1007D00001F0004141F0FE4141F470014FF0000092
:1007E00070BD41F0FE4141F4780170BD70B54FF02D
:1007F000FF0C4CF4E06C1CEA11541DBF1CEA1355AD
:1008000094EA0C0F95EA0C0F00F0A7F8A4EB05048E
:1008100081EA030E52EA03354FEA013100F0888085
:100820004FEA03334FF0805545EA131343EA12634E
:100830004FEA022245EA111545EA10654FEA002603
:100840000EF000419D4208BF964244F1FD0404F5BC
:10085000407402D25B084FEA3202B61A65EB030518
:100860005B084FEA32024FF480104FF4002CB6EBD5
:10087000020E75EB030E22BFB61A754640EA0C0055
:100880005B084FEA3202B6EB020E75EB030E22BF95
:10089000B61A754640EA5C005B084FEA3202B6EBD6
:1008A000020E75EB030E22BFB61A754640EA9C0095
:1008B0005B084FEA3202B6EB020E75EB030E22BF65
:1008C000B61A754640EADC0055EA060E18D04FEA23
:1008D000051545EA16754FEA06164FEAC30343EAC3
:1008E00052734FEAC2025FEA1C1CC0D111F4801F90
:1008F0000BD141EA00014FF000004FF0004CB6E789
:1009000011F4801F04BF01430020B4F1FD0C88BF27
:10091000BCF5E06F3FF6AFAEB5EB030C04BFB6EB32
:10092000020C5FEA500C50F1000041EB045170BD25
:100930000EF0004E4EEA113114EB5C04C2BFD4EB52
:100940000C0541EA045170BD41F480114FF0000ED6
:10095000013C90E645EA060E8DE60CEA135594EA52
:100960000C0F08BF95EA0C0F3FF43BAF94EA0C0F55
:100970000AD150EA01347FF434AF95EA0C0F7FF4CA
:1009800025AF104619462CE795EA0C0F06D152EA1E
:1009900003353FF4FDAE1046194622E750EA410602
:1009A00018BF52EA43067FF4C5AE50EA41047FF413
:1009B0000DAF52EA43057FF4EBAE12E74FEA410276
:1009C00012F5001215D211D56FF47873B3EB6252A1
:1009D00012D94FEAC12343F0004343EA505311F0C8
:1009E000004F23FA02F018BF404270474FF000005A
:1009F000704750EA013005D111F0004008BF6FF098
:100A0000004070474FF00000704700BF4A0011D20D
:100A100012F5001211D20DD56FF47873B3EB625258
:100A20000ED44FEAC12343F0004343EA505323FA64
:100A300002F070474FF00000704750EA013002D1D9
:100A40004FF0FF3070474FF0000070474FEA41020F
:100A5000B2F1E04324BFB3F5001CDCF1FE5C0DD91C
:100A600001F0004C4FEAC0024CEA5070B2F1004F66
:100A700040EB830008BF20F00100704711F0804F69
:100A800021D113F13872BCBF01F00040704741F42E
:100A900080114FEA5252C2F11802C2F1200C10FA32
:100AA0000CF320FA02F018BF40F001004FEAC12316
:100AB0004FEAD32303FA0CFC40EA0C0023FA02F3BA
:100AC0004FEA4303CCE77FEA625307D150EA013390
:100AD0001EBF4FF0FE4040F44000704701F0004060
:100AE00040F0FE4040F40000704700BF53B94AB9DF
:100AF000002908BF00281CBF4FF0FF314FF0FF3026
:100B000000F06AB9ADF1080C6DE904CE00F006F80A
:100B1000DDF804E0DDE9022304B070472DE9F04779
:100B2000089D0C46002B4ED194468C458646B2FA61
:100B300082F262D94AB1C2F12003914020FA03F354
:100B40000CFA02FC194300FA02FE4FEA1C471FFA96
:100B50008CF6B1FBF7F44FEA1E4307FB141143EA8E
:100B6000014304FB06F199420AD91CEB030304F18B
:100B7000FF3080F01281994240F20F81023C6344C1
:100B8000591A1FFA8EF3B1FBF7F007FB101143EA75
:100B9000014300FB06F69E420AD91CEB030300F159
:100BA000FF3180F0FC809E4240F2F98063440238BD
:100BB0009B1B40EA044000211DB1D3400022C5E93F
:100BC0000032BDE8F0878B4205D90DB1C5E90001BF
:100BD00000210846F5E7B3FA83F1002946D1A34284
:100BE00002D39042C0F0F080861A64EB0303012028
:100BF000002DE6D0C5E90063E3E7002A40F09080CD
:100C0000A1EB0C044FEA1C481FFA8CF70121B4FB3E
:100C1000F8F64FEA1E4308FB164443EA044307FB79
:100C200006F0984208D91CEB030306F1FF3402D208
:100C3000984200F2CD8026461C1A1FFA8EF3B4FBB0
:100C4000F8F008FB104443EA044300FB07F79F4217
:100C500008D91CEB030300F1FF3402D29F4200F2DB
:100C6000B0802046DB1B40EA0640A5E7C1F1200624
:100C70008B4022FA06F71F4320FA06FC04FA01F320
:100C800043EA0C03F44000FA01F8380C4FEA134928
:100C9000B4FBF0FE1FFA87FC00FB1E4449EA044443
:100CA0000EFB0CF9A14502FA01F20AD93C190EF12A
:100CB000FF3A80F08480A14540F28180AEF1020EBF
:100CC0003C44A4EB09041FFA83F9B4FBF0F300FBE6
:100CD000134449EA044403FB0CFCA44507D93C191E
:100CE00003F1FF3067D2A44565D9023B3C4443EA97
:100CF0000E40A0FB0293A4EB0C049C42CE469C4603
:100D000051D34ED055B1B8EB0E0364EB0C0404FA8A
:100D100006F6CB401E43CC40C5E90064002150E7F5
:100D2000C2F1200320FA03F10CFA02FC24FA03F3C7
:100D300094400C434FEA1C4800FA02FE1FFA8CF75D
:100D4000B3FBF8F008FB1031230C43EA014300FB2E
:100D500007F1994208D91CEB030300F1FF362CD2AE
:100D600099422AD9023863445B1AA4B2B3FBF8F162
:100D700008FB113344EA034401FB07F3A34208D9FB
:100D80001CEB040401F1FF3613D2A34211D902393E
:100D90006444E41A41EA004139E70446F0E60846B3
:100DA00006E7C845AED2B9EB020E63EB070C01387B
:100DB000A8E73146EDE7034699E73046D4E7D64643
:100DC0007FE7634402384DE70646234608460FE7AF
:100DD000023E634430E700BF704700BF4FF0FF3C66
:100DE00006E000BF4FF0010C02E000BF4FF0010C25
:100DF0004DF804CD4FEA410C7FEA6C5C4FEA430C9E
:100E000018BF7FEA6C5C1BD001B050EA410C0CBFEC
:100E100052EA430C91EA030F02BF90EA020F00204E
:100E2000704710F1000F91EA030F58BF994208BFB5
:100E300090422CBFD8176FEAE37040F00100704772
:100E40004FEA410C7FEA6C5C02D150EA013C07D1C9
:100E50004FEA430C7FEA6C5CD6D152EA033CD3D014
:100E60005DF8040B704700BF8446104662468C460E
:100E70001946634600E000BF01B5FFF7B7FF002841
:100E800048BF10F1000F01BD4DF808EDFFF7F4FF6A
:100E90000CBF012000205DF808FB00BF4DF808EDF5
:100EA000FFF7EAFF34BF012000205DF808FB00BF18
:100EB0004DF808EDFFF7E0FF94BF012000205DF83A
:100EC00008FB00BF4DF808EDFFF7CEFF94BF0120EF
:100ED00000205DF808FB00BF4DF808EDFFF7C4FFE8
:100EE00034BF012000205DF808FB00BF4FEA410C31
:100EF0007FEA6C5C02D150EA013C0AD14FEA430C14
:100F00007FEA6C5C02D152EA033C02D14FF0000050
:100F100070474FF00100704702440346934200D1EE
:100F2000704703F8011BF9E770B50D4D0D4C641BBC
:100F3000A4100026A64209D10B4D0C4C0CF06AFE01
:100F4000641BA4100026A64205D170BD55F8043BD1
:100F500098470136EEE755F8043B98470136F2E72B
:100F6000D4180108D4180108D4180108D8180108A9
:100F700080B582B002AF064B1B6800930523054A7B
:100F80000549064802F0B8FE00BFBD4680BD00BF5F
:100F9000B400002050000020002001408C030020FD
:100FA00080B483B000AF0346FB71FA79064913465B
:100FB0009B0013449B000B4410331B6818460C37EE
:100FC000BD465DF8047B70475000002080B485B0BA
:100FD00000AF03460A46FB711346BB710023FB605A
:100FE00012E0FA791346DB009B1A5B001A46BB79C4
:100FF0001A440A49FB6851F823309A4201D101236F
:1010000006E0FB680133FB60FB68052BE9DD00238C
:1010100018461437BD465DF8047B7047701501080B
:1010200080B584B000AF78600BF0FAF9F860F96829
:101030000B4802F07AFF0346002B01DA00230BE095
:10104000042001F049FCB860BB685B889AB27B68F9
:101050001A80BB681B78DBB218461037BD4680BDCE
:101060003801002080B588B000AF78600BF0D8F967
:1010700003463B6107F11003322118460AF0AAFF2C
:101080000023FB770023BB770023FB810023FB7544
:1010900007F10E031846FFF7C3FF0346002B10D0DD
:1010A000FB7F83F00103DBB2002B0AD0FB891946DA
:1010B000012001F069F90123FB770BF0B1F9B86168
:1010C00045E007F10E031846FFF7AAFF034683F039
:1010D0000103DBB2002B0AD0FB7F002B07D0FB897A
:1010E0001946002001F050F90023FB772FE0FB7F29
:1010F000002B15D0FB7D83F00103DBB2002B0FD05A
:101100000BF08EF90246BB69D31A394A934207D9CC
:10111000FB891946002001F037F90123FB7516E021
:10112000FB7D002B13D00BF07BF90246BB69D31A71
:10113000304A93420BD9FB891946012001F024F96A
:101140000BF06EF9B8610123FB770023FB750023D8
:10115000BB7548E0BB7D184600F06AFF0BF060F9F4
:1011600003463B6107F110030A2118460AF032FFDB
:1011700000F09EFE03467B750BF052F903463B617F
:1011800007F110030A2118460AF024FFBB7D184618
:1011900000F0C2FF0BF044F903463B6107F1100376
:1011A0000A2118460AF016FFBB7F184601F05CFAC8
:1011B000BB7F002B14BF01230023DBB283F00103AC
:1011C000DBB2BB77BB7F03F00103BB770BF028F9E1
:1011D00003463B6107F11003642118460AF0FAFE4A
:1011E000BB7D0133BB75BB7D032BB3D950E700BF7B
:1011F000E0930400D495040080B584B000AF0346AA
:10120000FB714FF6FF73FB8100237B7300233B735D
:1012100024E0FA79397B15481346DB009B1A9B00C2
:101220000B440C335B0003449B887B81B7F90A2095
:10123000FB899A420FDD3A7BFB7911461846FFF78E
:10124000C5FE034683F00103DBB2002B03D07B898C
:10125000FB813B7B7B733B7B01333B733B7B0D2BE8
:10126000D7D97B7B18461037BD4680BD1857002064
:1012700080B584B000AF0346FB7147F6FF73FB8176
:1012800000237B7300233B7325E0FA79397B1648F2
:101290001346DB009B1A9B000B440C335B0003449A
:1012A0009B887B81B7F90A20B7F90E309A420FDA92
:1012B0003A7BFB7911461846FFF788FE034683F018
:1012C0000103DBB2002B03D07B89FB813B7B7B736B
:1012D0003B7B01333B733B7B0D2BD6D97B7B184685
:1012E0001037BD4680BD00BF1857002080B485B0C0
:1012F00000AF0346FB710023FB8100237B730023B7
:101300003B7315E0FA79397B0E481346DB009B1AD4
:101310009B000B4430F813307B817A89FB899A4219
:1013200003D97B89FB813B7B7B733B7B01333B7325
:101330003B7B0D2BE6D97B7B18461437BD465DF809
:10134000047B70471857002080B485B000AF034677
:10135000FB714FF6FF73FB8100237B7300233B730C
:1013600015E0FA79397B0F481346DB009B1A9B0086
:101370000B4430F813307B817A89FB899A4203D27F
:101380007B89FB813B7B7B733B7B01333B733B7BEB
:101390000D2BE6D97B7B18461437BD465DF8047BE0
:1013A000704700BF1857002080B483B000AF0346D9
:1013B0000A46FB711346BB71FA79B979084813469E
:1013C000DB009B1A9B000B440C335B000344B3F916
:1013D000043018460C37BD465DF8047B704700BFEB
:1013E0001857002080B483B000AF03460A46FB7153
:1013F0001346BB71FA79B97906481346DB009B1A8C
:101400009B000B4430F8133018460C37BD465DF88E
:10141000047B70471857002080B582B000AF0023CE
:10142000FB8000237B8000237B7119E07B791846C9
:10143000FFF75CFF03467B707A7979780C48134696
:10144000DB009B1A9B000B4430F813307B807A88BA
:10145000FB889A4201D97B88FB807B7901337B71C1
:101460007B79092BE2D9FB8818460837BD4680BD39
:101470001857002080B582B000AF4FF6FF73FB8095
:1014800000237B8000237B7119E07B791846FFF7EE
:101490005BFF03467B707A7979780D481346DB0051
:1014A0009B1A9B000B4430F813307B807A88FB88B2
:1014B0009A4201D27B88FB807B7901337B717B79F7
:1014C000092BE2D9FB8818460837BD4680BD00BF0E
:1014D0001857002080B582B000AF0023FB800023A6
:1014E0007B8000237B711CE07B791846FFF784FE2C
:1014F00003467B707A7979780E481346DB009B1A95
:101500009B000B440C335B000344B3F904307B8035
:101510007A88FB889A4201D97B88FB807B790133EA
:101520007B717B79092BDFD9FB8818460837BD46CC
:1015300080BD00BF1857002080B483B000AF0023E7
:101540007B600023FB7019E00023BB7010E0FA7889
:10155000B9780F481346DB009B1A9B000B4430F808
:1015600013301A467B6813447B60BB780133BB7031
:10157000BB780D2BEBD9FB780133FB70FB78092B83
:10158000E2D97B6818460C37BD465DF8047B70478E
:101590001857002080B584B000AF0346FB710023CC
:1015A000FB8100F097F80346002B03D0FB8943F43E
:1015B0000073FB8100F0A2F80346002B03D0FB89E7
:1015C00043F48073FB81FFF785FF03461A4640F220
:1015D0004E239A4203D9FB8943F04003FB81FFF776
:1015E0001BFF03461A4641F2B8039A4203D9FB890E
:1015F00043F02003FB81FFF73DFF0346B3F5166F71
:1016000003D2FB8943F01003FB8100F079F9034614
:10161000002B06D001F030FE0346002B01D001F074
:101620002BFEFB79032B14D0FB79042B11D0FB7913
:10163000052B0ED0FB79062B0BD0FB79072B08D09E
:10164000FB79082B05D0FB79092B02D0FB790A2BFB
:101650000AD101F0F9FD034643F2AF62934203DC85
:10166000FB8943F40053FB81FB89002B02D000234C
:10167000BB6003E00121022003F072FB034AFB89F7
:101680001380FB8918461037BD4680BD14570020D3
:1016900080B582B000AF0346FB71FB79002B04D00C
:1016A0000021032003F05CFB03E00121032003F091
:1016B00057FB00BF0837BD4680BD000080B400AFB7
:1016C000034B00221A8000BFBD465DF8047B7047C3
:1016D0001457002080B582B000AF0AF0A1FE7860F8
:1016E0007968054802F021FC0346DB0FFB70FB78AC
:1016F00018460837BD4680BDD800002080B483B0AE
:1017000000AF00237B600AE00A4A7B6852F823306E
:10171000042B01DD012306E07B6801337B607B68DD
:101720000A2BF1DD002318460C37BD465DF8047B1B
:10173000704700BFBC56002080B582B000AF0346A2
:101740000A46FB711346BB71FB79032B00F2A6809E
:1017500001A252F823F000BF591800080918000828
:10176000B917000869170008BB79012B13D10123B1
:10177000DB00DBB2DB43DBB25AB2564B1B78DBB289
:101780005BB213405BB2DAB2524B1A7000210720F1
:1017900003F0E6FA96E00123DB005AB24D4B1B78CA
:1017A000DBB25BB213435BB2DAB24A4B1A7001216F
:1017B000072003F0D5FA85E0BB79012B13D1012373
:1017C0009B00DBB2DB43DBB25AB2424B1B78DBB28D
:1017D0005BB213405BB2DAB23E4B1A7000210820B4
:1017E00003F0BEFA6EE001239B005AB2394B1B781E
:1017F000DBB25BB213435BB2DAB2364B1A70012133
:10180000082003F0ADFA5DE0BB79012B13D1012371
:101810005B00DBB2DB43DBB25AB22E4B1B78DBB290
:101820005BB213405BB2DAB22A4B1A700021062079
:1018300003F096FA46E001235B005AB2254B1B7871
:10184000DBB25BB213435BB2DAB2224B1A700121F6
:10185000062003F085FA35E0BB79012B11D1012375
:101860005BB2DB435AB21B4B1B78DBB25BB213405B
:101870005BB2DAB2174B1A700121052003F070FA3F
:1018800020E0144B1B78DBB201221343DAB2114B78
:101890001A700021052003F063FA13E000210720ED
:1018A00003F05EFA0021082003F05AFA0021062016
:1018B00003F056FA0121052003F052FA0122054BEC
:1018C0001A7000BF034B1B78DBB218460837BD46C1
:1018D00080BD00BF1657002080B483B000AF002346
:1018E000FB71064B1B78DAB2FB791343DBB2184667
:1018F0000C37BD465DF8047B704700BF16570020CB
:1019000080B500AF042003F0A1FA0346002B0CBF02
:1019100001230023DBB2184680BD000080B483B0F1
:1019200000AF03460A46FB711346BB71FB79BA79D7
:10193000044941F8232000BF0C37BD465DF8047B05
:10194000704700BFE856002080B5ADF50A7D00AFB6
:10195000642004F095FB01224FF400514D4806F03D
:1019600097FA642004F08CFB00224FF400514948A0
:1019700006F08EFA032004F083FB01224FF400519D
:10198000444806F085FA052004F07AFB00224FF463
:101990000051404806F07CFA032004F071FB01225C
:1019A0004FF400513B4806F073FA642004F068FBE2
:1019B00001F016FF384A07F5CE7311468822184603
:1019C0000BF04EFB07F5CE73184602F001F8034604
:1019D00087F8273297F82732012B01D0002353E0F4
:1019E000642004F04DFB07F50A73A3F58A732B4AB4
:1019F0001846114688231A460BF032FB07F58A7306
:101A0000184601F0E5FF034687F8273297F827329A
:101A1000012B01D0002337E0642004F031FB07F5EF
:101A2000CE73184601F0D4FF034687F8273297F8A3
:101A30002732012B01D0002326E0642004F020FB94
:101A400007F50A73A3F5CE73154A18461146882385
:101A50001A460BF005FB07F18C03184601F0B8FF9E
:101A6000034687F8273297F82732012B01D000234D
:101A70000AE007F50A73A3F509730A4A18461146E6
:101A800088231A460BF0ECFA184607F50A77BD468C
:101A900080BD00BF000402402CDC0008B4DC00085C
:101AA0003CDD0008C4DD000880B5ADF52E7D00AF3B
:101AB000734A07F508731146882218460BF0D0FACE
:101AC0000023C7F8B4321DE0D7F8B4329BB203F25A
:101AD00043339BB2A7F8243207F50873184601F088
:101AE00077FF034687F8AB3297F8AB32012B01D072
:101AF0000023C0E00A2004F0C3FAD7F8B43201335F
:101B0000C7F8B432D7F8B432072BDDDD07F52E73F2
:101B1000A3F590735B4A1846114688231A460BF0CA
:101B20009FFA07F5CC73184601F052FF034687F879
:101B3000AB3297F8AB32012B01D000239BE00A2097
:101B400004F09EFA07F52E73A3F5D4734E4A184697
:101B5000114688231A460BF083FA0023C7F8B032E7
:101B600021E007F58873184601F032FF034687F835
:101B7000AB3297F8AB32012B01D000237BE007F5A5
:101B80002E73A3F5D4739B790133DAB207F52E7364
:101B9000A3F5D4739A710A2004F072FAD7F8B03220
:101BA0000133C7F8B032D7F8B0320A2BD9DD07F5C8
:101BB0002E73A3F50C73354A1846114688231A462E
:101BC0000BF04EFA07F18803184601F001FF0346B7
:101BD00087F8AB3297F8AB32012B01D000234AE0F3
:101BE0000A2004F04DFA07F52E73A3F52E73284A48
:101BF0001846114688231A460BF032FA3B4618461F
:101C000001F0E6FE034687F8AB3297F8AB32012BC2
:101C100001D000232FE00A2004F032FA0A2387F8CB
:101C20002032002387F826320023C7F8AC321DE0AB
:101C3000D7F8AC329BB203F243339BB2A7F82432FD
:101C400007F50873184601F0C3FE034687F8AB3268
:101C500097F8AB32012B01D000230CE00A2004F0EE
:101C60000FFAD7F8AC320133C7F8AC32D7F8AC3240
:101C7000072BDDDD0123184607F52E77BD4680BD15
:101C80004CDE0008D4DE00085CDF0008E4DF00085A
:101C90006CE0000880B5A4B000AF0C4A3B1D1146B3
:101CA000882218460BF0DCF93B1D184601F090FE27
:101CB000034687F88F3097F88F30012B01D000232F
:101CC00000E0012318469037BD4680BDF4E00008CF
:101CD00080B5A4B000AF0C4A3B1D114688221846BF
:101CE0000BF0BEF93B1D184601F072FE034687F863
:101CF0008F3097F88F30012B01D0002300E00123B3
:101D000018469037BD4680BD7CE1000880B5C6B05E
:101D100000AF304A07F18C031146882218460BF0B9
:101D20009FF907F18C03184601F052FE034687F82D
:101D3000173197F81731012B01D0002344E007F544
:101D40008C73A3F58A73244A1846114688231A46D1
:101D50000BF086F93B1D184601F03AFE034687F862
:101D6000173197F81731012B01D000232CE007F52C
:101D70008C73A3F58A7311229A803B1D184601F0DB
:101D800027FE034687F8173197F81731012B01D04A
:101D9000002319E007F58C73A3F58A730F229A804C
:101DA00007F58C73A3F58A732D229A713B1D184693
:101DB00001F00EFE034687F8173197F81731012B13
:101DC00001D0002300E00123184607F58C77BD46BB
:101DD00080BD00BF04E200088CE2000880B5A2B01C
:101DE00000AF074A3B461146882218460BF038F9E7
:101DF0003B46184601F0ECFD00BF8837BD4680BD6C
:101E000014E3000880B500AFFFF79EFD4FF47A7031
:101E100004F036F9FFF748FE642004F031F9FFF7CB
:101E200057FF642004F02CF9FFF770FF642004F0E2
:101E300027F9FFF72FFF642004F022F9FFF7CEFF08
:101E4000642004F01DF9642004F01AF93F2000F02A
:101E500033FC642004F014F9642004F011F900F05C
:101E60003DFA00BF80BD000080B582B000AF0346E0
:101E70000A46FB711346BB71FB791A02BB79134307
:101E80001846FEF71FFB08A3D3E90023FEF784FBE7
:101E900002460B4610461946FEF7B8FD03469BB2B4
:101EA00018460837BD4680BDB6DB2E34D769C83F1B
:101EB000B0B5ADF5BA6D00AF5A4A07F23C531146C2
:101EC000882218460BF0CCF807F5BA63A3F5BA637D
:101ED000184640F23C531A460021FFF71DF8002334
:101EE000C7F8C83509F0C0F907F23C53184601F0AD
:101EF0006FFD0A2387F8CF3531E097F8CF35013BE6
:101F00003A46862101FB03F313441B21184601F0D6
:101F10008DFC034687F8C53597F8C535002B19D0D9
:101F200097F8CF35013BDBB201211846FFF7F6FCED
:101F300097F8CF35013B3C4A52F8232097F8CF352C
:101F4000013B0132384941F8232009F0B7F997F8ED
:101F5000CF3562E097F8CF35013B87F8CF3597F85A
:101F6000CF35002BC9D109F0A9F9002387F8CE3568
:101F70004EE0002387F8CD3541E097F8CE2597F85D
:101F8000CD355B0007F5BA61A1F5BA61862000FB8B
:101F900002F20A44134404331B7887F8C73597F8D4
:101FA000CE2597F8CD355B00013307F5BA61A1F571
:101FB000BA61862000FB02F20A44134404331B7802
:101FC00087F8C63597F8CE4597F8CD35C3F10D059E
:101FD00097F8C62597F8C73511461846FFF744FF0E
:101FE00003461946114A2346DB001B1B9B002B446A
:101FF00022F8131097F8CD35013387F8CD3597F8CF
:10200000CD350D2BB9D997F8CE35013387F8CE35BC
:1020100097F8CE35092BACD90023184607F5BA67D7
:10202000BD46B0BD9CE30008BC56002018570020F8
:1020300080B5A6B000AF0346FB71FB79032B1BD81C
:1020400001A252F823F000BF5920000861200008C7
:1020500069200008712000082D2387F897300DE0D3
:10206000252387F8973009E02C2387F8973005E07F
:10207000242387F8973001E0002320E007F10C03C8
:10208000882200211846FEF747FF0B233B730123EC
:102090007B73FF23BB730F233B8297F89730BB748E
:1020A00007F10C03184601F093FC034687F89630BD
:1020B00097F89630012B01D0002300E00123184649
:1020C0009837BD4680BD00BF80B584B000AF0346E1
:1020D0000A46FB711346BB71FB791A02BB791343A5
:1020E0001846FEF7EFF90AA3D3E90023FEF754FAE6
:1020F00002460B4610461946FEF788FC03469BB283
:10210000FB81B7F90E3018461037BD4680BD00BFC1
:10211000802BD9B11188C33F90B5ADF2DC5D00AF23
:1021200007F5BB63A3F2D4531860694A07F244531E
:102130001146882218460AF093FF09F095F807F235
:102140004453184601F044FC07F5BB63A3F5BA639A
:10215000184640F23C531A460021FEF7DDFE0A23E2
:1021600087F8D7352AE097F8D735013B07F1080201
:10217000862101FB03F313440721184601F056FBA7
:102180000346002B15D097F8D735013BDBB202216F
:102190001846FFF7C3FB97F8D735013B4D4A52F875
:1021A000232097F8D735013B01324A4941F82320D3
:1021B0008AE097F8D735013B87F8D73597F8D735B8
:1021C000002BD0D109F07AF8002387F8D63576E0D5
:1021D000002387F8D53569E097F8D62597F8D535E7
:1021E0005B0007F5BB61A1F5BA61862000FB02F236
:1021F0000A44134404331B7887F8CF3597F8D62563
:1022000097F8D5355B00013307F5BB61A1F5BA61DD
:10221000862000FB02F20A44134404331B7887F83B
:10222000CE3507F5BB63A3F2D4531B689A0097F829
:10223000D5351344C7F8D035D7F8D035032B2FD078
:10224000D7F8D0350A2B2BD0D7F8D0350A2B04D9A4
:10225000D7F8D035013BC7F8D035D7F8D035032BA8
:1022600004D9D7F8D035013BC7F8D03597F8D64513
:1022700097F8CE2597F8CF3511461846FFF724FF7B
:102280000346184614492346DB001B1B9B00D7F866
:10229000D02513440C335B000B4402469A8000E0C7
:1022A00000BF97F8D535013387F8D53597F8D53580
:1022B000032B91D997F8D635013387F8D63597F89F
:1022C000D635092B84D900BF07F2DC57BD4690BD37
:1022D00024E40008BC5600201857002080B5E8B060
:1022E00000AF264A07F58A731146882218460AF07D
:1022F000B7FE07F58A73184601F06AFB034687F8B4
:102300009F3140F22133A7F8183107F58A73184638
:1023100001F05EFB034687F89F3107F5D073A3F504
:102320008A73174A1846114688231A460AF098FEFF
:1023300007F18C03184601F04BFB034687F89F31E9
:1023400007F5D073A3F5CE730E4A184611468823BD
:102350001A460AF085FE07F5D073A3F5CE734FF445
:102360004B729A8007F5D073A3F5CE7305229A714C
:1023700000BF07F5D077BD4680BD00BFACE40008C4
:1023800034E50008BCE5000880B5CCB000AF0246DB
:1023900007F59873A3F229131A7007F59873A3F53C
:1023A00096730A461A80AA4A07F1940311468822B6
:1023B00018460AF055FE07F59873A3F229131B7807
:1023C000002B00F0158107F59873A3F596731B8811
:1023D00041F29902934208D807F59873A3F59673D2
:1023E0001B8840F69212934206D807F59873A3F51E
:1023F000967340F674621A800023C7F82C31BCE053
:1024000007F59873A3F5927309221A7007F598736C
:10241000A3F5927307225A70D7F82C31DBB201333F
:10242000DAB207F59873A3F592739A7007F598736B
:10243000A3F5927340F21A329A8007F59873A3F5C8
:10244000927384499A1D08684968106051600E3380
:10245000782200211846FEF75FFD07F59873A3F573
:1024600092730022A3F886200D23C7F8283122E0BA
:102470007949D7F82C211346DB009B1A9B00D7F82B
:102480002821134431F8133007F59872A2F596729B
:1024900012889A420AD9D7F82831C3F10D0307F5FB
:1024A0009872A2F59272134400229A71D7F82831DB
:1024B000013BC7F82831D7F82831062BD8DC07F1C3
:1024C0000C03184601F084FA034687F81D3107F51E
:1024D0009873A3F5927340F221329A800023C7F8D3
:1024E00024310EE007F59873A3F59272D7F82431E2
:1024F0001344063304221A70D7F824310133C7F885
:102500002431D7F82431062BECDD0623C7F820311F
:1025100022E05149D7F82C211346DB009B1A9B007F
:10252000D7F82021134431F8133007F59872A2F53B
:10253000967212889A420AD9D7F82031C3F106035D
:1025400007F59872A2F59272134400229A71D7F897
:102550002031013BC7F82031D7F82031002BD8DAE1
:1025600007F10C03184601F033FA034687F81D31D2
:10257000D7F82C310133C7F82C31D7F82C31092B7F
:102580007FF73EAF07F59873A3F596731B88A3F604
:1025900092131846FDF796FF4FF000022F4BFEF7FF
:1025A00025F902460B4610461946FEF72FFA034658
:1025B000DBB2013387F81E3107F59873A3F59273E8
:1025C000274A1846114688231A460AF049FD032374
:1025D00087F89A3007F59873A3F592734FF44B720E
:1025E0009A8007F59873A3F5927305229A7121E0FA
:1025F00007F59873A3F592731A4A18461146882373
:102600001A460AF02DFD07F10C03184601F0E0F917
:10261000034687F81F3107F59873A3F5927340F2CC
:1026200021329A8007F10C03184601F0D1F90346D4
:1026300087F81F3107F19403184601F0C9F90346E2
:1026400087F81D3100BF07F59877BD4680BD00BFF4
:10265000CCE6000854E70008185700200000394075
:102660005CE70008ACE4000880B5A6B000AF034604
:10267000FB71FB7983F00103DBB287F8973007F138
:102680000C03882200211846FEF746FC0B233B73FF
:1026900001237B73FF23BB730E233B8297F8973094
:1026A0000433DBB2BB7407F10C03184601F090F958
:1026B00000BF9837BD4680BD80B5A4B000AF0346CB
:1026C000FB71FB793F2B16D807F108038822002104
:1026D0001846FEF721FC0B233B7201237B72FF237C
:1026E000BB722923BB81FB79BB7307F10803184632
:1026F00001F06EF900E000BF9037BD4680BD80B5A7
:1027000084B000AF786009F08BFE0346BB60002305
:10271000FB7306E0FB7B184600F0BAF9FB7B013344
:10272000FB73FB7B092BF5D900F04EFA00F043FC5C
:102730004FF47A7207F108031146184609F04AFC73
:10274000E5E780B584B000AF786009F069FE034624
:10275000BB600023FB7306E0FB7B184600F05EF9CC
:10276000FB7B0133FB73FB7B092BF5D9642207F15B
:1027700008031146184609F02DFCEAE780B584B03D
:1027800000AF786009F04CFE0346FB6000F0BBF937
:102790000A2207F10C031146184609F01BFC00BF82
:1027A000F4E780B584B000AF786009F039FE0346E5
:1027B000FB60FB68184600F0ABF800F017F900F07A
:1027C000B7FB00F0F1FB0A2207F10C031146184693
:1027D00009F000FC00BFECE790B58BB006AF4FF4FA
:1027E000805305931F4B04934FF4006303931D4BD9
:1027F000029300230193052300931B4B01221B49E5
:102800001B4801F02FFC1B4B3C460FCB84E80F000C
:102810003B4601221946164801F0D2FC042200234F
:102820000093154B1549164802F002FE04220023BE
:102830000093144B1449154802F0FAFD05220023B9
:102840000093134B1349144802F0F2FD05220023B4
:102850000093124B1249134802F0EAFD00BF1437EF
:10286000BD4690BD00000240B8000020006400405A
:1028700080590020B4E90008FF2600087CE9000820
:10288000005A00204327000888E90008E0AC002037
:102890007D27000894E90008C0FF0020A327000856
:1028A000A4E90008A052012080B586B002AFB9604B
:1028B0007A603B600346FB81F9893B6800937B6843
:1028C000BA68044801F040FC034618461037BD467C
:1028D00080BD00BF8059002080B584B000AF0346A2
:1028E000FB71FB79042B04D94FF48F71064802F079
:1028F0008AFBFB795B01054A1344FB60FB681833D4
:1029000018461037BD4680BDC4E90008B800002055
:1029100080B586B000AF786000F0AEFC0346FB7572
:102920000023BB82FB7D1846FEF734FE0346BB82C4
:10293000BB8ABB810023BB73FB7DFB73FEF7CCFF1F
:1029400003463B7400237B74FB7D0B2B3ED801A216
:1029500052F823F0C1290008852900088B290008B6
:1029600091290008972900089D290008A32900083B
:10297000A9290008AF290008B5290008BB290008CB
:10298000C72900080123BB7323E00123BB7320E0A8
:102990000223BB731DE00223BB731AE00423BB7345
:1029A00017E00823BB7314E00823BB7311E008236E
:1029B000BB730EE00823BB730BE00823BB7308E076
:1029C0000023BB7305E00023BB7302E00023BB734D
:1029D00000BF0A2307F10C01062240F20110FFF7A5
:1029E00063FF00BF1837BD4680BD00BF80B584B00F
:1029F00000AFFEF7A1FDF86000F032FCB860FB68A4
:102A00003B60BB687B600A233946082240F20130F4
:102A1000FFF74AFF00BF1037BD4680BD80B586B0C6
:102A200000AF0346FB71FB791846FEF75FFC0346D7
:102A3000FB75FB791846FEF787FC0346BB75FA7DEC
:102A4000FB7911461846FEF7CDFC0346BB82BA7DE2
:102A5000FB7911461846FEF7C5FC03467B82FB7DD9
:102A60003B73BB7D7B73BB8AFB817B8A3B82FB799B
:102A70009BB25B009BB203F5607398B2642307F1CD
:102A80000C010622FFF710FF00BF1837BD4680BDBE
:102A900080B586B000AF0346FB71FB791846FEF7A0
:102AA000ABFB0346FB75FB791846FEF7E1FB0346DB
:102AB000BB75FA7DFB7911461846FEF775FC034697
:102AC000BB82BA7DFB7911461846FEF76DFC0346C2
:102AD0007B82FB7D3B73BB7D7B73BB8AFB817B8AE7
:102AE0003B82FB799BB25B009BB203F2813398B2CD
:102AF0004FF47A7307F10C010622FFF7D5FE00BFF1
:102B00001837BD4680BD80B586B000AF4FF6FF7365
:102B1000FB820023BB820023FB740023BB740023D1
:102B20007B7400233B740023FB7332E0FB7B18466D
:102B3000FEF7DCFB0346BB73FB7B1846FEF704FC89
:102B400003467B73BA7BFB7B11461846FEF74AFCB3
:102B500003467B817A7BFB7B11461846FEF742FCDD
:102B600003463B817A89BB8A9A4205D97B89BB821D
:102B7000FB7BBB74BB7B3B743A89FB8A9A4205D2D0
:102B80003B89FB82FB7BFB747B7B7B74FB7B013390
:102B9000FB73FB7B092BC9D9FB8A3B80BB8A7B80FB
:102BA000FB7C3B717B7C7B71BB7CBB713B7CFB7199
:102BB0000A23394608224FF44470FFF775FE00BF20
:102BC0001837BD4680BD0000B0B58CB000AF4FF6E1
:102BD000FF73FB850023BB85002387F827303EE089
:102BE00097F827301846FEF707FB0346FB7497F863
:102BF00027301846FEF73CFB0346BB74FA7C97F877
:102C0000273011461846FEF7CFFB03463B82BA7CBD
:102C100097F8273011461846FEF7C6FB0346FB819E
:102C20003A8ABB8D9A4208D93B8ABB8597F82730F0
:102C300087F82A30FB7C87F82830FA89FB8D9A4286
:102C400008D2FB89FB8597F8273087F82B30BB7CAF
:102C500087F8293097F82730013387F8273097F81D
:102C60002730092BBCD9FB8D07EE903AF8EE677A36
:102C70009FEDAB7A27EE877ADFEDAA6AC7EE267A58
:102C80009FEDA87A67EE876AFB8D07EE903AB8EE63
:102C9000677A9FEDA46AC7EE067AB1EE047A37EE42
:102CA000677AC6EE877AC7ED087AD7ED087A9FED86
:102CB0009E7AC7EE876A16EE900AFDF715FC02466B
:102CC0000B4643EC102B0AF0DBF951EC100B8CA3F4
:102CD000D3E90023FDF760FC02460B461046194677
:102CE00089A3D3E90023FDF7A1FA02460B46144657
:102CF0001D46D7ED087A9FED8C7AC7EE876A16EEEF
:102D0000900AFDF7F1FB02460B4643EC102B0AF04C
:102D1000B7F951EC100B7EA3D3E90023FDF73CFC7F
:102D200002460B4610461946FDF790FE0346F0EEAC
:102D3000000A00EE103A0AF0E1F910EE103A1846D7
:102D4000FDF7D2FB02460B4620462946FDF76EFAF8
:102D500002460B464FF000007449FDF747FD02465E
:102D60000B46104619466CA3D3E90023FDF75CFA25
:102D700002460B4610461946FDF768FE0346FB6106
:102D8000D7ED077AB2EE047A67EE877AFDEEE77A3E
:102D900017EE903A1BB2FB85BB8D07EE903AF8EE2A
:102DA000677A9FED5F7A27EE877ADFED5E6AC7EE7E
:102DB000267A9FED5C7A67EE876ABB8D07EE903AC4
:102DC000B8EE677A9FED576AC7EE067AB1EE047ADD
:102DD00037EE677AC6EE877AC7ED067AD7ED067AC0
:102DE0009FED517AC7EE876A16EE900AFDF77CFBDD
:102DF00002460B4643EC102B0AF042F951EC100B43
:102E00003FA3D3E90023FDF7C7FB02460B4610465C
:102E100019463DA3D3E90023FDF708FA02460B4605
:102E200014461D46D7ED067A9FED3F7AC7EE876AB6
:102E300016EE900AFDF758FB02460B4643EC102BAA
:102E40000AF01EF951EC100B31A3D3E90023FDF772
:102E5000A3FB02460B4610461946FDF7F7FD034655
:102E6000F0EE000A00EE103A0AF048F910EE103ABF
:102E70001846FDF739FB02460B4620462946FDF76A
:102E8000D5F902460B464FF000002849FDF7AEFC8D
:102E900002460B46104619461FA3D3E90023FDF74F
:102EA000C3F902460B4610461946FDF7CFFD03460F
:102EB0007B61D7ED057AB2EE047A67EE877AFDEE94
:102EC000E77A17EE903A1BB2BB85BB8DBB80FB8DBA
:102ED000FB8097F82A303B7297F828307B7297F87E
:102EE0002B30BB7297F82930FB726423391D0822FE
:102EF00040F21130FFF7D8FC00BF3037BD46B0BDFF
:102F0000000000E03A18343F000000E0C1786B3F59
:102F1000000000604E8FE13E666666666612714094
:102F20006666964000007A4400401C460000F03F70
:102F300080B582B000AF00F06FF9024613461B0166
:102F40009B1A184A82FB0312D211DB17D31ADBB289
:102F50003B7100F06DF9024613461B019B1A114AA2
:102F600082FB0312D211DB17D31ADBB27B7100F0A4
:102F70006BF9024613461B019B1A0A4A82FB031295
:102F8000D211DB17D31ADBB2BB710023FB710A230A
:102F9000391D042240F20330FFF786FC00BF0837DA
:102FA000BD4680BDD34D621080B400AF00BFBD46AA
:102FB0005DF8047B704780B400AF00BFBD465DF88C
:102FC000047B704780B485B000AF786039604FF6FD
:102FD000FF73FB810023BB6016E07B685A1C7A609C
:102FE0001B781AB2B7F90E3053401BB2FB81FB8934
:102FF000DBB20B4A32F81320FB891B0A9BB2534009
:10300000FB81BB680133BB60BA683B689A42E4DB72
:10301000FB8918461437BD465DF8047B704700BF36
:103020008815010880B500AF0B21024801F062FE4F
:1030300000BF80BD8817010880B584B000AF7860FC
:103040000021002001F08CFE09F0EAF90346FB6044
:10305000002001F0C3FEFA2207F10C0311461846C6
:1030600008F0B8FF00BFF3E780B582B002AF02F00E
:103070008DFF01F0CFFFFFF7D5FFFEF7C3FEFDF791
:1030800077FF00F0ABF8FFF7A7FB022200230093C5
:103090000C4B0D490D4802F0CBF90322002300939D
:1030A0000B4B0C490C4802F0C3F904220023009397
:1030B0000A4B0B490B4802F0BBF909F065F80A48C6
:1030C00001F0A1FF393000081CEA000880A50120AA
:1030D0006510000828EA000860F801207137000830
:1030E00038EA0008404B022048EA000880B584B066
:1030F00000AF78607B680C4A9B1ADB100B4A02FB1E
:1031000003F3FB73FB7B042B03D92A21084801F04E
:103110007AFFFB7B074AD35C1846FDF741FF034665
:1031200018461037BD4680BD58010020CDCCCCCC10
:1031300068EA00089018010880B582B000AF786096
:1031400039603B681846FDF7BDF909A3D3E90023B0
:10315000FDF722FA02460B4610461946FDF72EFCF3
:10316000034618460837BD4680BD00BFAFF3008058
:103170008FC2F5285C8F1D4080B483B000AF7860AB
:1031800039603B684FF4867202FB03F3A3F5D0234A
:10319000A3F5D07318460C37BD465DF8047B704725
:1031A00080B584B000AF786009F03AF90346FB605F
:1031B000322207F10C031146184608F00BFF0648AF
:1031C00002F002F9322207F10C031146184608F00A
:1031D00001FF00BFECE700BF209E022080B582B057
:1031E00002AF05220749084802F0C9F8012200236E
:1031F0000093064B0649074802F01AF900BFBD4686
:1032000080BD00BF58010020209E0220A13100088F
:10321000D0EA0008289E022080B500AF00210348B4
:1032200002F0F1F80346184680BD00BF209E022040
:1032300080B500AF0121034802F0E5F803461846C7
:1032400080BD00BF209E022080B500AF0221034850
:1032500002F0D9F80346184680BD00BF209E022028
:1032600080B500AF0321034802F0CDF803461846AD
:1032700080BD00BF209E022080B400AF034B1B78AE
:103280001846BD465DF8047B704700BF08F1022078
:1032900080B586B000AF0346FB800C23FB75FB882E
:1032A000002B01D000232CE10120FFF715FB386132
:1032B0000320FFF711FBF860944B1B780B2B00F2F7
:1032C0001C8101A252F823F0C1340008F932000831
:1032D000FF3200083933000891330008C333000877
:1032E000D9330008273400083D3400086B34000847
:1032F00099340008D73400080223FB7500E13B69CC
:103300001B78DBB2022B07D10323FB7509F088F889
:1033100003467F4A1360F3E03B691B78DBB2082B5E
:1033200007D10623FB7509F07BF80346784A136042
:10333000E6E00223FB75E3E03B691B78DBB2022B7E
:1033400007D03B691B78DBB2042B02D00123FB754D
:10335000D6E0FEF7F1F803461946FB685B889BB29E
:103360001A4613469B0013445B00CB1A002BB8BFD0
:103370005B4247F22F52934207DC0423FB7509F0AE
:103380004FF80346624A1360BAE00323FB75B7E0C7
:103390003B691B78DBB2022B07D03B691B78DBB2A1
:1033A000042B02D00123FB750AE03B691B78DBB2DA
:1033B000042B02D10523FB7502E00423FB759FE07B
:1033C0009EE03B691B78DBB2042B02D00123FB7526
:1033D00096E00523FB7593E03B691B78DBB2082B75
:1033E00002D00123FB758BE0FEF7A6F803461946D1
:1033F000FB685B889BB21A4613469B0013445B0034
:10340000CB1A002BB8BF5B4247F22F52934207DC26
:1034100009F006F803463E4A13600723FB756FE088
:103420000623FB756CE03B691B78DBB2082B02D0EE
:103430000123FB7564E00823FB7561E0FEF71AF8D1
:1034400003467B813B691B78DBB2082B02D001234A
:10345000FB7555E07B8940F6B732934202D90923C8
:10346000FB754DE00823FB754AE0FDF7D5FF0346E9
:103470003B813B691B78DBB2082B02D00123FB7533
:103480003EE03B8941F2B702934202D90023FB752B
:1034900036E00923FB7533E0FDF7ECFF03467B8143
:1034A0003B691B78DBB2082B04D17B8941F23002E7
:1034B000934202D90123FB7522E00A23FB751FE02A
:1034C0003B691B78DBB2002B02D10B23FB7517E0A5
:1034D0000023FB7514E03B691B78DBB2012B06D09F
:1034E000FFF7BEFE034641F28732934202DC02231D
:1034F000FB7505E00B23FB7502E00C23FB7500BF99
:10350000FB7D18461837BD4680BD00BF08F102207C
:103510000CF1022080B500AF944B1B780B2B00F20E
:103520000D8101A252F823F0E93600085935000850
:1035300081350008A9350008D1350008F9350008A3
:10354000213600084936000871360008993600080F
:10355000C13600081137000801210320FEF7ECF8FE
:1035600001210220FEF7E8F801210120FEF7E4F82E
:1035700002210020FEF7E0F80020FEF789F8F1E0D4
:1035800001210320FEF7D8F801210220FEF7D4F82C
:1035900001210120FEF7D0F802210020FEF7CCF82F
:1035A0000020FEF775F8DDE001210020FEF7C4F8E9
:1035B00001210320FEF7C0F802210220FEF7BCF82B
:1035C00002210120FEF7B8F80020FEF761F8C9E0FB
:1035D00001210020FEF7B0F802210320FEF7ACF82D
:1035E00002210220FEF7A8F802210120FEF7A4F82C
:1035F0000020FEF74DF8B5E001210020FEF79CF811
:1036000001210120FEF798F802210320FEF794F82B
:1036100002210220FEF790F80020FEF739F8A1E021
:1036200001210020FEF788F801210320FEF784F82D
:1036300002210220FEF780F802210120FEF77CF82B
:103640000020FEF725F88DE001210020FEF774F838
:1036500002210320FEF770F802210220FEF76CF829
:1036600002210120FEF768F80020FEF711F879E04A
:1036700001210020FEF760F801210120FEF75CF82F
:1036800002210320FEF758F802210220FEF754F829
:103690000020FDF7FDFF65E001210020FEF74CF85A
:1036A00001210120FEF748F802210320FEF744F82B
:1036B00002210220FEF740F80020FDF7E9FF51E06B
:1036C00001210020FEF738F801210120FEF734F82F
:1036D00002210320FEF730F802210220FEF72CF829
:1036E0000020FDF7D5FF3DE001210320FEF724F87F
:1036F00001210220FEF720F801210120FEF71CF82D
:1037000002210020FEF718F80020FDF7C1FF29E094
:1037100001210320FEF710F801210220FEF70CF82A
:1037200001210120FEF708F802210020FEF704F82D
:10373000FDF7C4FF0120FDF7ABFF13E001210320DB
:10374000FDF7FAFF01210220FDF7F6FF012101201C
:10375000FDF7F2FF02210020FDF7EEFF0020FDF74C
:1037600097FF00BF014B1B78184680BD08F102206F
:1037700080B586B000AF786008F052FE0346FB606B
:103780000A237B6100237B820021032001F0E8FAF9
:103790000121022001F0E4FA0121072001F0E0FA02
:1037A0000121082001F0DCFAFFF7B4FE0B4B1B7877
:1037B0001846FDF7EFFE03467B827B8A1846FFF72B
:1037C00067FD03467B74054A7B7C137007F10C038D
:1037D0007969184608F0FEFB00BFE5E708F1022012
:1037E000B0B58CB004AF0D4B3C1D1D460FCD0FC4C2
:1037F00095E8070084E807003A1D4FF40053029350
:10380000074B01934FF480530093054B054906483D
:1038100002F0A2FA00BF2037BD46B0BDE0EA0008C2
:10382000000402400050004010F1022080B5A0B01A
:1038300000AF78600B46FB70012387F879300123D5
:1038400087F8783007F113031946604800F08EF9C5
:10385000034687F8783097F87830012B01D00123A0
:10386000B0E0FA7C7B681A70FB7CFA789A4222D02E
:103870000023FB6718E007F10E031946534800F0D8
:1038800075F9034687F8783097F87830012B01D026
:10389000FB7C97E0B97B07F11402FB6F13440A46E7
:1038A0001A70FB6F0133FB67FB6F1D2BE3D9FB7CA9
:1038B0006433DBB286E007F112031946434800F097
:1038C00055F9034687F8783097F87830012B01D006
:1038D000022377E0BA7C7B685A7000233B8207F1B1
:1038E00010031946394800F041F9034687F878304B
:1038F00097F87830012B01D0032363E007F1100320
:1039000001331946314800F031F9034687F8783021
:1039100097F87830012B01D0042353E03B7C1B0245
:103920001AB27B7C1BB213431BB29AB27B685A80DB
:103930000023FB730023A7F87A301AE007F10F0386
:103940001946224800F012F9034687F8783097F8B4
:103950007830012B01D0052334E0B7F87A30F97BB9
:103960007A6813440A461A71B7F87A300133A7F817
:103970007A30FB7C1A46B7F87A309A4203DB97F824
:103980007930012BDAD07B68843319460F4800F078
:10399000EDF8034687F8783097F87830012B01D09E
:1039A00006230FE07B6885331946084800F0DEF8EF
:1039B000034687F8783097F87830012B01D0072339
:1039C00000E0002318468037BD4680BD10F102207C
:1039D00080B5A8B000AF786000233B6107F1140305
:1039E0007C2200211846FDF797FA002387F89F30C4
:1039F0007B681B781B015AB27B685B78013BDBB2AA
:103A00005BB203F007035BB213435BB287F89730F6
:103A100097F89F30A0333B4497F8972003F8902CF9
:103A200097F89F30013387F89F307B689B78FF2B96
:103A30000CD097F89F307A689278A0333B4403F813
:103A4000902C97F89F30013387F89F307B689B88D4
:103A50001B0A9AB297F89F30D2B2A0333B4403F8C6
:103A6000902C97F89F30013387F89F307B689A88B5
:103A700097F89F30D2B2A0333B4403F8902C97F8CC
:103A80009F30013387F89F300023C7F8983015E046
:103A900097F89F307968D7F898200A440632127850
:103AA000A0333B4403F8902C97F89F30013387F8FC
:103AB0009F30D7F898300133C7F898307B685B782F
:103AC0001A46D7F898309342E2DB97F89F2007F127
:103AD000100311461846FFF775FA0346A7F894300D
:103AE00097F89F30B7F89420D2B2A0333B4403F844
:103AF000902C97F89F30013387F89F30B7F89430B7
:103B00001B0A9AB297F89F30D2B2A0333B4403F815
:103B1000902C97F89F30013387F89F300023FB7378
:103B200007F10F01002301220F4806F0A5FA002338
:103B3000BB600D4B1B681B68BB600B4B1B685B6855
:103B4000BB60BB6897F89F309AB207F11003194623
:103B5000054800F01AF8034687F8933097F8933039
:103B60001846A037BD4680BD10F1022080B582B056
:103B700000AF7860396001223968786802F0D7F9BF
:103B8000034618460837BD4680BD80B584B000AFF7
:103B9000F860B9601346FB80FB881A46B968F8687C
:103BA00002F096F9034618461037BD4680BD000066
:103BB000DFF834D0002103E00C4B5B584350043154
:103BC0000B480C4B42189A42F6D30B4A02E00023F2
:103BD00042F8043B094B9A42F9D307F0B3F9FDF7D9
:103BE000A3F9FFF741FA704700000520DC1801082F
:103BF0000000002038020020380200204048032046
:103C0000034B1A68D2B2FEE7AFF30080AFF3008037
:103C100004ED00E080B584B000AF78607B68FB60A5
:103C200008F0FEFB0346BB6001231946F86800F06C
:103C3000ABFF054B1A6807F108031146184608F058
:103C4000C9F900BFF0E700BF2002002090B593B093
:103C500000AF786100237B643FE07B69996C7A6CEC
:103C600013469B0013449B000B443B643B6C1B6856
:103C70000F2B02D91E4801F0C6F97B6C5A1C3B463B
:103C8000396C184600F09EFE07F130043B460FCB1E
:103C900084E80F007B6907F130021146184602F0F4
:103CA00099FB0346002B02D0124801F0ACF93B6CA3
:103CB0005B68184601F0B4F907F11C03396C18462B
:103CC00000F09CFE3B6C5B6807F11C021146184635
:103CD00003F032FF7B6C01337B647B69DB6C7A6CB5
:103CE0009A42BAD300BF00BF4C37BD4690BD00BF5B
:103CF000FCEA000814EB000880B586B002AFF8605B
:103D0000B9607A603B603B68102B02D9144801F01F
:103D10007AF93B687A68B968F86800F0AFFEB8686D
:103D200001F089F9FB68184602F0CEF90346002B32
:103D300002D00C4801F067F9F868FFF787FF0A4ADC
:103D4000BB691360FB6803F150000522FB68009318
:103D5000064B074901F06CFB00BF1037BD4680BD24
:103D600034EB000848EB000820020020153C000856
:103D700060EB000880B485B000AF78607B68FB60C2
:103D8000FB6818461437BD465DF8047B7047000099
:103D900080B584B000AF786039607868FFF7EAFFDB
:103DA000F860FB689B6A07F108021146184607F0A5
:103DB0008FFC0346012B02D0084801F024F9BB68B0
:103DC000002B07D0064B4FF080521A60BFF34F8F85
:103DD000BFF36F8F00BF1037BD4680BD6CEB00088E
:103DE00004ED00E080B582B000AF78600021786813
:103DF000FFF7CEFF0837BD4680BD80B582B000AF6B
:103E0000786000217868FFF7C3FF0837BD4680BDA2
:103E100080B582B000AF786001217868FFF7B8FF05
:103E20000837BD4680BD80B582B000AF7860012103
:103E30007868FFF7ADFF0837BD4680BD80B582B01A
:103E400000AF786002217868FFF7A2FF0837BD460F
:103E500080BD80B582B000AF786002217868FFF73E
:103E600097FF0837BD4680BD80B586B000AF78604B
:103E70007868FFF77FFF78617B685B6A3B613B692D
:103E800003F4FC33002B18D07B699B6A07F10C020A
:103E90001146184607F01CFC0346012B02D00A48C5
:103EA00001F0B1F8FB68002B07D0084B4FF08052AF
:103EB0001A60BFF34F8FBFF36F8F7B6800225A6287
:103EC00000BF1837BD4680BD6CEB000804ED00E074
:103ED00080B487B000AFF860B9607A60FA68BB68F8
:103EE00013447B617A68FB689A4206D27A69FB6860
:103EF0009A4202D84FF0FF3311E0FA687B689A4289
:103F000005D87A69FB689A4201D2002307E07A69F2
:103F10007B689A4202D24FF0FF3300E0002318463C
:103F20001C37BD465DF8047B704780B582B000AF9A
:103F3000786039607B6858697B68DB683A68194645
:103F4000FFF7C6FF034618460837BD4680BD80B45C
:103F500085B000AF78600B467B800023FB600FE0EC
:103F60007B685A6FFB685B011344BB60BB681B88AE
:103F70007A889A4201D1BB6808E0FB680133FB6094
:103F80007B689B6FFA689A42EAD30023184614377D
:103F9000BD465DF8047B704790B587B000AFF86010
:103FA0007A603B600B467B817B891946F868FFF796
:103FB000CEFF78617B69002B0BD1FB68DB6F002B98
:103FC00014D0FB68DC6F79893B687A68F868A04791
:103FD0000CE07B6918333A687968184609F040F8B4
:103FE00008F02EFA02467B695A6100E000BF1C37D8
:103FF000BD4690BD80B58CB000AF7860396007F1E8
:10400000080307F110023968786802F022FF0346BE
:10401000002B0CD17868FFF7ADFEF8623B6999B2CE
:104020003B6A07F10802F86AFFF7B6FF00E000BF3D
:104030003037BD4680BD80B582B000AF78600021CA
:104040007868FFF7D7FF0837BD4680BD80B582B0DE
:1040500000AF786001217868FFF7CCFF0837BD46D4
:1040600080BD000080B590B006AFF860B9603B60DD
:104070001346FB71FA79B7F8443005933B6C04930F
:10408000BB8F0393BB6B02937B6B01933B6B0093E2
:104090003B68B968F86800F00DFAB86800F0D6FF20
:1040A000B86B00F0BDFF386C00F0BAFFBB8F7B61CE
:1040B0000223BB610023FB6103233B62B96BB86839
:1040C00000F08DF803467B6207F114031946B86BC4
:1040D00003F032FDB7F844307B61396CB86800F00A
:1040E0007EF803467B6207F114031946386C03F02F
:1040F00023FDFB68184602F09BFB0346002B02D011
:104100000E4800F080FFFB68184602F083FD03466E
:10411000002B02D00A4800F076FFFB6848F61371C6
:10412000184602F0A9FF0346002B02D0054800F014
:104130006AFF00BF2837BD4680BD00BF94EB000872
:10414000ACEB0008C4EB000880B58EB000AFF8609F
:104150007A603B600B467B817B89BB610023FB61FE
:1041600000233B6200237B623B68BB62002387F82D
:104170002C30FB689B6A396C184607F037FB786374
:104180007B6B012B02D04FF0FF3312E0F86807F190
:10419000140307F118017A6802F080FD034687F8DE
:1041A000333097F83330002B02D0044800F02BFF57
:1041B000002318463837BD4680BD00BFECEB000831
:1041C00080B584B000AFF860B9607A607A68B96889
:1041D000F86800F051FA00BF1037BD4680BD80B5C9
:1041E00082B000AF786039603968786800F01EF9F5
:1041F000034618460837BD4680BD000080B500AFB5
:10420000024B1B68184603F0D1FA80BDC0F30220B0
:1042100080B500AF024B5B68184603F0C7FA80BD5B
:10422000C0F3022080B500AF024B9B68184603F034
:10423000BDFA80BDC0F3022080B500AF024BDB6841
:10424000184603F0B3FA80BDC0F3022080B500AF7A
:10425000024B1B69184603F0A9FA80BDC0F3022087
:1042600080B500AF024B5B69184603F09FFA80BD32
:10427000C0F3022080B500AF024B9B69184603F0E3
:1042800095FA80BDC0F3022080B500AF024BDB6918
:10429000184603F08BFA80BDC0F3022080B500AF52
:1042A000024B1B6A184603F081FA80BDC0F302205E
:1042B00080B500AF024B5B6A184603F077FA80BD09
:1042C000C0F3022080B500AF024B9B6A184603F092
:1042D0006DFA80BDC0F3022080B500AF024BDB6AEF
:1042E000184603F063FA80BDC0F3022080B500AF2A
:1042F000024B1B6B184603F059FA80BDC0F3022035
:1043000080B500AF024B5B6B184603F04FFA80BDDF
:10431000C0F3022080B500AF024B9B6B184603F040
:1043200045FA80BDC0F3022080B500AF024BDB6BC5
:10433000184603F03BFA80BDC0F3022080B500AF01
:10434000024B1B68184602F0BDFE80BD00F402203F
:1043500080B500AF024B1B68184602F0B3FE80BD6B
:1043600000F4022080B500AF024B1B68184602F033
:10437000A9FE80BD00F4022080B500AF024B1B688F
:10438000184602F09FFE80BD00F4022080B500AF09
:10439000024B5B68184602F095FE80BD00F40220D7
:1043A00080B500AF024B5B68184602F08BFE80BD03
:1043B00000F4022080B500AF024B5B68184602F0A3
:1043C00081FE80BD00F4022080B500AF024B5B6827
:1043D000184602F077FE80BD00F4022080B500AFE1
:1043E000024B9B68184602F06DFE80BD00F402206F
:1043F00080B500AF024B9B68184602F063FE80BD9B
:1044000000F4022080B500AF024B9B68184602F012
:1044100059FE80BD00F4022080B500AF024B9B68BE
:10442000184602F04FFE80BD00F4022080B582B035
:1044300000AF786039607B68164A934220D0154AF5
:1044400093421FD8144A934203D0144A934215D082
:1044500018E03B68124A934209D0114A93420AD8A5
:10446000104A934203D0104A934202D003E009233A
:104470000BE0082309E00D4800F0C5FD092304E026
:104480000B2302E00A4800F0BEFD18460837BD467F
:1044900080BD00BF006C0040006400400068004028
:1044A000000C0240000002400004024024EC00081E
:1044B00044EC000880B5A6B000AFF860B9603B607E
:1044C0001346FB71FB68184680231A460021FCF74F
:1044D00023FDFB68BA681A60FB684FF08072DA60EF
:1044E000FB684FF4A0221A61FB6801225A76FB6830
:1044F0000122DA76FB683A685A67FB68D7F8A02091
:104500009A67FB68D7F8A420DA67FB79022B0ED0F4
:10451000022B10DC002B02D0012B04D00BE0FB6837
:1045200018225A6007E0FB680C225A6003E0FB681F
:1045300006225A6000BF03200321FB682C331A4671
:1045400007F098F80246FB689A62FB689B6A002BAA
:1045500003D19F21424800F056FDBB68414A934277
:1045600029D0404A934236D83F4A934203D03F4A2B
:10457000934210D02FE00023C7F89430132387F81C
:104580009330142387F89230152387F8913016233F
:1045900087F8903022E00123C7F894303F2387F852
:1045A0009330402387F89230412387F8913042239B
:1045B00087F8903012E00223C7F894304A2387F836
:1045C00093304B2387F892304C2387F891304D235A
:1045D00087F8903002E0264800F015FDFA6825497A
:1045E000D7F8943041F8232097F993300022052121
:1045F000184603F022F897F9923000220521184658
:1046000003F01BF897F9913000220521184603F0BA
:1046100014F897F9903000220521184603F00DF8A0
:1046200000220521282003F008F897F99330184656
:1046300003F01FF897F99230184603F01AF897F92B
:104640009130184603F015F897F99030184603F0AA
:1046500010F8282003F00DF800BF9837BD4680BD44
:104660005CEC0008006C0040006400400068004002
:1046700044EC000800F4022080B594B000AFF8606C
:10468000B9607A607B680D2B02D9304800F0BBFC22
:10469000FB681B687B640023FB644EE0FB6C1B0122
:1046A000BA6813443B64FB6CBB647B6C284A93423E
:1046B00002D1BB6C0E33BB643B6C1B7883F00103EF
:1046C000DBB2FB6305237B873B6C1B891A467B8F20
:1046D00002FA03F33B613B6C5B891A467B8F02FA5B
:1046E00003F37B613B6C9B891A467B8F02FA03F3D1
:1046F000BB613B6CDB891A467B8F02FA03F3FB61DB
:104700003B6C5B683B62BB6C7B62FB6BBB620023F8
:10471000FB6201233B630E237B63FB6807F11002FE
:104720001146184602F08AF90346002B02D00948C8
:1047300000F069FCFB6C0133FB64FA6C7B689A4205
:10474000ACD300BF00BF5037BD4680BDC8EC0008E9
:1047500000680040E0EC000880B594B000AF07F1BD
:104760001C03342200211846FCF7D6FB07F108038E
:1047700000221A605A609A60DA601A6100237B6036
:10478000294B1B6C284A43F080531364264B1B6C47
:1047900003F080537B607B6800233B60234B1B68E6
:1047A000224A43F440431360204B1B6803F4404308
:1047B0003B603B680123FB614FF480333B62022383
:1047C0007B634FF48003BB631923FB63C0233B640B
:1047D00002237B640223BB640223FB6407F11C03F6
:1047E000184605F019F90346002B02D0104800F0D6
:1047F0000AFC0F23BB600223FB6000233B614FF4E4
:1048000080537B610023BB6107F108030321184635
:1048100004F026FF0346002B02D0064800F0F3FB0D
:1048200000BF5037BD4680BD0038024000700040D8
:1048300000ED00081CED000880B48BB000AF78607C
:104840007B68574A934200F09680554A934200F2A3
:10485000A180544A93427FD0524A934200F29A80F8
:10486000514A934269D0504A934200F293804F4A92
:10487000934253D04D4A934200F28C804C4A93426B
:104880003DD04B4A934200F285804A4A934227D05A
:10489000484A93427ED8484A934203D0474A9342BB
:1048A0000FD077E000237B62454B1B6B444A43F0FB
:1048B00001031363424B1B6B03F001037B627B6AB2
:1048C00068E000233B623E4B1B6B3D4A43F0020312
:1048D00013633B4B1B6B03F002033B623B6A59E0E3
:1048E0000023FB61364B1B6B354A43F00403136313
:1048F000334B1B6B03F00403FB61FB694AE00023AD
:10490000BB612F4B1B6B2E4A43F0080313632C4BE8
:104910001B6B03F00803BB61BB693BE000237B61B9
:10492000274B1B6B264A43F010031363244B1B6B6E
:1049300003F010037B617B692CE000233B61204B7B
:104940001B6B1F4A43F0200313631D4B1B6B03F0CB
:1049500020033B613B691DE00023FB60184B1B6B90
:10496000174A43F040031363154B1B6B03F04003DE
:10497000FB60FB680EE00023BB60114B1B6B104A11
:1049800043F0800313630E4B1B6B03F08003BB608B
:10499000BB6800BF00BF2C37BD465DF8047B704785
:1049A000001C0240001802400014024000100240A7
:1049B000000C0240000802400000024000040240D7
:1049C0000038024090B488B000AFF860B9607A60F7
:1049D000BB681B683B617B687B61BB68DB68BB6154
:1049E0000023FB61FB681C4607F110030FCB84E832
:1049F0000F00F8682037BD4690BC7047B0B489B04E
:104A000000AF786039603B681B89FB6003233B6122
:104A100000237B610023BB610023FB617B681D4693
:104A200007F10C040FCC0FC523682B60786824377E
:104A3000BD46B0BC7047000080B485B000AF786060
:104A40007B680C4A93420ED10023FB600A4B5B6CDF
:104A5000094A43F480735364074B5B6C03F480731F
:104A6000FB60FB6800BF00BF1437BD465DF8047BE8
:104A7000704700BF002001400038024090B5ADF5FE
:104A8000A64D91B000AF07F55074A4F54D742060A9
:104A900007F55070A0F54E70016007F55071A1F553
:104AA0004F710A6007F55072A2F55072136007F556
:104AB0005073A3F54D731B68184645F230331A4600
:104AC0000021FCF729FA07F55073A3F54D731B6815
:104AD00007F55072A2F54E7212681A6007F550730E
:104AE000A3F54D731B684FF480325A6007F550737D
:104AF000A3F54D731B6801221A6107F55073A3F5E6
:104B00004D731B6801225A6107F55073A3F54D736D
:104B10001B6807F55072A2F550721268DA6107F54A
:104B20005073A3F54D731B68012283F8202007F50D
:104B30005073A3F54D731B6801225A6207F5507339
:104B4000A3F54D731B680F4A9A6207F55073A3F5DE
:104B50004D731B6807F55072A2F54F7212689A6484
:104B600007F55073A3F54D731B6807F55072A2F556
:104B700050721268DA6400BF07F5A6474437BD4695
:104B800090BD00BF0100000F80B584B000AF786019
:104B900039600023FB601BE07B68996CFA68134660
:104BA0009B0013449B000B44BB607B68184601F0DC
:104BB000D9FA7B683968184601F07AFB7B68184699
:104BC00001F0FAFB0246BB681A61FB680133FB6027
:104BD0007B68DB6CFA689A42DED300BF00BF1037F7
:104BE000BD4680BD80B487B000AF78607B68274A3F
:104BF000934235D0254A934241D8254A934203D067
:104C0000244A93420FD03AE000237B61224B1B6C75
:104C1000214A43F0007313641F4B1B6C03F00073B5
:104C20007B617B692BE000233B611B4B1B6C1A4AA9
:104C300043F080631364184B1B6C03F080633B618B
:104C40003B690023FB60144B1B6C134A43F0007359
:104C50001364114B1B6C03F00073FB60FB680EE0E8
:104C60000023BB600C4B1B6C0B4A43F000631364C6
:104C7000094B1B6C03F00063BB60BB6800BF00BF47
:104C80001C37BD465DF8047B704700BF006C0040D8
:104C900000640040006800400038024080B500AF6A
:104CA000012003F029F980BD80B500AF022003F098
:104CB00023F980BD80B500AF042003F01DF980BD4D
:104CC00080B500AF082003F017F980BD80B500AFB4
:104CD000102003F011F980BD80B500AF4FF478705B
:104CE00003F00AF980BD80B500AF4FF47C4003F0BB
:104CF00003F980BD80B584B000AF78603960164A92
:104D00007B681360154A3B6813600023FB6018E062
:104D1000114B1968FA6813465B001344DB000B441F
:104D2000BB60BB681B68184600F07AF9BB681A685C
:104D3000BB6804331946104602F0FEFEFB680133DF
:104D4000FB60064B1B68FA689A42E1D300BF00BFC4
:104D50001037BD4680BD00BF0CF4022010F40220C5
:104D600080B584B000AF78603960184B1B687A68F2
:104D70009A4203D34F21164800F045F9154B1968A4
:104D80007A6813465B001344DB000B44FB60FB684E
:104D90009B68012B07D0FB689B68112B03D0522125
:104DA0000D4800F030F9FB681868FB685B6899B241
:104DB0003B68002B14BF01230023DBB21A4603F02B
:104DC00067F800BF1037BD4680BD00BF10F4022059
:104DD00084ED00080CF40220FCED000880B584B0DE
:104DE00000AF7860154B1B687A689A4203D3632141
:104DF000134800F008F9134B19687A6813465B00F2
:104E00001344DB000B44FB60FB689B68012B07D05D
:104E1000FB689B68112B03D066210B4800F0F3F868
:104E2000FB681A68FB685B689BB21946104603F082
:104E300048F800BF1037BD4680BD00BF10F4022007
:104E400084ED00080CF40220FCED000880B584B06D
:104E500000AF7860134B1B687A689A4203D37421C1
:104E6000114800F0D0F8114B19687A6813465B00BE
:104E70001344DB000B44FB60FB681A68FB685B684B
:104E80009BB21946104602F0EBFF0346FB72FB7A19
:104E9000002B01D1002300E0012318461037BD4646
:104EA00080BD00BF10F4022084ED00080CF4022045
:104EB00080B500AF034B1B68184603F040F800BFF5
:104EC00080BD00BF14F4022080B500AF034B5B68C7
:104ED000184603F034F800BF80BD00BF14F4022070
:104EE00080B500AF034B1B68184603F070F900BF94
:104EF00080BD00BF14F4022080B500AF034B5B6897
:104F0000184603F064F900BF80BD00BF14F402200E
:104F100080B586B000AF786039607B687B617B6963
:104F20003B613B693A68C3F870213B69D3F824318F
:104F300007F10C021146184606F0CAFB0346012B86
:104F400002D0094800F05FF8FB68002B07D0074B40
:104F50004FF080521A60BFF34F8FBFF36F8F00BFC7
:104F60001837BD4680BD00BF28EF000804ED00E003
:104F700080B582B000AF786000217868FFF7C8FF85
:104F800000BF0837BD4680BD80B582B000AF7860F5
:104F900000217868FFF7BCFF00BF0837BD4680BD21
:104FA00080B582B000AF7860786803F0F7F9034607
:104FB00019467868FFF7ACFF00BF0837BD4680BDD3
:104FC00080B500AF01F03CF807F0AAFD0346012BC5
:104FD00002D006F0D1F900E000BF80BD80B400AF80
:104FE00000BFBD465DF8047B704780B400AF00BFD2
:104FF000BD465DF8047B704780B400AF00BFBD467E
:105000005DF8047B70470FB480B500AFFFF7F4FF85
:1050100000BFFDE780B500AFFFF79EFB00BF80BD7E
:1050200080B582B000AF78607868FFF705FC00BFFC
:105030000837BD4680BD80B582B000AF7860786823
:10504000FFF7FAFC00BF0837BD4680BD80B582B0CF
:1050500000AF78607868FFF7C5FD00BF0837BD4630
:1050600080BD000080B48DB000AF78607B686E4A70
:10507000934200F0C5806C4A934200F2D0806B4AA4
:10508000934200F0AE80694A934200F2C880684AB9
:10509000934279D0664A934200F2C180654A9342B6
:1050A00027D0644A934200F2BA80634A934200F0E8
:1050B0008980614A934200F2B280604A934272D082
:1050C0005E4A934200F2AB805D4A93424DD05C4A07
:1050D000934200F2A4805B4A934237D0594A9342EC
:1050E00000F29D80584A934212D0584A93421ED0F3
:1050F00095E00023FB62564B5B6C554A43F010036E
:105100005364534B5B6C03F01003FB62FB6A86E055
:105110000023BB624E4B1B6C4D4A43F400331364B7
:105120004B4B1B6C03F40033BB62BB6A77E000237C
:105130007B62474B1B6C464A43F480231364444B09
:105140001B6C03F480237B627B6A68E000233B6274
:105150003F4B1B6C3E4A43F4002313643C4B1B6CD7
:1051600003F400233B623B6A59E00023FB61384BA8
:105170001B6C374A43F480131364354B1B6C03F4E8
:105180008013FB61FB694AE00023BB61304B5B6C21
:105190002F4A43F0200353642D4B5B6C03F0200334
:1051A000BB61BB693BE000237B61294B1B6C284A38
:1051B00043F080431364264B1B6C03F080437B61F8
:1051C0007B692CE000233B61214B1B6C204A43F0A0
:1051D000004313641E4B1B6C03F000433B613B69AF
:1051E0001DE00023FB601A4B5B6C194A43F040033F
:1051F0005364174B5B6C03F04003FB60FB680EE0ED
:105200000023BB60124B5B6C114A43F08003536474
:105210000F4B5B6C03F08003BB60BB6800BF34378F
:10522000BD465DF8047B7047001C0140001801403A
:105230000014014000100140007C00400078004054
:1052400000500040004C0040004400400048004036
:105250000038024080B58AB000AF78607B68DA68B9
:105260007B689B689A4203D214212A48FFF7CBFE41
:105270007B68DA687B689B68D31ABB617B681A69B4
:105280000021BB69A3FB0223002B00D001210B46A8
:10529000002B0AD0BB69204AA2FB03235B097A6872
:1052A000126902FB03F37B6209E07B681B69BA6940
:1052B00002FB03F3184AA2FB03235B097B627B68B2
:1052C000DB687A6A13443B627B68DB683A6A9A421D
:1052D00002D24FF0FF333B627B689A687B6AD31A35
:1052E000FB617B689B68FA699A4201D90023FB61E4
:1052F0007B683A6A9A617B68FA69DA617B680022A6
:105300001A627B68002283F8242000BF2837BD463C
:1053100080BD00BFC0F100081F85EB5180B584B08F
:1053200000AF78607B681B6878689847B8607B68D6
:10533000DB69BA689A4204D37B689B69BA689A426F
:1053400004D97B68012283F8242003E07B680022D3
:1053500083F824207B685B68002B07D07B685B6840
:10536000B968786898470346FB6001E0BB68FB605A
:10537000FA687B681A6200BF1037BD4680BD80B5F1
:1053800086B000AFF860B9607A6000237B610DE001
:105390007A6913469B001344DB001A46BB6813442A
:1053A0001846FFF757FF7B6901337B617A697B6899
:1053B0009A42EDD3FB68BA681A60FB687A685A6053
:1053C00000BF1837BD4680BD80B584B000AF78609F
:1053D0000023FB600DE07B681968FA6813469B00A8
:1053E0001344DB000B441846FFF798FFFB680133BA
:1053F000FB607B685B68FA689A42ECD300BF00BF31
:105400001037BD4680BD80B483B000AF786039608E
:105410007B6819683A6813469B001344DB000B4411
:105420001B6A18460C37BD465DF8047B70470000C8
:1054300080B588B004AFF860B9607A603B60FB6803
:105440006033FA680432029201937B680093BB696F
:105450004FF4A552B968386806F086FC0246FB682E
:105460001A60FB681B68002B03D130210348FFF74B
:10547000CAFD00BF1037BD4680BD00BF48F200081E
:1054800080B485B000AFF860B9607A60FB68074A05
:105490001A60BB68064A1A607B684FF4A5521A600E
:1054A00000BF1437BD465DF8047B70471CF4022032
:1054B00078F4022080B586B000AFF860B9607A60F9
:1054C00000233B61FB68604A934200F09E805E4A85
:1054D000934200F2A5805D4A934200F08B805B4AC4
:1054E000934200F29D805A4A934262D0584A9342B6
:1054F00000F29680574A934224D0564A934200F2D3
:105500008F80554A93426AD0534A934200F2888072
:10551000524A934258D0514A934200F28180504AF5
:1055200093423BD04E4A93427AD84E4A93422AD075
:105530004C4A934274D84C4A93420ED04B4A934201
:1055400016D06DE04A4B3B613B69BA681A607B68D4
:1055500007221A702523FB7566E0464B3B613B69C9
:10556000BA681A607B6807221A702623FB755BE015
:10557000414B3B613B69BA681A607B6807221A702D
:105580002723FB7550E03D4B3B613B69BA681A60CD
:105590007B680B221A703423FB7545E0384B3B6166
:1055A0003B69BA681A607B680B221A703523FB7559
:1055B0003AE0344B3B613B69BA681A607B68082269
:1055C0001A704723FB752FE02F4B3B613B69BA688C
:1055D0001A607B6808221A705223FB7524E02B4B5B
:1055E0003B613B69BA681A607B6808221A705323D2
:1055F000FB7519E0264B3B613B69BA681A607B6812
:105600000B221A705823FB750EE0224B3B613B695D
:10561000BA681A607B680B221A705923FB7503E085
:10562000F9681D48FFF7EFFC97F9173000220721B2
:10563000184602F002F897F91730184602F019F8E8
:1056400000BF1837BD4680BD001C01400018014056
:105650000014014000100140007C00400078004030
:1056600000500040004C0040004400400048004012
:10567000F8460320FC46032000470320044703208C
:10568000084703200C47032010470320144703203A
:10569000184703201C470320B8F2000880B584B0E7
:1056A00000AF174B1B68FB60FB681B68DB6803F0EF
:1056B0001003002B1ED0FB681B68DA68FB681B68B0
:1056C00022F01002DA6000237B60FB681B681B6815
:1056D0007B60FB681B685B687B607B68F86804F034
:1056E0005DFE0346FB72FB7A002B03D0A821054820
:1056F000FFF789FCF86804F0A9FE1037BD4680BDAD
:10570000F8460320D0F2000880B584B000AF174BF4
:105710005B68FB60FB681B68DB6803F01003002B11
:105720001ED0FB681B68DA68FB681B6822F0100259
:10573000DA6000237B60FB681B681B687B60FB688A
:105740001B685B687B607B68F86804F027FE034693
:10575000FB72FB7A002B03D0A8210548FFF753FC0E
:10576000F86804F073FE1037BD4680BDF84603208C
:10577000D0F2000880B584B000AF174B9B68FB6087
:10578000FB681B68DB6803F01003002B1ED0FB686E
:105790001B68DA68FB681B6822F01002DA600023DD
:1057A0007B60FB681B681B687B60FB681B685B6831
:1057B0007B607B68F86804F0F1FD0346FB72FB7ABE
:1057C000002B03D0A8210548FFF71DFCF86804F062
:1057D0003DFE1037BD4680BDF8460320D0F20008DC
:1057E00080B584B000AF174BDB68FB60FB681B68BB
:1057F000DB6803F01003002B1ED0FB681B68DA681F
:10580000FB681B6822F01002DA6000237B60FB68F3
:105810001B681B687B60FB681B685B687B607B6840
:10582000F86804F0BBFD0346FB72FB7A002B03D043
:10583000A8210548FFF7E7FBF86804F007FE1037DA
:10584000BD4680BDF8460320D0F2000880B584B084
:1058500000AF174B1B69FB60FB681B68DB6803F03C
:105860001003002B1ED0FB681B68DA68FB681B68FE
:1058700022F01002DA6000237B60FB681B681B6863
:105880007B60FB681B685B687B607B68F86804F082
:1058900085FD0346FB72FB7A002B03D0A821054847
:1058A000FFF7B1FBF86804F0D1FD1037BD4680BDAD
:1058B000F8460320D0F2000880B584B000AF174B43
:1058C0005B69FB60FB681B68DB6803F01003002B5F
:1058D0001ED0FB681B68DA68FB681B6822F01002A8
:1058E000DA6000237B60FB681B681B687B60FB68D9
:1058F0001B685B687B607B68F86804F04FFD0346BB
:10590000FB72FB7A002B03D0A8210548FFF77BFB35
:10591000F86804F09BFD1037BD4680BDF8460320B3
:10592000D0F2000880B584B000AF174B9B69FB60D4
:10593000FB681B68DB6803F01003002B1ED0FB68BC
:105940001B68DA68FB681B6822F01002DA6000232B
:105950007B60FB681B681B687B60FB681B685B687F
:105960007B607B68F86804F019FD0346FB72FB7AE4
:10597000002B03D0A8210548FFF745FBF86804F089
:1059800065FD1037BD4680BDF8460320D0F2000803
:1059900080B584B000AF174BDB69FB60FB681B6808
:1059A000DB6803F01003002B1ED0FB681B68DA686D
:1059B000FB681B6822F01002DA6000237B60FB6842
:1059C0001B681B687B60FB681B685B687B607B688F
:1059D000F86804F0E3FC0346FB72FB7A002B03D06B
:1059E000A8210548FFF70FFBF86804F02FFD1037DA
:1059F000BD4680BDF8460320D0F2000880B584B0D3
:105A000000AF174B1B6AFB60FB681B68DB6803F089
:105A10001003002B1ED0FB681B68DA68FB681B684C
:105A200022F01002DA6000237B60FB681B681B68B1
:105A30007B60FB681B685B687B607B68F86804F0D0
:105A4000ADFC0346FB72FB7A002B03D0A82105486E
:105A5000FFF7D9FAF86804F0F9FC1037BD4680BDAD
:105A6000F8460320D0F2000880B584B000AF174B91
:105A70005B6AFB60FB681B68DB6803F01003002BAC
:105A80001ED0FB681B68DA68FB681B6822F01002F6
:105A9000DA6000237B60FB681B681B687B60FB6827
:105AA0001B685B687B607B68F86804F077FC0346E2
:105AB000FB72FB7A002B03D0A8210548FFF7A3FA5D
:105AC000F86804F0C3FC1037BD4680BDF8460320DB
:105AD000D0F2000880B485B000AF78607B68FB60CE
