:020000040800F2
:100000000000052085170008F52A0008E117000800
:10001000E1170008E1170008E117000800000000E0
:100020000000000000000000000000006157000810
:10003000032B000800000000015A0008D92A00081C
:10004000E1170008E1170008E1170008E1170008B0
:10005000E1170008E1170008C5280008D1280008AA
:10006000DD280008E9280008F5280008291E0008F6
:100070003D1E0008511E0008651E0008791E00087C
:100080008D1E0008A11E0008E1170008691F000866
:100090007D1F0008911F0008A51F00080129000806
:1000A000E1170008E1170008E1170008E117000850
:1000B000E1170008E1170008E1170008E117000840
:1000C000E1170008E1170008E1170008E117000830
:1000D000E1170008E1170008E1170008E117000820
:1000E0000F290008E1170008E1170008E1170008D0
:1000F000E1170008E1170008E1170008B51E000825
:10010000E1170008E1170008E1170008E1170008EF
:10011000E1170008E1170008E1170008E1170008DF
:10012000C91E0008DD1E0008F11E0008051F00089A
:10013000191F0008E1170008E1170008B91F00089F
:10014000CD1F0008E11F0008F51F0008E117000897
:100150002D1F0008411F0008551F0008E117000867
:10016000E1170008E1170008092000081D20000819
:1001700031200008452000080000000000000000B9
:10018000E1170008E1170008E1170008E11700086F
:10019000E1170008E117000800000000E11700085F
:1001A000E1170008E117000800000000000000004F
:1001B000E11700080000000000000000E11700083F
:1001C000E1170008E1170008E1170008E11700082F
:0801D000E1170008E117000827
:1001E00010B5054C237833B9044B13B10448AFF371
:1001F00000800123237010BD3402002000000000A5
:100200005875000808B5034B1BB103490348AFF309
:10021000008008BD0000000038020020587500086A
:1002200053B94AB9002908BF00281CBF4FF0FF315D
:100230004FF0FF3000F06AB9ADF1080C6DE904CE63
:1002400000F006F8DDF804E0DDE9022304B07047B1
:100250002DE9F047089D0C46002B4ED194468C4565
:100260008646B2FA82F262D94AB1C2F120039140C5
:1002700020FA03F30CFA02FC194300FA02FE4FEADB
:100280001C471FFA8CF6B1FBF7F44FEA1E4307FB3D
:10029000141143EA014304FB06F199420AD91CEB0D
:1002A000030304F1FF3080F01281994240F20F8184
:1002B000023C6344591A1FFA8EF3B1FBF7F007FBB7
:1002C000101143EA014300FB06F69E420AD91CEBDB
:1002D000030300F1FF3180F0FC809E4240F2F98080
:1002E000634402389B1B40EA044000211DB1D34007
:1002F0000022C5E90032BDE8F0878B4205D90DB177
:10030000C5E9000100210846F5E7B3FA83F10029A9
:1003100046D1A34202D39042C0F0F080861A64EB2B
:1003200003030120002DE6D0C5E90063E3E7002ABE
:1003300040F09080A1EB0C044FEA1C481FFA8CF7A8
:100340000121B4FBF8F64FEA1E4308FB164443EACA
:10035000044307FB06F0984208D91CEB030306F19F
:10036000FF3402D2984200F2CD8026461C1A1FFAB2
:100370008EF3B4FBF8F008FB104443EA044300FB9F
:1003800007F79F4208D91CEB030300F1FF3402D2A8
:100390009F4200F2B0802046DB1B40EA0640A5E702
:1003A000C1F120068B4022FA06F71F4320FA06FC13
:1003B00004FA01F343EA0C03F44000FA01F8380CA4
:1003C0004FEA1349B4FBF0FE1FFA87FC00FB1E4402
:1003D00049EA04440EFB0CF9A14502FA01F20AD9DC
:1003E0003C190EF1FF3A80F08480A14540F28180F3
:1003F000AEF1020E3C44A4EB09041FFA83F9B4FBEE
:10040000F0F300FB134449EA044403FB0CFCA4454D
:1004100007D93C1903F1FF3067D2A44565D9023BE7
:100420003C4443EA0E40A0FB0293A4EB0C049C4224
:10043000CE469C4651D34ED055B1B8EB0E0364EB7B
:100440000C0404FA06F6CB401E43CC40C5E9006418
:10045000002150E7C2F1200320FA03F10CFA02FC5C
:1004600024FA03F394400C434FEA1C4800FA02FEBE
:100470001FFA8CF7B3FBF8F008FB1031230C43EAAA
:10048000014300FB07F1994208D91CEB030300F17B
:10049000FF362CD299422AD9023863445B1AA4B29F
:1004A000B3FBF8F108FB113344EA034401FB07F303
:1004B000A34208D91CEB040401F1FF3613D2A34276
:1004C00011D902396444E41A41EA004139E704468B
:1004D000F0E6084606E7C845AED2B9EB020E63EB7C
:1004E000070C0138A8E73146EDE7034699E73046A7
:1004F000D4E7D6467FE7634402384DE706462346F5
:1005000008460FE7023E634430E700BF704700BF74
:1005100002440346934200D1704703F8011BF9E7F8
:1005200070B50D4D0D4C641BA4100026A64209D1D8
:100530000B4D0C4C07F010F8641BA4100026A642CB
:1005400005D170BD55F8043B98470136EEE755F8E4
:10055000043B98470136F2E7C09A0008C09A0008A9
:10056000C09A0008C49A000880B582B002AF052383
:1005700000930423034A0449044801F0ADF900BF85
:10058000BD4680BD00000020002001405002002038
:1005900080B582B000AF0346FB71FB791946044871
:1005A00001F0D8F9034618460837BD4680BD00BFA4
:1005B0005002002080B584B000AF786006F0A4F946
:1005C0000346FB6000F094F9642207F10C03114626
:1005D000184605F073FF00BFF4E780B584B000AFA4
:1005E000786006F091F90346FB60FB68184600F05E
:1005F000F1F800F021F900F067F900F02FF90A2274
:1006000007F10C031146184605F058FF00BFECE750
:1006100080B584B000AF786006F076F90346FB60E1
:1006200000F01CF9052207F10C031146184605F0ED
:1006300045FF00BFF4E780B584B000AF786006F0F6
:1006400063F90346FB6000F02BF942F2107207F1E8
:100650000C031146184605F031FF00BFF3E7000018
:10066000B0B596B006AF4FF400530593234B0493F7
:100670004FF480530393214B0293002301930923EA
:1006800000931F4B01221F491F4801F001FB1F4B24
:100690003C461D460FCD0FC40FCD0FC40FCD0FC468
:1006A00095E80F0084E80F003B46042219461648DF
:1006B00001F09CFB032200230093154B15491648BB
:1006C00002F0A0FB052200230093144B14491548A7
:1006D00002F098FB052200230093134B13491448A2
:1006E00002F090FB012200230093124B12491348A1
:1006F00002F088FB00BF4037BD46B0BD0004024099
:100700005000002000680040800E0020B4750008F2
:10071000B50500087075000800050020DB0500081D
:100720007C75000860070020110600088C75000821
:10073000C0090020370600089C750008200C002026
:1007400080B586B002AFB9607A603B600346FB813A
:10075000F9893B6800937B68BA68044801F00AFB9A
:10076000034618461037BD4680BD00BF800E0020EE
:1007700080B485B000AF0346FB71FB79082B01D92B
:10078000002306E0FB795B01054A1344FB60FB682C
:10079000183318461437BD465DF8047B704700BF18
:1007A0005000002080B584B000AF0346FB71FB7998
:1007B000082B02D8FB79002B01D1002306E0FB793E
:1007C0001846FFF7D5FFF860FB681B78184610370E
:1007D000BD4680BD80B586B000AF7860786800F017
:1007E000E5FB00F0C1FB0346FB7500F0C9FB386177
:1007F00000F0D0FB0346FB81FB7D0E4AD35C3B72CD
:100800003B691B88002B01D004233B723B691B888A
:100810009BB2A7F80930FB89A7F80B300A2307F130
:10082000080105224FF48070FFF78AFF00BF1837D8
:10083000BD4680BD7001002080B582B000AF00F0E1
:100840009FFB78607B68191D0A2304224FF488708F
:10085000FFF776FF00BF0837BD4680BD80B582B088
:1008600000AF01210D4802F0B8FA03469BB23B806D
:1008700000210A4802F0B1FA03461BB27B80002334
:100880003B7100237B710523394606224FF400702B
:10089000FFF756FF00BF0837BD4680BDE8130020B4
:1008A00080B582B000AF00F06BFB78607B6803F12D
:1008B000080142F2107303224FF4A260FFF740FFD9
:1008C00000BF0837BD4680BD80B582B000AF074B82
:1008D0001B78DBB23B710A23391D01224FF498705B
:1008E000FFF72EFF00BF0837BD4680BD78110020FE
:1008F00080B584B000AF02210D4802F06EFA0346C5
:10090000FB6003210A4802F068FA0346BB60FB68FB
:100910009BB2BB80BB689BB2FB806423391D042261
:100920004FF4A660FFF70CFF00BF1037BD4680BD37
:10093000E813002080B500AF0721084801F0EEFF62
:100940000021012002F020F80021032002F01CF811
:100950000021022002F018F800BF80BDF4990008C1
:1009600080B584B000AF78600021002002F00CF860
:1009700005F0CAFF0346FB60002002F043F8FA22AC
:1009800007F10C031146184605F098FD00BFF3E788
:1009900080B582B000AF3B4600221A605A60124B0D
:1009A000124A1A60104803F0D6FD0346002B02D00D
:1009B0000F4802F0B4F800233B6000237B603B4605
:1009C00010221946084803F04EFE0346002B02D0C1
:1009D000084802F0A4F81021034803F0DEFD00BF30
:1009E0000837BD4680BD00BF000F002000740040E6
:1009F000F47500080076000880B58AB000AF786012
:100A000007F1140300221A605A609A60DA601A61D2
:100A10007B681B68174A934227D100233B61164B22
:100A20001B6C154A43F000531364134B1B6C03F00B
:100A300000533B613B690023FB600F4B1B6B0E4A6D
:100A400043F0010313630C4B1B6B03F00103FB60CA
:100A5000FB6820237B610323BB610023FB6107F15B
:100A600014031946054803F0FBFF00BF2837BD46B5
:100A700080BD00BF0074004000380240000002400A
:100A800080B582B002AF02F0FDF902F04FF81148D4
:100A9000FFF7B2FFFFF77CFF40F26B7300221021DB
:100AA0000C4803F02DFEFFF745FFFFF7D9FDFFF7D8
:100AB0005BFD00F049FE00F043FA022200230093A0
:100AC000054B0649064802F09DF905F0D1FD0548A1
:100AD00002F025F8000F00206109000818760008D0
:100AE000140F00202476000880B586B000AF78602F
:100AF000396004F031FF00237B810023FB75002364
:100B0000BB7500237B7500233B751AE03B7D5B01C1
:100B10006D4A1344FB603968F86801F01CF803461D
:100B2000002B0BDAFB681A8A7B8913439BB27B810B
:100B30003B7D664AD25CFB7D1343FB753B7D0133F5
:100B40003B753B7D082BE1D907F10A031A460021CA
:100B50005F4802F0ECF87B681B79DBB23A68194613
:100B6000002000F055F90346002B08DA7B8943F496
:100B700080439BB27B81BB7D43F04003BB757B68A8
:100B80001B79DBB23A681946012000F041F90346AF
:100B9000002B08DA7B8943F480439BB27B81BB7DC9
:100BA00043F02003BB757B681B79DBB23A681946BA
:100BB000022000F02DF90346002B08DA7B8943F46C
:100BC00080439BB27B81BB7D43F00803BB75002053
:100BD000FFF7CEFD386139683B4800F0BCFF0346A3
:100BE000002B11D13B691B8803F00203002B0BD1B2
:100BF0003B691B8803F02003002B05D13B691B8850
:100C000003F04003002B04D00121022001F0BCFEC0
:100C100003E00021022001F0B7FE042001F02AFFCA
:100C20000346012B08D17B8943F400539BB27B819F
:100C30007B7D43F004037B75062001F01BFF034618
:100C4000012B08D17B8943F400539BB27B817B7DD0
:100C500043F002037B75052001F00CFF0346012BD6
:100C600008D17B8943F400539BB27B817B7D43F0A9
:100C700001037B757A897B681A807B68FA7D5A71DB
:100C80007B68BA7D9A717B687A7DDA717B681B7AA2
:100C9000DAB2FB7D1343DAB27B681A727B685B7A47
:100CA000DAB2BB7D1343DAB27B685A727B689B7AF7
:100CB000DAB27B7D1343DAB27B689A7204F076FE77
:100CC00000BF1837BD4680BD50000020E8990008DD
:100CD000E813002080B588B000AF78603960042048
:100CE000FFF746FDB861BB691B78FB753968224880
:100CF00000F031FF0346002B14BF01230023BB7516
:100D0000BB7D83F00103DBB2002B08D000F038F983
:100D10000346DB7AFA7D9A4201D1002328E00320C2
:100D2000FFF726FD38613B695B78FB8101211348A1
:100D300002F053F80346BB600123FB77FB7D032BD6
:100D40000AD1FB89002B04D128231A46BB689342A1
:100D500004D20023FB7701E000BF00E000BFFB7F6F
:100D6000002B01D0002200E0FA7D7B68DA72FB7F65
:100D700018462037BD4680BDD0000020E813002073
:100D800080B586B000AF7860396004F0E5FD0023DF
:100D9000FB810023FB7514E0FB7D5B011A4A1344C1
:100DA0003B613968386900F0C4FE0346002B05DA60
:100DB0003B691A89FB8913439BB2FB81FB7D01339D
:100DC000FB75FB7D082BE7D907F10E0300221946BE
:100DD0000E4801F0ACFF39687868FFF77BFF0346E7
:100DE00083F00103DBB2002B04D0FB8943F08003C6
:100DF0009BB2FB81FA897B685A8004F0D7FD00BF63
:100E00001837BD4680BD00BF50000020E813002009
:100E100080B586B000AF03463A60FB710B46BB71EC
:100E20000023FB75FB79002B55D10020FFF7A0FCB8
:100E300038613B699B78FB73BB790A2B48D801A2C8
:100E400052F823F0710E0008710E0008830E00089E
:100E50008F0E0008A10E0008B30E0008B30E0008A4
:100E6000B30E0008B30E0008B30E0008BF0E000852
:100E7000FB7B012B40D0FB7B002B3DD00123FB757E
:100E80003AE0FB7B012B39D00123FB7536E0FB7B7D
:100E9000012B35D0FB7B022B32D00123FB752FE0D9
:100EA000FB7B022B2ED0FB7B042B2BD00123FB756D
:100EB00028E0FB7B042B27D00123FB7524E0FB7B80
:100EC000042B23D0FB7B012B20D00123FB751DE0DD
:100ED000184801F024FEBB79174AD35CBB75FB7937
:100EE0001846FFF75FFC03467B757A7DBB7D9A420F
:100EF0000DD00123FB750AE000BF08E000BF06E04B
:100F000000BF04E000BF02E000BF00E000BF0B4BE9
:100F10001B68322213443A689A4205D9FB7D002BA4
:100F200002D04FF0FF3300E0002318461837BD46CB
:100F300080BD00BF447600087001002074110020BD
:100F400080B582B002AF032200230093034B044913
:100F5000044801F057FF00BFBD4680BD19150008C9
:100F6000587600088811002080B400AF034B1B792D
:100F7000DBB21846BD465DF8047B70477C1100204B
:100F800080B400AF024B1846BD465DF8047B704745
:100F90007C11002080B400AF034B5B889BB21846E5
:100FA000BD465DF8047B70477C11002080B582B09F
:100FB00000AF786079680548FFF796FD79680348C7
:100FC000FFF7DEFE00BF0837BD4680BD7C11002064
:100FD00080B58CB000AF78607868FFF7E7FFAF4B63
:100FE0001B889BB2002B09D1AC4B5B79DBB2002B89
:100FF00004D1AA4BDB79DBB2002B01D00023B9E18D
:10100000A64B1B7987F82D30002387F82F3004205A
:10101000FFF7AEFBB862BB6A1B7887F82E307968A1
:101020009F4800F098FD0346002B06D19B4B5B8840
:101030009BB203F08003002B05D097F82D30994A1E
:10104000D35C87F82E300020FFF792FB78620320F4
:10105000FFF78EFB38623B6A5B78FB830121924885
:1010600001F0BBFE0346BB610520FFF781FB786101
:101070000620FFF77DFB38610720FFF779FBF8605A
:101080000820FFF775FBB86004F066FC97F82D3078
:101090000A2B00F25C8101A252F823F0C91000086B
:1010A000E110000803110008251100085F11000875
:1010B00099110008DB11000863120008F7120008FC
:1010C0004F1300083713000897F82E30012B03D177
:1010D000012387F82F3049E1002387F82F3045E1BD
:1010E0006E4B9B79DBB2002B07D197F82E30012B8A
:1010F00003D1022387F82F3038E1012387F82F30FE
:1011000034E197F82E30022B03D1032387F82F30D8
:1011100021E197F82E30012B40F01D81022387F842
:101120002F3018E17B6A9B78022B07D197F82E307D
:10113000022B03D1042387F82F300EE197F82E30CD
:10114000022B03D1032387F82F3006E197F82E30C6
:10115000012B40F00281022387F82F30FDE07B6AEB
:101160009B78042B07D197F82E30022B03D105234F
:1011700087F82F30F3E097F82E30022B03D10423A9
:1011800087F82F30EBE097F82E30012B40F0E78006
:10119000022387F82F30E2E07B6A9B78042B12D180
:1011A00097F82E30022B0ED1404B1B68322213448D
:1011B0007A689A4203D3062387F82F300CE0052380
:1011C00087F82F3008E097F82E30012B40F0C980C7
:1011D000022387F82F30C4E0C3E07B691B8803F447
:1011E0008073002B31D07968314800F0B4FC03469D
:1011F000002B2AD13B691B8803F48073002B24D079
:1012000079682C4800F0A7FC0346002B1DD1FB6831
:101210001B8803F48073002B17D07968264800F0F0
:101220009AFC0346002B10D1BB681B8803F4807323
:10123000002B0AD07968214800F08DFC0346002B72
:1012400003D1072387F82F3090E097F82E30012B39
:1012500003D1022387F82F3088E0062387F82F3048
:1012600084E097F82E30032B10D1FB8B052B09D887
:10127000134B1B881A46BB69934203D3082387F894
:101280002F3037E0072387F82F306CE097F82E30A7
:10129000022B17D1072387F82F3064E07C11002040
:1012A000D000002070010020E813002074110020FD
:1012B000F00000201001002030010020500100202B
:1012C0009C9A00082D4B1B684FF47A7213447A687D
:1012D0009A4207D297F82E30022B03D1072387F8C2
:1012E0002F3007E097F82E30012B3CD1022387F8EE
:1012F0002F3038E037E097F82E30032B03D1082346
:1013000087F82F3031E01D4B1B684FF47A7213447D
:101310007A689A4207D297F82E30032B03D108231C
:1013200087F82F3021E097F82E30022B1DD10723AC
:1013300087F82F3019E07B6A9B78012B03D10223B9
:1013400087F82F3012E00A2387F82F300EE00023B1
:1013500087F82F300AE000BF08E000BF06E000BFBA
:1013600004E000BF02E000BF00E000BF04F01EFB8D
:1013700097F82F3018463037BD4680BD74110020D5
:1013800080B582B000AF7860604B1B79DBB20A2B6E
:1013900000F2AB8001A252F823F000BFC91300088D
:1013A000E1130008F91300081114000829140008BB
:1013B0004114000859140008711400088914000829
:1013C000BB140008D31400080021032001F0DCFA4C
:1013D0000021012001F0D8FA4D4B01221A7090E053
:1013E0000021032001F0D0FA0021012001F0CCFA05
:1013F000474B00221A7084E00021032001F0C4FA58
:101400000021012001F0C0FA414B01221A7078E05E
:101410000021032001F0B8FA0021012001F0B4FA04
:101420003B4B02221A706CE00021032001F0ACFA61
:101430000021012001F0A8FA354B04221A7060E067
:101440000021032001F0A0FA0121012001F09CFA03
:101450002F4B04221A7054E00021032001F094FA6B
:101460000121012001F090FA294B04221A7048E072
:101470000021032001F088FA0121012001F084FA03
:10148000234B04221A703CE00121012001F07CFA78
:10149000204B1B6840F2DC5213447A689A4204D213
:1014A0000121032001F070FA03E00021032001F084
:1014B0006BFA174B04221A7023E00021032001F07D
:1014C00063FA0121012001F05FFA114B04221A7026
:1014D00017E00021032001F057FA0021012001F05C
:1014E00053FA0B4B01221A700BE00021032001F08C
:1014F0004BFA0021012001F047FA054B01221A7036
:1015000000BF00BF0837BD4680BD00BF7C11002072
:10151000781100207411002080B584B000AF78608D
:10152000124B1B79FB7305F0EFF90346BB60BB68F8
:101530001846FFF74DFD0346BB73BA7BFB7B9A420F
:1015400005D0BB680A4A1360084B1B79FB73074A36
:10155000BB7B1371BB681846FFF712FF642207F1CB
:1015600008031146184604F0A9FFE0E77C110020AB
:101570007411002080B584B000AF78607B680C4A9D
:101580009B1ADB100B4A02FB03F3FB73FB7B032B61
:1015900003D92421084801F0C2FAFB7B074AD35C37
:1015A0001846FEF7F5FF034618461037BD4680BDC6
:1015B0007C010020CDCCCCCC68760008A09A000835
:1015C00080B485B000AF786039603B68582202FB78
:1015D00003F3064AA2FB0323DB08FB60FB68184603
:1015E0001437BD465DF8047B704700BFCDCCCCCC32
:1015F00080B485B000AF786039603B68DB00064A94
:10160000A2FB03239B09FB60FB6818461437BD4609
:101610005DF8047B704700BF1F85EB5180B487B035
:1016200000AF7860396008237B6164233B613B68CD
:1016300040F6E44202FB03F31B0BFB60FA6813461F
:101640009B0013441D4AA2FB03235B08BB601C4B99
:101650001B68092B0BD91A4B1B683A699A4206D9A9
:10166000184B1A68BB681344164A13600CE0144BFD
:101670001B683A699A4207D1124B1A683B690A3BC8
:10168000B2FBF3F3104A13600D4B1B683A699A42A0
:1016900004D30B4B1B680133094A13600A4B1B68C8
:1016A000BA68D31A642203FB02F27B69B2FBF3F33C
:1016B00018461C37BD465DF8047B7047ABAAAAAA42
:1016C00050160020541600205816002080B485B013
:1016D00000AF786039600F4B1B683A689A4202D2BB
:1016E0000C4B1B683B600B4B1B683A68D31A40F2EB
:1016F000AA5203FB02F2084BA3FB0213D21A5208B0
:101700001344DB0AFB60FB6818461437BD465DF8DE
:10171000047B7047A49A00087DE3803C80B584B0C8
:1017200000AF786005F0F0F80346FB60054801F073
:10173000DFFA052207F10C031146184604F0BEFE3D
:1017400000BFF3E7E813002080B582B002AF0422A7
:101750000749084801F0A7FA052200230093064B29
:101760000649074801F04EFB00BFBD4680BD00BFE3
:101770007C010020E81300201D170008D076000827
:10178000F0130020DFF834D0002103E00C4B5B584D
:10179000435004310B480C4B42189A42F6D30B4A83
:1017A00002E0002342F8043B094B9A42F9D303F0CC
:1017B00043FFFEF7B5FEFFF763F970470000052011
:1017C000C89A0008000000203402002034020020E3
:1017D0002C1A0020000000000000000000000000A3
:1017E000034B1A68D2B2FEE7AFF30080AFF300807C
:1017F00004ED00E080B584B000AF78607B68FB60EA
:1018000005F082F80346BB6001231946F86800F032
:10181000CFFF054B1A6807F108031146184604F07C
:101820004DFE00BFF0E700BF1C02002090B593B052
:1018300000AF786100237B643FE07B69996C7A6C30
:1018400013469B0013449B000B443B643B6C1B689A
:101850000F2B02D91E4801F062F97B6C5A1C3B46E3
:10186000396C184600F0C4FE07F130043B460FCB3C
:1018700084E80F007B6907F130021146184601F039
:1018800001FD0346002B02D0124801F048F93B6CE1
:101890005B68184601F050F907F11C03396C1846D3
:1018A00000F0C2FE3B6C5B6807F11C021146184653
:1018B00003F0D6F87B6C01337B647B69DB6C7A6C5C
:1018C0009A42BAD300BF00BF4C37BD4690BD00BF9F
:1018D000E0760008F876000880B586B002AFF860C0
:1018E000B9607A603B603B68102B02D9144801F064
:1018F00016F93B687A68B968F86800F0D5FEB868F0
:1019000001F025F9FB68184601F036FB0346002B71
:1019100002D00C4801F003F9F868FFF787FF0A4A84
:10192000BB691360FB6803F150000522FB6800935C
:10193000064B074901F066FA00BF1037BD4680BD6F
:10194000187700082C7700081C020020F517000803
:101950004477000880B483B000AF786039607B685A
:10196000996C3A6813469B0013449B000B441B6917
:1019700018460C37BD465DF8047B704780B485B0CF
:1019800000AF78607B68FB60FB6818461437BD4683
:101990005DF8047B7047000080B584B000AF7860CC
:1019A00039607868FFF7EAFFF860FB689B6A07F127
:1019B00008021146184604F003FA0346012B02D030
:1019C000084801F0ACF8BB68002B07D0064B4FF07D
:1019D00080521A60BFF34F8FBFF36F8F00BF103775
:1019E000BD4680BD5077000804ED00E080B582B0B0
:1019F00000AF786000217868FFF7CEFF0837BD465A
:101A000080BD80B582B000AF786000217868FFF7B4
:101A1000C3FF0837BD4680BD80B582B000AF786097
:101A200001217868FFF7B8FF0837BD4680BD80B553
:101A300082B000AF786001217868FFF7ADFF08370A
:101A4000BD4680BD80B582B000AF78600221786865
:101A5000FFF7A2FF0837BD4680BD80B582B000AF5A
:101A6000786002217868FFF797FF0837BD4680BD90
:101A700080B586B000AF78607868FFF77FFF786147
:101A80007B685B6A3B613B6903F4FC33002B18D035
:101A90007B699B6A07F10C021146184604F090F925
:101AA0000346012B02D00A4801F039F8FB68002BED
:101AB00007D0084B4FF080521A60BFF34F8FBFF32F
:101AC0006F8F7B6800225A6200BF1837BD4680BD09
:101AD0005077000804ED00E080B487B000AFF860F4
:101AE000B9607A60FA68BB6813447B617A68FB6806
:101AF0009A4206D27A69FB689A4202D84FF0FF33C5
:101B000011E0FA687B689A4205D87A69FB689A42C4
:101B100001D2002307E07A697B689A4202D24FF033
:101B2000FF3300E0002318461C37BD465DF8047BF8
:101B3000704780B582B000AF786039607B685869C3
:101B40007B685B683A681946FFF7C6FF034618468C
:101B50000837BD4680BD80B582B000AF786039607F
:101B60007B6858697B68DB683A681946FFF7B4FF01
:101B7000034618460837BD4680BD80B485B000AF27
:101B800078600B467B800023FB600FE07B685A6F18
:101B9000FB685B011344BB60BB681B887A889A4270
:101BA00001D1BB6808E0FB680133FB607B689B6F79
:101BB000FA689A42EAD3002318461437BD465DF806
:101BC000047B704790B587B000AFF8607A603B60E7
:101BD0000B467B817B891946F868FFF7CEFF786159
:101BE0007B69002B0BD1FB68DB6F002B14D0FB68EB
:101BF000DC6F79893B687A68F868A0470CE07B69FC
:101C000018333A687968184605F098FC04F08CFEA1
:101C100002467B695A6100E000BF1C37BD4690BD9B
:101C200080B58CB000AF7860396007F1080307F128
:101C300010023968786802F064F80346002B0CD172
:101C40007868FFF79BFEF8623B6999B23B6A07F13F
:101C50000802F86AFFF7B6FF00E000BF3037BD4664
:101C600080BD80B582B000AF786000217868FFF752
:101C7000D7FF0837BD4680BD80B582B000AF786021
:101C800001217868FFF7CCFF0837BD4680BD000012
:101C900080B590B006AFF860B9603B601346FB7149
:101CA000FA79B7F8443005933B6C0493BB8F0393E8
:101CB000BB6B02937B6B01933B6B00933B68B968F2
:101CC000F86800F00DFAB86800F04CFFB86B00F04F
:101CD00033FF386C00F030FFBB8F7B610223BB61A8
:101CE0000023FB6103233B62B96BB86800F08DF8F9
:101CF00003467B6207F114031946B86B02F0B0FE8D
:101D0000B7F844307B61396CB86800F07EF8034660
:101D10007B6207F114031946386C02F0A1FEFB68E0
:101D2000184601F0DDFC0346002B02D00E4800F0FF
:101D3000F6FEFB68184601F0C5FE0346002B02D0F4
:101D40000A4800F0ECFEFB6848F61371184602F0F2
:101D5000EBF80346002B02D0054800F0E0FE00BF80
:101D60002837BD4680BD00BF78770008907700080F
:101D7000A877000880B58EB000AFF8607A603B604D
:101D80000B467B817B89BB610023FB6100233B62A7
:101D900000237B623B68BB62002387F82C30FB6822
:101DA0009B6A396C184604F099F878637B6B012BB9
:101DB00002D04FF0FF3312E0F86807F1140307F187
:101DC00018017A6801F0C2FE034687F8333097F8AD
:101DD0003330002B02D0044800F0A1FE0023184647
:101DE0003837BD4680BD00BFD077000880B584B0CD
:101DF00000AFF860B9607A607A68B968F86800F096
:101E000051FA00BF1037BD4680BD80B582B000AF2B
:101E1000786039603968786800F01EF90346184622
:101E20000837BD4680BD000080B500AF024B1B687F
:101E3000184602F08BFC80BD5C16002080B500AF18
:101E4000024B5B68184602F081FC80BD5C160020E6
:101E500080B500AF024B9B68184602F077FC80BD4E
:101E60005C16002080B500AF024BDB68184602F01C
:101E70006DFC80BD5C16002080B500AF024B1B6975
:101E8000184602F063FC80BD5C16002080B500AFF0
:101E9000024B5B69184602F059FC80BD5C160020BD
:101EA00080B500AF024B9B69184602F04FFC80BD25
:101EB0005C16002080B500AF024BDB69184602F0CB
:101EC00045FC80BD5C16002080B500AF024B1B6A4C
:101ED000184602F03BFC80BD5C16002080B500AFC8
:101EE000024B5B6A184602F031FC80BD5C16002094
:101EF00080B500AF024B9B6A184602F027FC80BDFC
:101F00005C16002080B500AF024BDB6A184602F079
:101F10001DFC80BD5C16002080B500AF024B1B6B22
:101F2000184602F013FC80BD5C16002080B500AF9F
:101F3000024B5B6B184602F009FC80BD5C1600206A
:101F400080B500AF024B9B6B184602F0FFFB80BDD3
:101F50005C16002080B500AF024BDB6B184602F028
:101F6000F5FB80BD5C16002080B500AF024B1B68FE
:101F7000184601F0FFFF80BD9C16002080B500AF21
:101F8000024B1B68184601F0F5FF80BD9C1600202F
:101F900080B500AF024B1B68184601F0EBFF80BD17
:101FA0009C16002080B500AF024B1B68184601F05C
:101FB000E1FF80BD9C16002080B500AF024B5B683E
:101FC000184601F0D7FF80BD9C16002080B500AFF9
:101FD000024B5B68184601F0CDFF80BD9C160020C7
:101FE00080B500AF024B5B68184601F0C3FF80BDAF
:101FF0009C16002080B500AF024B5B68184601F0CC
:10200000B9FF80BD9C16002080B500AF024B9B68D5
:10201000184601F0AFFF80BD9C16002080B500AFD0
:10202000024B9B68184601F0A5FF80BD9C1600205E
:1020300080B500AF024B9B68184601F09BFF80BD46
:102040009C16002080B500AF024B9B68184601F03B
:1020500091FF80BD9C16002080B582B000AF7860F3
:1020600039607B68164A934220D0154A93421FD8A4
:10207000144A934203D0144A934215D018E03B68A7
:10208000124A934209D0114A93420AD8104A934205
:1020900003D0104A934202D003E009230BE0082347
:1020A00009E00D4800F03BFD092304E00B2302E0AA
:1020B0000A4800F034FD18460837BD4680BD00BF11
:1020C000006C00400064004000680040000C0240CA
:1020D0000000024000040240087800082878000848
:1020E00080B5A6B000AFF860B9603B601346FB71E5
:1020F000FB68184680231A460021FEF709FAFB68A0
:10210000BA681A60FB684FF08072DA60FB684FF4BF
:10211000A0221A61FB6801225A76FB680122DA7656
:10212000FB683A685A67FB68D7F8A0209A67FB6893
:10213000D7F8A420DA67FB79022B0ED0022B10DC33
:10214000002B02D0012B04D00BE0FB6818225A6050
:1021500007E0FB680C225A6003E0FB6806225A6025
:1021600000BF03200321FB682C331A4603F0FAFD5D
:102170000246FB689A62FB689B6A002B03D19F2191
:10218000424800F0CCFCBB68414A934229D0404A07
:10219000934236D83F4A934203D03F4A934210D0ED
:1021A0002FE00023C7F89430132387F893301423CB
:1021B00087F89230152387F89130162387F89030EE
:1021C00022E00123C7F894303F2387F8933040235F
:1021D00087F89230412387F89130422387F8903076
:1021E00012E00223C7F894304A2387F893304B2338
:1021F00087F892304C2387F891304D2387F8903040
:1022000002E0264800F08BFCFA682549D7F89430A4
:1022100041F8232097F9933000220521184602F057
:1022200064F997F9923000220521184602F05DF911
:1022300097F9913000220521184602F056F997F9D6
:10224000903000220521184602F04FF900220521A6
:10225000282002F04AF997F99330184602F061F904
:1022600097F99230184602F05CF997F991301846C8
:1022700002F057F997F99030184602F052F92820E9
:1022800002F04FF900BF9837BD4680BD4078000886
:10229000006C00400064004000680040287800089E
:1022A0009C16002080B594B000AFF860B9607A60E9
:1022B0007B680D2B02D9304800F031FCFB681B68AD
:1022C0007B640023FB644EE0FB6C1B01BA68134483
:1022D0003B64FB6CBB647B6C284A934202D1BB6CB1
:1022E0000E33BB643B6C1B7883F00103DBB2FB63F2
:1022F00005237B873B6C1B891A467B8F02FA03F30D
:102300003B613B6C5B891A467B8F02FA03F37B616E
:102310003B6C9B891A467B8F02FA03F3BB613B6CD3
:10232000DB891A467B8F02FA03F3FB613B6C5B6827
:102330003B62BB6C7B62FB6BBB620023FB620123D5
:102340003B630E237B63FB6807F1100211461846BE
:1023500001F0CCFA0346002B02D0094800F0DFFB65
:10236000FB6C0133FB64FA6C7B689A42ACD300BF10
:1023700000BF5037BD4680BDAC7800080068004003
:10238000C478000880B594B000AF07F11C03342274
:1023900000211846FEF7BCF807F1080300221A6076
:1023A0005A609A60DA601A6100237B60294B1B6CCB
:1023B000284A43F080531364264B1B6C03F0805370
:1023C0007B607B6800233B60234B1B68224A43F4FD
:1023D00040431360204B1B6803F440433B603B6861
:1023E0000123FB614FF480333B6202237B634FF494
:1023F0008003BB631923FB63C0233B6402237B641C
:102400000223BB640223FB6407F11C03184602F09D
:10241000D3FE0346002B02D0104800F080FB0F23B0
:10242000BB600223FB6000233B614FF480537B6160
:102430000023BB6107F108030321184602F014FDD5
:102440000346002B02D0064800F069FB00BF50375E
:10245000BD4680BD0038024000700040E4780008AE
:102460000079000880B48BB000AF78607B68574A71
:10247000934200F09680554A934200F2A180544A5C
:1024800093427FD0524A934200F29A80514A93423B
:1024900069D0504A934200F293804F4A934253D0FE
:1024A0004D4A934200F28C804C4A93423DD04B4AB5
:1024B000934200F285804A4A934227D0484A934289
:1024C0007ED8484A934203D0474A93420FD077E0E0
:1024D00000237B62454B1B6B444A43F001031363AB
:1024E000424B1B6B03F001037B627B6A68E00023B5
:1024F0003B623E4B1B6B3D4A43F0020313633B4B75
:102500001B6B03F002033B623B6A59E00023FB6153
:10251000364B1B6B354A43F004031363334B1B6B81
:1025200003F00403FB61FB694AE00023BB612F4B0E
:102530001B6B2E4A43F0080313632C4B1B6B03F0F9
:102540000803BB61BB693BE000237B61274B1B6B2E
:10255000264A43F010031363244B1B6B03F0100354
:102560007B617B692CE000233B61204B1B6B1F4A86
:1025700043F0200313631D4B1B6B03F020033B61EF
:102580003B691DE00023FB60184B1B6B174A43F0AF
:1025900040031363154B1B6B03F04003FB60FB68A8
:1025A0000EE00023BB60114B1B6B104A43F080030D
:1025B00013630E4B1B6B03F08003BB60BB6800BF53
:1025C00000BF2C37BD465DF8047B7047001C0240FD
:1025D000001802400014024000100240000C0240AB
:1025E000000802400000024000040240003802409F
:1025F00090B488B000AFF860B9607A60BB681B68BF
:102600003B617B687B61BB68DB68BB610023FB616E
:10261000FB681C4607F110030FCB84E80F00F86835
:102620002037BD4690BC7047B0B489B000AF786029
:1026300039603B681B89FB6003233B6100237B619E
:102640000023BB610023FB617B681D4607F10C047E
:102650000FCC0FC523682B6078682437BD46B0BC0B
:102660007047000080B485B000AF78607B680C4A8A
:1026700093420ED10023FB600A4B5B6C094A43F482
:1026800080735364074B5B6C03F48073FB60FB68DF
:1026900000BF00BF1437BD465DF8047B704700BF24
:1026A000002001400038024090B5ADF5317D00AF0B
:1026B00007F53074A4F52D74206007F53070A0F58F
:1026C0002E70016007F53071A1F52F710A6007F5D2
:1026D0003072A2F53072136007F53073A3F52D73D5
:1026E0001B6818464FF42C731A460021FDF710FFA3
:1026F00007F53073A3F52D731B6807F53072A2F54B
:102700002E7212681A6007F53073A3F52D731B68DB
:102710004FF480325A6007F53073A3F52D731B68B0
:1027200001221A6107F53073A3F52D731B6801228E
:102730005A6107F53073A3F52D731B6807F53072E6
:10274000A2F530721268DA6107F53073A3F52D73C4
:102750001B68012283F8202007F53073A3F52D7341
:102760001B6801225A6207F53073A3F52D731B68AD
:102770000E4A9A6207F53073A3F52D731B6807F5AF
:102780003072A2F52F7212689A6407F53073A3F5C0
:102790002D731B6807F53072A2F530721268DA6487
:1027A00000BF07F53177BD4690BD00BF0100000FA7
:1027B00080B584B000AF786039600023FB601BE017
:1027C0007B68996CFA6813469B0013449B000B448A
:1027D000BB607B68184600F01DFC7B6839681846B2
:1027E00000F0BEFC7B68184600F03EFD0246BB6868
:1027F0001A61FB680133FB607B68DB6CFA689A4204
:10280000DED300BF00BF1037BD4680BD80B487B0A7
:1028100000AF78607B68274A934235D0254A9342BF
:1028200041D8254A934203D0244A93420FD03AE03C
:1028300000237B61224B1B6C214A43F0007313641D
:102840001F4B1B6C03F000737B617B692BE0002343
:102850003B611B4B1B6C1A4A43F080631364184B9B
:102860001B6C03F080633B613B690023FB60144BEE
:102870001B6C134A43F000731364114B1B6C03F081
:102880000073FB60FB680EE00023BB600C4B1B6C0D
:102890000B4A43F000631364094B1B6C03F00063A5
:1028A000BB60BB6800BF00BF1C37BD465DF8047B42
:1028B000704700BF006C00400064004000680040AA
:1028C0000038024080B500AF012002F0A9FA80BDB7
:1028D00080B500AF022002F0A3FA80BD80B500AF42
:1028E000042002F09DFA80BD80B500AF082002F000
:1028F00097FA80BD80B500AF102002F091FA80BD3C
:1029000080B500AF4FF4787002F08AFA80BD80B5D0
:1029100000AF4FF47C4002F083FA80BD80B584B0F4
:1029200000AF78603960164A7B681360154A3B68CF
:1029300013600023FB6018E0114B1968FA68134616
:102940005B001344DB000B44BB60BB681B6818468C
:1029500000F0F2F8BB681A68BB68043319461046E9
:1029600002F07EF8FB680133FB60064B1B68FA68D7
:102970009A42E1D300BF00BF1037BD4680BD00BF03
:10298000A8160020AC16002080B584B000AF786097
:102990003960184B1B687A689A4203D34F21164856
:1029A00000F0BDF8154B19687A6813465B001344B4
:1029B000DB000B44FB60FB689B68012B07D0FB68C6
:1029C0009B68112B03D052210D4800F0A8F8FB683A
:1029D0001868FB685B6899B23B68002B14BF012341
:1029E0000023DBB21A4602F0E7F900BF1037BD46FC
:1029F00080BD00BFAC16002068790008A816002032
:102A0000E079000880B584B000AF7860154B1B6892
:102A10007A689A4203D36321134800F080F8134B7D
:102A200019687A6813465B001344DB000B44FB60B3
:102A3000FB689B68012B07D0FB689B68112B03D0B8
:102A400066210B4800F06BF8FB681A68FB685B684E
:102A50009BB21946104602F0C8F900BF1037BD46B8
:102A600080BD00BFAC16002068790008A8160020C1
:102A7000E079000880B584B000AF7860134B1B6824
:102A80007A689A4203D37421114800F048F8114B38
:102A900019687A6813465B001344DB000B44FB6043
:102AA000FB681A68FB685B689BB21946104602F027
:102AB0006BF90346FB72FB7A002B01D1002300E087
:102AC000012318461037BD4680BD00BFAC1600205C
:102AD00068790008A816002080B500AF00F02CFA35
:102AE00004F092FA0346012B02D002F0BDFF00E091
:102AF00000BF80BD80B400AF00BFBD465DF8047B61
:102B0000704780B400AF00BFBD465DF8047B7047DE
:102B100080B400AF00BFBD465DF8047B70470FB4C2
:102B200080B500AFFFF7F4FF00BFFDE780B500AF51
:102B3000FFF728FC00BF80BD80B582B000AF786091
:102B40007868FFF78FFC00BF0837BD4680BD80B5B1
:102B500082B000AF78607868FFF784FD00BF083767
:102B6000BD4680BD80B582B000AF78607868FFF761
:102B70004DFE00BF0837BD4680BD000080B58AB05D
:102B800000AF78607B68DA687B689B689A4203D202
:102B900014212A48FFF7C3FF7B68DA687B689B68CB
:102BA000D31ABB617B681A690021BB69A3FB0223AE
:102BB000002B00D001210B46002B0AD0BB69204A14
:102BC000A2FB03235B097A68126902FB03F37B62B1
:102BD00009E07B681B69BA6902FB03F3184AA2FB90
:102BE00003235B097B627B68DB687A6A13443B6280
:102BF0007B68DB683A6A9A4202D24FF0FF333B624D
:102C00007B689A687B6AD31AFB617B689B68FA6968
:102C10009A4201D90023FB617B683A6A9A617B681A
:102C2000FA69DA617B6800221A627B68002283F805
:102C3000242000BF2837BD4680BD00BF0C7B0008A4
:102C40001F85EB5180B584B000AF78607B681B684E
:102C500078689847B8607B68DB69BA689A4204D3A1
:102C60007B689B69BA689A4204D97B68012283F821
:102C7000242003E07B68002283F824207B685B68C3
:102C8000002B07D07B685B68B96878689847034673
:102C9000FB6001E0BB68FB60FA687B681A6200BFFA
:102CA0001037BD4680BD80B586B000AFF860B96012
:102CB0007A6000237B610DE07A6913469B00134420
:102CC000DB001A46BB6813441846FFF757FF7B69C1
:102CD00001337B617A697B689A42EDD3FB68BA68FD
:102CE0001A60FB687A685A6000BF1837BD4680BD1D
:102CF00080B584B000AF78600023FB600DE07B6896
:102D00001968FA6813469B001344DB000B4418460D
:102D1000FFF798FFFB680133FB607B685B68FA682C
:102D20009A42ECD300BF00BF1037BD4680BD80B4CF
:102D300089B000AFF860B9607A60BB68002B02D040
:102D4000BB681B8800E00023FB837B68002B02D05C
:102D50007B681B8800E00023BB830023BB611DE070
:102D6000FB681968BA6913469B001344DB000B44E7
:102D70007B617B6993F82430DBB2012B0AD17B693C
:102D80009A8AFB8B1343FB837B69DA8ABB8B1343E1
:102D9000BB8300E000BFBB690133BB61FB685B68BC
:102DA000BA699A42DCD3BB68002B06D0BB681A888C
:102DB000FB8B13439AB2BB681A807B68002B06D04A
:102DC0007B681A88BB8B13439AB27B681A8000BF5A
:102DD0002437BD465DF8047B704780B483B000AFF4
:102DE000786039607B6819683A6813469B00134421
:102DF000DB000B441B6A18460C37BD465DF8047BAC
:102E00007047000080B588B004AFF860B9607A60A0
:102E10003B60FB686033FA680432029201937B687E
:102E20000093BB698022B968386803F011FA024642
:102E3000FB681A60FB681B68002B03D13021034834
:102E4000FFF76DFE00BF1037BD4680BD947B0008C4
:102E500080B485B000AFF860B9607A60FB68074A5B
:102E60001A60BB68064A1A607B6880221A6000BF3D
:102E70001437BD465DF8047B704700BFB0160020D4
:102E80000C17002080B500AF0E4B1B680D4A43F4B1
:102E9000007313600B4B1B680A4A43F48063136092
:102EA000084B1B68074A43F480731360032001F04A
:102EB00011FB0F2000F010F800F006F80023184670
:102EC00080BD00BF003C024080B400AF00BFBD46E3
:102ED0005DF8047B7047000080B582B000AF786079
:102EE000124B1A68124B1B7819464FF47A73B3FBD6
:102EF000F1F3B2FBF3F3184601F021FB0346002B7C
:102F000001D001230EE07B680F2B0AD800227968DC
:102F10004FF0FF3001F0E9FA064A7B6813600023A6
:102F200000E0012318460837BD4680BD2802002076
:102F3000240200202002002080B400AF064B1B7842
:102F40001A46064B1B681344044A136000BFBD4673
:102F50005DF8047B704700BF240200200C1900209C
:102F600080B400AF034B1B681846BD465DF8047B78
:102F7000704700BF0C19002080B584B000AF7860A6
:102F80000023FB737B68002B01D1012333E07B68B6
:102F90001B6C002B09D1786800F031F87B680022A7
:102FA0005A647B68002283F83C207B681B6C03F02A
:102FB0001003002B18D17B681B6C23F4885323F07B
:102FC000020343F002027B681A64786800F08CFA0E
:102FD0007B6800225A647B681B6C23F0030343F078
:102FE00001027B681A6401E00123FB737B68002205
:102FF00083F83C20FB7B18461037BD4680BD80B46B
:1030000083B000AF786000BF0C37BD465DF8047B2D
:103010007047000080B485B000AF78600023BB60CB
:103020007B6893F83C30012B01D102238AE07B6856
:10303000012283F83C207B681B689B6803F0010336
:10304000012B18D07B681B689A687B681B6842F06C
:1030500001029A603E4B1B683E4AA2FB03239A0C76
:1030600013465B001344BB6002E0BB68013BBB60DE
:10307000BB68002BF9D17B681B689B6803F00103D8
:10308000012B5ED17B681B6C23F4E06323F001030A
:1030900043F480727B681A647B681B685B6803F486
:1030A0008063002B07D07B681B6C23F4405343F4F0
:1030B00080527B681A647B681B6C03F48053B3F501
:1030C000805F06D17B685B6C23F006027B685A64E4
:1030D00002E07B6800225A647B68002283F83C206F
:1030E0001D4BFB607B681B686FF022021A60FB6857
:1030F0005B6803F01F03002B0FD17B681B689B6884
:1031000003F04053002B1CD17B681B689A687B68D6
:103110001B6842F080429A6013E07B681B680F4A8C
:1031200093420ED17B681B689B6803F04053002BD1
:1031300007D17B681B689A687B681B6842F08042F5
:103140009A60002318461437BD465DF8047B70472B
:103150002802002083DE1B430023014000200140A1
:1031600080B584B000AF786039600023FB607B6875
:103170001B689B6803F48063B3F5806F13D17B6891
:103180001B689B6803F48073B3F5807F0BD17B6869
:103190001B6C43F020027B681A647B68002283F872
:1031A0003C2001235CE0FFF7DBFEF8601AE03B689F
:1031B000B3F1FF3F16D03B68002B07D0FFF7D0FEDE
:1031C0000246FB68D31A3A689A420BD27B681B6CA2
:1031D00043F004027B681A647B68002283F83C2079
:1031E00003233DE07B681B681B6803F00203022B8E
:1031F000DDD17B681B686FF012021A607B681B6C64
:1032000043F400727B681A647B681B689B6803F058
:103210004053002B23D17B681B7E002B1FD17B6882
:103220001B68DB6A03F47003002B06D07B681B6805
:103230009B6803F48063002B11D17B681B6C23F423
:1032400080727B681A647B681B6C03F48053002BCC
:1032500005D17B681B6C43F001027B681A64002374
:1032600018461037BD4680BD80B483B000AF78608B
:103270007B681B68DB6C18460C37BD465DF8047B29
:103280007047000080B485B000AF786039600023DB
:10329000BB607B6893F83C30012B01D1022313E122
:1032A0007B68012283F83C203B681B68092B25D9E9
:1032B0007B681B68D9683B681B689BB21A4613463B
:1032C0005B0013441E3B072202FA03F3DA437B68D8
:1032D0001B680A40DA607B681B68D9683B689A689B
:1032E0003B681B689BB2184603465B0003441E3BC9
:1032F0009A407B681B680A43DA6022E07B681B689F
:1033000019693B681B689BB21A4613465B0013445D
:10331000072202FA03F3DA437B681B680A401A614A
:103320007B681B6819693B689A683B681B689BB29D
:10333000184603465B0003449A407B681B680A43B7
:103340001A613B685B68062B24D87B681B68596B45
:103350003B685A6813469B001344053B1F2202FA40
:1033600003F3DA437B681B680A405A637B681B6877
:10337000596B3B681B689BB218463B685A681346FA
:103380009B001344053B00FA03F27B681B680A4369
:103390005A634CE03B685B680C2B24D87B681B6845
:1033A000196B3B685A6813469B001344233B1F224A
:1033B00002FA03F3DA437B681B680A401A637B68EE
:1033C0001B68196B3B681B689BB218463B685A68C0
:1033D00013469B001344233B00FA03F27B681B68EF
:1033E0000A431A6323E07B681B68D96A3B685A6802
:1033F00013469B001344413B1F2202FA03F3DA43B6
:103400007B681B680A40DA627B681B68D96A3B6884
:103410001B689BB218463B685A6813469B001344CE
:10342000413B00FA03F27B681B680A43DA62294BCE
:10343000FB607B681B68284A93420FD13B681B687E
:10344000122B0BD1FB685B6823F40002FB685A6007
:10345000FB685B6843F48002FB685A607B681B680A
:103460001D4A93422BD13B681B681C4A934203D0F0
:103470003B681B68112B22D1FB685B6823F4800238
:10348000FB685A60FB685B6843F40002FB685A60A3
:103490003B681B68114A934211D1114B1B68114ABA
:1034A000A2FB03239A0C13469B0013445B00BB60F2
:1034B00002E0BB68013BBB60BB68002BF9D17B68B5
:1034C000002283F83C20002318461437BD465DF8DF
:1034D000047B7047002301400020014012000010CF
:1034E0002802002083DE1B4380B485B000AF7860E3
:1034F000794BFB60FB685B6823F44032FB685A60E1
:10350000FB685A687B685B681A43FB685A607B6893
:103510001B685A687B681B6822F480725A607B685B
:103520001B6859687B681B691A027B681B680A4321
:103530005A607B681B685A687B681B6822F040727F
:103540005A607B681B6859687B689A687B681B684F
:103550000A435A607B681B689A687B681B6822F480
:1035600000629A607B681B6899687B68DA687B6890
:103570001B680A439A607B689B6A584A934222D030
:103580007B681B689A687B681B6822F070629A608F
:103590007B681B6899687B689A6A7B681B680A432A
:1035A0009A607B681B689A687B681B6822F04052AF
:1035B0009A607B681B6899687B68DA6A7B681B681D
:1035C0000A439A600FE07B681B689A687B681B68F7
:1035D00022F070629A607B681B689A687B681B683F
:1035E00022F040529A607B681B689A687B681B686F
:1035F00022F002029A607B681B6899687B681B7ED8
:103600005A007B681B680A439A607B6893F82030F5
:10361000002B1BD07B681B685A687B681B6842F4D0
:1036200000625A607B681B685A687B681B6822F4DA
:1036300060425A607B681B6859687B685B6A013B23
:103640005A037B681B680A435A6007E07B681B6863
:103650005A687B681B6822F400625A607B681B68AA
:10366000DA6A7B681B6822F47002DA627B681B6886
:10367000D96A7B68DB69013B1A057B681B680A43D2
:10368000DA627B681B689A687B681B6822F40072A8
:103690009A607B681B6899687B6893F830305A029F
:1036A0007B681B680A439A607B681B689A687B6822
:1036B0001B6822F480629A607B681B6899687B684B
:1036C0005B699A027B681B680A439A6000BF1437E3
:1036D000BD465DF8047B7047002301400100000FE8
:1036E00080B584B000AF78607B68002B01D10123E6
:1036F000EDE07B6893F82030DBB2002B02D17868D4
:1037000000F0E9F87B681B681A687B681B6822F088
:1037100002021A60FFF724FCF86012E0FFF720FCB9
:103720000246FB68D31A0A2B0BD97B685B6A43F409
:1037300000327B685A627B68052283F820200123CF
:10374000C5E07B681B685B6803F00203002BE5D1D2
:103750007B681B681A687B681B6842F001021A606C
:10376000FFF7FEFBF86012E0FFF7FAFB0246FB688A
:10377000D31A0A2B0BD97B685B6A43F400327B684F
:103780005A627B68052283F8202001239FE07B6832
:103790001B685B6803F00103002BE5D07B681B7E90
:1037A000012B08D17B681B681A687B681B6842F094
:1037B00080021A6007E07B681B681A687B681B68D8
:1037C00022F080021A607B685B7E012B08D17B6847
:1037D0001B681A687B681B6842F040021A6007E0A9
:1037E0007B681B681A687B681B6822F040021A60BD
:1037F0007B689B7E012B08D17B681B681A687B68FD
:103800001B6842F020021A6007E07B681B681A6898
:103810007B681B6822F020021A607B68DB7E012B2C
:1038200008D17B681B681A687B681B6822F010024D
:103830001A6007E07B681B681A687B681B6842F0A7
:1038400010021A607B681B7F012B08D17B681B6804
:103850001A687B681B6842F008021A6007E07B6800
:103860001B681A687B681B6822F008021A607B6874
:103870005B7F012B08D17B681B681A687B681B681B
:1038800042F004021A6007E07B681B681A687B68D4
:103890001B6822F004021A607B689A687B68DB6808
:1038A0001A437B681B691A437B685B6942EA030120
:1038B0007B685B685A1E7B681B680A43DA617B6819
:1038C00000225A627B68012283F8202000231846D8
:1038D0001037BD4680BD80B483B000AF786000BFB4
:1038E0000C37BD465DF8047B7047000080B487B09C
:1038F00000AF786039607B681B687B617B6893F8F8
:103900002030FB74FB7C012B03D0FB7C022B40F0AE
:10391000C7807B681B68694A934201D0684B7B6112
:103920007B69D3F8003243F001027B69C3F80022BF
:103930007B69634A934211D17B69D3F8003223F447
:103940007C527B69C3F800227B69D3F800223B6874
:103950005B6A1B021A437B69C3F800223B685B6900
:1039600003F01F03012202FA03F3FB607B69D3F823
:103970001C22FB68DB431A407B69C3F81C223B68AE
:10398000DB69002B23D17B69D3F80C22FB68DB4376
:103990001A407B69C3F80C223B68DB6819043B685A
:1039A0005B689BB23A68526919437B69483243F8B5
:1039B00032103B689B6819043B681B689AB23B68ED
:1039C0005B690A4379694833DB000B445A603B6802
:1039D000DB69012B22D17B69D3F80C22FB681A43E7
:1039E0007B69C3F80C223B681B6819043B685B6861
:1039F0009BB23A68526919437B69483243F83210E6
:103A00003B689B6819043B68DB689AB23B685B695A
:103A10000A4379694833DB000B445A603B689B6971
:103A2000002B09D17B69D3F80422FB68DB431A40E1
:103A30007B69C3F8042207E07B69D3F80422FB68A2
:103A40001A437B69C3F804223B681B69002B09D128
:103A50007B69D3F81422FB68DB431A407B69C3F807
:103A6000142207E07B69D3F81422FB681A437B69B0
:103A7000C3F814223B681B6A012B07D17B69D3F87A
:103A80001C22FB681A437B69C3F81C227B69D3F8AC
:103A9000003223F001027B69C3F80022002306E014
:103AA0007B685B6A43F480227B685A620123184674
:103AB0001C37BD465DF8047B704700BF006C0040BA
:103AC0000064004080B584B000AF78607B6893F8F4
:103AD0002030DBB2012B2ED17B68022283F820201C
:103AE0007B681B681A687B681B6822F001021A60F9
:103AF000FFF736FAF86012E0FFF732FA0246FB6889
:103B0000D31A0A2B0BD97B685B6A43F400327B68BB
:103B10005A627B68052283F82020012312E07B682B
:103B20001B685B6803F00103002BE5D17B68002272
:103B30005A62002306E07B685B6A43F400227B68DC
:103B40005A62012318461037BD4680BD80B489B043
:103B500000AFF860B9607A603B60FB6893F8203092
:103B6000FB77FB681B689B68BB61FB7F012B03D065
:103B7000FB7F022B40F0B880BB6903F08063002B11
:103B80000AD1BB6903F00063002B05D1BB6903F0C8
:103B90008053002B00F0A080BB691B0E03F00303D1
:103BA0007B617B69022B07D9FB685B6A43F40002E7
:103BB000FB685A6201239EE001227B699A403B68C0
:103BC0001A60BB689B68002B0DD1BB681B685A0547
:103BD000BB68DB68F96809681A437B6918331B0105
:103BE0000B441A600FE0BB685B68DA00BB689B6837
:103BF0001A43BB68DB68F96809681A437B691833A4
:103C00001B010B441A60FB681968BB681A697B6961
:103C100018331B010B4404331A60BB681B7D012B56
:103C200011D1FB681A687B6918331B0113440433F4
:103C30001B68FA68116843F480727B6918331B01B2
:103C40000B4404331A607B6807331B781A067B68C1
:103C500006331B781B041A437B6805331B781B0251
:103C600013437A68043212781046FA68116843EAFE
:103C700000027B691B010B4403F5C6731A607B6865
:103C800003331B781A067B6802331B781B041A4324
:103C90007B6801331B781B0213437A681278104645
:103CA000FA68116843EA00027B691B010B4403F5C3
:103CB000C4731A60FB681A687B6918331B011344CC
:103CC0001B68FA68116843F001027B6918331B0115
:103CD0000B441A6000230EE0FB685B6A43F4001299
:103CE000FB685A62012306E0FB685B6A43F48022AA
:103CF000FB685A62012318462437BD465DF8047BF1
:103D0000704780B487B000AFF860B9607A603B60FC
:103D1000FB6893F82030FB75FB7D012B03D0FB7D06
:103D2000022B40F0F480BB68002B0ED1FB681B68AF
:103D3000DB6803F00303002B16D1FB685B6A43F4D6
:103D40000012FB685A620123E8E0FB681B681B69EC
:103D500003F00303002B07D1FB685B6A43F40012F6
:103D6000FB685A620123D9E0FB681A68BB681B3301
:103D70001B0113441B6803F004027B689A607B6894
:103D80009B68002B0CD1FB681A68BB681B331B01B6
:103D900013441B685B0DC3F30A027B681A600BE0D7
:103DA000FB681A68BB681B331B0113441B68DB08E4
:103DB00023F060427B685A60FB681A68BB681B335B
:103DC0001B0113441B685B0803F001027B68DA6087
:103DD000FB681A68BB681B331B01134404331B6860
:103DE00003F00F027B681A61FB681A68BB681B331B
:103DF0001B01134404331B681B0ADAB27B689A6107
:103E0000FB681A68BB681B331B01134404331B682F
:103E10001B0C9AB27B685A61FB681A68BB681B016D
:103E2000134403F5DC731B68DAB23B681A70FB6855
:103E30001A68BB681B01134403F5DC731B681A0A7C
:103E40003B680133D2B21A70FB681A68BB681B0169
:103E5000134403F5DC731B681A0C3B680233D2B2BF
:103E60001A70FB681A68BB681B01134403F5DC7306
:103E70001B681A0E3B680333D2B21A70FB681A68CB
:103E8000BB681B01134403F5DE731A683B680433F7
:103E9000D2B21A70FB681A68BB681B01134403F5A1
:103EA000DE731B681A0A3B680533D2B21A70FB68CE
:103EB0001A68BB681B01134403F5DE731B681A0CF8
:103EC0003B680633D2B21A70FB681A68BB681B01E4
:103ED000134403F5DE731B681A0E3B680733D2B236
:103EE0001A70BB68002B08D1FB681B68DA68FB6896
:103EF0001B6842F02002DA6007E0FB681B681A6961
:103F0000FB681B6842F020021A61002306E0FB6890
:103F10005B6A43F48022FB685A62012318461C370F
:103F2000BD465DF8047B704780B485B000AF786013
:103F300039607B6893F82030FB73FB7B012B02D048
:103F4000FB7B022B09D17B681B6859697B681B6866
:103F50003A680A435A61002306E07B685B6A43F4CF
:103F600080227B685A62012318461437BD465DF8EB
:103F7000047B704780B58AB000AF786000237B6215
:103F80007B681B685B693B627B681B685B68FB61E5
:103F90007B681B689B68BB617B681B68DB687B6117
:103FA0007B681B681B693B617B681B689B69FB60C6
:103FB0003B6A03F00103002B7CD0BB6903F00103D3
:103FC000002B23D07B681B6801229A60BB6903F039
:103FD0000203002B03D07868FDF708FD16E0BB69EB
:103FE00003F00403002B04D07B6A43F400637B627C
:103FF0000CE0BB6903F00803002B04D07B6A43F498
:1040000080537B6202E07868FDF7FBFCBB6903F438
:104010008073002B24D07B681B684FF480729A60F9
:10402000BB6903F40073002B03D07868FDF7F4FC40
:1040300016E0BB6903F48063002B04D07B6A43F471
:1040400000537B620CE0BB6903F40063002B04D0D7
:104050007B6A43F480437B6202E07868FDF7E7FC0B
:10406000BB6903F48033002B24D07B681B684FF4BA
:1040700080329A60BB6903F40033002B03D0786868
:10408000FDF7E0FC16E0BB6903F48023002B04D0AD
:104090007B6A43F400437B620CE0BB6903F40023BA
:1040A000002B04D07B6A43F480337B6202E07868A3
:1040B000FDF7D3FC3B6A03F00803002B0CD07B69AF
:1040C00003F01003002B07D07B6A43F400737B627C
:1040D0007B681B681022DA603B6A03F00403002B44
:1040E0000BD07B6903F00803002B06D07B681B68AC
:1040F0000822DA60786800F0F4F83B6A03F0020303
:10410000002B09D07B681B68DB6803F00303002BDE
:1041100002D07868FDF7A5FD3B6A03F04003002B51
:104120000CD03B6903F01003002B07D07B6A43F4EB
:1041300080637B627B681B6810221A613B6A03F014
:104140002003002B0BD03B6903F00803002B06D0A3
:104150007B681B6808221A61786800F0CCF83B6A1B
:1041600003F01003002B09D07B681B681B6903F068
:104170000303002B02D07868FDF77EFD3B6A03F451
:104180000033002B0BD0FB6903F01003002B06D08B
:104190007B681B6810225A60786800F0B6F83B6AAA
:1041A00003F48033002B0BD0FB6903F00803002BD2
:1041B00006D07B681B6808225A60786800F0AFF868
:1041C0003B6A03F40043002B7BD0FB6903F004033C
:1041D000002B72D03B6A03F48073002B08D0FB687D
:1041E00003F00103002B03D07B6A43F001037B62E1
:1041F0003B6A03F40073002B08D0FB6803F0020352
:10420000002B03D07B6A43F002037B623B6A03F41A
:104210008063002B08D0FB6803F00403002B03D05D
:104220007B6A43F004037B623B6A03F40063002B68
:1042300043D0FB6803F07003002B3ED0FB6803F013
:104240007003602B2BD0602B2ED8502B22D0502BFC
:104250002AD8402B19D0402B26D8302B10D0302B09
:1042600022D8102B02D0202B05D01DE07B6A43F012
:1042700008037B6219E07B6A43F010037B6214E061
:104280007B6A43F020037B620FE07B6A43F04003CC
:104290007B620AE07B6A43F080037B6205E07B6A15
:1042A00043F480737B6200E000BF7B681B689A69FF
:1042B0007B681B6822F070029A617B681B6804228D
:1042C0005A607B6A002B08D07B685A6A7B6A1A4363
:1042D0007B685A627868FDF7CBFB00BF2837BD4684
:1042E00080BD80B483B000AF786000BF0C37BD469E
:1042F0005DF8047B704780B483B000AF786000BF86
:104300000C37BD465DF8047B704780B483B000AFC6
:10431000786000BF0C37BD465DF8047B704780B401
:1043200083B000AF786000BF0C37BD465DF8047BFA
:104330007047000080B485B000AF78607B6803F000
:104340000703FB600C4BDB68BB60BA684FF6FF03EA
:104350001340BB60FB681A02BB68134343F0BF63A2
:1043600043F40033BB60044ABB68D36000BF14371A
:10437000BD465DF8047B704700ED00E080B400AFFF
:10438000044BDB681B0A03F007031846BD465DF8C3
:10439000047B704700ED00E080B483B000AF0346BB
:1043A000FB7197F90730002B0BDBFB7903F01F0241
:1043B000074997F907305B09012000FA02F241F83A
:1043C000232000BF0C37BD465DF8047B704700BF5B
:1043D00000E100E080B483B000AF03463960FB71B8
:1043E00097F90730002B0ADB3B68DAB20C4997F9E2
:1043F00007301201D2B20B4483F800230AE03B6875
:10440000DAB20849FB7903F00F03043B1201D2B280
:104410000B441A7600BF0C37BD465DF8047B70472D
:1044200000E100E000ED00E080B489B000AFF8608A
:10443000B9607A60FB6803F00703FB61FB69C3F1B5
:104440000703042B28BF0423BB61FB690433062B3D
:1044500002D9FB69033B00E000237B614FF0FF3290
:10446000BB6902FA03F3DA43BB681A407B699A40DE
:104470004FF0FF317B6901FA03F3D9437B680B40AE
:10448000134318462437BD465DF8047B704700008F
:1044900080B582B000AF78607B68013BB3F1807F6C
:1044A00001D301230FE00A4A7B68013B53600F21CF
:1044B0004FF0FF30FFF78EFF054B00229A60044B50
:1044C00007221A60002318460837BD4680BD00BF8A
:1044D00010E000E080B582B000AF78607868FFF748
:1044E00029FF00BF0837BD4680BD80B586B000AF4C
:1044F0000346B9607A60FB7300237B61FFF73EFFE0
:1045000078617A68B9687869FFF78EFF024697F993
:104510000F3011461846FFF75DFF00BF1837BD4644
:1045200080BD80B582B000AF0346FB7197F90730BC
:104530001846FFF731FF00BF0837BD4680BD80B584
:1045400082B000AF78607868FFF7A2FF0346184694
:104550000837BD4680BD80B582B000AF78607B680B
:10456000002B01D1012314E07B681B79DBB2002B07
:1045700005D17B6800225A717868FCF73DFA7B68A8
:1045800002221A717B6800221A617B6801221A716B
:10459000002318460837BD4680BD80B485B000AF03
:1045A000786039600023FB600023BB607B685B7927
:1045B000012B01D1022350E07B6801225A717B68F4
:1045C00002221A717B681B68196801223B689A40B5
:1045D0007B681B680A431A603B68002B1AD17B6812
:1045E0001B681B6803F00403FB607B681B681B6887
:1045F00003F03803BB60FB68042B27D1BB68382B62
:1046000024D17B681B685A687B681B6842F00102F2
:104610005A601BE07B681B681B6803F48023FB6007
:104620007B681B681B6803F46013BB60FB68B3F511
:10463000802F0BD1BB68B3F5601F07D17B681B6867
:104640005A687B681B6842F002025A607B6801224C
:104650001A717B6800225A71002318461437BD4630
:104660005DF8047B704780B487B000AFF860B96034
:104670007A6000237B6100233B61FB685B79012B3F
:1046800001D1022336E0FB6801225A71FB68022245
:104690001A71FB681B681B687B6140F6FE727B68C1
:1046A00002FA03F3DB437A6913407B61BB681A6843
:1046B000BB685B6813433B613A697B6802FA03F3AA
:1046C0007A6913437B61FB681B687A691A60FB682F
:1046D0001B681968C0227B6802FA03F3DA43FB689F
:1046E0001B680A401A60FB6801221A71FB680022ED
:1046F0005A71002318461C37BD465DF8047B70478D
:1047000080B487B000AFF860B9607A603B60002386
:104710007B61FB681B687B61BB68002B05D17A69F4
:104720007B68134408337B6104E07A697B68134437
:1047300014337B617B691A463B681360002318467B
:104740001C37BD465DF8047B7047000080B586B01D
:1047500000AF78600023BB608E4B1B688E4AA2FBC3
:1047600003239B0A7B617B689B6D3B613B691B68F4
:10477000FB607B68DB6D08229A40FB681340002BCE
:104780001AD07B681B681B6803F00403002B13D04E
:104790007B681B681A687B681B6822F004021A6039
:1047A0007B68DB6D08229A403B699A607B685B6D91
:1047B00043F001027B685A657B68DB6D01229A40F9
:1047C000FB681340002B12D07B681B685B6903F009
:1047D0008003002B0BD07B68DB6D01229A403B6984
:1047E0009A607B685B6D43F002027B685A657B6868
:1047F000DB6D04229A40FB681340002B12D07B68CB
:104800001B681B6803F00203002B0BD07B68DB6D79
:1048100004229A403B699A607B685B6D43F0040216
:104820007B685A657B68DB6D10229A40FB681340F9
:10483000002B43D07B681B681B6803F00803002B28
:104840003CD07B68DB6D10229A403B699A607B68A4
:104850001B681B6803F48023002B18D07B681B683F
:104860001B6803F40023002B08D17B681B6C002B12
:1048700024D07B681B6C786898471FE07B689B6C32
:10488000002B1BD07B689B6C7868984716E07B6890
:104890001B681B6803F48073002B07D17B681B68BF
:1048A0001A687B681B6822F008021A607B681B6C20
:1048B000002B03D07B681B6C786898477B68DB6DA6
:1048C00020229A40FB681340002B00F08F807B6809
:1048D0001B681B6803F01003002B00F087807B68C7
:1048E000DB6D20229A403B699A607B6893F83530F3
:1048F000DBB2052B36D17B681B681A687B681B68A6
:1049000022F016021A607B681B685A697B681B6874
:1049100022F080025A617B681B6C002B03D17B68FC
:104920009B6C002B07D07B681B681A687B681B6830
:1049300022F008021A607B68DB6D3F229A403B69D7
:104940009A607B68002283F834207B68012283F818
:1049500035207B681B6D002B7ED07B681B6D7868D3
:10496000984779E07B681B681B6803F48023002B61
:104970001DD07B681B681B6803F40023002B0DD13E
:104980007B685B6C002B31D07B685B6C78689847E8
:104990002CE000BF28020020B5814E1B7B68DB6B3A
:1049A000002B23D07B68DB6B786898471EE07B6820
:1049B0001B681B6803F48073002B0FD17B681B6896
:1049C0001A687B681B6822F010021A607B6800225C
:1049D00083F834207B68012283F835207B68DB6B09
:1049E000002B03D07B68DB6B786898477B685B6D36
:1049F000002B32D07B685B6D03F00103002B22D0CB
:104A00007B68052283F835207B681B681A687B6801
:104A10001B6822F001021A60BB680133BB607A692F
:104A20009A4207D37B681B681B6803F00103002BC5
:104A3000F2D100E000BF7B68002283F834207B685D
:104A4000012283F835207B68DB6C002B05D07B6866
:104A5000DB6C7868984700E000BF1837BD4680BD22
:104A600080B489B000AF7860396000237B61002397
:104A70003B610023BB610023FB6165E10122FB690F
:104A800002FA03F37B613B681B687A6913403B6160
:104A90003A697B699A4240F054813B685B68022B1B
:104AA00003D03B685B68122B23D1FB69DA087B6873
:104AB000083253F82230BB61FB6903F007039B0007
:104AC0000F2202FA03F3DB43BA691340BB613B6870
:104AD0001A69FB6903F007039B0002FA03F3BA6942
:104AE0001343BB61FB69DA087B680832B96943F894
:104AF00022107B681B68BB61FB695B00032202FA22
:104B000003F3DB43BA691340BB613B685B6803F0A6
:104B10000302FB695B0002FA03F3BA691343BB614A
:104B20007B68BA691A603B685B68012B0BD03B68F5
:104B30005B68022B07D03B685B68112B03D03B6896
:104B40005B68122B30D17B689B68BB61FB695B00A3
:104B5000032202FA03F3DB43BA691340BB613B68EB
:104B6000DA68FB695B0002FA03F3BA691343BB61BD
:104B70007B68BA699A607B685B68BB610122FB69EC
:104B800002FA03F3DB43BA691340BB613B685B681D
:104B90001B0903F00102FB6902FA03F3BA6913432C
:104BA000BB617B68BA695A607B68DB68BB61FB6983
:104BB0005B00032202FA03F3DB43BA691340BB61D3
:104BC0003B689A68FB695B0002FA03F3BA69134316
:104BD000BB617B68BA69DA603B685B6803F080534D
:104BE000002B00F0AE800023FB605D4B5B6C5C4AE9
:104BF00043F4804353645A4B5B6C03F48043FB6083
:104C0000FB68584AFB699B08023352F82330BB61AA
:104C1000FB6903F003039B000F2202FA03F3DB435B
:104C2000BA691340BB617B684F4A934225D07B68C9
:104C30004E4A93421FD07B684D4A934219D07B68FD
:104C40004C4A934213D07B684B4A93420DD07B6809
:104C50004A4A934207D07B68494A934201D10623CE
:104C60000CE007230AE0052308E0042306E0032301
:104C700004E0022302E0012300E00023FA6902F0CD
:104C8000030292009340BA691343BB613549FB6943
:104C90009B080233BA6941F823203A4B1B68BB6179
:104CA0003B69DB43BA691340BB613B685B6803F453
:104CB0008033002B03D0BA693B691343BB61314A8F
:104CC000BB6913602F4B5B68BB613B69DB43BA690F
:104CD0001340BB613B685B6803F40033002B03D0D7
:104CE000BA693B691343BB61264ABB695360254BD4
:104CF0009B68BB613B69DB43BA691340BB613B689E
:104D00005B6803F48013002B03D0BA693B6913433B
:104D1000BB611C4ABB6993601A4BDB68BB613B6992
:104D2000DB43BA691340BB613B685B6803F4001363
:104D3000002B03D0BA693B691343BB61114ABB69BD
:104D4000D360FB690133FB61FB690F2B7FF696AEE5
:104D500000BF00BF2437BD465DF8047B704700BF2D
:104D600000380240003801400000024000040240C8
:104D700000080240000C02400010024000140240F3
:104D800000180240003C014080B485B000AF78605C
:104D90000B467B807B681A697B881340002B02D00E
:104DA0000123FB7301E00023FB73FB7B18461437E0
:104DB000BD465DF8047B704780B483B000AF786077
:104DC0000B467B8013467B707B78002B03D07A8860
:104DD0007B689A6103E07B881A047B689A6100BF54
:104DE0000C37BD465DF8047B704780B483B000AFDC
:104DF00078600B467B807B685A697B881A407B8889
:104E00009A4204D17B881A047B689A6102E07A880E
:104E10007B689A6100BF0C37BD465DF8047B704724
:104E200080B582B000AF0346FB80084B5A69FB880F
:104E30001340002B06D0054AFB885361FB881846B7
:104E400000F006F800BF0837BD4680BD003C0140B9
:104E500080B483B000AF0346FB8000BF0C37BD4673
:104E60005DF8047B7047000080B584B000AF7860C7
:104E700039607B68002B01D10123CAE0674B1B68B6
:104E800003F00F033A689A420CD9644B3A68D2B2E5
:104E90001A70624B1B6803F00F033A689A4201D004
:104EA0000123B6E07B681B6803F00203002B20D0CF
:104EB0007B681B6803F00403002B05D0584B9B68EC
:104EC000574A43F4E05393607B681B6803F0080380
:104ED000002B05D0524B9B68514A43F460439360CA
:104EE0004F4B9B6823F0F0027B689B684C4913434F
:104EF0008B607B681B6803F00103002B44D07B6848
:104F00005B68012B07D1464B1B6803F40033002B71
:104F100019D101237DE07B685B68022B03D07B689D
:104F20005B68032B07D13E4B1B6803F00073002B1B
:104F300009D101236DE03A4B1B6803F00203002BFB
:104F400001D1012365E0364B9B6823F003027B68A7
:104F50005B68334913438B60FEF702F8F8600AE0A0
:104F6000FDF7FEFF0246FB68D31A41F288329342F6
:104F700001D903234DE02A4B9B6803F00C027B68A8
:104F80005B689B009A42EBD1244B1B6803F00F0334
:104F90003A689A420CD2214B3A68D2B21A701F4B2F
:104FA0001B6803F00F033A689A4201D0012330E0F6
:104FB0007B681B6803F00403002B08D0184B9B6828
:104FC00023F4E0527B68DB68154913438B607B68F0
:104FD0001B6803F00803002B09D0114B9B6823F4D6
:104FE00060427B681B69DB000D4913438B6000F056
:104FF0001DF802460A4B9B681B0903F00F03094981
:10500000CB5C22FA03F3084A13600F20FDF764FF1C
:10501000002318461037BD4680BD00BF003C02404B
:1050200000380240A89A0008280200202DE9B04F5D
:1050300090B000AF00237B630023FB6300233B633E
:105040000023BB63594B9B6803F00C03082B0DD066
:10505000082B00F2A180002B02D0042B03D09BE090
:10506000534BBB639BE0534BBB6398E04F4B5B6878
:1050700003F03F037B634D4B5B6803F48003002B1D
:1050800028D04A4B5B689B0900223B627A623B6AEC
:10509000C3F308000021474B03FB01F2002300FB90
:1050A00003F31344434AA0FB0212FA620A46BA62AF
:1050B000FA6A1344FB627B6B0022BB61FA61D7E999
:1050C0000623D7E90A01FBF7ABF802460B46134665
:1050D000FB6353E0354B5B689B0900223B617A61BF
:1050E0003B69C3F3080A4FF0000B52465B464FF092
:1050F00000004FF00001590141EAD261500102461F
:105100000B46B2EB0A0863EB0B094FF000024FF0BD
:1051100000034FEA891343EA98634FEA8812B2EB1F
:10512000080463EB09054FF000024FF00003EB00A9
:1051300043EA5473E20014461D4614EB0A033B6035
:1051400045EB0B037B604FF000024FF00003D7E903
:10515000004529468B02214643EA915321468A02A3
:10516000104619467B6B0022BB60FA60D7E9022328
:10517000FBF756F802460B461346FB630B4B5B6886
:105180001B0C03F0030301335B003B63FA6B3B6BC7
:10519000B2FBF3F3BB6302E0054BBB6300BFBB6B29
:1051A00018464037BD46BDE8B08F00BF003802400A
:1051B0000024F40040787D0180B586B000AF7860AF
:1051C00000233B617B681B6803F00103002B75D053
:1051D000884B9B6803F00C03042B0CD0854B9B6819
:1051E00003F00C03082B12D1824B5B6803F480039D
:1051F000B3F5800F0BD17F4B1B6803F40033002BFA
:105200005BD07B685B68002B57D101230AE27B6887
:105210005B68B3F5803F06D1764B1B68754A43F453
:10522000803313601DE07B685B68B3F5A02F0CD161
:10523000704B1B686F4A43F4802313606D4B1B68EF
:105240006C4A43F4803313600BE06A4B1B68694A75
:1052500023F480331360674B1B68664A23F4802372
:1052600013607B685B68002B13D0FDF779FE386113
:1052700008E0FDF775FE02463B69D31A642B01D99D
:105280000323CFE15B4B1B6803F40033002BF0D00A
:1052900014E0FDF765FE386108E0FDF761FE0246A7
:1052A0003B69D31A642B01D90323BBE1514B1B6823
:1052B00003F40033002BF0D100E000BF7B681B68D3
:1052C00003F00203002B63D04A4B9B6803F00C03EE
:1052D000002B0BD0474B9B6803F00C03082B1CD111
:1052E000444B5B6803F48003002B16D1414B1B68D1
:1052F00003F00203002B05D07B68DB68012B01D093
:1053000001238FE13B4B1B6823F0F8027B681B698C
:10531000DB00384913430B603AE07B68DB68002B05
:1053200020D0354B01221A60FDF71AFE386108E0E3
:10533000FDF716FE02463B69D31A022B01D903235F
:1053400070E12C4B1B6803F00203002BF0D0294BBB
:105350001B6823F0F8027B681B69DB0025491343B7
:105360000B6015E0244B00221A60FDF7F9FD38614F
:1053700008E0FDF7F5FD02463B69D31A022B01D97F
:1053800003234FE11B4B1B6803F00203002BF0D1FA
:105390007B681B6803F00803002B37D07B685B69D0
:1053A000002B16D0154B01221A60FDF7D9FD38618C
:1053B00008E0FDF7D5FD02463B69D31A022B01D95F
:1053C00003232FE10B4B5B6F03F00203002BF0D0A4
:1053D0001CE00A4B00221A60FDF7C2FD38610FE0A5
:1053E000FDF7BEFD02463B69D31A022B08D9032301
:1053F00018E100BF0038024000004742800E4742DB
:105400008A4B5B6F03F00203002BE9D17B681B68BA
:1054100003F00403002B00F097800023FB75834BFF
:105420001B6C03F08053002B0FD10023FB607F4BDC
:105430001B6C7E4A43F0805313647C4B1B6C03F05F
:105440008053FB60FB680123FB75794B1B6803F4F9
:105450008073002B18D1764B1B68754A43F4807318
:105460001360FDF77DFD386108E0FDF779FD024628
:105470003B69D31A022B01D90323D3E06C4B1B6881
:1054800003F48073002BF0D07B689B68012B06D15E
:10549000664B1B6F654A43F0010313671CE07B6892
:1054A0009B68052B0CD1614B1B6F604A43F00403D2
:1054B00013675E4B1B6F5D4A43F0010313670BE0FC
:1054C0005A4B1B6F594A23F001031367574B1B6F4D
:1054D000564A23F0040313677B689B68002B15D0A2
:1054E000FDF73EFD38610AE0FDF73AFD02463B69F3
:1054F000D31A41F28832934201D9032392E04B4BF5
:105500001B6F03F00203002BEED014E0FDF728FD23
:1055100038610AE0FDF724FD02463B69D31A41F2E7
:105520008832934201D903237CE0404B1B6F03F088
:105530000203002BEED1FB7D012B05D13B4B1B6CF5
:105540003A4A23F0805313647B689B69002B68D030
:10555000364B9B6803F00C03082B60D07B689B697B
:10556000022B45D1334B00221A60FDF7F9FC38615C
:1055700008E0FDF7F5FC02463B69D31A022B01D97E
:1055800003234FE0294B1B6803F00073002BF0D17D
:105590007B68DA697B681B6A1A437B685B6A9B01DC
:1055A0001A437B689B6A5B08013B1B041A437B68B8
:1055B000DB6A1B061A437B681B6B1B071B491343E3
:1055C0004B601C4B01221A60FDF7CAFC386108E0F1
:1055D000FDF7C6FC02463B69D31A022B01D903230F
:1055E00020E0124B1B6803F00073002BF0D018E092
:1055F000104B00221A60FDF7B3FC386108E0FDF79C
:10560000AFFC02463B69D31A022B01D9032309E000
:10561000064B1B6803F00073002BF0D101E001235F
:1056200000E0002318461837BD4680BD0038024010
:10563000007000406000474280B400AF164BD3F8C2
:105640008830154A43F47003C2F88830134B1B6846
:10565000124A43F001031360104B00229A600F4B73
:105660001B680E4A23F0847323F4803313600B4BC2
:105670000B4A5A60094B1B68084A23F480231360C5
:10568000064B0022DA60044B4FF000629A6000BFC4
:10569000BD465DF8047B704700ED00E00038024035
:1056A0001030002480B485B000AFF860B9607A6033
:1056B000FB68043BFB60FB684FF080721A60FB687C
:1056C000043BFB60BB6823F00102FB681A60FB68C7
:1056D000043BFB600C4AFB681A60FB68143BFB60F0
:1056E0007A68FB681A60FB68043BFB60FB686FF03C
:1056F00002021A60FB68203BFB60FB681846143707
:10570000BD465DF8047B70470D57000880B582B038
:1057100000AF00233B600E4B1B68B3F1FF3F03D08B
:10572000F4210C48FDF7FBF94FF0500383F3118887
:10573000BFF36F8FBFF34F8F7B6000BF00BF3B682D
:10574000002BFCD000BF00BF0837BD4680BD00BFA6
:105750002C020020047C0008000000000000000073
:10576000074B19680868B0E8F04F80F30988BFF369
:105770006F8F4FF0000080F311887047AFF3008007
:105780001819002000BF00BF08480068006880F3B7
:1057900008884FF0000080F3148862B661B6BFF34A
:1057A0004F8FBFF36F8F00DF00BF000008ED00E0F8
:1057B00000BF00BF80B586B000AF544B1B68544A91
:1057C000934204D140F237115248FDF7A8F94F4BEC
:1057D0001B68514A934204D14FF49C714F48FDF726
:1057E0009EF94F4B1B687B617B692C331B684D4ACC
:1057F000934204D040F257114B48FDF790F97B6972
:1058000038331B68494A934204D04FF4AC7148487E
:10581000FDF785F90023BB60464B3B613B691B7874
:10582000DBB2FB733B69FF221A703B691B78DBB26A
:10583000FB71FB79DBB203F05003DAB23E4B1A7016
:105840003D4B1B78002B04D140F27B113B48FDF708
:1058500066F9FB79DBB2DB4303F05003002B0CD07D
:1058600040F27F113648FDF75AF9BB680133BB603F
:10587000FB79DBB25B00DBB2FB71FB79DBB203F0DF
:105880008003802BF1D0BB68082B03D12D4B002265
:105890001A6004E0BB68C3F107032A4A1360294B6E
:1058A0001B681B02274A1360264B1B6803F4E06346
:1058B000244A1360FB7BDAB23B691A70224B1B68E7
:1058C000214A43F47F0313601F4B1B681E4A43F0B9
:1058D0007F4313601D4B00221A6000F0E7F81C4B59
:1058E00000221A6000F006F91A4B1B68194A43F0AF
:1058F00040431360FFF748FF01F048F9FFF706FF48
:10590000002318461837BD4680BD00BF00ED00E0FB
:1059100071C20F41907C000870C20F41247D0008C5
:1059200008ED00E061570008B87D0008015A000842
:10593000647E000800E400E010190020147F0008D5
:105940009C7F00081419002020ED00E01CED00E011
:105950002C02002034EF00E080B582B000AF4FF0A1
:10596000500383F31188BFF36F8FBFF34F8F7B60BA
:1059700000BF0B4B1B680133094A1360084B1B68BF
:10598000012B09D1074B1B68DBB2002B04D04FF46D
:10599000F4710548FDF7C3F800BF0837BD4680BD68
:1059A0002C02002004ED00E0E480000880B582B005
:1059B00000AF0E4B1B68002B04D140F2EF110C48D6
:1059C000FDF7ADF8094B1B68013B084A1360074B14
:1059D0001B68002B05D100237B607B6883F3118853
:1059E00000BF00BF0837BD4680BD00BF2C020020AD
:1059F0008C81000800000000000000000000000092
:105A0000EFF30980BFF36F8F154B1A681EF0100F6C
:105A100008BF20ED108A20E9F04F10602DE9090041
:105A20004FF0500080F31188BFF34F8FBFF36F8F9B
:105A300001F0ACF84FF0000080F3118809BC196840
:105A40000868B0E8F04F1EF0100F08BFB0EC108AE5
:105A500080F30988BFF36F8F704700BFAFF30080FA
:105A60001819002000BF00BF80B582B000AF4FF012
:105A7000500383F31188BFF36F8FBFF34F8F7B60A9
:105A800000BF00F06FFF0346002B03D0064B4FF022
:105A900080521A6000233B603B6883F3118800BF8B
:105AA00000BF0837BD4680BD04ED00E080B400AF04
:105AB0000B4B00221A600B4B00221A600A4B1B682A
:105AC0000A4AA2FB03239B09094A013B1360044BCA
:105AD00007221A6000BFBD465DF8047B704700BF17
